:02000004080AE8
:1000000000000A0874910A080000060006000501B5
:080010000402D8070000000003
:0400180050810A0801
:1000200009480A4908B5884205D0094A824202D0E7
:10003000121A06F0EFFD0748074A0021121A06F0CF
:10004000F7FD064808BD00BF000000200C8F0A081D
:1000500040020020400200206506002065060020C6
:1000600070B504F07DFD0025054E064CA41BA408C8
:10007000A54200D170BD56F8043B98470135F7E71B
:10008000DC8E0A08FC8E0A0801F010BA08B501F0EF
:1000900039F8BDE8084004F025BD03F093BC03F037
:1000A00091BC03F097BC03F095BC0078B0FA80F0E7
:1000B000400970470123037070471068704708B506
:1000C0000021042005F07FF94FF4FA7004F0B4FC2D
:1000D0000121042005F077F9012008BD1FB5012199
:1000E000022005F070F94FF4FA7004F0A5FC0B49FA
:1000F000684604F09DF86846FFF7E1FF684604F0A3
:100100004DF84FF4FA7004F097FC0021022005F03E
:100110005AF9012005B05DF804FB00BFC9860A0842
:1001200000B58BB0044901A805F048F801A805F016
:1001300023F80BB05DF804FBF005002008B503F0D0
:10014000DEFC000070B58AB004F0CDF94FF4FF7307
:10015000ADF80430FF238DF80730184B05461C78A6
:100160008DF806003CBB04F0D9FE042203680DEBB9
:100170000201DB68984704F01FFE1149064606A8F5
:1001800004F056F80A22294602A804F0D9F802A978
:1001900006A804F04CF90B4904F055F90168304603
:1001A00004F0DFF902A803F0F9FF06A803F0F6FF58
:1001B00020460AB070BD0120FBE700BF30030020DD
:1001C00064810A0887810A0870B58AB004F08BF947
:1001D00040F2FE23ADF80430FF238DF80730184BB2
:1001E00005461C788DF806003CBB04F097FE0422FF
:1001F00003680DEB0201DB68984704F0DDFD11494F
:10020000064606A804F014F80A22294602A804F0BB
:1002100097F802A906A804F00AF90B4904F013F9AB
:100220000168304604F09DF902A803F0B7FF06A864
:1002300003F0B4FF20460AB070BD0120FBE700BF09
:10024000300300208E810A0887810A0810B5044611
:10025000024B036002F0FAFB204610BD1C870A081F
:1002600010B50446FFF7F2FF20464FF40C7105F07D
:1002700034F9204610BD000070B50849054604F069
:10028000F6F8074E044610B10120307070BD2846C4
:10029000044904F0ECF820463470F7E7B1810A080D
:1002A00030030020B6810A0810B50446806808B102
:1002B00003F068F9204610BD1FB500230193039396
:1002C0000C23ADF80430044B0422029301AB03F07D
:1002D00041FB05B05DF804FBBB000A0838B50121FD
:1002E0000B2005F05FF801210B2005F06CF8214D83
:1002F00001210C2005F056F801210C2005F063F8CF
:100300002978BFF35B8F11F001040FD12846FFF766
:10031000CCFE58B12146184803F0AFFB2846FFF742
:10032000C9FE164A1649144805F0D2F800211248B1
:1003300003F0B2FB322004F07FFB124801F044FCD2
:100340004FF4FA7004F078FB0F4801F03DFC702187
:100350000C4801F074FC70210B4801F070FC04F0B3
:100360002BFD0A4904F0FDF804F026FD04F0EDF839
:10037000012038BD44020020480200204002002035
:10038000A9020A08210500202F050020BC810A08C7
:1003900008B503F0D7F8034B1860BDE8084003F038
:1003A000E9BA00BF000600207D227B2102F03BBE9F
:1003B00037B5002489089C4218D08C4200F1040013
:1003C00014D010F8045C8DF8075010F8035C8DF819
:1003D000065010F8025C8DF8055010F8015C8DF89D
:1003E0000450019D42F824500134E4E7012003B099
:1003F00030BD00002DE9F04F4FF000089DB00546DC
:100400000E4604A8C44903F013FF4746B04580F2E6
:10041000D9812B780F2B08D108F102039E4204DC0E
:1004200004F0CAFCBD4904F09CF82C4614F8013BCA
:10043000A3F10E02012A00F2F08008F10202B2429A
:1004400080F2EB800F2B0CBF0127022704F0B4FCD5
:10045000B349814618A803F0EBFE0A22394614A8D6
:1004600003F05BFF14A918A803F0E1FFAD4903F006
:10047000EAFF0168484604F061F814A803F08EFE14
:1004800018A803F08BFEA44908A803F0D1FE237836
:10049000013B052B00F2BE80DFE813F0060056009A
:1004A000C700EB0064018701042E47DDA81C03236D
:1004B0000C2101AAFFF77CFF9B4D07F1FF3948B1E2
:1004C0000C2303FB09F30199EA18E950029B5360DE
:1004D000039B936004F070FC9449824610A803F0DB
:1004E000A7FE0C2303FB09F30422E9580CA805EB33
:1004F000030903F04CFF0CA910A803F098FF8C49E6
:1005000003F0A1FF05460422D9F8041014A803F053
:100510003EFF284614A903F08AFF854903F093FFA4
:1005200005460422D9F8081018A803F030FF18A9CE
:10053000284603F07CFF01685046D9E004F03CFCFB
:100540007C4903F0FBFF65E00C2E6ADD0C2107F10E
:10055000FF3A01FB0AFB784BA81C03EB0B094A4648
:100560000323FFF725FF04F027FC744903F0E6FF9F
:1005700004F022FC704B04221D4653F80B1004F0CB
:10058000D7F804F019FC6A4903F0D8FF04F014FC12
:100590000422D9F8041004F0CBF804F00DFC6449EF
:1005A00003F0CCFF04F008FC0422D9F8081004F092
:1005B000DCF8D9F8041055F80B0005F061FDD9F806
:1005C000081005F05DFD4FF07E5105F0FFFF5C4D1A
:1005D00010B155F82A0001305A4B45F82A00A3F112
:1005E0004C0A53F8042C43F804299A45F9D1524B8C
:1005F000D3F808905968186805F042FD494605F09F
:100600003FFDCAF80000286805F0EEFDCAF8089022
:10061000CAF8040008A803F0C1FD254608F1010846
:10062000F4E604F0C9FB48498BE7042E1DDDE278AF
:10063000A178237960788DF861208DF862108DF8AB
:1006400063008DF86030189B404D2B606B6004F0A8
:10065000B3FB3F4903F072FF04F0AEFB04227B1EA4
:1006600055F8231004F064F8D4E704F0A5FB3949E9
:1006700067E7042E4BDD0C2107F1FF3B01FB0BFB71
:10068000DFF8DCA003230AEB0B094A46A81CFFF79E
:100690008FFE04F091FB3049054610A803F0C8FD19
:1006A00004225AF80B100CA803F071FE0CA910A834
:1006B00003F0BDFE1E4903F0C6FE82460422D9F8AF
:1006C000041014A803F063FE504614A903F0AFFE13
:1006D000174903F0B8FE82460422D9F8081018A87A
:1006E00003F055FE18A9504603F0A1FE0168284604
:1006F00003F024FF18A803F051FD14A803F04EFDE9
:100700000CA803F04BFD10A803F048FD82E704F0AD
:1007100053FB124915E700BFC9860A08E0810A08A1
:10072000E2810A08F2810A08EC020020EB810A0843
:10073000CB860A08F5810A085402002019820A08AB
:1007400040050020B802002023820A08C4020020CD
:1007500047820A0853820A0879820A0881820A08B5
:1007600008030020042E1CDDE278A178237960784C
:100770008DF861208DF862108DF863008DF860307F
:10078000189B144D07F1FF3945F8293004F014FB8C
:10079000114903F0D3FE04F00FFB042255F8291091
:1007A00060E704F009FB0D49CBE6042E7FF7C6AEE7
:1007B000A81C03230C2101AAFFF7FAFD084D07F13D
:1007C000FF397CE604A803F0E9FC38461DB0BDE81B
:1007D000F08F00BFBC020020A3820A08AC820A0886
:1007E000D40200202DE9F04102F0ACFE00260A27D9
:1007F000DFF888801E4C04F091FB03681B69984762
:1008000048B304F08BFB03685B699847C5B204F0FA
:10081000D3FA1022294603F0AEFE04F0CDFA414689
:1008200003F08CFE2368B3F5AF7F19DA114AD55473
:10083000013323600A2D0ED121680E48FFF7DAFD3F
:10084000002306461A460B490133B3F5AF7F01F882
:10085000012BF9D12260013FCDD13046BDE8F081B6
:100860000023236004F0A8FA034903F067FEE1E7E0
:10087000B404002054030020CF820A08CB860A0863
:1008800038B5134D0021286805F096FEE8B1002127
:10089000686805F091FEC0B10021A86805F08CFEE3
:1008A000B0FA80F464090021E86805F085FE48B1DB
:1008B0000021286905F080FE20B10021686905F05B
:1008C0007BFE00B90234204638BD0124EBE700BFAF
:1008D000540200204FF4FF7330B58BB0ADF80430F4
:1008E000FF238DF807301F4B04461B788DF8060058
:1008F000002B34D004F012FB042203680DEB02013C
:10090000DB68984704F058FA1749054606A803F033
:100910008FFC0A22214602A803F012FD02A906A8B4
:1009200003F085FD114903F08EFD0168284603F0B0
:1009300018FE02A803F032FC06A803F02FFC0A22DE
:10094000214606A803F0FCFC069A0949094801F073
:10095000C2FE06A803F022FC00200BB030BD01202F
:10096000FBE700BF3003002064810A0887810A0882
:10097000EC820A08B804002040F2FE2330B58BB0A8
:10098000ADF80430FF238DF807301F4B04461B7869
:100990008DF80600002B34D004F0C0FA042203685E
:1009A0000DEB0201DB68984704F006FA174905468B
:1009B00006A803F03DFC0A22214602A803F0C0FC71
:1009C00002A906A803F033FD114903F03CFD0168BC
:1009D000284603F0C6FD02A803F0E0FB06A803F0DA
:1009E000DDFB0A22214606A803F0AAFC069A094963
:1009F000094801F070FE06A803F0D0FB00200BB000
:100A000030BD0120FBE700BF300300208E810A08C3
:100A100087810A0800830A08B8040020012910B55C
:100A2000044604D1064903F042FC204610BD0229C9
:100A300001D10449F7E7044903F0FAFBF5E700BFE9
:100A4000340300204403002014830A08B0B501F1E8
:100A5000080386B023F007036D4600AFADEB030D2E
:100A60000C460A460146684606F0D4F800230A22DE
:100A70000DF80430391D684606F022FF044625496A
:100A800007F1080003F0D4FB214607F1080003F04A
:100A9000BDFC7868012C00F10100786009D0022CBF
:100AA00017D007F1080003F079FBAD461837BD46B3
:100AB000B0BD05240A22391D06F002FF164B18802E
:100AC0000138072823D8DFE800F0061012141A1C9A
:100AD0001E200624EEE70121204604F074FC0F4A94
:100AE000B9680F4801F0F7FDDBE70E4AF8E70E4A58
:100AF000F6E70021204604F066FC0C4AF0E70C4AB9
:100B0000EEE70C4AECE70C4AEAE70C4AE8E70C4A45
:100B1000E6E700BF17830A080403002030830A08B1
:100B2000B80400204C830A0884830A08A8830A08B2
:100B3000C7830A08FD830A0829840A085C840A0816
:100B400092840A0870B5224C224D234E204801F0B1
:100B500054FC00283AD104F02FF9294603F0EEFCAA
:100B60003146204601F032FD08B304F025F91B4957
:100B700003F0F7FC20461A4901F024FF20461949EA
:100B800001F020FF2046184901F01CFF20461749BC
:100B900001F018FF2046164901F014FF20461549C0
:100BA00001F010FF2046144901F00CFFCEE704F0DD
:100BB00003F9124903F0D5FC04F0FEF8104903F0E4
:100BC000D0FC41F2883003F037FFBFE770BD00BFB3
:100BD000B8040020AA840A08CD840A08DD840A0823
:100BE000ED840A0801850A0813850A0827850A0882
:100BF0003B850A084E850A085C850A086A850A084A
:100C000082850A0810B504464FF4007200F13001E5
:100C100002F00EF9014B2046236010BD1C870A0824
:100C200070B504460E46154602F0F2F931462046EC
:100C3000012202F05BF920463A2102F00BF9294625
:100C40002046BDE8704002F007BA70B504460E4673
:100C5000154602F0DDF901223146204602F046F940
:100C600020463A2102F0F6F8204629680122BDE824
:100C7000704002F03BB9000070B504460E461546C0
:100C800002F0C6F901223146204602F02FF9204633
:100C90003A2102F0DFF82A462046BDE870400149BB
:100CA00002F017B93F8B0A08F0B507460E46154605
:100CB0001C46ADF5117D04A8FFF7A4FF04A8FFF7BB
:100CC00073FB3A462B4904A8FFF7AAFF32462A498C
:100CD00004A8FFF7A5FF2A46284904A8FFF7A0FFAC
:100CE0002246274904A8FFF79BFF969A254904A8A6
:100CF000FFF796FF979A244904A8FFF791FF989A67
:100D0000224904A8FFF78CFF9B99684603F0CFFAAD
:100D10006A461F4904A8FFF798FF684603F03EFAA9
:100D20009A9A1C4904A8FFF7A7FF04A802F070F9DB
:100D30000122194904A802F0D9F83A2104A802F0C6
:100D400089F8999A154904A802F0C3F804A802F09A
:100D500090F80324124D134E29463046059A01F0AF
:100D6000BAFC08B9013CF7D104A8FFF76FFA0DF5FA
:100D7000117DF0BD94850A0897850A089A850A08AE
:100D80009D850A08A0850A08A3850A08A6850A0881
:100D9000A8850A08AF850A080C860A08B8850A08DB
:100DA000BC850A08B80400202DE9F04F1C4685B028
:100DB000139B05460193149B0E460293159B2046F8
:100DC00031491746DDF83880DDF83C90DDF840A069
:100DD000DDF848B0039305F017FC00284AD14046DF
:100DE000294905F011FC002844D14846264905F060
:100DF0000BFC00283ED1204604F0ECFD20A3D3E9F3
:100E0000002305F0B1F800B3404604F0E3FD1CA355
:100E1000D3E9002305F0A8F8B8B1484604F0DAFD9C
:100E200017A3D3E9002305F09FF870B12946504677
:100E300005F0EAFB48B13146504605F0E5FB20B12C
:100E40003946504605F0E0FBA0B9039B3A461393A0
:100E5000029B31461293019B284611932346CDF8FD
:100E600040B0CDF83C90CDF8388005B0BDE8F04FEB
:100E7000FFF71ABF05B0BDE8F08F00BFAFF30080E9
:100E80009A9999999999B93F0000484270B50446DA
:100E90000E46154602F0BCF801223146204602F00B
:100EA00025F820463A2101F0D5FF2A462046BDE824
:100EB0007040014902F00DB8D2850A082DE9F041D1
:100EC0000024814B0128ADF5147D1C8040F08D80FD
:100ED0007E4801F00FF87D4E002800F0F08030468B
:100EE00001F066F9002800F0EA8003F065FF784918
:100EF00003F024FB6846774903F09AF9DFF8008293
:100F0000754F3378E5B2AB422CD9354403F054FF2A
:100F1000697801340F2994BF4146394603F00EFB2E
:100F200003F04AFF1022697803F025FB697808A8CE
:100F30000F2994BF4146394603F07AF908A968465B
:100F400003F053FA08A803F029F91022697808A8D9
:100F500003F0D1F908A9684603F047FA08A803F09E
:100F60001DF9CEE708A8FFF74DFE0122694604A847
:100F700003F0B2FA04A9594803F0A4F904A803F055
:100F80000DF908A8FFF710FA544904A803F08FF9E7
:100F900004AA534908A8FFF758FE04A803F0FEF876
:100FA0000122504908A8FFF767FE03F02AFD4E49C9
:100FB000024608A8FFF76AFF08A801F05AFF099A3D
:100FC0004A494B4801F087FB08A8FFF73FF96846FC
:100FD00003F0E4F803F0F0FE3E4903F0C2FA4FF4E8
:100FE000FA7003F029FD01206AE00228F2D141489D
:100FF00000F080FF3F4E002861D0304601F0D8F865
:1010000000285CD003F0D8FE3B4903F097FA68460D
:10101000304903F00DF9DFF8E8802F4F3378E5B25F
:10102000AB422CD9354403F0C7FE697801340F294F
:1010300094BF4146394603F081FA03F0BDFE102209
:10104000697803F098FA697808A80F2994BF414697
:10105000394603F0EDF808A9684603F0C6F908A878
:1010600003F09CF81022697808A803F044F908A955
:10107000684603F0BAF908A803F090F8CEE7012219
:10108000694608A803F028FA08A91C4803F01AF9D1
:1010900008A803F083F808A8FFF7B4FD08A8FFF735
:1010A00083F9164904A803F002F904AA0C4908A818
:1010B000FFF7CBFD04A803F071F8022271E70020CE
:1010C0000DF5147DBDE8F08104030020210500200A
:1010D000D9850A08C9860A08CB860A083403002085
:1010E000F8850A08FF850A0807860A0811860A0893
:1010F000B80400202F05002024860A08440300209D
:10110000D6850A082DE9F04FADF51D7D02F042FCB1
:1011100008B902F037FCB34801F06FF9002800F07D
:101120001C81B04801F01EFBFFF732F9FFF75AFBB4
:101130000446FFF72DF902F005FAAB4DAB4B2A78C8
:1011400053F82230834265D2013C012C62D8FFF76C
:101150001FF9FFF795FB2E78751CA84201D00328D4
:101160004ED110AC29462046FFF758FC2046A04936
:1011700003F07DF90746204603F010F8002F3FD119
:101180000C2373439B49CA1851F803809A49D2F83B
:101190000490D2F808A0CA1851F803B051689268B8
:1011A00008910992954AD718D058796804F068FFD9
:1011B000B96804F065FF924B924A53F8263052F812
:1011C00026200B930A92074603F01BFC064629468D
:1011D0002046FFF723FC0B9B0A9A0393099B40468A
:1011E0000193089B0492009352465B464946CDE921
:1011F000065405960297FFF7D7FD204602F0CEFF72
:1012000002F0A0F9784B00F5EA401A78774B3030BD
:1012100043F82200FFF7BCF80120FFF74FFE05203E
:1012200003F00AFC784D0220FFF748FE052003F08A
:1012300003FC2B68754C0A2B40F39280236803F162
:101240003C0603F0DEFB8642C0F093806B680A2BFD
:1012500040F3BF80636803F13C0503F0D2FB854295
:10126000C0F0E880642003F0E7FBFFF709FB20F003
:101270000200012831D06649664803F0F8F860BBE7
:1012800010A8FFF7BFFC10A8FFF78EF861490CA863
:1012900003F00DF860490CAA10A8FFF7D6FC0CA8C3
:1012A00002F07CFF01225D4910A8FFF7E5FC03F086
:1012B000A8FB5B49024610A8FFF7E8FD10A801F063
:1012C000D8FD119A5749474801F005FA504951484D
:1012D00003F000F810A8FEF7B9FFFFF7D1FA0238C3
:1012E000012831D94A49504803F0C1F860BB10A821
:1012F000FFF788FC10A8FFF757F84B490CA802F03D
:10130000D6FF45490CAA10A8FFF79FFC0CA802F0D5
:1013100045FF0222414910A8FFF7AEFC03F071FB24
:101320003F49024610A8FFF7B1FD10A801F0A1FD4A
:10133000119A3C492B4801F0CEF935493A4802F060
:10134000C9FF10A8FEF782FF274A137883F0010334
:1013500013700DF51D7DBDE8F08FFFF7F3FBE3E69D
:10136000236803F1460603F04CFB86423FF666AF66
:101370006CE7214E7168306804F082FEB16804F0B9
:101380007FFE4FF07E5105F021F900283FF45EAF5B
:1013900003F012FD2549064610A802F049FF0A2273
:1013A00001210CA802F0B9FF0CA910A803F03FF826
:1013B0000168304603F0D5F80CA802F0EFFE10A843
:1013C00002F0ECFE0021052003F0FDFF184B236026
:1013D0003CE7636803F1460503F013FB85423FF6E3
:1013E00039AF3FE7B80400202005002000000020AE
:1013F00014830A08EC020020540200200803002095
:10140000BC020020C402002040050020CC020020C5
:1014100053860A0834030020F8850A08FF850A0865
:1014200007860A0811860A084403002043860A0832
:101430009CFFFF7F174D2969E86804F021FE696968
:1014400004F01EFE4FF07E5105F0C0F800283FF476
:1014500009AF03F0B1FC1049054610A802F0E8FE00
:101460000A2202210CA802F058FF0CA910A802F0D1
:10147000DEFF0168284603F074F80CA802F08EFE27
:1014800010A802F08BFE0021062003F09CFF034B06
:101490006360E7E65402002043860A089CFFFF7F52
:1014A0000246014803F0A4BBC54B0A0870B58CB0D6
:1014B00003F082FC4FF4E13103F072FC03F02EFDE7
:1014C0004FF4165103F026FD02F064FA10B902F051
:1014D00051FAF9E702F05EFA0121052003F062FFFC
:1014E0000121062003F05EFF0021102003F05AFFC7
:1014F0000021112003F056FF0121022003F052FFCA
:101500000121042003F04EFF0121072003F04AFFD0
:101510000021052003F057FF0021062003F053FFB0
:101520000021022003F04FFF0121042003F04BFFB4
:101530000021072003F047FF364908A802F078FE93
:1015400008A8FEF7CBFE08A802F028FE324A33496D
:10155000334803F04DFB33493348FFF7A1FF3349CC
:101560003348FFF79DFF334A33492D4803F040FBD2
:1015700032493348FFF794FF32493348FFF790FF71
:10158000324A3349264803F033FB324A3249244871
:1015900003F02EFB31493248FEF78EFE31493248C6
:1015A000FEF78AFE31493248FEF786FEFEF7F0FE6E
:1015B0004FF07E5003F004F903F0FEFB2D4E04467D
:1015C0002D4904A802F034FE0A223168684602F070
:1015D000CAFE694604A802F02AFF284902F033FF38
:1015E00005460A22716808A802F0BDFE08A928462F
:1015F00002F01DFF0168204602F0B3FF08A802F0C8
:10160000CDFD684602F0CAFD04A802F0C7FD0CB08B
:1016100070BD00BFC9860A0843850A0879020A0816
:10162000C54B0A0845010A0859860A08C9010A0873
:1016300066860A081B850A08BF000A08DD000A083A
:1016400073860A083D010A0880860A088D860A0802
:1016500021010A0898860A08DD020A081005002000
:10166000A1860A0820030020AC860A08480500204D
:10167000B5860A08CC020020BB860A08CA860A087A
:10168000F7B52C4F2C4E2D4C2D4D3946304602F0DF
:10169000CFFD30462B4E2246294603F019FF39462E
:1016A000304602F0C5FD22462946304603F010FFC1
:1016B000012002F0A9F84FF40073234E0193234B4D
:1016C00040F25B72009330460F23214900F09CFDED
:1016D0003046204E2246204903F0FAFE30461F498C
:1016E00002F0A6FD22462946304603F0F1FE1C4FCB
:1016F0001C4E0A220B211C4800F05EF90A220C2124
:101700001A4800F059F93946304602F091FD30464A
:10171000174E2246294603F0DBFE3946304602F0DA
:1017200087FD22462946304603B0BDE8F04003F06D
:10173000CFBE00BF53860A083403002040020020B9
:101740009D410A0844030020B8040020DD170A0860
:10175000CD860A0848050020CD290A08D7850A0841
:10176000C9860A0820030020210500202F0500203B
:1017700010050020002330B50D4604468FB003A8A5
:10178000019301F0D3F903A801F0CCF92A462146D0
:1017900003A801F0AAF903A801F05CFE03A801F078
:1017A000D3F90D4A014602AB03A801F00BFB20B1AF
:1017B000029901AA03A801F02BFA019C2046FFF729
:1017C00089F80A2003F038F92046FFF7D5F803A876
:1017D00001F050F90FB030BDDF860A082DE9F04363
:1017E00087B0054602AF0E4665486649144602F0CA
:1017F00071FD03F006F9814603F0DEFA624902F05A
:101800009DFE03F0D9FA4A468046604B38461B6875
:101810005F490093D31703F095F83968404602F00A
:10182000A0FE384602F0BAFC28465A4905F02CFAC8
:1018300038B921463046FFF709F91437BD46BDE8EF
:10184000F0832846544905F01FFA38B9534B1B78EA
:1018500023B121463046FFF78DFFEEE72846504979
:1018600005F012FA8046D0B904F1080323F007030B
:101870006D46ADEB030D02AB22463146184605F02E
:10188000C9F9014600F80480384602F0D1FC384618
:10189000FEF715FC384602F081FCAD46CDE7284640
:1018A000404905F0F1F928B93F49384602F0C0FC3B
:1018B00002F025F928463D4905F0E6F98046B0B921
:1018C00004F1080323F007036D46ADEB030D02ABF3
:1018D00022463146184605F09DF9014600F804807D
:1018E000384602F0A5FC3846FEF7C6FCD2E728468B
:1018F0002F4905F0C9F9E0B9284B93F80080B8F1F9
:10190000000F16D104F1080323F007036D46ADEB79
:10191000030D02AB22463146184605F07BF901461D
:1019200000F80480384602F083FC3846FEF70AFCD3
:10193000B0E728461F4905F0A7F900287FF47DAFDE
:10194000164B1D78002D7FF478AF04F1080323F0C7
:101950000703E846ADEB030D02AB224618463146BD
:1019600005F058F901460555384602F061FC384645
:10197000FEF72AFC384602F011FCC5465DE700BFC1
:1019800048050020E8860A08EB860A0808000020BF
:101990006C05002001850A08ED840A083003002048
:1019A00013850A0827850A0864860A083B850A0801
:1019B0004E850A085C850A0838B50446154608466F
:1019C0002173012103F0EEFC207B012103F0FBFCDD
:1019D00028460121657303F0E5FC607B002103F0DC
:1019E000F2FC204638BD000038B50C4D2978BFF315
:1019F0005B8F11F001040FD12846FEF756FB58B15A
:101A00002146074802F039F82846FEF753FB054AFD
:101A10000549034803F05CFD014838BD440200203D
:101A20004802002040020020A9020A0810B504461E
:101A3000FFF7DAFF2146BDE8104002F03BB870B571
:101A40000E46154604460021007B03F0BCFC06F060
:101A50007E00FFF7EBFF2846FFF7E8FF207B012120
:101A6000BDE8704003F0AFBCF8B50F460646002154
:101A7000007B15461C4603F0A6FC07F07E00FFF72E
:101A8000D5FF2544AC4204D014F8010BFFF7CEFF7C
:101A9000F8E7307B0121BDE8F84003F094BC38B58D
:101AA0000C4605460021007B04F07E0403F08BFC0D
:101AB00044F08000FFF7BAFF0020FFF7B7FF0446AD
:101AC0000121287B03F07FFC204638BD70B5044619
:101AD0000D461646FFF7E3FF40EA06022946204678
:101AE000BDE87040D2B2FFF7AABF70B504460D46FC
:101AF0001646FFF7D4FF20EA060229462046BDE835
:101B00007040D2B2FFF79BBFF8B5044615460F46AA
:101B1000002202211E46FFF792FF04220A212046DE
:101B2000FFF78DFF802214212046FFF7CFFF2A46C2
:101B30003B4612212046FFF797FF03220221204651
:101B4000FFF77DFF41F288350A212046FFF7A7FF06
:101B5000430705D4013DADB2002DF5D104200FE0BF
:101B6000002202212046FFF76AFF44212046FFF7AA
:101B700096FF422130702046FFF791FF70700120E0
:101B8000F8BD10B50F2202210446FFF758FF32209E
:101B900002F052FF02212046FFF781FFC306F9D46D
:101BA00010BD10B528210446FFF779FF00F00303AC
:101BB000032B08D040F0030228212046BDE8104046
:101BC000D2B2FFF73CBF10BD10B50446407B03F016
:101BD00013FC48BB607B012103F0F5FB322002F0CF
:101BE0002BFF204680225421FFF729FF2046A922FF
:101BF0005621FFF724FF204603225821FFF71FFF3D
:101C00002046E8225A21FFF71AFF204640222A21C7
:101C1000FFF715FF20463D222221FFF710FF204647
:101C2000BDE81040FFF7BDBF2046FFF7AAFFD8E789
:101C30004C2108B5FFF733FF00F0700008BD38B540
:101C40000D460446FFF7F4FFA8420CD02046702250
:101C50004C21FFF74AFF204605F070024C21BDE8F9
:101C60003840FFF733BF38BD2DE9F74F07461E4612
:101C700015469DF83080002A42D001F07E01007B9D
:101C800041F08009002103F09EFB4846FFF7CEFE9D
:101C90004FF0000B4FF0010A013DEDB25FFA8BF4FB
:101CA000A54222D9DCB9B8F1000F18D04246D3B210
:101CB000072B61B205D80AFA02F40C43E4B20132F0
:101CC000F5E748460191FFF7B1FE337801990440EA
:101CD00023EA01031C4334700BF1010BDEE7484695
:101CE000FFF7A4FE06F80B00F6E70020FFF79EFEC4
:101CF00001217055387B03B0BDE8F04F03F063BBA2
:101D000003B0BDE8F08F2DE9F04F89B00392DDF804
:101D100054909DF85C200446DDE913568A4600275E
:101D20009DF858B00492B9F1000F3ED099F80080A8
:101D30000022022120460593FFF781FE7F22082121
:101D40002046FFF77CFE08EB0B188022142120466A
:101D5000FFF7BCFE5FFA88F8059B122120469DF82C
:101D60004820FFF781FE42461A212046FFF767FE12
:101D7000524602212046FFF762FEBAF10C0F04D151
:101D800080221A212046FFF7A1FE4FF4FA680821AD
:101D90002046FFF784FE039B184208D1C30702D4F4
:101DA000B8F10108F3D104204DE0C846C0E70C218A
:101DB0002046FFF774FE10F0130F804646D1DDB1C8
:101DC000D6B114212046FFF76AFE337802468342DB
:101DD0003ED330702B4612212046CDF800B0FFF7DD
:101DE00043FF18212046FFF75AFE00F00707B9F11C
:101DF000000F01D089F8007018F0080F2AD15DB3E8
:101E000056B3049B43B33278012A03D1042F25D162
:101E1000092018E022D90FBB023A2946204607AB19
:101E2000D2B2FFF771FE01280DD133781D4415F8A9
:101E3000022C9DF81C309A4210D115F8012C9DF807
:101E40001D309A420AD109B0BDE8F08F0220FAE7AE
:101E50000520F8E70320F6E70120F4E70820F2E781
:101E600010B586B09DF82C40009205949DF828404E
:101E700030220494099C0394089CCDE901340B465C
:101E80000C21FFF740FF06B010BD70B588B00646C4
:101E90001C4615468DF817101AB31B78012B20D954
:101EA00080221C21FFF721FE07238DF81F3000231D
:101EB000CDE902330DF11F03CDE9004301222B468A
:101EC00030460DF11701FFF7CBFF012807D123782A
:101ED000022B08D19DF81F30002B18BF022008B03C
:101EE00070BD0520FBE70220F9E713460A462621CC
:101EF000FFF7CBBF022307B50DF1030201A98DF84F
:101F00000330FFF7F2FF00F0FD00431E5842584136
:101F100003B05DF804FB2DE9F04F502A82460F46CE
:101F200090468BB000F23B8180221C21FFF7DDFD43
:101F300093238DF81C30B8F1000F00F0B9803C7885
:101F4000042C94BF00230123012500260BE09523D8
:101F50008DF81C30B8F1000F00F0AC803C78072CF5
:101F600094BF00230123A8EBC60464B224EAE474FE
:101F7000002B00F0A180882203218DF81E2014F090
:101F8000070218BF012202EBE40212F0FF02E0B2E6
:101F90001AD0002B14BF4FF0030C4FF0040C9445E3
:101FA00094BF01EB0C028A1806F1010EBE44D2B2B6
:101FB0008C4601311EF8019BC9B20DF1280BDC449F
:101FC00091420CF80C9CF3D113B100F1080464B2F7
:101FD0001F2C73DD4FF070039DF81F208DF81D300E
:101FE0009DF81E30504653409DF8202007A95340CD
:101FF0009DF8212053408DF8223007220DF1230354
:10200000FFF782FD0128814640F0C58000238DF84E
:102010001A3003234FF009098DF81B3004940DF199
:10202000220B9DF81A301A2103EB03125046D2B24C
:102030000593FFF704FD0022059B039202930DF127
:102040001A0301930DF11B034A46009350465B4669
:1020500007A9FFF705FF032881464BD11C215046F5
:10206000FFF71DFD810600F1968010F01F0008BFEC
:102070002020A04240F38480431E03F0070213F0A7
:10208000070318BF012344B2C008013018440AAB4B
:102090001844012303FA02F210F80C3C134300F831
:1020A0000C3C95E7972306268DF81C3023465AE70B
:1020B000434649E7434656E7022160E714F0070923
:1020C00018BF4FF00109E3100233DBB204F007023E
:1020D0008DF81A2002EB03128DF81D2007AA9944EF
:1020E00002EB030BC3F109035FFA89F98DF81B308A
:1020F000049496E701284ED1049B20241F2B7FF7E0
:1021000069AF9DF81E30882B3DD103231A46013656
:102110001A443E44D2B219460AA80133014411F8C8
:102120000C1CDBB2934206F8011BF4D19DF81B6036
:10213000032E37D19DF81A40A4BB012259465046C0
:102140000DF11E03FFF7E0FC0128814623D19DF825
:102150001E209BF801309A4227D19DF81F209BF842
:1021600002309A4221D19BF800305A070ED5013532
:10217000EDB2032D96D0042D02D0022D3FF4E7AE30
:102180004FF0060907E002230422C0E705EB4505EE
:102190000135FB723D7048460BB0BDE8F08F4FF043
:1021A0000709F8E74FF00209F5E74FF00809F2E7F1
:1021B00008B501460022FFF7AEFE431E58425841C3
:1021C00008BD38B51D46059B0446036300234363E1
:1021D00002B1826419B104F1380002F07BF8049B6B
:1021E000E0692365069BA4F84C50FF2BB8BFFF2382
:1021F000A4F8543008B1FDF756FFB4F85400FDF7C9
:102200004EFFE06138BD00002DE9FF410446002685
:10221000174698460D4601F019FF0B49E66104F197
:10222000380002F005F80B9B204602930A9B3246C9
:10223000CDE9008329463B46A664FFF7C2FF20464E
:1022400004B0BDE8F08100BFC9860A0810B5044695
:10225000204601F011FE0028FAD0204601F04FFD83
:10226000C0B210BD2DE9F0470546C4698946012773
:10227000FFF7ECFF4FF0000820703C46EB6993F845
:1022800000A00AF0F00A2846FFF7E0FF2646EB69B7
:102290000134985500F07F0303FB07880306A4B2BE
:1022A0001FFA88F84FEAC717EDD4631EBAF1300F52
:1022B00089F8003024D12846EF69FFF7C7FF385569
:1022C0002846EF69FFF7C2FFF41C0236B6B2B855D4
:1022D0000226A4B2B6B2B1462746C14512D228465C
:1022E000FFF7B4FFB5F8543009F10109BB4288BFCC
:1022F000EB691FFA89F988BFD8550137BFB2ECE7FF
:102300000026E7E7A8EB0600B0452CBF06460026EE
:10231000B5F854003444A4B2A0422CBF204600209B
:10232000BDE8F087F7B58C461E461D4607460023DC
:10233000AE4605F07F01BEF17F0F02A888BF41F0D5
:1023400080015C1CBEF17F0F03444FEAD515E4B257
:1023500003F8041C10D8C4F10403D11802F803C018
:10236000C4F10503134401A80532934206D010F8C6
:10237000015B03F8015BF8E72346D9E7721C2244AE
:10238000384601F03FFC054601F0DCF80134786284
:102390003444A8B2231A5842584103B0F0BDE02299
:1023A00010B5C36904461A700022C3695A70C16926
:1023B000022201F027FC204601F098FD01F0C2F84E
:1023C000C4E9090010BD0233F0B5044698B20023F9
:1023D000CD5C4DB1B4F854605F1C864204D9461CF4
:1023E00015543B46B0B2F3E799B2441A224409129D
:1023F00002F8021C02F8013CF0BD38B5044601F0B9
:10240000CCFD002814BF0125002502D1204601F093
:102410006DFD284638BD00002DE9F04786B0044622
:10242000894617461E46DDF838809DF848A0FFF71C
:10243000E4FF0546002840F0C380A16C002940F06D
:1024400087800346B4F84C202046A16B01F016FEAD
:10245000002879D0012323849DF84C30E269042BB5
:1024600040F08180574B186899889B79ADF804102B
:102470008DF806300090C2F805009DF80630BDF8D2
:102480000410D3720C23A2F80910B8F1000F7ED00B
:102490009DF840009DF83C20400140EAC20040F019
:1024A0000600C0B2BAF1000F01D100F0FD001FB16B
:1024B000002E6ED140F08000E269D054226DE169B7
:1024C000581C12120A54E169206D9A1C8854033377
:1024D00049462046E269FFF776FF0346B8F1000F50
:1024E0000BD04146E2692046FFF76DFFE2690346E3
:1024F00011992046FFF767FF034667B1394620462A
:10250000E269FFF760FF03462EB131462046E269DB
:10251000FFF759FF0346053B1021E2699BB22046B5
:10252000FFF700FF01F00EF84FF47A76C4E90900D6
:10253000204601F0A1FC78BB01F004F8A36AC01AA0
:10254000236D73439842F3D9204601F0CFFC33E06A
:10255000684602F0CBFB2B4669462046B4F84C2077
:1025600001F01AFC74E7EC46174B186859681B7A9F
:10257000ACE803008CF800306B4603CBC2F80500D2
:10258000C2F809109CF8003053730E237DE7022037
:1025900088E740F0C0008FE769462046FFF762FEFB
:1025A0000428D1D1E369DE78002ECDD100F0CAFF36
:1025B0000125A06284F82C60284606B0BDE8F087AB
:1025C0000025F9E724870A082B870A087FB501232D
:1025D0000422CDE9043200231A46CDE90233CDE9C5
:1025E0000033FFF719FF07B05DF804FB2DE9F14F49
:1025F000DDF8348004468B4616461F469DF828A019
:102600009DF82C509DF83090FFF7F7FE002850D031
:102610000021B4F85420E06904F00AFB0523594670
:102620002046E269FFF7CFFE6B1E012B15D8238CE5
:10263000E26901339BB223841B121354411CE369EA
:10264000228C89B2023080B25A54B8F1000F04D003
:10265000238C5A1C2284A8F8003000210B188F42CA
:10266000E2699BB20AD9B4F854C09C4506D916F861
:1026700001C0013102F803C089B2EFE7BAF1000FDF
:102680000CBF30213121B9F1000F01D041F0080118
:10269000022D09D141F004012046053B9BB201B057
:1026A000BDE8F04FFFF73EBE012D08BF41F002012B
:1026B000F2E701B0BDE8F08F1FB5089C0394002439
:1026C00002949DF81C4001949DF818400094FFF777
:1026D0008DFF04B010BD7FB50546104614460E466A
:1026E00005F046F800220346CDE90122009231466A
:1026F00022462846FFF7E0FF04B070BD38B5044617
:102700000D46FFF77AFE90B16222E36920461A7007
:102710000222E3695A70E3692A129A70E36904227B
:10272000DD70E16901F06EFA003818BF012038BD94
:1027300038B504460D46FFF760FE90B17222E3699A
:1027400020461A700222E3695A70E3692A129A70CD
:10275000E3690422DD70E16901F054FA003818BF22
:10276000012038BD2DE9F04F87B000AF0446FFF7D8
:1027700044FE8146B0B100F0E5FE4FF47A73226D5D
:1027800006465343A26A821A9A4203D8626A821AA0
:1027900093421BD294F82C304BB1204601F0A6FB9B
:1027A0004FF0000948461C37BD46BDE8F08FC021F8
:1027B000E26920461170E2695370E169022201F07A
:1027C00021FA0123C4E9096684F82C30204601F07F
:1027D00053FB0028E6D0204607F11701FFF742FD22
:1027E00083460028DED0E369A662197801F0F00282
:1027F000302A7DD1D4F830A0BAF1000FD2D097F8AA
:1028000017C0C7F800D003EB0C025578917801EBA4
:1028100005218DB2694605F10802D208A1EBC2027A
:10282000954668460CF10302FA6003EB020E0DEBCD
:102830000502C7F808D07A60D7E901218A4206D09C
:102840000A461EF8018B02F8018BBA60F4E70022F9
:10285000425593F80080F96808F00608ABEB0C02CB
:10286000033AB8F1020FA2EB0502294424D113F870
:1028700001E0194491F801B00CF105012944023A34
:1028800019440BEB0E2BD0474022E3691FFA8BFB58
:102890001A70E36983F80180E3694FEA2B229A708A
:1028A000E369042283F803B02046E16901F0AAF944
:1028B0006662D7F800D075E7B8F1040F15D113F8A8
:1028C00001E0194491F801B00CF105012944023AE4
:1028D00019440BEB0E2BD0475022E3691FFA8BFBF8
:1028E0001A700222E3695A70D6E71944D047E0E72C
:1028F000502A08D19A78D978204601EB022189B272
:10290000FFF7FCFE4EE7402A12D1626B002A3FF42B
:1029100049AFBBF1040F7FF445AF11F0060F7FF410
:1029200041AF9978D87800EB012080B2904739E721
:10293000602A08D19A78D978204601EB022189B221
:10294000FFF7F6FE2EE7702ADFD0902A3FF42AAF79
:10295000C02A0AD1D0221A700022E36920465A7098
:10296000E169022201F04EF91CE7D02A04BF0023DE
:1029700084F82C3016E770B504460E461546FFF76E
:102980003CFDF0B1238C01339BB2C3B12384238C73
:10299000E2691B125371E369228C31469A71E26934
:1029A00007232046FFF70FFDE36982211D540438F9
:1029B000E26983B22046BDE87040FFF7B3BC012353
:1029C000E4E770BD0022FFF7D6BF000038B505462A
:1029D000FFF713FD10B12846FFF7E1FCE86908B1E5
:1029E000FDF761FB05F1380001F0D8FB0A4BAC693B
:1029F0002B607CB16368013B63605BB92368204650
:102A00009B689847A368013BA3601BB923682046D5
:102A1000DB689847284638BDC0870A0810B5054BC3
:102A200004460360037C1BB9406808B100F0D2FF84
:102A3000204610BD50870A0810B50446FFF7EEFF88
:102A40002046142102F049FD204610BD10B5044671
:102A5000024B0360FFF7E2FF204610BD70870A08B3
:102A600010B50446FFF7F2FF2046302102F035FD95
:102A7000204610BD10B5074B04460360037C1BB90C
:102A8000406908B100F0A6FF2046FFF7C7FF2046C7
:102A900010BD00BF60870A0810B50446FFF7EAFFC3
:102AA00020462C2102F019FD204610BD034A026089
:102AB0000022C0E90122C2600274704750870A08F0
:102AC00038B5037C04460D460BB1002038BD406884
:102AD00038B100F087FF0028F7D0C4E901050120D4
:102AE000F4E7084600F06EFFF5E770B5C3680E46E0
:102AF000D11843680446154673B183688B420BD3E3
:102B00006068E3682A463146184404F083F80120DF
:102B1000E2682A44E26070BD2046FFF7D1FF00283A
:102B2000EED1F8E70023C3607047000008B5034604
:102B3000FFF7BCFF034A18461A600022C3E90522CA
:102B4000DA6108BD60870A080346D3E905039842A5
:102B500004D20378012B18BF002070470020704773
:102B600070B513689D68136803F1100414608669DA
:102B7000B4420AD29B698C68A34201DAAB42F2DD0F
:102B8000A342CCBF0020012000E0002070BD2DE951
:102B9000F3410546174600269846089C01F11003AC
:102BA00001930198AB6983421BD982688B689A4272
:102BB00017DAA6420BD1386001AA2846FFF7D0FFEA
:102BC00028B1019BC8F8003002B0BDE8F08101AA2D
:102BD0002846FFF7C5FF284601AA0136FFF7C0FFC8
:102BE000DFE70020F0E7F0B50024013BD1E90176F2
:102BF000F61BA64208DDA34206DD45683D442D5D77
:102C0000013402F8015BF1E700231370F0BD00000E
:102C10001FB5144610236A46FFF7E5FF22466846B3
:102C2000034900F0EFFE431E5842584104B010BD66
:102C30003F8B0A0810B5044600680B4628B101F026
:102C4000D8FBE3680133E36010BD60680028F8D06A
:102C5000D4E90221013A8A4288BF4354F1E77F2830
:102C600070B50C46C1B204D82046BDE87040FFF7ED
:102C7000E1BF01F03F01B0F5006F40F3871641F06E
:102C8000800507D266F03F01C9B22046FFF7D2FFA8
:102C90002946E9E7030B43F0E0012046FFF7CAFFAE
:102CA00006F03F0141F08001EFE700002DE9FF470A
:102CB000002480460F461546A1464E68DFF8C4A0A2
:102CC000B868B0425ADDD8F80430995D9A19002CE2
:102CD0004BD0752905D86D2907D862291ED06629E1
:102CE0001ED02846FFF7A6FF3DE0A1F16E04072C99
:102CF000F7D80FF2080C5CF824F000BF252D0A0865
:102D0000E32C0A08E32C0A08E32C0A08292D0A08F8
:102D1000E32C0A082D2D0A08312D0A080821E0E7C6
:102D20000C21DEE70A21DCE70D21DAE70921D8E7EB
:102D3000311D884217DD02A908460433334412F8D6
:102D4000014F9A4201F8014BF9D1514601AA8DF881
:102D50000C9000F057FE012805D12946BDF804006B
:102D6000FFF77DFF0536002404E05C2904D02846E7
:102D7000FFF760FF0136A3E70124FBE7012004B061
:102D8000BDE8F08734870A087FB50C46154606462D
:102D90000B49104601F09EFAD4E90131C91A2846C0
:102DA000013101F019FA00236A4621463046CDE987
:102DB000013300950393FFF779FF04B070BD00BFA6
:102DC000C9860A082DE9F04389B00546884604A85B
:102DD000124916469946002701F02AFA4B46414609
:102DE0002846009703AAFFF7D2FE044670B1284692
:102DF000039904AAFFF7C8FF044608B90137EDE7B5
:102E0000314604A801F033FB0028F7D004A801F0F4
:102E1000C5F9204609B0BDE8F08300BFC9860A089D
:102E200000230122C3604361028380F82A30704787
:102E30000023C36001230374054B10B503604FF0FA
:102E4000FF33C0E90112C362FFF7EAFF10BD00BF04
:102E500070870A08D0E90223934228BF012310B5E6
:102E60003FBF42685C1CC460D15428BF80F82A3040
:102E700010BD10B54369044643B100EB4303597ECE
:102E800009B1FFF7E7FF6369013B63610022D4E901
:102E90000210636888422ABF5B181A5403F8012C99
:102EA00010BD70B50446D0E9025066682D1A13466D
:102EB00030440A46294600F0C5FD854237BFA36865
:102EC000E368E360012326BFC018E06084F82A307D
:102ED00070BD0EB403B503AA52F8041B0192FFF7AC
:102EE000E0FF02B05DF804EB03B070472DE9F84352
:102EF00004460E46174612B12221FFF7ABFF00250C
:102F0000DFF80881715D06EB0509002974D0D4E96A
:102F100002329A4270D20B0634D501F0F003E02B56
:102F200005F101091DD116F8092002F0C003802B1C
:102F300039D105F1020916F8093003F0C0008028E4
:102F400031D103F03F03920143EA013302F47C6282
:102F50001A4392B241462046FFF7BBFF4D4601356A
:102F6000D0E701F0E003C02B1DD116F8093003F0C3
:102F7000C002802A17D1890101F4F86203F03F03EF
:102F80001A43E7E70D290AD807290CD9A1F108034C
:102F9000052B08D8DFE803F00B231707111D2229A2
:102FA00023D05C2921D02046FFF754FFD7E75C21CE
:102FB0002046FFF74FFF6221F5E75C212046FFF72F
:102FC00049FF6621EFE75C212046FFF743FF6E21B2
:102FD000E9E75C212046FFF73DFF7221E3E75C2132
:102FE0002046FFF737FF7421DDE75C212046FFF71D
:102FF00031FF99F80010D6E72FB12046BDE8F8431D
:103000002221FFF727BFBDE8F88300BF39870A08F0
:10301000426900EB42031A7E12B100221A76704711
:103020002C21FFF717BFF8B543690E460133082B73
:1030300017460ED8FFF7ECFF0125436931465A1CAD
:1030400000EB430342619D76DF76FFF703FF2846DE
:10305000F8BD0020FCE7000037B50446C56A084605
:1030600002F0B8FC002D02460B4608DBCDE9002338
:1030700020462A460549FFF72CFF03B030BD204605
:10308000034903B0BDE83040FFF723BF40870A087B
:1030900045870A082DE9F04F4FF0010C4FF0FF353E
:1030A00004464068D4F800E0964580F0BE8111F8EF
:1030B0000E80B8F1000F00F0B881B8F13A0F00F0BF
:1030C0009B8033D8B8F1220F00F0AD8010D8A8F162
:1030D00009085FFA88F8B8F1170F0DD8C04F0CFA3D
:1030E00008F818EA070F07D0276801372760D9E7E3
:1030F000B8F12C0F00F03681D4F8008042450ED98B
:1031000011F808705FB13A2F00F26E811F2F00F2A4
:1031100052810A2F00F26181082F40F25781002B63
:1031200040F0678108F1FF372760ABE0B8F17B0F13
:103130003AD00AD8B8F15B0F36D0B8F15D0FDBD1C9
:10314000002BD1D04FF0020B06E0B8F17D0FD3D1A8
:10315000002BC9D04FF0010B676807F1FF3803EB74
:103160000719B8F1000F4FDB59F80C7CA9F1100AD0
:10317000013745D059F8087C7E1C41D19AF800905F
:10318000D94545D1A7600EF10107CAF8087003EBD5
:10319000081EDEF8047001373DD0DEF808700137F4
:1031A00039D1C4F808809FE70130002B9CD06768B4
:1031B000099EBE424ED9002607F1010EC4F804E074
:1031C00003EB071ECEE90155CEF80C604FEA071A53
:1031D000A7687E1C1FBF03EB0719D9F80C700137D5
:1031E000C9F80C70B8F17B0F0CBF0127022703F858
:1031F0000A702768CEF804706768013FA76073E71C
:10320000D14608F1FF38ACE7B8F1FF3F7FF46CAF6F
:103210006FF0010020E008F1FF38B8F1FF3FAEF198
:10322000100EB6D160E70EF10109C4F80090D4F891
:103230000080424540F2918011F80870002F00F0A4
:103240008C80222F2ED1EBB16768099EBE4205D833
:10325000C4F800E04FF0FF30BDE8F08F00264FF0DB
:10326000030A07F1010E4FEA071803EB0717C4F82A
:1032700004E0C7E90155FE60D4F800E003F808A0B7
:10328000C7E9019EA76801307E1C3FF42DAF002BDB
:103290003FF42AAF03EB071EDEF80C700137CEF8BF
:1032A0000C7021E75C2F11D108F10107BA420DD94A
:1032B0002760CF5D752F2BD86D2F0BD8662F27D8A1
:1032C0005B2F1DD8222F01D02F2F21D12768013746
:1032D0002760ACE76E3F072F1AD801A656F827F0F3
:1032E000CD320A0811330A0811330A0811330A08CB
:1032F000CD320A0811330A08CD320A0817330A08FA
:1033000040F241465C3FFFB20CFA07F73742DDD18D
:10331000C4F800E07CE74FF0040A08F102072760D8
:10332000D4F80080424503D82768013F2760CDE7E5
:1033300011F80870002FF7D0A7F1300BBBF1090F7F
:1033400004D927F02007413F052FE1D808F10107F4
:10335000BAF1010A2760E3D1E6E7C4F800E06FF0B4
:10336000020079E7002B3FF4BFAEA7687E1C3FF454
:10337000BBAE3F01DF5D013F012F7FF6B5AE676851
:1033800007F1FF3803EB071EB8F1000FFFF6ACAEF4
:103390001EF8107C013F012F08D85EF80C7C013725
:1033A00004D05EF8087C01373FF4FBAE08F1FF382B
:1033B000AEF1100EE8E7A7F120090A4E5FFA89F98D
:1033C0000CFA09F919EA060F7FF4A9AE203F5E2F27
:1033D0009ED808F1010727608EE60D2FF6D19EE6F4
:1033E000130080000110000407F0DF09B9F15D0F40
:1033F000F4E76768099EBE427FF62AAF00264FF0C9
:10340000040A07F101084FEA071903EB0717C4F88C
:103410000480C7E90155FE60D4F8008003F809A0D4
:10342000C7E901E82768013F7EE6002B3FF414AFAF
:103430006268511E03EB02130029FFF60DAF53F82B
:103440000C2C013203D053F8082C013287D00139FB
:10345000103BF1E7F7B5C268044612B9002003B08B
:10346000F0BD436900F12006ABB10021C0E90811AD
:103470004FF0FF318162C169009141683046FFF72A
:1034800009FE431C2CD1257C002DE7D1606900F09A
:10349000A1FA6561E56100254FF0FF372B46304604
:1034A000C4E90855E2686168A7620095FFF7F2FD7C
:1034B0000028D3DBE0611BD0000100F083FAE26951
:1034C0000346606100923046C4E90855E2686168CD
:1034D000A762FFF7DFFD636903EB0013A36105E05B
:1034E0000028BBDB636903EB0010A0610120B6E795
:1034F0006369F3E708B5024B1B689B68019308BD3D
:10350000B001060808B5024B1B68DB68019308BDD3
:10351000B001060808B5024B1B681B69019308BD82
:10352000B001060808B5024B1B685B69019308BD32
:10353000B001060808B5024B1B685B68019308BD23
:103540009C01060808B5024B1B685B69019308BD26
:103550009C01060808B5024B1B689B6D019308BDD2
:103560009C01060808B5024B1B685B6E019308BD01
:103570009C01060808B5024B1B685B6C019308BDF3
:10358000D001060808B5024B1B689B6C019308BD6F
:10359000D001060808B5024B1B68DB6C019308BD1F
:1035A000D001060808B5024B1B685B6D019308BD8E
:1035B000D001060808B5024B1B689B69019308BD42
:1035C000C401060808B5024B1B685B6A019308BD7D
:1035D000C401060808B5024B1B689B6A019308BD2D
:1035E000C401060808B5024B1B68DB6A019308BDDD
:1035F000C401060808B5024B1B681B6B019308BD8C
:10360000C401060808B5024B1B685B6B019308BD3B
:10361000C401060808B5024B1B689B6B019308BDEB
:10362000C401060808B5024B1B681B6C019308BD5A
:10363000C401060808B5024B1B68DB6C019308BD8A
:10364000C401060808B5024B1B681B6E019308BD38
:10365000AC01060808B5024B1B685B6E019308BD00
:10366000AC01060808B5024B1B689B6E019308BDB0
:10367000AC01060808B5024B1B68DB6E019308BD60
:10368000AC01060808B5024B1B681B6F019308BD0F
:10369000AC01060808B5024B1B685B6F019308BDBF
:1036A000AC01060808B5034B1B68D3F880300193C2
:1036B00008BD0000AC01060808B5024B1B681B687A
:1036C000019308BDBC01060808B5024B1B685B6886
:1036D000019308BDBC01060808B5024B1B689B6836
:1036E000019308BDBC01060808B5024B1B68DB68E6
:1036F000019308BDBC01060808B5024B1B681B6995
:10370000019308BDBC01060808B5024B1B681B6A83
:10371000019308BDBC01060808B5024B1B681B6B72
:10372000019308BDBC01060808B5024B1B685B6C21
:10373000019308BDBC01060808B5024B1B681B6855
:10374000019308BDB401060808B5024B1B685B690C
:10375000019308BDB401060808B5024B1B68DB697C
:10376000019308BDB401060808B5024B1B681B6A2B
:10377000019308BDB401060808B5024B1B681B681D
:10378000019308BDD801060808B5024B1B685B68A9
:10379000019308BDD801060808B5024B1B681B69D8
:1037A000019308BDD801060808B5024B1B685B6988
:1037B000019308BDD801060808B5024B1B689B6938
:1037C000019308BDD801060808B5024B1B68DB69E8
:1037D000019308BDD801060808B5024B1B681B6A97
:1037E000019308BDD801060808B5024B1B685B6C45
:1037F000019308BDC001060808B5024B1B689B6C0D
:10380000019308BDC001060808B5024B1B681B6D7B
:10381000019308BDC001060808B5024B1B685B6F29
:10382000019308BDC001060808B5024B1B681B6D5B
:10383000019308BDA801020808B5024B1B681B686C
:10384000019308BDA401060808B5024B1B685B681C
:10385000019308BDA401060808B5024B1B685B690B
:10386000019308BDA401060808B5024B1B689B6DB7
:10387000019308BDA401060808B5034B1B68D3F8E3
:103880009030019308BD0000A401060808B5034B61
:103890001B68D3F89C30019308BD0000A401060802
:1038A00008B5034B1B68D3F8B430019308BD000082
:1038B000A401060808B5024B1B685B68019308BDAC
:1038C000C801060808B5024B1B689B68019308BD38
:1038D000C801060808B5024B1B68DB68019308BDE8
:1038E000C801060808B5024B1B681B69019308BD97
:1038F000C801060808B5024B1B685B69019308BD47
:10390000C801060808B5024B1B689B69019308BDF6
:10391000C801060808B5024B1B68DB69019308BDA6
:10392000C801060808B5024B1B681B6A019308BD55
:10393000C801060808B5024B1B681B6B019308BD44
:10394000C801060808B5024B1B685B6B019308BDF4
:10395000C801060808B5024B1B681B68019308BD27
:10396000CC01060808B5024B1B685B68019308BDD3
:10397000CC01060808B5024B1B689B68019308BD83
:10398000CC01060808B5024B1B68DB68019308BD33
:10399000CC01060808B5024B1B685B69019308BDA2
:1039A000CC01060808B5024B1B681B6B019308BDD0
:1039B000CC01060808B5024B1B68DB6B019308BD00
:1039C000CC01060808B5024B1B681B68019308BDB3
:1039D000A001060808B5024B1B685B68019308BD8F
:1039E000A001060808B5024B1B689B68019308BD3F
:1039F000A001060808B5024B1B681B69019308BDAE
:103A0000A001060808B5024B1B685B69019308BD5D
:103A1000A001060808B5024B1B689B69019308BD0D
:103A2000A001060808B5024B1B68DB69019308BDBD
:103A3000A001060808B5024B1B681B6A019308BD6C
:103A4000A001060808B5024B1B685B6A019308BD1C
:103A5000A001060808B5024B1B681B6B019308BD4B
:103A6000A001060808B5024B1B685B6C019308BDFA
:103A7000A00106088068FFF795BD70B500260446D2
:103A80000D4640F8086FFFF775FD28462570FFF7D3
:103A900063FE2046666070BD38B504460D468068FA
:103AA000FFF778FD20782946FFF746FE2046FFF70E
:103AB000E1FF38BD08B50078FFF746FEC0B208BD8B
:103AC00010B50446006818B1FFF784FF0023236097
:103AD00010BD10B50446FFF7F3FF204610BD07B533
:103AE0000B4600210246009101208C21FFF7D8FEF1
:103AF00003B05DF804FB01460020FFF7F0BF002093
:103B0000FFF7F9BF0222002010B5084B084C1A60DD
:103B1000084B2060A080A071A360FFF795FE2046AF
:103B2000BDE81040044A054901F0D2BC64050020FC
:103B3000580500200000FFFF40020020D33A0A0889
:103B400010B5044603F014FE431E2046234483426E
:103B500006D90278197800F8011B03F80129F6E765
:103B600010BD70B50C46911E222922D8254668B199
:103B7000B0FBF2F602FB1600C1B2092894BF303147
:103B80005731C9B2304605F8011BF0E72A4630210B
:103B90002344934202D902F8011BFAE75A1BAB42B5
:103BA00038BF002200232046AB54FFF7C9FF204650
:103BB00070BD0020FCE738B5031E0C4615460DDA33
:103BC0002D22B3F1004F0CBF1846584201230A7052
:103BD0002A461944FFF7C5FF204638BD0123F9E7FF
:103BE00008B50123FFF7BDFF08BD13B503688DF8C5
:103BF0000710DC6B012247F230530DF10701A0479B
:103C000002B010BD10B40368DC6B47F23053A44619
:103C100010BC604713B5134602688DF80710D46BCB
:103C20000DF107010122A04702B010BD7047704797
:103C300010B50446064B0846994204F10C0404D022
:103C400001F050FC002808BF0024204610BD00BF32
:103C5000B0870A0810B50446AC2101F03EFC2046AE
:103C600010BDFCF71EBA000038B50B4B8469054641
:103C700003607CB16368013B63605BB923682046E5
:103C80009B689847A368013BA3601BB92368204643
:103C9000DB689847284638BDC0870A0810B5044637
:103CA000FFF7E2FF20461C2101F017FC204610BD63
:103CB00070B5044606464D69044B8C3544F8043B08
:103CC0000FCD0FC42B683046237070BD44880A089E
:103CD00010B543690446B3F88620B3F884309A429D
:103CE00005D06369B3F884201344187910BD0368C4
:103CF0001B6998470028F4D14FF0FF30F6E710B564
:103D000043690446B3F88620B3F884309A4208D059
:103D10006369B3F88420511CA3F884101344187904
:103D200010BD03681B6998470028F1D14FF0FF30A0
:103D3000F6E7F8B543691746B3F88620B3F8843040
:103D400005469A420E4616D069693046B1F884306D
:103D5000B1F88640E41ABC4228BF3C4604332246F0
:103D6000194402F057FF6A69B2F884302344A2F87C
:103D700084302046F8BD03681B6998470028E3D1CA
:103D80004FF0FF34F5E700234269A2F8843042691E
:103D9000A2F88630704700002DE9F0431F46036803
:103DA0008BB0DB6A05460C4616469847384601F04C
:103DB0009DFA0368DB689847002854D033460622F2
:103DC000012102200097D5F81480FFF785FC2023FD
:103DD000C8F800004FF00008CDE902386B690120F7
:103DE0001B6823490193234B02AA00934346FFF724
:103DF0001BFD6B691868FFF767FC002833D0284665
:103E0000FFF7C1FF0223ADF80830E37976BA8DF8E9
:103E10000C30A3794FF4FA508DF80D306379ADF87A
:103E20000A608DF80E3014F8043F8DF80F30FFF75C
:103E3000DBFC6B6906461022186802A9FFF754FCE8
:103E400081463046FFF7D0FC0FCC6E698C360FC62A
:103E5000236833702F61B9F1000F07D02B68284613
:103E6000DB6A984740460BB0BDE8F0830120FAE7D3
:103E700078870A087F870A0838B542690446B2F88D
:103E800086302BB1B2F884209A4201D1FFF77BFF34
:103E9000206901F02BFA0368DB689847F8B1636981
:103EA0001868FFF711FCD0B16069B0F886107F295F
:103EB00015D8051DC1F18002002300682944FFF7D1
:103EC0001BFC00280BDD6369B3F886200AB9A3F850
:103ED00084206369B3F886201044A3F886006369E0
:103EE000B3F88600B3F88430C01A38BD38B54369DA
:103EF00004461868FFF7E8FB18B163691868FFF714
:103F000003FC6569FFF708FC286060691122002145
:103F10008C3002F08DFE2046BDE83840FFF733BFFD
:103F200010B5436904461868FFF7CEFB08B90020B6
:103F300010BD206901F0DAF90368DB6898470028B2
:103F4000F5D063691868FFF7B7FBB0FA80F0400955
:103F5000EEE708B5FFF7E4FF003818BF012008BD01
:103F60002DE9F3410027476004460D461646984662
:103F7000FFF7D6FF70B1CDE9008760693B46324656
:103F800029460068FFF7D0FB002800DA606002B025
:103F9000BDE8F0814FF0FF30F8E770B50546FFF758
:103FA000BFFFE8B96B69B3F88610B3F8842091427B
:103FB00016D11868FFF788FB08B9002070BD6B693F
:103FC0001868FFF779FB01280446F6D12B682846CC
:103FD0001B69984730B92B682846DB6A9847ECE79D
:103FE0000120EBE72046E9E7002310B50446016015
:103FF000C0F88430883000F02DFE204610BD00004F
:10400000F8B54FF47A720023C0E901320D4A03611A
:10401000026043610446AC200E46FCF73EF8051EE4
:1040200005F10C0708D00123C5E90133064B3146E1
:1040300038462B60FFF7D8FF2046C4E90575FFF727
:10404000A2FEF8BDC0870A089C870A0810B504467E
:10405000FFF762FB01462046FFF7D2FF204610BD66
:1040600010B504460068FFF72FFB10B12068FFF77A
:104070004BFB204610BD0C30FFF7F2BF2DE9F0439B
:104080001F4603688FB0DB6A06460D469046984788
:10409000134801F0DEF8F0B102A800F0DBFD28467D
:1040A00003F066FB002481B23B462846009403AA35
:1040B000FFF7A2FB90B9336809ADD3F82090094B04
:1040C00003AC08930FCC0FC5236842462B703046D3
:1040D0003B4608A9C8470FB0BDE8F0832046FAE781
:1040E000F805002044880A082DE9F04707460D46E8
:1040F00016461C46002200233846294601F034FFAC
:1041000020B12D2305F1004504F8013B00234FF0B9
:10411000010A0A22D9B28E4203D902FB0AFA0133FC
:10412000F8E7504601F044FC3A462B4601F0AAFC61
:104130008046894602F0BEFA05460F4601F06CFC47
:1041400002460B464046494601F0E4FA0022124B73
:1041500001F01EFF10B1013547F100075246284615
:104160003946D31702F05AFA0123154621460A228E
:10417000FFF7F7FC6EB1204603F0FAFA2E23211860
:1041800023540A2233462846BDE8F0470131FFF7A1
:10419000E8BCBDE8F08700BF0000E03F10B5044672
:1041A0000068FFF717FC204610BD10B504460068F4
:1041B00008B1FFF70FFC0023C4E90133236010BDF1
:1041C00038B504460D4600680131FFF70BFC10B10D
:1041D000C4E90005012038BD10B50368044623B1C9
:1041E00043688B4201D3012010BD2046FFF7E8FF52
:1041F0000028F9D0A368002BF5D122681370F2E7EC
:1042000070B50E46114604461546FFF7E5FF20B986
:104210002046FFF7CAFF204670BD2A463146206877
:10422000A56002F0F7FC00212268A368D154F2E7F0
:1042300038B5002304460D46C0E90033836003739C
:1042400039B1084603F094FA294602462046FFF7A2
:10425000D7FF204638BD38B5054600680C4668B122
:104260006A688B689A4207D3096802F017FDA36851
:10427000AB600023A36038BDFFF7ACFB23682B6065
:1042800063686B60A368AB600023C4E90033F1E7A7
:10429000884210B50B46044604D0096821B19A68DB
:1042A000FFF7AEFF204610BDFFF77FFFFAE70023C0
:1042B00010B50446C0E9003383600373FFF7E8FFDD
:1042C000204610BD884210B5044601D0FFF7C3FF59
:1042D000204610BD38B505460C4649B1084603F0E6
:1042E00047FA214602462846FFF78AFF284638BD8E
:1042F000FFF75BFFFAE71FB5044600230846C4E951
:104300000033A360237301A9FFF76AFC204601A9CB
:10431000FFF7E0FF204604B010BD10B500230446AF
:104320008AB0C4E90033A3602373084601A9FFF7EC
:1043300042FC204601A9FFF7CDFF20460AB010BD80
:1043400010B5002304468AB0C4E90033A360237388
:10435000084601A9FFF744FC204601A9FFF7BAFF70
:1043600020460AB010BD10B5002304468AB0C4E947
:104370000033A36023730846012301A9FFF7F1FB73
:10438000204601A9FFF7A6FF20460AB010BD002372
:1043900030B504468BB0C0E9003383600373D5B2F7
:1043A000084601F017FB2A4601ABFFF79DFE2046A9
:1043B00001A9FFF78FFF20460BB030BD70B5054651
:1043C0000E4609B9002070BD6AB1846814442146C4
:1043D000FFF702FF0028F5D02868AB683146184483
:1043E00002F05CFCAC600120EDE78A680968FFF729
:1043F000E5BF002307B501228DF8041001A98DF84F
:104400000530FFF7DBFF03B05DF804FB13B50A22AC
:10441000044608466946FFF7CEFB684603F0A8F954
:10442000694602462046FFF7C9FF02B010BD10B52D
:104430008A6809680446FFF7C1FF10B92046FFF7F4
:10444000B4FE204610BD38B504460D4621B92046BD
:10445000FFF7ABFE204638BD084603F089F9294630
:1044600002462046FFF7AAFF0028F0D0F2E708B581
:1044700082683AB921B10878B0FA80F0400900E0CA
:10448000012008BD006809B90078F5E702F0FCFBDF
:10449000F2E70000F8B51D469A4288BF13460F4662
:1044A000144688BF2C460B4988BF1D460646FFF7B9
:1044B000BFFEBA68A2420AD33968AA4294BFC4EBCD
:1044C0000202C4EB050230462144FFF799FE304654
:1044D000F8BD00BFC9860A0810B504468B68FFF70F
:1044E000D9FF204610BD006808B102F08BBA7047B2
:1044F000F8B506460D4600248F18BD420CD033682F
:1045000030469B6815F8011B9847031E01DB1C44CD
:10451000F3E7002C08BF1C462046F8BD70B50546E1
:104520000C46084649B103F023F92B6802462146A0
:104530002846BDE87040DB68184770BD08B5FFF736
:10454000EDFF08BD03689B68184738B50D21054687
:10455000FFF7F8FF0A2104462846FFF7F3FF20443F
:1045600038BD38B50546FFF7D9FF04462846FFF7A2
:10457000ECFF204438BD0023012A98BF0A2230B541
:104580008BB00C468DF8243009A92546B4FBF2F413
:1045900004FB1253DBB2092B94BF30333733DBB249
:1045A000AA4201F8013DF0D9FFF7B8FF0BB030BDCA
:1045B0002DE9F74F05461946104692461F469DF8CD
:1045C000306001F0F9FC40B150492846FFF7A6FFE2
:1045D0000446204603B0BDE8F08F27F000444FF0BA
:1045E000FF32504621464A4B01F0E6FC48B94FF0F5
:1045F000FF3250462146464B01F0C0FC08B9454900
:10460000E3E74FF0604250463946434B01F0CAFCA5
:1046100008B14249D9E74FF0604250463946404B15
:1046200001F0A2FC0028F4D10022002350463946B4
:1046300001F09AFC044630B12D212846FFF782FF95
:10464000044607F100474FF0000B00204FF0000830
:104650003449DFF8D8905FFA8BF39E4206D9424680
:104660004B4601F039FB0BF1010BF4E73B46524698
:1046700001F052F88946804601F0DCFC074601F063
:1046800087F902460B464046494601F043F80A22A4
:104690008046894628463946FFF76DFF044426B117
:1046A00028462149FFF73AFF04444FF0000ADFF89B
:1046B0007CB0013EF6B2FF2E8BD052465B464046A0
:1046C000494601F0DFF98046894601F08BFC071E60
:1046D00019DA2D212846FFF735FF034679420A22D1
:1046E00028460193FFF747FF019B034438461C44CB
:1046F00001F05EF902460B464046494601F00AF8D1
:1047000080468946D5E739460023E8E704880A0849
:10471000FFFFEF7F08880A08FFFFEF410C880A08B7
:10472000FFFFEFC10000E03F92850A08000024402F
:1047300037B505461446084601F04CF9E4B2024686
:104740000B4628460094FFF733FF03B030BD37B562
:104750009DF8181005460091FFF72AFF04462846E9
:10476000FFF7F3FE204403B030BD37B504460846DA
:10477000154601F02FF9009502460B462046FFF73B
:10478000E6FF03B030BD002340681A461946FFF724
:10479000B1B80000014B024A1A607047680500205A
:1047A00010880A0808B50020FFF7FCF828B1FFF7C9
:1047B000F1F880F00100C0B208BD0120FCE7000064
:1047C00010B50A49044601F001FF68B920460849BE
:1047D00001F01AFF40B90749204601F059FD01F0E8
:1047E00035FF054BC3E9000110BD00BF000040C10B
:1047F00000006041000061458005002030B504469E
:10480000184893B0D0E90010521840EB0303164843
:104810000025D0E90010521840EB0303CDE9002336
:10482000242200210DEB020002F002FA09A96846D9
:1048300002F0FAF81622294603A8029502F0F8F9C8
:1048400002A909A802F0B8F802A802F091FF12AB81
:10485000184400F8415C02A92046FFF7E9FC204615
:1048600013B030BD80050020780500202DE9F04F01
:10487000A5B00746884614A811463F221D4602F0FF
:1048800091FF002314A88DF88F3002F071FF0446C9
:104890005DBB2A4903A802F001FA002514AE04F119
:1048A000FF3BAB4536D9B14619F8013B05F1010A8A
:1048B000252B17D173787A2B14D103A802F058FF57
:1048C000044614AB28181844ABEB0502B11C02F0E7
:1048D000A1F9224603A9304602F09CF914A802F07F
:1048E00047FF04464E465546D9E73C2195FBF1F378
:1048F000002BB8BF5B42B3FBF1F201FB1233009314
:104900004FF46163102195FBF3F30D4A03A8FFF701
:1049100089F8C2E700212E2208A8079102F088F941
:10492000434614AA322107A802F018FF384607A907
:10493000FFF77EFC384625B0BDE8F08F958D0A085C
:1049400014880A08F0B58DB0129D0446CDE9002305
:1049500015B9194B1D682DB1184B2846196802F07E
:1049600093F938B9DDE900232046FFF747FF2046D9
:104970000DB0F0BD0099124E124FD6E900325B180F
:10498000019941EB0202D7E900011B1841EB020239
:10499000CDE900320021242203A802F049F903A93D
:1049A000684602F041F832683B682046134403A988
:1049B0002A46FFF75BFFDAE77005002008000020B9
:1049C000800500207805002010B50020FEF7C2FD0C
:1049D0000446A0B9FEF730FF012810D12046FEF7AB
:1049E00043FF60B9FFF7DEFE10B9FEF7C3FFF9E73A
:1049F000FFF7D8FEBDE810400020FEF7ABBD204613
:104A000010BD1FB5FFF7E0FF10220021684602F03D
:104A10000FF900216846FEF7A5FD009805B05DF886
:104A200004FB0000024B1A68024B1A60704700BF7B
:104A300008000020700500200021FEF70DBF10B512
:104A40008368044613B1032201469847204610BDEF
:104A500010B50446FFF7F3FF204610BD00230348BE
:104A6000034A0449836000F033BD00BF880500207D
:104A700040020020514A0A08014B1860704700BFED
:104A80000C00002008B5134B43B100F095F9036802
:104A90001B699847002801DDAFF300800E4B43B13E
:104AA00000F03CFA03681B699847002801DDAFF36A
:104AB00000800A4B0BB1AFF30080094B43B100F00B
:104AC000ABF903681B699847002801DDAFF300804C
:104AD00008BD00BF00000000000000000000000052
:104AE0000000000008B5FFF7CDFFFEF72BFD014BDE
:104AF000186008BD000600200248034A0349121A44
:104B000002F088B80040024004400240088F0A08C2
:104B1000002307B51A466FF077010093FEF7B6FE43
:104B200003B05DF804FB000007B543880A2B08D0EA
:104B3000502B0BD1094B1B684BB103B05DF804EB54
:104B40001847FFF7E5FF03B05DF804FB00231A46A2
:104B50006FF077010093FEF799FEF4E79C050020C3
:104B600038B5124C00211248FEF77CFF114D236826
:104B7000AB420CBF012200220F4B1A7002D0FFF78C
:104B8000BBFF2560FEF7D6FC044602F059F80B4B3C
:104B900013B12046AFF3008000210848FEF70AFF5A
:104BA000BDE8384000210648FEF766BE00400240DE
:104BB000794A0A081E1C279A980500200000000068
:104BC000294B0A0810B588B004466846FFF730FB49
:104BD000694604A8FFF76BFB04A8A047044604A895
:104BE000FFF7DCFA6846FFF7D9FA204608B010BD97
:104BF0001FB500231024CDE90201019269461A462F
:104C00001846ADF80230ADF80040FEF7ABFE04B038
:104C100010BD704710B50446182100F05EFC204618
:104C200010BDF8B50E46002400F10807051D17F861
:104C3000011D0A223046FFF79EFCAF42044401D119
:104C40002046F8BD002CF2D02E213046FFF77AFC2A
:104C50000444ECE710B50446044B1122002140F84F
:104C6000043B01F0E5FF204610BD00BF44880A0860
:104C70000346074A10B543F8042B01F1100251F81E
:104C8000044B914243F8044BF9D10A781A7010BDD5
:104C900044880A08024AC0E90021042202757047CC
:104CA00044880A0810B59DF8084044EA0324042308
:104CB00044EA024444EA01644460037510BD000004
:104CC00037B5044D05609DF818500095FFF7EAFFD1
:104CD00003B030BD44880A0813B5CB7800938B78B5
:104CE0004A780978FFF7DEFF02B010BD10B5044620
:104CF000024B0360FFF7F0FF204610BD44880A080E
:104D000041747047704708B50021007CFEF754FDE0
:104D100040EAE07008BD08B50121007CFEF74CFDBB
:104D200040EAE07008BD08B5007CFEF73DFD20EAD2
:104D3000E07008BD08B5007CFEF72EFD20EAE070AB
:104D400008BD38B50446007C0D46FEF72DFD002851
:104D500001DC607C28B12946207CFEF735FD20EA85
:104D6000E07038BD007CFEF737BD10B50446142155
:104D700000F0B3FB204610BD10B54FF47A73044623
:104D800008460021C4E90113044B20742360012369
:104D900011466374FEF7F0FC204610BD58880A08DF
:104DA0000022007CFEF7F0BC10B50446142200215E
:104DB00001F03EFF204610BD30B50F4D87B001A871
:104DC000FFF7F2FF2978BFF35B8F11F0010410D1D8
:104DD0002846FBF76AF960B1214601AA0748FFF7A8
:104DE000CBFF2846FBF766F9054A0649034800F061
:104DF0006FFB024807B030BDA0050020A8050020C9
:104E000040020020054D0A0810B504461422002176
:104E100001F00EFF204610BD10B50F4C86B001A862
:104E2000FFF7F2FF2378BFF35B8FDB0710D4204638
:104E3000FBF73BF960B1012101AA0848FFF79CFF8D
:104E40002046FBF737F9064A0649044800F040FBC4
:104E5000024806B010BD00BFA4050020BC0500201C
:104E600040020020054D0A0870474174704708B59C
:104E7000007CFEF7D7FB20EAE07008BD08B5007C97
:104E8000FEF7A8FB20EAE07008BD08B5007CFEF73D
:104E9000B1FB40EAE07008BD08B5007CFEF7A2FB5C
:104EA00040EAE07008BD007CFEF7ACBB70B5467C04
:104EB00004460D462EB12946207CBDE87040FEF721
:104EC00081BB007CFEF7AEFB0028F4DC304670BDF1
:104ED00010B50446142100F000FB204610BD000070
:104EE0004FF0000C10B50446084611464FF47A7294
:104EF000C4E901C2044A20742260012262741A4685
:104F0000FEF758FB204610BD88880A080023007C65
:104F1000FEF790BB0022FFF7F9BF0000F8B51A4C6E
:104F200026684EB98420FBF7B8F8054618B18422EC
:104F3000314601F07DFE2560144D2F684FB9842065
:104F4000FBF7ABF8064618B18422394601F070FE33
:104F50002E600F4F3978BFF35B8F11F0010611D12E
:104F60003846FBF7A2F868B1314622682B68094839
:104F7000FFF7B6FF3846FBF79DF8074A0749054893
:104F800000F0A6FA0348F8BDD4050020D80500209B
:104F9000D0050020DC05002040020020694E0A08F0
:104FA0007047F8B5064615460C468F18BC4206D029
:104FB000336830469B6814F8011B9847F6E728468B
:104FC000F8BD0022007CFEF73DBB0021007CFEF70F
:104FD00041BB0021007CFEF745BB0021007CFEF7B1
:104FE00049BB0021007CFEF74DBB10B504461421DF
:104FF00000F073FA204610BD10B54FF47A730446E2
:1050000008460021C4E90113034B114623602074B4
:10501000FEF748FB204610BDB8880A0870470120FB
:105020007047002240681146FEF75CBC10B504468C
:10503000242100F052FA204610BDF0B5154689B083
:1050400011220E460446002103A801F0F1FD284676
:1050500002F08EFB002781B273682846009703AAEE
:10506000FEF7CAFB30B139462046FFF713FE204653
:1050700009B0F0BD204603A9FFF7FAFDF7E70022CB
:1050800040681146FEF74EBC002240681146FEF70C
:1050900059BC00224068FEF74DBC0022406881F0F8
:1050A0000101FEF737BC002340681A461946FEF797
:1050B00029BC002240681146FEF704BC00220221F0
:1050C0004068FEF707BC002340681A46FEF7F2BBB3
:1050D00008B583895BB14069002808DB01F084F8DA
:1050E000044901F089F9044901F0D2F808BD0348E8
:1050F000FCE700BF00FF7F470000C842000080BF00
:1051000008B583894BB10069B0F1004F05D001F0BB
:105110006BF8034901F070F908BD0020FCE700BFFF
:105120000000C84208B583895BB1006A002808DB2B
:1051300001F05AF8044901F05FF9044901F0A8F8B8
:1051400008BD0348FCE700BF00FF7F470000C842DE
:10515000000080BF08B583894BB18069B0F1004F72
:1051600005D001F041F8034901F046F908BD0020DF
:10517000FCE700BF0000C84290F90400704770B51A
:105180000C46064600F10C050FCC0FC594E8030051
:1051900085E8030033690120B3F1004F16BF642294
:1051A000022393FBF2F37360B369B3F1004F16BFB0
:1051B0006422002393FBF2F3B36070BD2DE9F0414C
:1051C00000254FF0020818260F46144B3246294698
:1051D000C0E9018586B0036004460C3001F028FD6B
:1051E0002A4629467868FEF77DFB80B1324629467B
:1051F000684601F01DFD2A4669462846ADF8006064
:10520000FEF70AFB38B969462046FFF7B8FF20468B
:1052100006B0BDE8F081C4F80480F8E714890A08F4
:105220000422024B5A60024A1A607047F0050020BF
:10523000E0880A08002340681A46FEF73BBB0022BC
:1052400002214068FEF746BB002240681146FEF787
:1052500039BB002240681146FEF744BB002340687A
:105260001A461946FEF746BB002340681A461946FF
:10527000FEF748BB0022406881F00101FEF74ABBFF
:1052800000224068FEF756BB002240681146FEF738
:1052900059BB002240681146FEF744BB70B5154665
:1052A0008EB0044608A8FFF7D5FC1122002103A800
:1052B00001F0BEFC0026284602F05AFA0A4B00967E
:1052C00081B25B68284603AAFEF796FA30B13146F0
:1052D0002046FFF7DFFC20460EB070BD204603A934
:1052E000FFF7C6FCF7E700BFF0050020034A044BB8
:1052F000042814BF10461846704700BFF805002068
:10530000F0050020024B034A1A6000225A607047E1
:10531000F805002038890A08172870B5044601D915
:10532000002070BDA0F10D03022B0BD9012826D857
:1053300000F0A6F80021007CFEF7ACF980F0010037
:10534000C0B2EEE7134E3178BFF35B8F11F0010569
:105350000FD13046FAF7A9FE58B129460E48FEF79C
:105360008CFB3046FAF7A6FE0C4A0D490A4800F0BD
:10537000AFF8094B1878FEF7F7F90028D0D1123CA6
:10538000012C05D8FFF7CAFD007CFEF743F9D5E7ED
:105390000120C6E74402002048020020400200200D
:1053A000A9020A08172838B504460D460AD8FF296D
:1053B00008D0FFF7B1FF28B129462046BDE83840A4
:1053C000FEF798B838BD38B504460D46FEF79AF892
:1053D000FF2810D0062804D84D2323FA00F0C30775
:1053E00009D42046FFF798FF28B129462046BDE89A
:1053F0003840FEF78FB838BD10B50446FEF782F886
:10540000031FDBB2012B08D92046FFF785FF20B12F
:105410002046BDE81040FEF785B8002010BD000012
:10542000002313B5074C1A46194620460093FFF790
:1054300047FC2046044A054902B0BDE8104000F090
:1054400047B800BF0406002040020020134C0A08A1
:10545000002370B5202543801423084E04460380A2
:10546000314685600561284600F039F831466060B4
:10547000284600F034F8E060204670BD64890A08D0
:1054800030B50F4D87B02978BFF35B8F11F0010461
:1054900013D12846FAF709FE78B101A8FFF7D8FF23
:1054A000214601AA0748FFF7A7FD2846FAF702FEA2
:1054B000054A0649034800F00BF8024807B030BD22
:1054C0001C0600202006002040020020A14F0A08F0
:1054D0000B460146184601F099BAFAF7E2BDFAF711
:1054E000DEBD0000014900F0FBB800BF80890A085A
:1054F0007FB500241023CDE90234036815469E6968
:1055000012686B4600948DF80440B0479DF8043053
:1055100003F00603062B09BF01202046009B2B60E9
:1055200004B070BD0098904214BF0120062070475F
:1055300010B50446024B036000F0CFF8204610BDC2
:10554000C0890A0810B50446FFF7F2FF204608217B
:10555000FFF7C3FF204610BD2DE9F041DDF81880AC
:105560001F46DDE9083498450646154607D10799D8
:1055700000F0B6F818B165710020BDE8F081394639
:10558000304600F0ADF80028F6D00123C4F80080C2
:105590002571A371F0E738B515461C4600F0A0F858
:1055A00020B10823E36006232560237138BD2DE96F
:1055B000F04105460C4616461F4600F091F848B9E2
:1055C000032F07D82368324629462046BDE8F0411C
:1055D0005B691847BDE8F08110B50446024B0360D3
:1055E000FFF7A6FF204610BD208A0A0810B5044622
:1055F000FFF7F2FF20460C21FFF76FFF204610BD9A
:105600002DE9F041DDF81880064690450F46154615
:105610001C460BD0B0682A460368CDF818801E6A75
:1056200039462346B446BDE8F0416047194600F0CC
:1056300057F80028EED00620BDE8F0812DE9F14FA3
:105640000D46DDE90A4BDDE90CA6194681461746F1
:10565000984600F045F890B1002D3460377109DBB1
:105660002C44A2450CBF06240124B471002001B0D3
:10567000BDE8F08F0235F9D10123B371F6E7544547
:1056800006D15946484600F02BF808B17771EDE78E
:10569000D9F808003A460368CDE90CA6CDE90A4BD3
:1056A000DC6929464346A44601B0BDE8F04F604797
:1056B0002DE9F04107460C4615461E46FFF76BFFE5
:1056C00048B9B8682A46036821469F693346BC46F4
:1056D000BDE8F0416047BDE8F081704700207047A9
:1056E000814208B50ED0406803782A2B0CD0496857
:1056F0000B782A2B08BF013101F0C6FAB0FA80F00E
:10570000400908BD0120FCE70020FAE781F00041D4
:1057100002E000BF83F0004330B54FEA41044FEA96
:10572000430594EA050F08BF90EA020F1FBF54EA31
:10573000000C55EA020C7FEA645C7FEA655C00F0CD
:10574000E2804FEA5454D4EB5555B8BF6D420CDD9E
:105750002C4480EA020281EA030382EA000083EA21
:10576000010180EA020281EA0303362D88BF30BDC1
:1057700011F0004F4FEA01314FF4801C4CEA113117
:1057800002D0404261EB410113F0004F4FEA033376
:105790004CEA133302D0524263EB430394EA050F01
:1057A00000F0A780A4F10104D5F1200E0DDB02FA70
:1057B0000EFC22FA05F2801841F1000103FA0EF204
:1057C000801843FA05F359410EE0A5F120050EF1CA
:1057D000200E012A03FA0EFC28BF4CF0020C43FAFB
:1057E00005F3C01851EBE37101F0004507D54FF008
:1057F000000EDCF1000C7EEB00006EEB0101B1F558
:10580000801F1BD3B1F5001F0CD349085FEA30009D
:105810004FEA3C0C04F101044FEA445212F5800FA8
:1058200080F09A80BCF1004F08BF5FEA500C50F145
:10583000000041EB045141EA050130BD5FEA4C0C28
:10584000404141EB0101013C28BFB1F5801FE9D285
:1058500091F0000F04BF01460020B1FA81F308BFA8
:105860002033A3F10B03B3F120020CDA0C3208DD74
:1058700002F1140CC2F10C0201FA0CF021FA02F14F
:105880000CE002F11402D8BFC2F1200C01FA02F1BF
:1058900020FA0CFCDCBF41EA0C019040E41AA2BFE4
:1058A00001EB0451294330BD6FEA04041F3C1CDAAC
:1058B0000C340EDC04F11404C4F1200220FA04F0CC
:1058C00001FA02F340EA030021FA04F345EA030176
:1058D00030BDC4F10C04C4F1200220FA02F001FA38
:1058E00004F340EA0300294630BD21FA04F02946BA
:1058F00030BD94F0000F83F4801306BF81F4801153
:105900000134013D4EE77FEA645C18BF7FEA655CC5
:1059100029D094EA050F08BF90EA020F05D054EA97
:10592000000C04BF1946104630BD91EA030F1EBF9C
:105930000021002030BD5FEA545C05D140004941A0
:1059400028BF41F0004130BD14F580043CBF01F593
:10595000801130BD01F0004545F0FE4141F4700179
:105960004FF0000030BD7FEA645C1ABF1946104654
:105970007FEA655C1CBF0B46024650EA013406BF55
:1059800052EA033591EA030F41F4002130BD00BF14
:1059900090F0000F04BF0021704730B54FF48064D1
:1059A00004F132044FF000054FF0000150E700BF52
:1059B00090F0000F04BF0021704730B54FF48064B1
:1059C00004F1320410F0004548BF40424FF000019E
:1059D0003EE700BF42004FEAE2014FEA31014FEAE1
:1059E00002701FBF12F07F4393F07F4F81F0605130
:1059F000704732F07F4208BF704793F07F4F04BF7B
:105A000041F40021704730B54FF4607401F0004557
:105A100021F000411CE700BF50EA010208BF7047B7
:105A200030B54FF000050AE050EA010208BF7047A8
:105A300030B511F0004502D5404261EB41014FF411
:105A4000806404F132045FEA915C3FF4D8AE4FF019
:105A500003025FEADC0C18BF03325FEADC0C18BFFC
:105A6000033202EBDC02C2F1200300FA03FC20FA4D
:105A700002F001FA03FE40EA0E0021FA02F114449A
:105A8000BDE600BF70B54FF0FF0C4CF4E06C1CEAB3
:105A900011541DBF1CEA135594EA0C0F95EA0C0F24
:105AA00000F0DEF82C4481EA030621EA4C5123EA97
:105AB0004C5350EA013518BF52EA033541F48011C6
:105AC00043F4801338D0A0FB02CE4FF00005E1FB79
:105AD00002E506F00042E0FB03E54FF00006E1FBC3
