:02000004080AE8
:1000000000000A0880AF0A0800000600060005018B
:080010000402D8070000000003
:04001800449E0A08F0
:1000200009480A4908B5884205D0094A824202D0E7
:10003000121A06F02BFE0748074A0021121A06F092
:1000400033FE064808BD00BF000000200CAD0A08C2
:100050004C02002050020020AD060020AD0600201A
:1000600070B504F043FD0025054E064CA41BA40802
:10007000A54200D170BD56F8043B98470135F7E71B
:10008000DCAC0A08FCAC0A0801F050BA08B501F073
:1000900091F8BDE8084004F0EBBC03F059BC03F054
:1000A00057BC03F05DBC03F05BBC0078B0FA80F095
:1000B000400970470123037070471068704708B506
:1000C0000021042005F045F94FF4FA7004F07AFCA1
:1000D0000121042005F03DF9012008BD1FB50121D3
:1000E000022005F036F94FF4FA7004F06BFC0B496E
:1000F000684604F063F86846FFF7E1FF684604F0DD
:1001000013F84FF4FA7004F05DFC0021022005F0B2
:1001100020F9012005B05DF804FB00BFC3A20A0866
:1001200000B58BB0044901A805F00EF801A804F051
:10013000E9FF0BB05DF804FB3806002008B503F0BA
:10014000A4FC000070B58AB004F093F94FF4FF737B
:10015000ADF80430FF238DF80730184B05461C78A6
:100160008DF806003CBB04F09FFE042203680DEBF3
:100170000201DB68984704F0E5FD1149064606A830
:1001800004F01CF80A22294602A804F09FF802A9EC
:1001900006A804F012F90B4904F01BF90168304677
:1001A00004F0A5F902A803F0BFFF06A803F0BCFF06
:1001B00020460AB070BD0120FBE700BF0000002010
:1001C000589E0A087B9E0A0870B58AB004F051F95F
:1001D00040F2FE23ADF80430FF238DF80730184BB2
:1001E00005461C788DF806003CBB04F05DFE042239
:1001F00003680DEB0201DB68984704F0A3FD114989
:10020000064606A803F0DAFF0A22294602A804F0EF
:100210005DF802A906A804F0D0F80B4904F0D9F85B
:100220000168304604F063F902A803F07DFF06A8D8
:1002300003F07AFF20460AB070BD0120FBE700BF43
:1002400000000020829E0A087B9E0A0810B5044622
:10025000024B036002F0B2FB204610BDB8A30A08AF
:1002600010B50446FFF7F2FF20464FF40C7105F07D
:10027000FAF8204610BD000070B50B49054604F0A1
:10028000BCF80A4E044628B1094802F040F80120A3
:10029000307070BD0749284604F0AFF8044802F0FA
:1002A00036F820463470F4E7A59E0A0800000020C6
:1002B00000050020AA9E0A0810B50446806808B10F
:1002C00003F026F9204610BD1FB5002301930393C8
:1002D0000C23ADF80430044B0422029301AB03F06D
:1002E000FFFA05B05DF804FBBB000A0838B5012130
:1002F0000B2005F01DF801210B2005F02AF8214DF7
:1003000001210C2005F014F801210C2005F021F842
:100310002978BFF35B8F11F001040FD12846FFF756
:10032000C4FE58B12146184803F06DFB2846FFF77C
:10033000C1FE164A1649144805F090F800211248EB
:1003400003F070FB322004F03DFB124801F0F4FB97
:100350004FF4FA7004F036FB0F4801F0EDFB70210A
:100360000C4801F024FC70210B4801F020FC04F043
:10037000E9FC0A4904F0BBF804F0E4FC04F0ABF833
:10038000012038BD540200205802002050020020F5
:10039000B9020A086905002077050020B09E0A0806
:1003A00008B503F095F8034B1860BDE8084003F06A
:1003B000A7BA00BF480600207D227B2102F0F9BDCC
:1003C00037B5002489089C4218D08C4200F1040003
:1003D00014D010F8045C8DF8075010F8035C8DF809
:1003E000065010F8025C8DF8055010F8015C8DF88D
:1003F0000450019D42F824500134E4E7012003B089
:1004000030BD00002DE9F04F4FF000089DB00546CB
:100410000E4604A8C44903F0D1FE4746B04580F219
:10042000D9812B780F2B08D108F102039E4204DCFE
:1004300004F088FCBD4904F05AF82C4614F8013B3E
:10044000A3F10E02012A00F2F08008F10202B2428A
:1004500080F2EB800F2B0CBF0127022704F072FC07
:10046000B349814618A803F0A9FE0A22394614A808
:1004700003F019FF14A918A803F09FFFAD4903F07A
:10048000A8FF0168484604F01FF814A803F04CFECA
:1004900018A803F049FEA44908A803F08FFE2378AA
:1004A000013B052B00F2BE80DFE813F0060056008A
:1004B000C700EB0064018701042E47DDA81C03235D
:1004C0000C2101AAFFF77CFF9B4D07F1FF3948B1D2
:1004D0000C2303FB09F30199EA18E950029B5360CE
:1004E000039B936004F02EFC9449824610A803F00D
:1004F00065FE0C2303FB09F30422E9580CA805EB65
:10050000030903F00AFF0CA910A803F056FF8C4959
:1005100003F05FFF05460422D9F8041014A803F085
:10052000FCFE284614A903F048FF854903F051FF5B
:1005300005460422D9F8081018A803F0EEFE18A901
:10054000284603F03AFF01685046D9E004F0FAFB70
:100550007C4903F0B9FF65E00C2E6ADD0C2107F140
:10056000FF3A01FB0AFB784BA81C03EB0B094A4638
:100570000323FFF725FF04F0E5FB744903F0A4FF14
:1005800004F0E0FB704B04221D4653F80B1004F0FE
:1005900095F804F0D7FB6A4903F096FF04F0D2FB0C
:1005A0000422D9F8041004F089F804F0CBFB644964
:1005B00003F08AFF04F0C6FB0422D9F8081004F007
:1005C0009AF8D9F8041055F80B0005F06FFDD9F82A
:1005D000081005F06BFD4FF07E5106F00DF85C4DF4
:1005E00010B155F82A0001305A4B45F82A00A3F102
:1005F0004C0A53F8042C43F804299A45F9D1524B7C
:10060000D3F808905968186805F050FD494605F080
:100610004DFDCAF80000286805F0FCFDCAF80890F6
:10062000CAF8040008A803F07FFD254608F1010878
:10063000F4E604F087FB48498BE7042E1DDDE278E1
:10064000A178237960788DF861208DF862108DF89B
:1006500063008DF86030189B404D2B606B6004F098
:1006600071FB3F4903F030FF04F06CFB04227B1E5A
:1006700055F8231004F022F8D4E704F063FB39495D
:1006800067E7042E4BDD0C2107F1FF3B01FB0BFB61
:10069000DFF8DCA003230AEB0B094A46A81CFFF78E
:1006A0008FFE04F04FFB3049054610A803F086FD8D
:1006B00004225AF80B100CA803F02FFE0CA910A866
:1006C00003F07BFE1E4903F084FE82460422D9F823
:1006D000041014A803F021FE504614A903F06DFE87
:1006E000174903F076FE82460422D9F8081018A8AC
:1006F00003F013FE18A9504603F05FFE0168284678
:1007000003F0E2FE18A803F00FFD14A803F00CFD9F
:100710000CA803F009FD10A803F006FD82E704F021
:1007200011FB124915E700BFC3A20A08D49E0A08AC
:10073000D69E0A08E69E0A0838030020DF9E0A08B3
:10074000C5A20A08E99E0A08640200200D9F0A0853
:1007500088050020C8020020179F0A081003002007
:100760003B9F0A08479F0A086D9F0A08759F0A0861
:1007700054030020042E1CDDE278A17823796078F0
:100780008DF861208DF862108DF863008DF860306F
:10079000189B144D07F1FF3945F8293004F0D2FABF
:1007A000114903F091FE04F0CDFA042255F8291006
:1007B00060E704F0C7FA0D49CBE6042E7FF7C6AE1A
:1007C000A81C03230C2101AAFFF7FAFD084D07F12D
:1007D000FF397CE604A803F0A7FC38461DB0BDE84D
:1007E000F08F00BF08030020979F0A08A09F0A0807
:1007F000200300202DE9F04102F06AFE00260A27BE
:10080000DFF888801E4C04F04FFB03681B69984793
:1008100048B304F049FB03685B699847C5B204F02C
:1008200091FA1022294603F06CFE04F08BFA41463F
:1008300003F04AFE2368B3F5AF7F19DA114AD554A5
:10084000013323600A2D0ED121680E48FFF7DAFD2F
:10085000002306461A460B490133B3F5AF7F01F872
:10086000012BF9D12260013FCDD13046BDE8F081A6
:100870000023236004F066FA034903F025FEE1E754
:10088000FC0400209C030020C39F0A08C5A20A089C
:1008900038B5134D0021286805F0A4FEE8B1002109
:1008A000686805F09FFEC0B10021A86805F09AFEB7
:1008B000B0FA80F464090021E86805F093FE48B1BD
:1008C0000021286905F08EFE20B10021686905F03D
:1008D00089FE00B90234204638BD0124EBE700BF91
:1008E000640200204FF4FF7330B58BB0ADF80430D4
:1008F000FF238DF80730184B04461B788DF806004F
:100900003BB304F0D1FA042203680DEB0201DB686B
:10091000984704F017FA1149054606A803F04EFC63
:100920000A22214602A803F0BEFC02A906A803F091
:1009300044FD0B4903F04DFD0168284603F0D7FD47
:1009400002A803F0F1FB06A803F0EEFB00200BB0B9
:1009500030BD0120FBE700BF00000020589E0A08C0
:100960007B9E0A0840F2FE2330B58BB0ADF8043010
:10097000FF238DF80730184B04461B788DF80600CE
:100980003BB304F091FA042203680DEB0201DB682B
:10099000984704F0D7F91149054606A803F00EFC64
:1009A0000A22214602A803F07EFC02A906A803F051
:1009B00004FD0B4903F00DFD0168284603F097FD87
:1009C00002A803F0B1FB06A803F0AEFB00200BB0B9
:1009D00030BD0120FBE700BF00000020589E0A0840
:1009E0007B9E0A08012910B5044604D1064903F08C
:1009F00024FC204610BD022901D10449F7E704492F
:100A000003F0DCFBF5E700BF7C0300208C03002033
:100A1000E09F0A08B0B501F1080386B023F0070390
:100A20006D4600AFADEB030D0C460A460146684625
:100A300006F02CF900230A220DF80430391D68460F
:100A400007F0E2FD0446244907F1080003F0B6FB75
:100A5000214607F1080003F09FFC7868012C00F1A3
:100A60000100786009D0022C17D007F1080003F0CC
:100A70005BFBAD461837BD46B0BD05240A22391DC3
:100A800007F0C2FD154B18800138062821D8DFE891
:100A900000F0061012141A1C1E000624EEE70121B5
:100AA000204604F056FC0E4AB9680E4801F0CBFD12
:100AB000DBE70D4AF8E70D4AF6E70021204604F08F
:100AC00048FC0B4AF0E70B4AEEE70B4AECE70B4A0F
:100AD000EAE70B4AE8E700BFE39F0A08500300205B
:100AE000FC9F0A080005002018A00A085CA00A085C
:100AF00080A00A089FA00A08FFA00A082BA10A08E4
:100B000061A10A0870B5194C194D1A4E204601F022
:100B10002CFC48BB04F016F9294603F0D5FC3146FD
:100B2000204601F00BFD80B104F00CF9124903F0EE
:100B3000DEFC124B1B781BB12046114901F0FAFE76
:100B40002046104901F0F6FEE0E704F0FBF80E49FC
:100B500003F0CDFC04F0F6F80C4903F0C8FC41F2B8
:100B6000883003F02FFFD1E770BD00BF00050020E3
:100B700079A10A089CA10A08A7A10A080000002080
:100B8000B7A10A08C7A10A08D9A10A08F1A10A0851
:100B900073B50E460446154601F08EFF32460146F7
:100BA00001AB204602F0D4F820B12A462046019934
:100BB00001F0F8FF02B070BD10B504464FF40072AA
:100BC00000F1300102F0FAF8014B2046236010BD1D
:100BD000B8A30A0870B504460E46154602F0DEF9C1
:100BE00031462046012202F047F920463A2102F020
:100BF000F7F829462046BDE8704002F0F3B970B519
:100C000004460E46154602F0C9F901223146204637
:100C100002F032F920463A2102F0E2F82046296833
:100C20000122BDE8704002F027B9000070B504460B
:100C30000E46154602F0B2F901223146204602F076
:100C40001BF920463A2102F0CBF82A462046BDE89F
:100C50007040014902F003B9DBA70A082DE9F0470B
:100C60000F46ADF5107D6D4916461D4605F026FB75
:100C700004F076FE00226A4B04F014FD05F078F9CA
:100C80004FF47A74654990FBF4FA384605F016FB88
:100C900004F066FE0022624B04F004FD05F068F9E2
:100CA0005E4990FBF4F9304605F008FB04F058FE6D
:100CB00000225B4B04F0F6FC05F05AF9574990FB13
:100CC000F4F8284605F0FAFA04F04AFE0022544BE4
:100CD00004F0E8FC05F04CF9504990FBF4F79898C3
:100CE00005F0ECFA04F03CFE00224D4B04F0DAFC77
:100CF00005F03EF9494990FBF4F6999805F0DEFAC3
:100D000004F02EFE0022464B04F0CCFC05F030F936
:100D1000424990FBF4F59A9805F0D0FA04F020FED1
:100D20003F4B002204F0BEFC05F022F990FBF4F4E6
:100D300004A8FFF741FF04A8FFF73EFB504605F06B
:100D400069FA3849024604A8FFF744FF484605F00F
:100D500061FA3549024604A8FFF73CFF404605F01A
:100D600059FA3249024604A8FFF734FF384605F025
:100D700051FA2F49024604A8FFF72CFF304605F030
:100D800049FA2C49024604A8FFF724FF284605F03B
:100D900041FA2949024604A8FFF71CFF204605F046
:100DA00039FA2649024604A8FFF714FF9D996846C0
:100DB00003F043FA6A46224904A8FFF720FF684679
:100DC00003F0B2F99C9A1F4904A8FFF72FFF04A86B
:100DD00002F0E4F801221C4904A802F04DF83A217F
:100DE00004A801F0FDFF9B9A184904A802F037F807
:100DF00004A802F004F80324154D164E2946304687
:100E0000059A01F020FC08B9013CF7D104A8FFF7CE
:100E10001DFA0DF5107DBDE8F08700BF00007A4493
:100E20000000E03F03A20A0806A20A0809A20A0875
:100E30000CA20A080FA20A0812A20A0815A20A08A0
:100E400017A20A081EA20A087BA20A0827A20A08FB
:100E50002BA20A08000500202DE9F04F1C4685B0A2
:100E6000139B05460193149B0E460293159B204647
:100E700031491746DDF83880DDF83C90DDF840A0B8
:100E8000DDF848B0039305F0D5FB00284AD1404671
:100E9000294905F0CFFB002844D14846264905F0F2
:100EA000C9FB00283ED1204604F05AFD20A3D3E917
:100EB000002305F01FF800B3404604F051FD1CA3C9
:100EC000D3E9002305F016F8B8B1484604F048FD10
:100ED00017A3D3E9002305F00DF870B12946504659
:100EE00005F0A8FB48B13146504605F0A3FB20B100
:100EF0003946504605F09EFBA0B9039B3A46139332
:100F0000029B31461293019B284611932346CDF84C
:100F100040B0CDF83C90CDF8388005B0BDE8F04F3A
:100F2000FFF79CBE05B0BDE8F08F00BFAFF30080B7
:100F30009A9999999999B93F0000484270B5044629
:100F40000E46154602F02AF801223146204601F0ED
:100F500093FF20463A2101F043FF2A462046BDE890
:100F60007040014901F07BBF41A20A082DE9F04120
:100F70000024814B0128ADF5147D1C8040F08D804C
:100F80007E4800F06FFF7D4E002800F0F080304674
:100F900001F0C6F8002800F0EA8003F0D3FE78499B
:100FA00003F092FA6846774903F008F9DFF8008207
:100FB000754F3378E5B2AB422CD9354403F0C2FE0D
:100FC000697801340F2994BF4146394603F07CFA11
:100FD00003F0B8FE1022697803F093FA697808A844
:100FE0000F2994BF4146394603F0E8F808A968463E
:100FF00003F0C1F908A803F097F81022697808A84F
:1010000003F03FF908A9684603F0B5F908A803F012
:101010008BF8CEE708A8FFF7CFFD0122694604A8A8
:1010200003F020FA04A9594803F012F904A803F0C8
:101030007BF808A8FFF7C0F9544904A803F0FDF8AD
:1010400004AA534908A8FFF7DAFD04A803F06CF8D6
:101050000122504908A8FFF7E9FD03F098FC4E492A
:10106000024608A8FFF76AFF08A801F0C8FE099A1F
:101070004A494B4801F0E7FA08A8FFF7E7F8684645
:1010800003F052F803F05EFE3E4903F030FA4FF4ED
:10109000FA7003F097FC01206AE00228F2D141487F
:1010A00000F0E0FE3F4E002861D0304601F038F8F5
:1010B00000285CD003F046FE3B4903F005FA684681
:1010C000304903F07BF8DFF8E8802F4F3378E5B242
:1010D000AB422CD9354403F035FE697801340F2931
:1010E00094BF4146394603F0EFF903F02BFE10227E
:1010F000697803F006FA697808A80F2994BF414679
:10110000394603F05BF808A9684603F034F908A8EB
:1011100003F00AF81022697808A803F0B2F808A9C9
:10112000684603F028F908A802F0FEFFCEE7012286
:10113000694608A803F096F908A91C4803F088F846
:1011400008A802F0F1FF08A8FFF736FD08A8FFF78E
:1011500033F9164904A803F070F804AA0C4908A84A
:10116000FFF74DFD04A802F0DFFF022271E7002027
:101170000DF5147DBDE8F0815003002069050020C5
:1011800048A20A08C3A20A08C5A20A087C030020D4
:1011900067A20A086EA20A0876A20A0880A20A08B4
:1011A000000500207705002093A20A088C03002088
:1011B00045A20A082DE9F04FAB4899B001F0D5F8E7
:1011C000002800F00F81A84801F084FAFFF7E8F842
:1011D00002F0A6FB08B902F09BFBFFF70BFBA34C48
:1011E0000546FFF7DDF823680A2B46DD0023236060
:1011F00003F0A8FDDFF8A48206469D4910A802F07E
:10120000DDFF0A22D8F800100CA803F072F80CA930
:1012100010A803F0D2F8974903F0DBF807460A223A
:10122000D8F8041014A803F064F8384614A903F0A1
:10123000C4F80168304603F05AF914A802F074FFAC
:101240000CA802F071FF10A802F06EFF03F07AFD07
:10125000894F06463969F86804F028FF796904F077
:1012600025FF0622014614A803F057F830461499CA
:1012700003F03DF914A802F057FF236801332360FF
:1012800002F026F97D4C7E4B227853F822308342BF
:1012900065D2013D012D62D8FFF782F8FFF7F8FA19
:1012A0002678751CA84201D003284ED114AC2946DB
:1012B0002046FFF797FB2046724903F09EF8074649
:1012C000204602F031FF002F3FD10C2373436E49BB
:1012D000CA1851F803806849D2F80490D2F808A0DF
:1012E000CA1851F803B05168926808910992674A88
:1012F000D718D058796804F0D9FEB96804F0D6FE42
:10130000634B644A53F8263052F826200B930A9216
:10131000074603F03CFB064629462046FFF762FBE2
:101320000B9B0A9A0393099B40460193089B0492E6
:10133000009352465B464946CDE90654059602970E
:10134000FFF78AFD204602F0EFFE02F0C1F84B4B9A
:1013500000F5EA401A784A4B303043F82200FFF794
:101360001FF80120FFF702FE052003F02BFB4A4D7A
:101370000220FFF7FBFD052003F024FB2B68474C00
:101380000A2B32DD236803F13C0603F000FB8642A2
:1013900033D36B680A2B5FDD636803F13C0503F010
:1013A000F6FA8542C0F08680642003F00BFBFFF75D
:1013B0006FFA20F00200012803D03949394802F0C1
:1013C0004FFFFFF765FA0238012803D93449364840
:1013D00002F046FF294A137883F00103137019B015
:1013E000BDE8F08FFFF78EFBF0E6236803F14606B9
:1013F00003F0CDFA8642C5D8CBE71F4E716830683E
:1014000004F054FEB16804F051FE4FF07E5105F037
:10141000F3F80028BDD003F095FC2449064614A833
:1014200002F0CCFE0A22012110A802F03CFF10A914
:1014300014A802F0C2FF0168304603F058F810A863
:1014400002F072FE14A802F06FFE0021052003F0E6
:1014500080FF174B23609CE7636803F1460503F0A8
:1014600096FA854298D89FE70005002004000020E6
:10147000B2A20A08C4A20A0864020020680500207B
:1014800008000020E09F0A083803002054030020D1
:101490000803002010030020880500201803002006
:1014A000D7A20A087C0300208C030020C7A20A08E8
:1014B0009CFFFF7F174D2969E86804F0F7FD696913
:1014C00004F0F4FD4FF07E5105F096F800283FF44B
:1014D0006BAF03F037FC1049054614A802F06EFE0E
:1014E0000A22022110A802F0DEFE10A914A802F0C0
:1014F00064FF0168284602F0FAFF10A802F014FE0B
:1015000014A802F011FE0021062003F022FF034B75
:10151000636049E764020020C7A20A089CFFFF7FBE
:101520000246014803F02ABB514B0A081FB503F0DD
:1015300009FC4FF4E13103F0F9FB03F0B5FC4FF483
:10154000165103F0ADFC02F0EBF910B902F0D8F936
:10155000F9E702F0E5F90121052003F0E9FE012198
:10156000062003F0E5FE0021102003F0E1FE00213B
:10157000112003F0DDFE0121022003F0D9FE01213C
:10158000042003F0D5FE0121072003F0D1FE002145
:10159000052003F0DEFE0021062003F0DAFE002124
:1015A000022003F0D6FE0121042003F0D2FE002128
:1015B000072003F0CEFE2149684602F0FFFD684691
:1015C000FEF794FE684602F0AFFD1D4A1D491E4815
:1015D00003F0D4FA1D491E48FFF7A2FF1D491E481B
:1015E000FFF79EFF1D4A1E49174803F0C7FA1D4921
:1015F0001D48FFF795FF1D491D48FFF791FF1D4A44
:101600001D49114803F0BAFA1C4A1D490E4803F05F
:10161000B5FA1C491C48FEF757FE1C491C48FEF74A
:1016200053FE1C491C48FEF74FFEFEF7B9FE4FF073
:101630007E5003F08BF805B05DF804FBC3A20A08E6
:10164000DDA20A0879020A08514B0A0845010A0876
:10165000E8A20A08C9010A08F5A20A0802A30A08B2
:10166000BF000A08DD000A080EA30A083D010A08A7
:101670001BA30A0828A30A0821010A0833A30A08A1
:10168000ED020A08580500203CA30A086C0300205C
:1016900047A30A089005002050A30A08F7B5314F68
:1016A000314E324C324D3946304602F087FD3046DD
:1016B000304E2246294603F0D1FE3946304602F02C
:1016C0007DFD22462946304603F0C8FE012002F087
:1016D00061F84FF40073284E0193284B40F25B727F
:1016E000009330460F23264900F046FD3046254E34
:1016F0002246254903F0B2FE3046244902F05EFD41
:1017000022462946304603F0A9FE214E214F0A22E7
:101710000B21214800F008F90A220C211F4800F093
:1017200003F93146384602F049FD38461C4F22463F
:10173000294603F093FE3146384602F03FFD384615
:10174000184F2246294603F089FE3146384602F0FA
:1017500035FD22462946384603B0BDE8F04003F087
:101760007DBE00BFD7A20A087C03002050020020E3
:1017700029410A088C030020000500208D180A0862
:1017800056A30A08900500203D290A0846A20A0827
:10179000C3A20A086C030020690500207705002019
:1017A000F802002058050020002330B50D460446FD
:1017B0008FB003A8019301F071F903A801F06AF951
:1017C0002A46214603A801F048F903A801F008FEC3
:1017D000264A274903A8FFF7DBF9264A264903A82A
:1017E000FFF7D6F9254A264903A8FFF7D1F903A840
:1017F00001F062F9234A014602AB03A801F0A8FAFE
:1018000020B1029901AA03A801F0BAF9FFF740F844
:1018100030B31D4C2169E06804F048FC616904F0B4
:1018200045FC0546019804F0F5FC0146284604F005
:10183000F9FD04F009FFFFF755F82169E06804F0AD
:1018400035FC616904F032FC0446019804F0E2FCC6
:101850000146204604F0E6FD04F0F6FEFFF782F8AC
:1018600003A801F0BFF80FB030BD00BFD8020020C0
:101870000CA20A08DC0200200FA20A08E0020020E5
:1018800012A20A0868A30A08CC02002070B5064616
:1018900086B00C461C481D49154602F0E1FC304656
:1018A0001B4905F02DFA20BB1A49174802F0D8FC55
:1018B00029462046FFF778FF03F069F8054603F054
:1018C00041FA154902F000FE03F03CFA0446134BBE
:1018D0002A461B6802A800931149EB1702F0F8FF93
:1018E0000299204602F003FE02A802F01DFC06B099
:1018F00070BD30460B4905F003FA0028DCD12946BB
:101900002046FFF787F8D7E79005002070A30A0864
:1019100073A30A08F3A20A0887A30A08100000208C
:10192000B4050020C7A10A0838B504461546084684
:101930002173012103F0FCFC207B012103F009FD50
:1019400028460121657303F0F3FC607B002103F05E
:1019500000FD204638BD000038B50C4D2978BFF396
:101960005B8F11F001040FD12846FEF79EFB58B1A2
:101970002146074802F047F82846FEF79BFB054A38
:101980000549034803F06AFD014838BD54020020B0
:101990005802002050020020B9020A0810B504467F
:1019A000FFF7DAFF2146BDE8104002F049B870B5F4
:1019B0000E46154604460021007B03F0CAFC06F0E3
:1019C0007E00FFF7EBFF2846FFF7E8FF207B0121B1
:1019D000BDE8704003F0BDBCF8B50F4606460021D7
:1019E000007B15461C4603F0B4FC07F07E00FFF7B1
:1019F000D5FF2544AC4204D014F8010BFFF7CEFF0D
:101A0000F8E7307B0121BDE8F84003F0A2BC38B50F
:101A10000C4605460021007B04F07E0403F099FC8F
:101A200044F08000FFF7BAFF0020FFF7B7FF04463D
:101A30000121287B03F08DFC204638BD70B504469B
:101A40000D461646FFF7E3FF40EA06022946204608
:101A5000BDE87040D2B2FFF7AABF70B504460D468C
:101A60001646FFF7D4FF20EA060229462046BDE8C5
:101A70007040D2B2FFF79BBFF8B5044615460F463B
:101A8000002202211E46FFF792FF04220A2120466F
:101A9000FFF78DFF802214212046FFF7CFFF2A4653
:101AA0003B4612212046FFF797FF032202212046E2
:101AB000FFF77DFF41F288350A212046FFF7A7FF97
:101AC000430705D4013DADB2002DF5D104200FE050
:101AD000002202212046FFF76AFF44212046FFF73B
:101AE00096FF422130702046FFF791FF7070012071
:101AF000F8BD10B50F2202210446FFF758FF32202F
:101B000002F060FF02212046FFF781FFC306F9D4EF
:101B100010BD10B528210446FFF779FF00F003033C
:101B2000032B08D040F0030228212046BDE81040D6
:101B3000D2B2FFF73CBF10BD10B50446407B03F0A6
:101B400021FC48BB607B012103F003FC322002F042
:101B500039FF204680225421FFF729FF2046A92281
:101B60005621FFF724FF204603225821FFF71FFFCD
:101B70002046E8225A21FFF71AFF204640222A2158
:101B8000FFF715FF20463D222221FFF710FF2046D8
:101B9000BDE81040FFF7BDBF2046FFF7AAFFD8E71A
:101BA0004C2108B5FFF733FF00F0700008BD38B5D1
:101BB0000D460446FFF7F4FFA8420CD020467022E1
:101BC0004C21FFF74AFF204605F070024C21BDE88A
:101BD0003840FFF733BF38BD2DE9F74F07461E46A3
:101BE00015469DF83080002A42D001F07E01007B2E
:101BF00041F08009002103F0ACFB4846FFF7CEFE20
:101C00004FF0000B4FF0010A013DEDB25FFA8BF48B
:101C1000A54222D9DCB9B8F1000F18D04246D3B2A0
:101C2000072B61B205D80AFA02F40C43E4B2013280
:101C3000F5E748460191FFF7B1FE3378019904407A
:101C400023EA01031C4334700BF1010BDEE7484625
:101C5000FFF7A4FE06F80B00F6E70020FFF79EFE54
:101C600001217055387B03B0BDE8F04F03F071BB24
:101C700003B0BDE8F08F2DE9F04F89B00392DDF895
:101C800054909DF85C200446DDE913568A460027EF
:101C90009DF858B00492B9F1000F3ED099F8008039
:101CA0000022022120460593FFF781FE7F220821B2
:101CB0002046FFF77CFE08EB0B18802214212046FB
:101CC000FFF7BCFE5FFA88F8059B122120469DF8BD
:101CD0004820FFF781FE42461A212046FFF767FEA3
:101CE000524602212046FFF762FEBAF10C0F04D1E2
:101CF00080221A212046FFF7A1FE4FF4FA6808213E
:101D00002046FFF784FE039B184208D1C30702D484
:101D1000B8F10108F3D104204DE0C846C0E70C211A
:101D20002046FFF774FE10F0130F804646D1DDB158
:101D3000D6B114212046FFF76AFE3378024683426B
:101D40003ED330702B4612212046CDF800B0FFF76D
:101D500043FF18212046FFF75AFE00F00707B9F1AC
:101D6000000F01D089F8007018F0080F2AD15DB378
:101D700056B3049B43B33278012A03D1042F25D1F3
:101D8000092018E022D90FBB023A2946204607ABAA
:101D9000D2B2FFF771FE01280DD133781D4415F83A
:101DA000022C9DF81C309A4210D115F8012C9DF898
:101DB0001D309A420AD109B0BDE8F08F0220FAE73F
:101DC0000520F8E70320F6E70120F4E70820F2E712
:101DD00010B586B09DF82C40009205949DF82840DF
:101DE00030220494099C0394089CCDE901340B46ED
:101DF0000C21FFF740FF06B010BD70B588B0064655
:101E00001C4615468DF817101AB31B78012B20D9E4
:101E100080221C21FFF721FE07238DF81F300023AD
:101E2000CDE902330DF11F03CDE9004301222B461A
:101E300030460DF11701FFF7CBFF012807D12378BA
:101E4000022B08D19DF81F30002B18BF022008B0CC
:101E500070BD0520FBE70220F9E713460A4626215C
:101E6000FFF7CBBF022307B50DF1030201A98DF8DF
:101E70000330FFF7F2FF00F0FD00431E58425841C7
:101E800003B05DF804FB2DE9F04F502A82460F465F
:101E900090468BB000F23B8180221C21FFF7DDFDD4
:101EA00093238DF81C30B8F1000F00F0B9803C7816
:101EB000042C94BF00230123012500260BE0952369
:101EC0008DF81C30B8F1000F00F0AC803C78072C86
:101ED00094BF00230123A8EBC60464B224EAE4748F
:101EE000002B00F0A180882203218DF81E2014F021
:101EF000070218BF012202EBE40212F0FF02E0B277
:101F00001AD0002B14BF4FF0030C4FF0040C944573
:101F100094BF01EB0C028A1806F1010EBE44D2B246
:101F20008C4601311EF8019BC9B20DF1280BDC442F
:101F300091420CF80C9CF3D113B100F1080464B287
:101F40001F2C73DD4FF070039DF81F208DF81D309E
:101F50009DF81E30504653409DF8202007A953405D
:101F60009DF8212053408DF8223007220DF12303E4
:101F7000FFF782FD0128814640F0C58000238DF8DF
:101F80001A3003234FF009098DF81B3004940DF12A
:101F9000220B9DF81A301A2103EB03125046D2B2DD
:101FA0000593FFF704FD0022059B039202930DF1B8
:101FB0001A0301930DF11B034A46009350465B46FA
:101FC00007A9FFF705FF032881464BD11C21504686
:101FD000FFF71DFD810600F1968010F01F0008BF7D
:101FE0002020A04240F38480431E03F0070213F038
:101FF000070318BF012344B2C008013018440AABDC
:102000001844012303FA02F210F80C3C134300F8C1
:102010000C3C95E7972306268DF81C3023465AE79B
:10202000434649E7434656E7022160E714F00709B3
:1020300018BF4FF00109E3100233DBB204F00702CE
:102040008DF81A2002EB03128DF81D2007AA99447F
:1020500002EB030BC3F109035FFA89F98DF81B301A
:10206000049496E701284ED1049B20241F2B7FF770
:1020700069AF9DF81E30882B3DD103231A460136E7
:102080001A443E44D2B219460AA80133014411F859
:102090000C1CDBB2934206F8011BF4D19DF81B60C7
:1020A000032E37D19DF81A40A4BB01225946504651
:1020B0000DF11E03FFF7E0FC0128814623D19DF8B6
:1020C0001E209BF801309A4227D19DF81F209BF8D3
:1020D00002309A4221D19BF800305A070ED50135C3
:1020E000EDB2032D96D0042D02D0022D3FF4E7AEC1
:1020F0004FF0060907E002230422C0E705EB45057F
:102100000135FB723D7048460BB0BDE8F08F4FF0D3
:102110000709F8E74FF00209F5E74FF00809F2E781
:1021200008B501460022FFF7AEFE431E5842584153
:1021300008BD38B51D46059B044603630023436371
:1021400002B1826419B104F1380002F089F8049BED
:10215000E0692365069BA4F84C50FF2BB8BFFF2312
:10216000A4F8543008B1FDF79EFFB4F85400FDF711
:1021700096FFE06138BD00002DE9FF4104460026CE
:10218000174698460D4601F027FF0B49E66104F11A
:10219000380002F013F80B9B204602930A9B32464C
:1021A000CDE9008329463B46A664FFF7C2FF2046DF
:1021B00004B0BDE8F08100BFC3A20A0810B5044610
:1021C000204601F01FFE0028FAD0204601F05DFDF8
:1021D000C0B210BD2DE9F0470546C4698946012704
:1021E000FFF7ECFF4FF0000820703C46EB6993F8D6
:1021F00000A00AF0F00A2846FFF7E0FF2646EB6948
:102200000134985500F07F0303FB07880306A4B24E
:102210001FFA88F84FEAC717EDD4631EBAF1300FE2
:1022200089F8003024D12846EF69FFF7C7FF3855F9
:102230002846EF69FFF7C2FFF41C0236B6B2B85564
:102240000226A4B2B6B2B1462746C14512D22846EC
:10225000FFF7B4FFB5F8543009F10109BB4288BF5C
:10226000EB691FFA89F988BFD8550137BFB2ECE78F
:102270000026E7E7A8EB0600B0452CBF064600267F
:10228000B5F854003444A4B2A0422CBF204600202C
:10229000BDE8F087F7B58C461E461D46074600236D
:1022A000AE4605F07F01BEF17F0F02A888BF41F066
:1022B00080015C1CBEF17F0F03444FEAD515E4B2E8
:1022C00003F8041C10D8C4F10403D11802F803C0A9
:1022D000C4F10503134401A80532934206D010F857
:1022E000015B03F8015BF8E72346D9E7721C22443F
:1022F000384601F04DFC054601F0EAF801347862F9
:102300003444A8B2231A5842584103B0F0BDE02229
:1023100010B5C36904461A700022C3695A70C169B6
:10232000022201F035FC204601F0A6FD01F0D0F8B4
:10233000C4E9090010BD0233F0B5044698B2002389
:10234000CD5C4DB1B4F854605F1C864204D9461C84
:1023500015543B46B0B2F3E799B2441A224409122D
:1023600002F8021C02F8013CF0BD38B5044601F049
:10237000DAFD002814BF0125002502D1204601F016
:102380007BFD284638BD00002DE9F04786B00446A5
:10239000894617461E46DDF838809DF848A0FFF7AD
:1023A000E4FF0546002840F0C380A16C002940F0FE
:1023B00087800346B4F84C202046A16B01F024FE30
:1023C000002879D0012323849DF84C30E269042B46
:1023D00040F08180574B186899889B79ADF80410BC
:1023E0008DF806300090C2F805009DF80630BDF863
:1023F0000410D3720C23A2F80910B8F1000F7ED09C
:102400009DF840009DF83C20400140EAC20040F0A9
:102410000600C0B2BAF1000F01D100F0FD001FB1FB
:10242000002E6ED140F08000E269D054226DE16947
:10243000581C12120A54E169206D9A1C8854033307
:1024400049462046E269FFF776FF0346B8F1000FE0
:102450000BD04146E2692046FFF76DFFE269034673
:1024600011992046FFF767FF034667B139462046BA
:10247000E269FFF760FF03462EB131462046E2696C
:10248000FFF759FF0346053B1021E2699BB2204646
:10249000FFF700FF01F01CF84FF47A76C4E9090059
:1024A000204601F0AFFC78BB01F012F8A36AC01A15
:1024B000236D73439842F3D9204601F0DDFC33E0ED
:1024C000684602F0D9FB2B4669462046B4F84C20FA
:1024D00001F028FC74E7EC46174B186859681B7A22
:1024E000ACE803008CF800306B4603CBC2F8050063
:1024F000C2F809109CF8003053730E237DE70220C8
:1025000088E740F0C0008FE769462046FFF762FE8B
:102510000428D1D1E369DE78002ECDD100F0D8FFB8
:102520000125A06284F82C60284606B0BDE8F0873B
:102530000025F9E7C0A30A08C7A30A087FB501234D
:102540000422CDE9043200231A46CDE90233CDE955
:102550000033FFF719FF07B05DF804FB2DE9F14FD9
:10256000DDF8348004468B4616461F469DF828A0A9
:102570009DF82C509DF83090FFF7F7FE002850D0C2
:102580000021B4F85420E06904F08EFB052359467D
:102590002046E269FFF7CFFE6B1E012B15D8238C76
:1025A000E26901339BB223841B121354411CE3697B
:1025B000228C89B2023080B25A54B8F1000F04D094
:1025C000238C5A1C2284A8F8003000210B188F425B
:1025D000E2699BB20AD9B4F854C09C4506D916F8F2
:1025E00001C0013102F803C089B2EFE7BAF1000F70
:1025F0000CBF30213121B9F1000F01D041F00801A9
:10260000022D09D141F004012046053B9BB201B0E7
:10261000BDE8F04FFFF73EBE012D08BF41F00201BB
:10262000F2E701B0BDE8F08F1FB5089C03940024C9
:1026300002949DF81C4001949DF818400094FFF707
:102640008DFF04B010BD7FB50546104614460E46FA
:1026500005F0CAF800220346CDE901220092314676
:1026600022462846FFF7E0FF04B070BD38B50446A7
:102670000D46FFF77AFE90B16222E36920461A7098
:102680000222E3695A70E3692A129A70E36904220C
:10269000DD70E16901F07CFA003818BF012038BD17
:1026A00038B504460D46FFF760FE90B17222E3692B
:1026B00020461A700222E3695A70E3692A129A705E
:1026C000E3690422DD70E16901F062FA003818BFA5
:1026D000012038BD2DE9F04F87B000AF0446FFF769
:1026E00044FE8146B0B100F0F3FE4FF47A73226DE0
:1026F00006465343A26A821A9A4203D8626A821A31
:1027000093421BD294F82C304BB1204601F0B4FB1D
:102710004FF0000948461C37BD46BDE8F08FC02188
:10272000E26920461170E2695370E169022201F00A
:102730002FFA0123C4E9096684F82C30204601F001
:1027400061FB0028E6D0204607F11701FFF742FDA4
:1027500083460028DED0E369A662197801F0F00212
:10276000302A7DD1D4F830A0BAF1000FD2D097F83A
:1027700017C0C7F800D003EB0C025578917801EB35
:1027800005218DB2694605F10802D208A1EBC2020B
:10279000954668460CF10302FA6003EB020E0DEB5E
:1027A0000502C7F808D07A60D7E901218A4206D02D
:1027B0000A461EF8018B02F8018BBA60F4E700228A
:1027C000425593F80080F96808F00608ABEB0C025C
:1027D000033AB8F1020FA2EB0502294424D113F801
:1027E00001E0194491F801B00CF105012944023AC5
:1027F00019440BEB0E2BD0474022E3691FFA8BFBE9
:102800001A70E36983F80180E3694FEA2B229A701A
:10281000E369042283F803B02046E16901F0B8F9C6
:102820006662D7F800D075E7B8F1040F15D113F838
:1028300001E0194491F801B00CF105012944023A74
:1028400019440BEB0E2BD0475022E3691FFA8BFB88
:102850001A700222E3695A70D6E71944D047E0E7BC
:10286000502A08D19A78D978204601EB022189B202
:10287000FFF7FCFE4EE7402A12D1626B002A3FF4BC
:1028800049AFBBF1040F7FF445AF11F0060F7FF4A1
:1028900041AF9978D87800EB012080B2904739E7B2
:1028A000602A08D19A78D978204601EB022189B2B2
:1028B000FFF7F6FE2EE7702ADFD0902A3FF42AAF0A
:1028C000C02A0AD1D0221A700022E36920465A7029
:1028D000E169022201F05CF91CE7D02A04BF002361
:1028E00084F82C3016E770B504460E461546FFF7FF
:1028F0003CFDF0B1238C01339BB2C3B12384238C04
:10290000E2691B125371E369228C31469A71E269C4
:1029100007232046FFF70FFDE36982211D54043889
:10292000E26983B22046BDE87040FFF7B3BC0123E3
:10293000E4E770BD0022FFF7D6BF000038B50546BA
:10294000FFF713FD10B12846FFF7E1FCE86908B175
:10295000FDF7A9FB05F1380001F0E6FB0A4BAC6975
:102960002B607CB16368013B63605BB923682046E0
:102970009B689847A368013BA3601BB92368204666
:10298000DB689847284638BD5CA40A0810B5054B9B
:1029900004460360037C1BB9406808B100F0E0FF07
:1029A000204610BDECA30A0810B50446FFF7EEFF61
:1029B0002046142102F057FD204610BD10B50446F4
:1029C000024B0360FFF7E2FF204610BD0CA40A088B
:1029D00010B50446FFF7F2FF2046302102F043FD18
:1029E000204610BD10B5074B04460360037C1BB99D
:1029F000406908B100F0B4FF2046FFF7C7FF20464A
:102A000010BD00BFFCA30A0810B50446FFF7EAFF9B
:102A100020462C2102F027FD204610BD034A02600B
:102A20000022C0E90122C26002747047ECA30A08C8
:102A300038B5037C04460D460BB1002038BD406814
:102A400038B100F095FF0028F7D0C4E90105012056
:102A5000F4E7084600F07CFFF5E770B5C3680E4662
:102A6000D11843680446154673B183688B420BD373
:102A70006068E3682A463146184404F007F90120EB
:102A8000E2682A44E26070BD2046FFF7D1FF0028CB
:102A9000EED1F8E70023C3607047000008B5034695
:102AA000FFF7BCFF034A18461A600022C3E905225B
:102AB000DA6108BDFCA30A080346D3E9050398427E
:102AC00004D20378012B18BF002070470020704704
:102AD00070B513689D68136803F11004146086696B
:102AE000B4420AD29B698C68A34201DAAB42F2DDA0
:102AF000A342CCBF0020012000E0002070BD2DE9E2
:102B0000F3410546174600269846089C01F110033C
:102B100001930198AB6983421BD982688B689A4202
:102B200017DAA6420BD1386001AA2846FFF7D0FF7A
:102B300028B1019BC8F8003002B0BDE8F08101AABD
:102B40002846FFF7C5FF284601AA0136FFF7C0FF58
:102B5000DFE70020F0E7F0B50024013BD1E9017682
:102B6000F61BA64208DDA34206DD45683D442D5D07
:102B7000013402F8015BF1E700231370F0BD00009F
:102B80001FB5144610236A46FFF7E5FF2246684644
:102B9000034900F0FDFE431E5842584104B010BDE9
:102BA000DBA70A081FB5144610236A46FFF7D3FFB8
:102BB0000021684605F05CFC2060012004B010BDD7
:102BC00010B5044600680B4628B101F0D8FBE36855
:102BD0000133E36010BD60680028F8D0D4E9022119
:102BE000013A8A4288BF4354F1E77F2870B50C460A
:102BF000C1B204D82046BDE87040FFF7E1BF01F044
:102C00003F01B0F5006F40F3871641F0800507D211
:102C100066F03F01C9B22046FFF7D2FF2946E9E737
:102C2000030B43F0E0012046FFF7CAFF06F03F0127
:102C300041F08001EFE700002DE9FF4700248046C6
:102C40000F461546A1464E68DFF8C4A0B868B042EA
:102C50005ADDD8F80430995D9A19002C4BD07529AB
:102C600005D86D2907D862291ED066291ED02846AE
:102C7000FFF7A6FF3DE0A1F16E04072CF7D80FF295
:102C8000080C5CF824F000BFB12C0A086F2C0A086D
:102C90006F2C0A086F2C0A08B52C0A086F2C0A083A
:102CA000B92C0A08BD2C0A080821E0E70C21DEE750
:102CB0000A21DCE70D21DAE70921D8E7311D884236
:102CC00017DD02A908460433334412F8014F9A4233
:102CD00001F8014BF9D1514601AA8DF80C9000F092
:102CE00057FE012805D12946BDF80400FFF77DFFF6
:102CF0000536002404E05C2904D02846FFF760FF75
:102D00000136A3E70124FBE7012004B0BDE8F0870A
:102D1000D0A30A087FB50C46154606460B49104657
:102D200001F09EFAD4E90131C91A2846013101F0B7
:102D300019FA00236A4621463046CDE90133009551
:102D40000393FFF779FF04B070BD00BFC3A20A0868
:102D50002DE9F04389B00546884604A81249164675
:102D60009946002701F02AFA4B464146284600972B
:102D700003AAFFF7C4FE044670B12846039904AACB
:102D8000FFF7C8FF044608B90137EDE7314604A84C
:102D900001F033FB0028F7D004A801F0C5F9204664
:102DA00009B0BDE8F08300BFC3A20A0800230122D6
:102DB000C3604361028380F82A3070470023C360F8
:102DC00001230374054B10B503604FF0FF33C0E9D6
:102DD0000112C362FFF7EAFF10BD00BF0CA40A088E
:102DE000D0E90223934228BF012310B53FBF4268B8
:102DF0005C1CC460D15428BF80F82A3010BD10B5C7
:102E00004369044643B100EB4303597E09B1FFF720
:102E1000E7FF6369013B63610022D4E90210636844
:102E200088422ABF5B181A5403F8012C10BD70B5F4
:102E30000446D0E9025066682D1A134630440A460B
:102E4000294600F0C5FD854237BFA368E368E3600B
:102E5000012326BFC018E06084F82A3070BD0EB48C
:102E600003B503AA52F8041B0192FFF7E0FF02B07A
:102E70005DF804EB03B070472DE9F84304460E46B5
:102E8000174612B12221FFF7ABFF0025DFF80881BA
:102E9000715D06EB0509002974D0D4E902329A422B
:102EA00070D20B0634D501F0F003E02B05F10109D7
:102EB0001DD116F8092002F0C003802B39D105F18D
:102EC000020916F8093003F0C000802831D103F060
:102ED0003F03920143EA013302F47C621A4392B247
:102EE00041462046FFF7BBFF4D460135D0E701F0D4
:102EF000E003C02B1DD116F8093003F0C002802A70
:102F000017D1890101F4F86203F03F031A43E7E7A0
:102F10000D290AD807290CD9A1F10803052B08D8D7
:102F2000DFE803F00B231707111D222923D05C29AA
:102F300021D02046FFF754FFD7E75C212046FFF75A
:102F40004FFF6221F5E75C212046FFF749FF66212C
:102F5000EFE75C212046FFF743FF6E21E9E75C21A4
:102F60002046FFF73DFF7221E3E75C212046FFF793
:102F700037FF7421DDE75C212046FFF731FF99F828
:102F80000010D6E72FB12046BDE8F8432221FFF715
:102F900027BFBDE8F88300BFD5A30A08426900EB4C
:102FA00042031A7E12B100221A7670472C21FFF7D5
:102FB00017BFF8B543690E460133082B17460ED8E4
:102FC000FFF7ECFF0125436931465A1C00EB430330
:102FD00042619D76DF76FFF703FF2846F8BD0020AB
:102FE000FCE7000037B50446C56A084602F0B8FCA5
:102FF000002D02460B4608DBCDE9002320462A4679
:103000000549FFF72CFF03B030BD2046034903B04C
:10301000BDE83040FFF723BFDCA30A08E1A30A089C
:103020002DE9F04F4FF0010C4FF0FF35044640689A
:10303000D4F800E0964580F0BE8111F80E80B8F11A
:10304000000F00F0B881B8F13A0F00F09B8033D840
:10305000B8F1220F00F0AD8010D8A8F109085FFA8E
:1030600088F8B8F1170F0DD8C04F0CFA08F818EA15
:10307000070F07D0276801372760D9E7B8F12C0F71
:1030800000F03681D4F8008042450ED911F808705E
:103090005FB13A2F00F26E811F2F00F252810A2F8A
:1030A00000F26181082F40F25781002B40F06781C8
:1030B00008F1FF372760ABE0B8F17B0F3AD00AD8B0
:1030C000B8F15B0F36D0B8F15D0FDBD1002BD1D05A
:1030D0004FF0020B06E0B8F17D0FD3D1002BC9D021
:1030E0004FF0010B676807F1FF3803EB0719B8F1E0
:1030F000000F4FDB59F80C7CA9F1100A013745D0BD
:1031000059F8087C7E1C41D19AF80090D94545D1E8
:10311000A7600EF10107CAF8087003EB081EDEF87D
:10312000047001373DD0DEF80870013739D1C4F89A
:1031300008809FE70130002B9CD06768099EBE4243
:103140004ED9002607F1010EC4F804E003EB071E78
:10315000CEE90155CEF80C604FEA071AA7687E1C2D
:103160001FBF03EB0719D9F80C700137C9F80C70B1
:10317000B8F17B0F0CBF0127022703F80A702768FC
:10318000CEF804706768013FA76073E7D14608F185
:10319000FF38ACE7B8F1FF3F7FF46CAF6FF0010090
:1031A00020E008F1FF38B8F1FF3FAEF1100EB6D1C4
:1031B00060E70EF10109C4F80090D4F800804245A0
:1031C00040F2918011F80870002F00F08C80222FBF
:1031D0002ED1EBB16768099EBE4205D8C4F800E065
:1031E0004FF0FF30BDE8F08F00264FF0030A07F1E3
:1031F000010E4FEA071803EB0717C4F804E0C7E90C
:103200000155FE60D4F800E003F808A0C7E9019E6C
:10321000A76801307E1C3FF42DAF002B3FF42AAF8E
:1032200003EB071EDEF80C700137CEF80C7021E7B7
:103230005C2F11D108F10107BA420DD92760CF5D8B
:10324000752F2BD86D2F0BD8662F27D85B2F1DD845
:10325000222F01D02F2F21D1276801372760ACE71B
:103260006E3F072F1AD801A656F827F059320A08E0
:103270009D320A089D320A089D320A0859320A080E
:103280009D320A0859320A08A3320A0840F2414620
:103290005C3FFFB20CFA07F73742DDD1C4F800E01B
:1032A0007CE74FF0040A08F102072760D4F8008099
:1032B000424503D82768013F2760CDE711F8087021
:1032C000002FF7D0A7F1300BBBF1090F04D927F07D
:1032D0002007413F052FE1D808F10107BAF1010AA3
:1032E0002760E3D1E6E7C4F800E06FF0020079E779
:1032F000002B3FF4BFAEA7687E1C3FF4BBAE3F017E
:10330000DF5D013F012F7FF6B5AE676807F1FF383B
:1033100003EB071EB8F1000FFFF6ACAE1EF8107CF1
:10332000013F012F08D85EF80C7C013704D05EF80D
:10333000087C01373FF4FBAE08F1FF38AEF1100E08
:10334000E8E7A7F120090A4E5FFA89F90CFA09F9B2
:1033500019EA060F7FF4A9AE203F5E2F9ED808F130
:10336000010727608EE60D2FF6D19EE61300800040
:103370000110000407F0DF09B9F15D0FF4E7676899
:10338000099EBE427FF62AAF00264FF0040A07F1DD
:1033900001084FEA071903EB0717C4F80480C7E9CF
:1033A0000155FE60D4F8008003F809A0C7E901E8E0
:1033B0002768013F7EE6002B3FF414AF6268511E80
:1033C00003EB02130029FFF60DAF53F80C2C01326A
:1033D00003D053F8082C013287D00139103BF1E7B4
:1033E000F7B5C268044612B9002003B0F0BD4369C6
:1033F00000F12006ABB10021C0E908114FF0FF3108
:103400008162C169009141683046FFF709FE431CA3
:103410002CD1257C002DE7D1606900F0A1FA65610F
:10342000E56100254FF0FF372B463046C4E90855CB
:10343000E2686168A7620095FFF7F2FD0028D3DB20
:10344000E0611BD0000100F083FAE269034660618D
:1034500000923046C4E90855E2686168A762FFF748
:10346000DFFD636903EB0013A36105E00028BBDB0C
:10347000636903EB0010A0610120B6E76369F3E71D
:1034800008B5024B1B689B68019308BDB001060894
:1034900008B5024B1B68DB68019308BDB001060844
:1034A00008B5024B1B681B69019308BDB0010608F3
:1034B00008B5024B1B685B69019308BDB0010608A3
:1034C00008B5024B1B685B68019308BD9C010608A8
:1034D00008B5024B1B685B69019308BD9C01060897
:1034E00008B5024B1B689B6D019308BD9C01060843
:1034F00008B5024B1B685B6E019308BD9C01060872
:1035000008B5024B1B685B6C019308BDD00106082F
:1035100008B5024B1B689B6C019308BDD0010608DF
:1035200008B5024B1B68DB6C019308BDD00106088F
:1035300008B5024B1B685B6D019308BDD0010608FE
:1035400008B5024B1B689B69019308BDC4010608BE
:1035500008B5024B1B685B6A019308BDC4010608ED
:1035600008B5024B1B689B6A019308BDC40106089D
:1035700008B5024B1B68DB6A019308BDC40106084D
:1035800008B5024B1B681B6B019308BDC4010608FC
:1035900008B5024B1B685B6B019308BDC4010608AC
:1035A00008B5024B1B689B6B019308BDC40106085C
:1035B00008B5024B1B681B6C019308BDC4010608CB
:1035C00008B5024B1B68DB6C019308BDC4010608FB
:1035D00008B5024B1B681B6E019308BDAC010608C1
:1035E00008B5024B1B685B6E019308BDAC01060871
:1035F00008B5024B1B689B6E019308BDAC01060821
:1036000008B5024B1B68DB6E019308BDAC010608D0
:1036100008B5024B1B681B6F019308BDAC0106087F
:1036200008B5024B1B685B6F019308BDAC0106082F
:1036300008B5034B1B68D3F88030019308BD000028
:10364000AC01060808B5024B1B681B68019308BD56
:10365000BC01060808B5024B1B685B68019308BDF6
:10366000BC01060808B5024B1B689B68019308BDA6
:10367000BC01060808B5024B1B68DB68019308BD56
:10368000BC01060808B5024B1B681B69019308BD05
:10369000BC01060808B5024B1B681B6A019308BDF4
:1036A000BC01060808B5024B1B681B6B019308BDE3
:1036B000BC01060808B5024B1B685B6C019308BD92
:1036C000BC01060808B5024B1B681B68019308BDC6
:1036D000B401060808B5024B1B685B69019308BD7D
:1036E000B401060808B5024B1B68DB69019308BDED
:1036F000B401060808B5024B1B681B6A019308BD9C
:10370000B401060808B5024B1B681B68019308BD8D
:10371000D801060808B5024B1B685B68019308BD19
:10372000D801060808B5024B1B681B69019308BD48
:10373000D801060808B5024B1B685B69019308BDF8
:10374000D801060808B5024B1B689B69019308BDA8
:10375000D801060808B5024B1B68DB69019308BD58
:10376000D801060808B5024B1B681B6A019308BD07
:10377000D801060808B5024B1B685B6C019308BDB5
:10378000C001060808B5024B1B689B6C019308BD7D
:10379000C001060808B5024B1B681B6D019308BDEC
:1037A000C001060808B5024B1B685B6F019308BD9A
:1037B000C001060808B5024B1B681B6D019308BDCC
:1037C000A801020808B5024B1B681B68019308BDDD
:1037D000A401060808B5024B1B685B68019308BD8D
:1037E000A401060808B5024B1B685B69019308BD7C
:1037F000A401060808B5024B1B689B6D019308BD28
:10380000A401060808B5034B1B68D3F89030019358
:1038100008BD0000A401060808B5034B1B68D3F8D7
:103820009C30019308BD0000A401060808B5034BB5
:103830001B68D3F8B430019308BD0000A40106084A
:1038400008B5024B1B685B68019308BDC8010608F8
:1038500008B5024B1B689B68019308BDC8010608A8
:1038600008B5024B1B68DB68019308BDC801060858
:1038700008B5024B1B681B69019308BDC801060807
:1038800008B5024B1B685B69019308BDC8010608B7
:1038900008B5024B1B689B69019308BDC801060867
:1038A00008B5024B1B68DB69019308BDC801060817
:1038B00008B5024B1B681B6A019308BDC8010608C6
:1038C00008B5024B1B681B6B019308BDC8010608B5
:1038D00008B5024B1B685B6B019308BDC801060865
:1038E00008B5024B1B681B68019308BDCC01060894
:1038F00008B5024B1B685B68019308BDCC01060844
:1039000008B5024B1B689B68019308BDCC010608F3
:1039100008B5024B1B68DB68019308BDCC010608A3
:1039200008B5024B1B685B69019308BDCC01060812
:1039300008B5024B1B681B6B019308BDCC01060840
:1039400008B5024B1B68DB6B019308BDCC01060870
:1039500008B5024B1B681B68019308BDA00106084F
:1039600008B5024B1B685B68019308BDA0010608FF
:1039700008B5024B1B689B68019308BDA0010608AF
:1039800008B5024B1B681B69019308BDA00106081E
:1039900008B5024B1B685B69019308BDA0010608CE
:1039A00008B5024B1B689B69019308BDA00106087E
:1039B00008B5024B1B68DB69019308BDA00106082E
:1039C00008B5024B1B681B6A019308BDA0010608DD
:1039D00008B5024B1B685B6A019308BDA00106088D
:1039E00008B5024B1B681B6B019308BDA0010608BC
:1039F00008B5024B1B685B6C019308BDA00106086B
:103A00008068FFF795BD70B5002604460D4640F866
:103A1000086FFFF775FD28462570FFF763FE204607
:103A2000666070BD38B504460D468068FFF778FDC6
:103A300020782946FFF746FE2046FFF7E1FF38BD14
:103A400008B50078FFF746FEC0B208BD10B50446C1
:103A5000006818B1FFF784FF0023236010BD10B584
:103A60000446FFF7F3FF204610BD07B50B460021C3
:103A70000246009101208C21FFF7D8FE03B05DF8CB
:103A800004FB01460020FFF7F0BF0020FFF7F9BF5D
:103A90000222002010B5084B084C1A60084B206029
:103AA000A080A071A360FFF795FE2046BDE81040FE
:103AB000044A054901F0D2BCAC050020A005002055
:103AC0000000FFFF500200205F3A0A0810B50446CC
:103AD00003F08AFE431E20462344834206D902781F
:103AE000197800F8011B03F80129F6E710BD70B53D
:103AF0000C46911E222922D8254668B1B0FBF2F669
:103B000002FB1600C1B2092894BF30315731C9B247
:103B1000304605F8011BF0E72A4630212344934242
:103B200002D902F8011BFAE75A1BAB4238BF002248
:103B300000232046AB54FFF7C9FF204670BD00208C
:103B4000FCE738B5031E0C4615460DDA2D22B3F1FD
:103B5000004F0CBF1846584201230A702A461944E8
:103B6000FFF7C5FF204638BD0123F9E708B501235B
:103B7000FFF7BDFF08BD13B503688DF80710DC6BB8
:103B8000012247F230530DF10701A04702B010BDEA
:103B900010B40368DC6B47F23053A44610BC604796
:103BA00013B5134602688DF80710D46B0DF10701A9
:103BB0000122A04702B010BD7047704710B50446FF
:103BC000064B0846994204F10C0404D001F050FC65
:103BD000002808BF0024204610BD00BF4CA40A08DE
:103BE00010B50446AC2101F03EFC204610BDFCF7A8
:103BF00058BA000038B50B4B8469054603607CB1A8
:103C00006368013B63605BB9236820469B68984703
:103C1000A368013BA3601BB923682046DB68984773
:103C2000284638BD5CA40A0810B50446FFF7E2FF39
:103C300020461C2101F017FC204610BD70B504463B
:103C400006464D69044B8C3544F8043B0FCD0FC438
:103C50002B683046237070BDE0A40A0810B5436994
:103C60000446B3F88620B3F884309A4205D06369DD
:103C7000B3F884201344187910BD03681B69984772
:103C80000028F4D14FF0FF30F6E710B54369044641
:103C9000B3F88620B3F884309A4208D06369B3F849
:103CA0008420511CA3F884101344187910BD0368B4
:103CB0001B6998470028F1D14FF0FF30F6E7F8B5BF
:103CC00043691746B3F88620B3F8843005469A4214
:103CD0000E4616D069693046B1F88430B1F8864096
:103CE000E41ABC4228BF3C4604332246194402F081
:103CF000CDFF6A69B2F884302344A2F884302046AC
:103D0000F8BD03681B6998470028E3D14FF0FF34E2
:103D1000F5E700234269A2F884304269A2F88630B0
:103D2000704700002DE9F0431F4603688BB0DB6A43
:103D300005460C4616469847384601F09DFA03683A
:103D4000DB689847002854D0334606220121022020
:103D50000097D5F81480FFF785FC2023C8F80000F1
:103D60004FF00008CDE902386B6901201B68234938
:103D70000193234B02AA00934346FFF71BFD6B6997
:103D80001868FFF767FC002833D02846FFF7C1FF0B
:103D90000223ADF80830E37976BA8DF80C30A379B8
:103DA0004FF4FA508DF80D306379ADF80A608DF854
:103DB0000E3014F8043F8DF80F30FFF7DBFC6B6911
:103DC00006461022186802A9FFF754FC81463046C7
:103DD000FFF7D0FC0FCC6E698C360FC623683370AA
:103DE0002F61B9F1000F07D02B682846DB6A98478E
:103DF00040460BB0BDE8F0830120FAE714A40A089E
:103E00001BA40A0838B542690446B2F886302BB1C3
:103E1000B2F884209A4201D1FFF77BFF206901F0BC
:103E20002BFA0368DB689847F8B163691868FFF7F5
:103E300011FCD0B16069B0F886107F2915D8051D36
:103E4000C1F18002002300682944FFF71BFC002811
:103E50000BDD6369B3F886200AB9A3F8842063698F
:103E6000B3F886201044A3F886006369B3F886008F
:103E7000B3F88430C01A38BD38B5436904461868B1
:103E8000FFF7E8FB18B163691868FFF703FC656981
:103E9000FFF708FC28606069112200218C3002F0D5
:103EA00003FF2046BDE83840FFF733BF10B5436934
:103EB00004461868FFF7CEFB08B9002010BD206942
:103EC00001F0DAF90368DB6898470028F5D06369E8
:103ED0001868FFF7B7FBB0FA80F04009EEE708B5C5
:103EE000FFF7E4FF003818BF012008BD2DE9F341BA
:103EF0000027476004460D4616469846FFF7D6FF52
:103F000070B1CDE9008760693B46324629460068BA
:103F1000FFF7D0FB002800DA606002B0BDE8F08156
:103F20004FF0FF30F8E770B50546FFF7BFFFE8B97F
:103F30006B69B3F88610B3F88420914216D11868E3
:103F4000FFF788FB08B9002070BD6B691868FFF7A0
:103F500079FB01280446F6D12B6828461B6998474F
:103F600030B92B682846DB6A9847ECE70120EBE77D
:103F70002046E9E7002310B504460160C0F884300C
:103F8000883000F02DFE204610BD0000F8B54FF43B
:103F90007A720023C0E901320D4A03610260436175
:103FA0000446AC200E46FCF778F8051E05F10C0718
:103FB00008D00123C5E90133064B314638462B6052
:103FC000FFF7D8FF2046C4E90575FFF7A2FEF8BD4C
:103FD0005CA40A0838A40A0810B50446FFF762FB7F
:103FE00001462046FFF7D2FF204610BD10B504461B
:103FF0000068FFF72FFB10B12068FFF74BFB20464E
:1040000010BD0C30FFF7F2BF2DE9F0431F460368E7
:104010008FB0DB6A06460D4690469847134801F07C
:10402000DEF8F0B102A800F0DBFD284603F0DCFB6F
:10403000002481B23B462846009403AAFFF7A2FB66
:1040400090B9336809ADD3F82090094B03AC0893BD
:104050000FCC0FC5236842462B7030463B4608A95B
:10406000C8470FB0BDE8F0832046FAE740060020BD
:10407000E0A40A082DE9F04707460D4616461C46FF
:10408000002200233846294601F034FF20B12D23B9
:1040900005F1004504F8013B00234FF0010A0A2214
:1040A000D9B28E4203D902FB0AFA0133F8E750462F
:1040B00001F044FC3A462B4601F0AAFC80468946B2
:1040C00002F034FB05460F4601F06CFC02460B463D
:1040D0004046494601F0E4FA0022124B01F01EFF6F
:1040E00010B1013547F10007524628463946D3172B
:1040F00002F0D0FA0123154621460A22FFF7F7FC09
:104100006EB1204603F070FB2E23211823540A229F
:1041100033462846BDE8F0470131FFF7E8BCBDE86B
:10412000F08700BF0000E03F10B504460068FFF7CD
:1041300017FC204610BD10B50446006808B1FFF713
:104140000FFC0023C4E90133236010BD38B50446D9
:104150000D4600680131FFF70BFC10B1C4E9000502
:10416000012038BD10B50368044623B143688B4273
:1041700001D3012010BD2046FFF7E8FF0028F9D049
:10418000A368002BF5D122681370F2E770B50E46D4
:10419000114604461546FFF7E5FF20B92046FFF714
:1041A000CAFF204670BD2A4631462068A56002F04D
:1041B0006DFD00212268A368D154F2E738B50023D1
:1041C00004460D46C0E900338360037339B10846E5
:1041D00003F00AFB294602462046FFF7D7FF204698
:1041E00038BD38B5054600680C4668B16A688B680A
:1041F0009A4207D3096802F08DFDA368AB600023E3
:10420000A36038BDFFF7ACFB23682B6063686B606D
:10421000A368AB600023C4E90033F1E7884210B51E
:104220000B46044604D0096821B19A68FFF7AEFF37
:10423000204610BDFFF77FFFFAE7002310B50446C4
:10424000C0E9003383600373FFF7E8FF204610BD29
:10425000884210B5044601D0FFF7C3FF204610BDC9
:1042600038B505460C4649B1084603F0BDFA21466B
:1042700002462846FFF78AFF284638BDFFF75BFF56
:10428000FAE71FB5044600230846C4E90033A360DB
:10429000237301A9FFF76AFC204601A9FFF7E0FF9D
:1042A000204604B010BD10B5002304468AB0C4E90E
:1042B0000033A3602373084601A9FFF742FC2046A0
:1042C00001A9FFF7CDFF20460AB010BD10B50023AD
:1042D00004468AB0C4E90033A3602373084601A9E9
:1042E000FFF744FC204601A9FFF7BAFF20460AB0B9
:1042F00010BD10B5002304468AB0C4E90033A360A2
:1043000023730846012301A9FFF7F1FB204601A909
:10431000FFF7A6FF20460AB010BD002330B50446C3
:104320008BB0C0E9003383600373D5B2084601F057
:1043300017FB2A4601ABFFF79DFE204601A9FFF7B8
:104340008FFF20460BB030BD70B505460E4609B94B
:10435000002070BD6AB1846814442146FFF702FF53
:104360000028F5D02868AB683146184402F0D2FC2A
:10437000AC600120EDE78A680968FFF7E5BF00231C
:1043800007B501228DF8041001A98DF80530FFF75B
:10439000DBFF03B05DF804FB13B50A2204460846B0
:1043A0006946FFF7CEFB684603F01EFA69460246EF
:1043B0002046FFF7C9FF02B010BD10B58A68096832
:1043C0000446FFF7C1FF10B92046FFF7B4FE2046B0
:1043D00010BD38B504460D4621B92046FFF7ABFEA7
:1043E000204638BD084603F0FFF92946024620461C
:1043F000FFF7AAFF0028F0D0F2E708B582683AB9C3
:1044000021B10878B0FA80F0400900E0012008BD31
:10441000006809B90078F5E702F072FCF2E70000E5
:10442000F8B51D469A4288BF13460F46144688BF0A
:104430002C460B4988BF1D460646FFF7BFFEBA68EB
:10444000A2420AD33968AA4294BFC4EB0202C4EB69
:10445000050230462144FFF799FE3046F8BD00BF03
:10446000C3A20A0810B504468B68FFF7D9FF20469F
:1044700010BD006808B102F001BB7047F8B50646F0
:104480000D4600248F18BD420CD0336830469B681F
:1044900015F8011B9847031E01DB1C44F3E7002CB1
:1044A00008BF1C462046F8BD70B505460C460846B8
:1044B00049B103F099F92B68024621462846BDE828
:1044C0007040DB68184770BD08B5FFF7EDFF08BD09
:1044D00003689B68184738B50D210546FFF7F8FFBC
:1044E0000A2104462846FFF7F3FF204438BD38B5BB
:1044F0000546FFF7D9FF04462846FFF7ECFF2044A6
:1045000038BD0023012A98BF0A2230B58BB00C4673
:104510008DF8243009A92546B4FBF2F404FB1253AC
:10452000DBB2092B94BF30333733DBB2AA4201F838
:10453000013DF0D9FFF7B8FF0BB030BD2DE9F74FC3
:1045400005461946104692461F469DF8306001F018
:10455000F9FC40B150492846FFF7A6FF0446204623
:1045600003B0BDE8F08F27F000444FF0FF32504613
:1045700021464A4B01F0E6FC48B94FF0FF32504665
:104580002146464B01F0C0FC08B94549E3E74FF02E
:10459000604250463946434B01F0CAFC08B14249DB
:1045A000D9E74FF0604250463946404B01F0A2FC3B
:1045B0000028F4D1002200235046394601F09AFC2D
:1045C000044630B12D212846FFF782FF044607F14B
:1045D00000474FF0000B00204FF000083449DFF88F
:1045E000D8905FFA8BF39E4206D942464B4601F0C3
:1045F00039FB0BF1010BF4E73B46524601F052F850
:104600008946804601F0DCFC074601F087F9024646
:104610000B464046494601F043F80A228046894647
:1046200028463946FFF76DFF044426B12846214944
:10463000FFF73AFF04444FF0000ADFF87CB0013E78
:10464000F6B2FF2E8BD052465B464046494601F0FB
:10465000DFF98046894601F08BFC071E19DA2D210F
:104660002846FFF735FF034679420A222846019380
:10467000FFF747FF019B034438461C4401F05EF9F5
:1046800002460B464046494601F00AF880468946F4
:10469000D5E739460023E8E7A0A40A08FFFFEF7F2B
:1046A000A4A40A08FFFFEF41A8A40A08FFFFEFC176
:1046B0000000E03F01A20A080000244037B505468B
:1046C0001446084601F04CF9E4B202460B4628466F
:1046D0000094FFF733FF03B030BD37B59DF81810D5
:1046E00005460091FFF72AFF04462846FFF7F3FE30
:1046F000204403B030BD37B504460846154601F0E6
:104700002FF9009502460B462046FFF7E6FF03B05F
:1047100030BD002340681A461946FFF7B1B80000C3
:10472000014B024A1A607047B0050020ACA40A0889
:1047300008B50020FFF7FCF828B1FFF7F1F880F08A
:104740000100C0B208BD0120FCE7000010B50A4915
:10475000044601F051FF68B92046084901F06AFF9C
:1047600040B90749204601F0A9FD01F0ABFF054B18
:10477000C3E9000110BD00BF000040C1000060415E
:1047800000006145C805002030B50446184893B0C4
:10479000D0E90010521840EB030316480025D0E979
:1047A0000010521840EB0303CDE90023242200211E
:1047B0000DEB020002F078FA09A9684602F070F9E0
:1047C0001622294603A8029502F06EFA02A909A84A
:1047D00002F02EF902A803F007F812AB184400F813
:1047E000415C02A92046FFF7E9FC204613B030BD2A
:1047F000C8050020C00500202DE9F04FA5B00746F0
:10480000884614A811463F221D4603F007F80023EE
:1048100014A88DF88F3002F0E7FF04465DBB2A49EB
:1048200003A802F077FA002514AE04F1FF3BAB4574
:1048300036D9B14619F8013B05F1010A252B17D1EC
:1048400073787A2B14D103A802F0CEFF044614AB80
:1048500028181844ABEB0502B11C02F017FA2246E7
:1048600003A9304602F012FA14A802F0BDFF044674
:104870004E465546D9E73C2195FBF1F3002BB8BFD6
:104880005B42B3FBF1F201FB123300934FF461631F
:10489000102195FBF3F30D4A03A8FFF789F8C2E74F
:1048A00000212E2208A8079102F0FEF9434614AA1F
:1048B000322107A802F08EFF384607A9FFF77EFCD9
:1048C000384625B0BDE8F08F89AA0A08B0A40A08C6
:1048D000F0B58DB0129D0446CDE9002315B9194BF2
:1048E0001D682DB1184B2846196802F009FA38B92D
:1048F000DDE900232046FFF747FF20460DB0F0BD5D
:104900000099124E124FD6E900325B18019941EB23
:104910000202D7E900011B1841EB0202CDE9003287
:104920000021242203A802F0BFF903A9684602F07F
:10493000B7F832683B682046134403A92A46FFF7BC
:104940005BFFDAE7B805002010000020C805002052
:10495000C005002010B50020FEF7C2FD0446A0B936
:10496000FEF730FF012810D12046FEF743FF60B963
:10497000FFF7DEFE10B9FEF7C3FFF9E7FFF7D8FE39
:10498000BDE810400020FEF7ABBD204610BD1FB5AE
:10499000FFF7E0FF10220021684602F085F90021B0
:1049A0006846FEF7A5FD009805B05DF804FB000021
:1049B000024B1A68024B1A60704700BF10000020BB
:1049C000B80500200021FEF70DBF10B5836804462E
:1049D00013B1032201469847204610BD10B5044686
:1049E000FFF7F3FF204610BD00230348034A0449A4
:1049F000836000F033BD00BFD005002050020020CE
:104A0000DD490A08014B1860704700BF1400002000
:104A100008B5134B43B100F095F903681B6998473B
:104A2000002801DDAFF300800E4B43B100F03CFAEB
:104A300003681B699847002801DDAFF300800A4B2B
:104A40000BB1AFF30080094B43B100F0ABF9036841
:104A50001B699847002801DDAFF3008008BD00BF47
:104A60000000000000000000000000000000000046
:104A700008B5FFF7CDFFFEF72BFD014B186008BD11
:104A8000480600200248034A0349121A02F0FEB801
:104A9000004002400440024008AD0A08002307B568
:104AA0001A466FF077010093FEF7B6FE03B05DF88B
:104AB00004FB000007B543880A2B08D0502B0BD10C
:104AC000094B1B684BB103B05DF804EB1847FFF7C7
:104AD000E5FF03B05DF804FB00231A466FF0770191
:104AE0000093FEF799FEF4E7E405002038B5124C78
:104AF00000211248FEF77CFF114D2368AB420CBF2A
:104B0000012200220F4B1A7002D0FFF7BBFF256075
:104B1000FEF7D6FC044602F0CFF80B4B13B120464B
:104B2000AFF3008000210848FEF70AFFBDE83840D7
:104B300000210648FEF766BE00400240054A0A080A
:104B40001E1C279AE005002000000000B54A0A0854
:104B500010B588B004466846FFF730FB694604A8E4
:104B6000FFF76BFB04A8A047044604A8FFF7DCFA94
:104B70006846FFF7D9FA204608B010BD1FB50023DC
:104B80001024CDE90201019269461A461846ADF893
:104B90000230ADF80040FEF7ABFE04B010BD704728
:104BA00010B50446182100F05EFC204610BDF8B593
:104BB0000E46002400F10807051D17F8011D0A2202
:104BC0003046FFF79EFCAF42044401D12046F8BDB9
:104BD000002CF2D02E213046FFF77AFC0444ECE79B
:104BE00010B50446044B1122002140F8043B02F0AA
:104BF0005BF8204610BD00BFE0A40A080346074A40
:104C000010B543F8042B01F1100251F8044B914206
:104C100043F8044BF9D10A781A7010BDE0A40A08D1
:104C2000024AC0E90021042202757047E0A40A0884
:104C300010B59DF8084044EA0324042344EA0244E2
:104C400044EA01644460037510BD000037B5044DAB
:104C500005609DF818500095FFF7EAFF03B030BDDE
:104C6000E0A40A0813B5CB7800938B784A780978CA
:104C7000FFF7DEFF02B010BD10B50446024B036023
:104C8000FFF7F0FF204610BDE0A40A08417470470A
:104C9000704708B50021007CFEF754FD40EAE07043
:104CA00008BD08B50121007CFEF74CFD40EAE0702C
:104CB00008BD08B5007CFEF73DFD20EAE07008BDA8
:104CC00008B5007CFEF72EFD20EAE07008BD38B57F
:104CD0000446007C0D46FEF72DFD002801DC607CBB
:104CE00028B12946207CFEF735FD20EAE07038BD6A
:104CF000007CFEF737BD10B50446142100F0B3FB6D
:104D0000204610BD10B54FF47A73044608460021C2
:104D1000C4E90113044B207423600123114663741A
:104D2000FEF7F0FC204610BDF4A40A080022007C27
:104D3000FEF7F0BC10B504461422002101F0B4FFC8
:104D4000204610BD30B50F4D87B001A8FFF7F2FF28
:104D50002978BFF35B8F11F0010410D12846FBF7CF
:104D6000A4F960B1214601AA0748FFF7CBFF284606
:104D7000FBF7A0F9054A0649034800F06FFB02481B
:104D800007B030BDE8050020F005002050020020EB
:104D9000914C0A0810B504461422002101F084FF4A
:104DA000204610BD10B50F4C86B001A8FFF7F2FFEA
:104DB0002378BFF35B8FDB0710D42046FBF775F930
:104DC00060B1012101AA0848FFF79CFF2046FBF7CC
:104DD00071F9064A0649044800F040FB024806B053
:104DE00010BD00BFEC05002004060020500200208A
:104DF000914C0A0870474174704708B5007CFEF773
:104E0000D7FB20EAE07008BD08B5007CFEF7A8FBE0
:104E100020EAE07008BD08B5007CFEF7B1FB40EA6F
:104E2000E07008BD08B5007CFEF7A2FB40EAE07028
:104E300008BD007CFEF7ACBB70B5467C04460D4651
:104E40002EB12946207CBDE87040FEF781BB007C76
:104E5000FEF7AEFB0028F4DC304670BD10B504460A
:104E6000142100F000FB204610BD00004FF0000CA4
:104E700010B50446084611464FF47A72C4E901C2DF
:104E8000044A20742260012262741A46FEF758FB1D
:104E9000204610BD24A50A080023007CFEF790BB25
:104EA0000022FFF7F9BF0000F8B51A4C26684EB98A
:104EB0008420FBF7F2F8054618B18422314601F050
:104EC000F3FE2560144D2F684FB98420FBF7E5F8F9
:104ED000064618B18422394601F0E6FE2E600F4FD7
:104EE0003978BFF35B8F11F0010611D13846FBF71B
:104EF000DCF868B1314622682B680948FFF7B6FF35
:104F00003846FBF7D7F8074A0749054800F0A6FAE4
:104F10000348F8BD1C0600202006002018060020CB
:104F20002406002050020020F54D0A087047F8B50D
:104F3000064615460C468F18BC4206D033683046EC
:104F40009B6814F8011B9847F6E72846F8BD002235
:104F5000007CFEF73DBB0021007CFEF741BB002139
:104F6000007CFEF745BB0021007CFEF749BB002119
:104F7000007CFEF74DBB10B50446142100F073FA17
:104F8000204610BD10B54FF47A7304460846002140
:104F9000C4E90113034B114623602074FEF748FB5C
:104FA000204610BD54A50A08704701207047002212
:104FB00040681146FEF75CBC10B50446242100F0A1
:104FC00052FA204610BDF0B5154689B011220E46A2
:104FD0000446002103A801F067FE284602F004FC05
:104FE000002781B273682846009703AAFEF7CAFB20
:104FF00030B139462046FFF713FE204609B0F0BD18
:10500000204603A9FFF7FAFDF7E7002240681146A2
:10501000FEF74EBC002240681146FEF759BC002244
:105020004068FEF74DBC0022406881F00101FEF7A8
:1050300037BC002340681A461946FEF729BC0022F7
:1050400040681146FEF704BC002202214068FEF7CA
:1050500007BC002340681A46FEF7F2BB08B58389F7
:105060005BB14069002808DB01F0D4F8044901F085
:10507000D9F9044901F022F908BD0348FCE700BF53
:1050800000FF7F470000C842000080BF08B5838949
:105090004BB10069B0F1004F05D001F0BBF80349F6
:1050A00001F0C0F908BD0020FCE700BF0000C842C5
:1050B00008B583895BB1006A002808DB01F0AAF813
:1050C000044901F0AFF9044901F0F8F808BD0348BC
:1050D000FCE700BF00FF7F470000C842000080BF20
:1050E00008B583894BB18069B0F1004F05D001F05C
:1050F00091F8034901F096F908BD0020FCE700BFD4
:105100000000C84290F90400704770B50C4606468E
:1051100000F10C050FCC0FC594E8030085E80300EF
:1051200033690120B3F1004F16BF6422022393FBC1
:10513000F2F37360B369B3F1004F16BF642200232A
:1051400093FBF2F3B36070BD2DE9F04100254FF001
:10515000020818260F46144B32462946C0E901853D
:1051600086B0036004460C3001F09EFD2A462946B5
:105170007868FEF77DFB80B132462946684601F02B
:1051800093FD2A4669462846ADF80060FEF70AFB03
:1051900038B969462046FFF7B8FF204606B0BDE89B
:1051A000F081C4F80480F8E7B0A50A080422024B95
:1051B0005A60024A1A607047380600207CA50A0827
:1051C000002340681A46FEF73BBB002202214068DC
:1051D000FEF746BB002240681146FEF739BB0022AD
:1051E00040681146FEF744BB002340681A46194642
:1051F000FEF746BB002340681A461946FEF748BB37
:105200000022406881F00101FEF74ABB002240689D
:10521000FEF756BB002240681146FEF759BB00223C
:1052200040681146FEF744BB70B515468EB0044683
:1052300008A8FFF7D5FC1122002103A801F034FDD6
:105240000026284602F0D0FA0A4B009681B25B682D
:10525000284603AAFEF796FA30B131462046FFF7FA
:10526000DFFC20460EB070BD204603A9FFF7C6FC48
:10527000F7E700BF38060020034A044B042814BF98
:1052800010461846704700BF400600203806002030
:10529000024B034A1A6000225A6070474006002001
:1052A000D4A50A08172870B5044601D9002070BD9E
:1052B000A0F10D03022B0BD9012826D800F0A6F887
:1052C0000021007CFEF7ACF980F00100C0B2EEE7EF
:1052D000134E3178BFF35B8F11F001050FD13046CB
:1052E000FAF7E3FE58B129460E48FEF78CFB30462C
:1052F000FAF7E0FE0C4A0D490A4800F0AFF8094BF6
:105300001878FEF7F7F90028D0D1123C012C05D807
:10531000FFF7CAFD007CFEF743F9D5E70120C6E799
:10532000540200205802002050020020B9020A084E
:10533000172838B504460D460AD8FF2908D0FFF7CC
:10534000B1FF28B129462046BDE83840FEF798B89D
:1053500038BD38B504460D46FEF79AF8FF2810D040
:10536000062804D84D2323FA00F0C30709D42046A9
:10537000FFF798FF28B129462046BDE83840FEF7E0
:105380008FB838BD10B50446FEF782F8031FDBB2B4
:10539000012B08D92046FFF785FF20B12046BDE844
:1053A0001040FEF785B8002010BD0000002313B5A3
:1053B000074C1A46194620460093FFF747FC204643
:1053C000044A054902B0BDE8104000F047B800BFEC
:1053D0004C060020500200209F4B0A08002370B5A5
:1053E000202543801423084E0446038031468560FF
:1053F0000561284600F039F831466060284600F023
:1054000034F8E060204670BD00A60A0830B50F4DA4
:1054100087B02978BFF35B8F11F0010413D12846C0
:10542000FAF743FE78B101A8FFF7D8FF214601AA99
:105430000748FFF7A7FD2846FAF73CFE054A06494C
:10544000034800F00BF8024807B030BD64060020A6
:1054500068060020500200202D4F0A080B46014626
:10546000184601F00FBBFAF71CBEFAF718BE000091
:10547000014900F0FBB800BF1CA60A087FB5002454
:105480001023CDE90234036815469E6912686B4605
:1054900000948DF80440B0479DF8043003F00603F3
:1054A000062B09BF01202046009B2B6004B070BD75
:1054B0000098904214BF01200620704710B50446A2
:1054C000024B036000F0CFF8204610BD5CA60A082E
:1054D00010B50446FFF7F2FF20460821FFF7C3FF8F
:1054E000204610BD2DE9F041DDF818801F46DDE9AA
:1054F000083498450646154607D1079900F0B6F8D6
:1055000018B165710020BDE8F0813946304600F0E1
:10551000ADF80028F6D00123C4F800802571A371EE
:10552000F0E738B515461C4600F0A0F820B1082376
:10553000E36006232560237138BD2DE9F04105465F
:105540000C4616461F4600F091F848B9032F07D8BD
:105550002368324629462046BDE8F0415B6918477A
:10556000BDE8F08110B50446024B0360FFF7A6FFCB
:10557000204610BDBCA60A0810B50446FFF7F2FF8E
:1055800020460C21FFF76FFF204610BD2DE9F041AA
:10559000DDF81880064690450F4615461C460BD090
:1055A000B0682A460368CDF818801E6A394623463B
:1055B000B446BDE8F0416047194600F057F80028AE
:1055C000EED00620BDE8F0812DE9F14F0D46DDE972
:1055D0000A4BDDE90CA6194681461746984600F0AD
:1055E00045F890B1002D3460377109DB2C44A24599
:1055F0000CBF06240124B471002001B0BDE8F08F77
:105600000235F9D10123B371F6E7544506D1594665
:10561000484600F02BF808B17771EDE7D9F808009B
:105620003A460368CDE90CA6CDE90A4BDC69294668
:105630004346A44601B0BDE8F04F60472DE9F04174
:1056400007460C4615461E46FFF76BFF48B9B8687B
:105650002A46036821469F693346BC46BDE8F041AF
:105660006047BDE8F081704700207047814208B56F
:105670000ED0406803782A2B0CD049680B782A2B6F
:1056800008BF013101F03CFBB0FA80F0400908BDD1
:105690000120FCE70020FAE781F0004102E000BFB2
:1056A00083F0004330B54FEA41044FEA430594EAE2
:1056B000050F08BF90EA020F1FBF54EA000C55EA1D
:1056C000020C7FEA645C7FEA655C00F0E2804FEAEE
:1056D0005454D4EB5555B8BF6D420CDD2C4480EAD0
:1056E000020281EA030382EA000083EA010180EA00
:1056F000020281EA0303362D88BF30BD11F0004F4E
:105700004FEA01314FF4801C4CEA113102D0404283
:1057100061EB410113F0004F4FEA03334CEA1333BE
:1057200002D0524263EB430394EA050F00F0A780D6
:10573000A4F10104D5F1200E0DDB02FA0EFC22FAD1
:1057400005F2801841F1000103FA0EF2801843FAC5
:1057500005F359410EE0A5F120050EF1200E012AB6
:1057600003FA0EFC28BF4CF0020C43FA05F3C018F4
:1057700051EBE37101F0004507D54FF0000EDCF16D
:10578000000C7EEB00006EEB0101B1F5801F1BD316
:10579000B1F5001F0CD349085FEA30004FEA3C0C1A
:1057A00004F101044FEA445212F5800F80F09A8010
:1057B000BCF1004F08BF5FEA500C50F1000041EB14
:1057C000045141EA050130BD5FEA4C0C404141EB18
:1057D0000101013C28BFB1F5801FE9D291F0000F13
:1057E00004BF01460020B1FA81F308BF2033A3F1C2
:1057F0000B03B3F120020CDA0C3208DD02F1140CB9
:10580000C2F10C0201FA0CF021FA02F10CE002F1F3
:105810001402D8BFC2F1200C01FA02F120FA0CFCEC
:10582000DCBF41EA0C019040E41AA2BF01EB045135
:10583000294330BD6FEA04041F3C1CDA0C340EDC33
:1058400004F11404C4F1200220FA04F001FA02F376
:1058500040EA030021FA04F345EA030130BDC4F134
:105860000C04C4F1200220FA02F001FA04F340EA29
:105870000300294630BD21FA04F0294630BD94F0DA
:10588000000F83F4801306BF81F480110134013DC1
:105890004EE77FEA645C18BF7FEA655C29D094EA32
:1058A000050F08BF90EA020F05D054EA000C04BFB0
:1058B0001946104630BD91EA030F1EBF002100209B
:1058C00030BD5FEA545C05D14000494128BF41F03A
:1058D000004130BD14F580043CBF01F5801130BD9E
:1058E00001F0004545F0FE4141F470014FF0000029
:1058F00030BD7FEA645C1ABF194610467FEA655CDA
:105900001CBF0B46024650EA013406BF52EA03357B
:1059100091EA030F41F4002130BD00BF90F0000F69
:1059200004BF0021704730B54FF4806404F13204A5
:105930004FF000054FF0000150E700BF90F0000F5E
:1059400004BF0021704730B54FF4806404F1320485
:1059500010F0004548BF40424FF000013EE700BF55
:1059600042004FEAE2014FEA31014FEA02701FBFE5
:1059700012F07F4393F07F4F81F06051704732F017
:105980007F4208BF704793F07F4F04BF41F400216E
:10599000704730B54FF4607401F0004521F00041CC
:1059A0001CE700BF50EA010208BF704730B54FF056
:1059B00000050AE050EA010208BF704730B511F057
:1059C000004502D5404261EB41014FF4806404F18F
:1059D00032045FEA915C3FF4D8AE4FF003025FEA15
:1059E000DC0C18BF03325FEADC0C18BF033202EB99
:1059F000DC02C2F1200300FA03FC20FA02F001FAF3
:105A000003FE40EA0E0021FA02F11444BDE600BF95
:105A100070B54FF0FF0C4CF4E06C1CEA11541DBF44
:105A20001CEA135594EA0C0F95EA0C0F00F0DEF80F
:105A30002C4481EA030621EA4C5123EA4C5350EAF4
:105A4000013518BF52EA033541F4801143F4801345
:105A500038D0A0FB02CE4FF00005E1FB02E506F0D6
:105A60000042E0FB03E54FF00006E1FB03569CF02B
:105A7000000F18BF4EF0010EA4F1FF04B6F5007F31
:105A800064F5407404D25FEA4E0E6D4146EB0606A3
:105A900042EAC62141EA55514FEAC52040EA5E502C
:105AA0004FEACE2EB4F1FD0C88BFBCF5E06F1ED8D6
:105AB000BEF1004F08BF5FEA500E50F1000041EB0D
:105AC000045170BD06F0004646EA010140EA0200BA
:105AD00081EA0301B4EB5C04C2BFD4EB0C0541EADC
