:02000004080AE8
:1000000000000A0840A40A080000060006000501D6
:080010000402E80500000000F5
:0400180014940A082A
:1000200009480A4908B5884205D0094A824202D0E7
:10003000121A06F0DBFA0748074A0021121A06F0E6
:10004000E0FA064808BD00BF000000201CA30A0813
:10005000FC000020FC0000209C0700209C070020E2
:1000600070B504F09DF9074B074C1E46E41AA4082E
:100070000025A54204D056F8253098470135F8E709
:1000800070BD00BFD4A20A0810A30A0801F0B6BBD5
:1000900008B501F06BF9BDE8084004F043B903F07E
:1000A000EBB803F0E9B803F0EFB803F0EDB800786F
:1000B000B0FA80F040097047012303707047106860
:1000C000704708B50021042004F0A5FD4FF4FA7034
:1000D00004F0C6F80121042004F09DFD012008BDB4
:1000E0001FB50121022004F096FD4FF4FA7004F0D0
:1000F000B7F80B49684603F0D8FC6846FFF7E1FF04
:10010000684603F08BFC4FF4FA7004F0A9F8002164
:10011000022004F080FD012005B05DF804FB00BF63
:10012000E2980A0800B58BB0044901A804F076FCF7
:1001300001A804F051FC0BB05DF804FB8C05002015
:1001400008B503F023F908BD38B50A49054603F0A0
:10015000C7FD044618B1084B0120187038BD074987
:10016000284603F0BDFD18B1034B20461C7038BD76
:1001700038BD00BF38940A08780400203D940A086E
:1001800070B58AB003F0F5FD0546FE238DF8043006
:10019000FF238DF80730184B01201C788DF80500DF
:1001A0008DF806502CBB04F0E5FA03680422DB68E6
:1001B0000DEB0201984704F027FA1049064606A8FD
:1001C00003F073FC0A22294602A803F0F6FC02A9F8
:1001D00006A803F067FD0A4903F070FD0168304688
:1001E00003F00FFE02A803F019FC06A803F016FCAA
:1001F00020460AB070BD00BF7804002043940A086E
:1002000066940A0870B58AB003F0B3FDFE238DF83A
:10021000043002238DF80530FF238DF80730184B8A
:1002200005461C788DF8060034BB04F0A3FA036879
:100230000422DB680DEB0201984704F0E5F911494F
:10024000064606A803F031FC0A22294602A803F05C
:10025000B4FC02A906A803F025FD0B4903F02EFD0E
:100260000168304603F0CDFD02A803F0D7FB06A8D5
:1002700003F0D4FB204600E001200AB070BD00BFAF
:10028000780400206D940A0866940A0810B50446A4
:10029000806808B102F0E2FD204610BD10B50446AA
:1002A000024B036002F034FC204610BD30940A0873
:1002B00010B50446FFF7F2FF20464FF40C7104F02E
:1002C0003DFD204610BD00001FB5002301930393A0
:1002D0000C23ADF80430044B0422029301AB02F06E
:1002E00093FF05B05DF804FBBF000A0838B5012193
:1002F0000B2004F07FFC01210B2004F08CFC204D2E
:1003000001210C2004F076FC01210C2004F083FC78
:10031000296811F001040FD12846FFF7C8FE58B133
:100320002146184802F0F6FF2846FFF7C5FE164A98
:100330001649144804F0F4FC0021124802F0F9FFB9
:10034000322003F08DFF124801F09EFC4FF4FA704A
:1003500003F086FF0F4801F097FC70210C4801F074
:10036000CEFC70210B4801F0CAFC04F04DF90A499B
:1003700003F047FD04F048F903F037FD012038BDD4
:100380000001002004010020FC0000208D020A086A
:100390008C040020B402002090940A0808B502F0F2
:1003A00035FD034B1860BDE8084002F03DBF00BFBB
:1003B0009C05002037B5890800249C4218D08C4247
:1003C00000F1040014D010F8045C8DF8075010F808
:1003D000035C8DF8065010F8025C8DF8055010F89B
:1003E000015C8DF80450019D42F824500134E4E78B
:1003F000012003B030BD00002DE9F04F80469FB0D2
:100400000E4606A8BA4903F050FB474608F102041D
:100410000025C8EB07039E4240F3EA813B780F2B8F
:1004200008D1C8EB04039E4204DC04F0EDF8B149A6
:1004300003F0E7FC17F8013BA3F10E02012A00F2DA
:10044000D581C8EB0402964240F3D0810F2B0CBF3C
:100450000125022504F0D8F8A74981461AA803F01F
:1004600024FB0A22294616A803F094FB16A91AA811
:1004700003F018FCA14903F021FC0168484603F091
:10048000ADFC16A803F0CAFA1AA803F0C7FA9849F7
:100490000AA803F00AFB3B78013B052B00F2A3817D
:1004A000DFE813F0060015008600AB00FE005201E5
:1004B000042E08DD032303AA0C212046FFF77AFF50
:1004C000DFF86C924BE104F09FF88D490DE10C2EA2
:1004D0006ADD0C2105F1FF3A01FB0AFB894B20463E
:1004E00003EB0B094A460323FFF764FF04F08CF883
:1004F000854903F073FC04F087F8824B042253F81B
:100500000B1003F061FD04F07FF8804903F066FCF6
:1005100004F07AF80422D9F8041003F055FD04F031
:1005200073F87A4903F05AFC04F06EF80422D9F803
:10053000081003F066FD734BD9F8041053F80B0054
:1005400005F05EFAD9F8081005F05AFA4FF07E511E
:1005500005F0FCFCDFF8DCB128B15BF82A30013390
:100560004BF82A3001E04BF82A00694A122352F86E
:10057000041D13F1FF335160F9D2624BDFF8B8A1CB
:10058000D3F808905968186805F03AFA494605F01A
:1005900037FACAF80000DBF8000005F0E5FACAF8FF
:1005A0000890CAF804001EE104F02EF859499CE0B6
:1005B000042E1EDDA2786178E37820788DF869201A
:1005C0008DF86A108DF86B008DF868301A9BDFF893
:1005D0006C91C9F80030C9F8043004F015F84E49A0
:1005E00003F0FCFB04F010F86B1E042259F82310F2
:1005F00075E004F009F8494977E0042E4CDD0C2140
:1006000005F1FF3901FB09F9DFF834B103230BEBE6
:10061000090A52462046FFF7CDFE03F0F5FF404998
:10062000019012A803F041FA04225BF809100EA809
:1006300003F0EAFA0EA912A803F034FB334903F0E1
:100640003DFB81460422DAF8041016A803F0DCFA18
:1006500016A9484603F026FB2C4903F02FFB8146E0
:100660000422DAF808101AA803F0CEFA1AA94846AC
:1006700003F018FB019B0168184603F0AFFB1AA8B2
:1006800003F0CCF916A803F0C9F90EA803F0C6F9D7
:1006900012A803F0C3F9A6E003F0B6FF214924E055
:1006A000042E1FDDA2786178E37820788DF8692028
:1006B0008DF86A108DF86B008DF868301A9BDFF8A2
:1006C000849005F1FF3A49F82A3003F09DFF16495E
:1006D00003F084FB03F098FF59F82A10042203F07A
:1006E00073FC80E003F090FF104903F077FB7AE0A1
:1006F000E2980A08769F0A08B7940A08F19A0A084D
:10070000CA940A0864030020EE940A08E4980A08D0
:10071000FC040020F8940A081C950A0828950A0889
:100720004E950A0856950A0878950A0881950A0890
:100730008402002010010020B0040020AC02002040
:100740007C03002070040020042E7FF7BCAE03233E
:1007500003AA0C212046FFF72DFEDFF8AC900028FD
:1007600034D103F051FF2649834612A803F09DF9C6
:100770006A1E0C2353430EA859F80310042209EBF8
:10078000030A03F041FA0EA912A803F08BFA1D49DF
:1007900003F094FA81460422DAF8041016A803F054
:1007A00033FA16A9484603F07DFA164903F086FA93
:1007B00081460422DAF808101AA803F025FA1AA9CB
:1007C000484603F06FFA0168584656E76A1E0C2344
:1007D0005343039909EB030249F80310049B536048
:1007E000059B9360BDE70AA803F018F9013410E6F1
:1007F00006A803F013F928461FB0BDE8F08F00BF2C
:10080000C0940A08E4980A084C0300202DE9F0413E
:10081000204C02F0FBFA27460A2503F0ABFF0368E1
:100820001B69984788B303F0A5FF03685B69984785
:10083000C6B203F0E9FE1022314603F0ECFA03F0F1
:10084000E3FE154903F0CAFA2368B3F5AF7F04DA73
:10085000124AD6540133236006E00023236003F0DC
:10086000D3FE0F4903F0BAFA0A2E0ED139680B48AD
:10087000FFF7C2FD002380461946084A9954013308
:10088000B3F5AF7FFAD100233B60013DC5D14046AF
:10089000BDE8F081AC040020E4980A0818010020AB
:1008A000A4950A0870B50E4604460849304603F080
:1008B0004EF925462B1B15F8012BDBB222B1E15C6A
:1008C000304603F0E2F9F5E770BD00BFE2980A0890
:1008D00070B5134D0021286805F02EFB60B1002192
:1008E000686805F029FB38B10021A86805F024FBF1
:1008F000B0FA80F4640900E001240021E868084EA1
:1009000005F01AFB48B10021306905F015FB20B154
:100910000021706905F010FB00B90234204670BD5B
:100920006403002030B504468BB0FE238DF80430FC
:10093000FF238DF80730184B01201B788DF8050038
:100940008DF806402BB303F015FF03680422DB6823
:100950000DEB0201984703F057FE1049054606A823
:1009600003F0A3F80A22214602A803F013F902A912
:1009700006A803F097F90A4903F0A0F90168284690
:1009800003F03FFA02A803F049F806A803F046F87E
:1009900000200BB030BD00BF7804002043940A084B
:1009A00066940A0830B5FE238BB08DF8043002231C
:1009B0008DF80530FF238DF80730184B04461B785F
:1009C0008DF8060033B303F0D5FE03680422DB681C
:1009D0000DEB0201984703F017FE1149054606A8E2
:1009E00003F063F80A22214602A803F0D3F802A913
:1009F00006A803F057F90B4903F060F9016828468F
:100A000003F0FFF902A803F009F806A803F006F8BE
:100A1000002000E001200BB030BD00BF78040020B2
:100A200043940A0866940A08012910B5044601D1C6
:100A3000064902E0022903D1054903F075F802E0F6
:100A4000044903F032F8204610BD00BF1C0300200B
:100A50002C030020C1950A082DE9F04F0D460446ED
:100A600089B000AF8949384603F01FF805F1080343
:100A700023F00703ADEB030D21462A46684605F037
:100A8000B5FD0024394668460DF80540FFF70AFF1A
:100A90007F4E06F1DC080025A1464946384603F0A2
:100AA00031F9037809F1010A252B01D0D146F4E789
:100AB00022464B46394607F1100003F031F907F1A1
:100AC000100003F05BF9A6F1140343F8250007F1C9
:100AD0001000013502F0A2FF032D5446DCD1A6F12F
:100AE0000C0925462946384603F00CF9037805F130
:100AF000010A252B01D05546F4E722462B463946FC
:100B000007F1100003F00CF907F1100003F036F9BB
:100B100049F8040F07F1100002F080FF4E455446DB
:100B2000DFD1B14606F10C0B25462946384603F0C5
:100B3000E9F8037805F1010A252B01D05546F4E7C1
:100B400022462B46394607F1100003F0E9F807F179
:100B5000100003F013F949F8040F07F1100002F038
:100B60005DFFD9455446DFD12146384603F0CAF827
:100B7000037804F10109252B01D04C46F4E7234604
:100B80005246394607F1100003F0CAF807F1100089
:100B900003F0F4F8306107F1100002F03FFF4D461A
:100BA0002946384603F0AEF803786C1C252B01D09B
:100BB0002546F5E72B464A46394607F1100003F073
:100BC000AFF8386905F003FC2C3646F8180C07F12D
:100BD000100002F023FF46457FF45DAF03F02FFBCA
:100BE000054603F011FD2B4903F0F8F803F00CFD66
:100BF0000446294B2A461B68284907F1100003F0D8
:100C0000CBFA3969204603F0FCF807F1100002F036
:100C100005FFFFF75DFE224C0128A16E0AD1606E30
:100C200004F0EEFEE16E04F0EBFE05F0B7F9FFF71D
:100C300079FE24E00228606E05D104F0E1FEE16E49
:100C400004F0DEFE17E004F0DBFEE16E04F0D8FEF7
:100C50004FF07C5104F0DCFF05F0A0F9FFF762FED5
:100C6000A16E606E04F0CCFEE16E04F0C9FE4FF0A0
:100C70007C5104F0CDFF05F091F9FFF793FE384663
:100C800002F0CCFE2437BD46BDE8F08FE2980A089A
:100C9000A8030020C4950A080C00002020050020AD
:100CA0009403002090B50C4601F1080383B023F0B3
:100CB000070300AFADEB030D0A460146684605F099
:100CC00095FC00230A22391D68460DF8043007F010
:100CD000D1F87B68012803F101037B6004D002286E
:100CE0000CBF0624072400E005240A221846391DFB
:100CF00007F0C0F882B2154B02B9092201381A80F8
:100D000006281BD8DFE800F0040A0C0E14161800A1
:100D10000121204603F07FFF0D4A10E00D4A0EE04E
:100D20000D4A0CE00021204603F075FF0B4A06E057
:100D30000B4A04E00B4A02E00B4A00E00B4A0C4964
:100D40000C4801F02CFD0C37BD4690BD8002002000
:100D5000F5950A0829960A086D960A0891960A08D8
:100D6000B0960A0810970A083C970A0872970A0872
:100D700011960A08C40200207FB506460C461B489F
:100D80001B49154602F0E3FE1A49304605F06AFC9D
:100D900040B91949154802F0DAFE29462046FFF706
:100DA0005BFE08E01549304605F05CFC18B92946A1
:100DB0002046FFF777FF03F042FA054603F024FCD4
:100DC0000F4903F00BF803F01FFC04460D4B2A46B5
:100DD0001B6868460C4903F0DFF90099204603F0D0
:100DE00010F8684602F01AFE04B070BD9C040020A2
:100DF0008A970A088D970A0812990A08A1970A0883
:100E0000B3970A080C000020200500202DE9F041CE
:100E1000BAB0469C80460F4602A87D4916461D463C
:100E200002F043FE7A4906A802F03FFEB4B17949C8
:100E300036A802F03AFE0A22214632A802F0AAFEA3
:100E400032A936A802F02EFF014602A802F05DFE8C
:100E500032A802F0E3FD36A802F0E0FD6E494798A3
:100E600002F03EFF70B96B4936A802F01EFE4799AA
:100E700036A802F017FF014606A802F046FE36A883
:100E800002F0CCFD022241460EA802F0BDFE0EA9E2
:100E900012A802F049FE5F4912A802F00FFF0446B3
:100EA0000222394616A802F0AFFE16A9204602F02B
:100EB000F9FE584902F002FF0446022231461AA800
:100EC00002F0A2FE1AA9204602F0ECFE514902F0FF
:100ED000F5FE0446022229461EA802F095FE1EA930
:100EE000204602F0DFFE4B4902F0E8FE04460222F3
:100EF000409922A802F088FE22A9204602F0D2FEE4
:100F0000444902F0DBFE04460222419926A802F081
:100F10007BFE26A9204602F0C5FE3E4902F0CEFE29
:100F20000446022242992AA802F06EFE2AA920460F
:100F300002F0B8FE374902F0C1FE0446022243998E
:100F40002EA802F061FE2EA9204602F0ABFE314928
:100F500002F0B4FE04460222449932A802F054FE84
:100F600032A9204602F09EFE2A4902F0A7FE04465E
:100F70000A22459936A802F033FE36A9204602F02F
:100F800091FE02A902F08EFE06A902F08BFE214915
:100F900002F094FE01460AA802F0C6FD36A802F04F
:100FA0003DFD32A802F03AFD2EA802F037FD2AA836
:100FB00002F034FD26A802F031FD22A802F02EFD39
:100FC0001EA802F02BFD1AA802F028FD16A802F0B8
:100FD00025FD12A802F022FD0EA802F01FFD032439
:100FE0000025009502230A9A0C490D4801F0EAFBFE
:100FF00008B9013CF5D10AA802F010FD06A802F0DC
:101000000DFD02A802F00AFD3AB0BDE8F08100BF74
:10101000E2980A08DA970A08C1950A08DC970A08D4
:10102000C40200202DE9F0479D4E00240128ADF5B3
:10103000167D0546348040F0B2809A4800F0B3FF38
:10104000984F002800F01581384601F00BF9002870
:1010500000F00F8103F0D8FA934902F0BFFE9349E4
:1010600002A802F022FDBA46DFF87892DFF8788213
:101070003B78E5B2AB422CD9554403F0C5FA697808
:1010800001340F2994BF4946414602F0A7FE03F000
:10109000BBFA1022697802F0BEFE69780AA80F290F
:1010A00094BF4946414602F000FD0AA902A802F099
:1010B000D9FD0AA802F0B2FC102269780AA802F051
:1010C00057FD0AA902A802F0CDFD0AA802F0A6FC6D
:1010D000CEE74FF4007216A90AA801F037FD744B51
:1010E000012202A906A80A9302F03CFE06A9714853
:1010F00002F025FD06A802F091FC7D227B210AA8C2
:1011000001F019FE0AA801F00BFE01226A490AA8A3
:1011100001F07AFD3A210AA801F02AFD012267496F
:101120000AA801F064FD634906A802F0FDFC0AA8C4
:1011300001F0F6FD012262490AA801F065FD3A219D
:101140000AA801F015FD012206990AA801F05CFD2C
:1011500006A802F063FC03F072F804460AA801F046
:10116000DFFD012257490AA801F04EFD3A210AA8E5
:1011700001F0FEFC224654490AA801F038FD0AA8F5
:1011800001F004FD002300930B9A02234F495048BD
:1011900001F018FB0AA8FFF781F802A866E0022810
:1011A00069D14C4800F0FFFE4A4F002861D0384614
:1011B00001F058F800285CD003F026FA464902F006
:1011C0000DFE0A22294606A802F0E4FC434906A8BF
:1011D00002F04CFDBA46DFF80C91DFF80C813B7849
:1011E000E5B2AB422CD9554403F00EFA69780134CC
:1011F0000F2994BF4946414602F0F0FD03F004FA7E
:101200001022697802F007FE69780AA80F2994BFB6
:101210004946414602F049FC0AA906A802F022FD0F
:101220000AA802F0FBFB102269780AA802F0A0FCD1
:101230000AA906A802F016FD0AA802F0EFFBCEE705
:10124000274C012206A90AA802F08CFD0AA9204613
:1012500002F075FC0AA802F0E1FB0023009322686B
:1012600002231A491A4801F0ADFA06A802F0D6FB8B
:1012700001E000200FE003F0C7F90C4902F0C1FDC6
:10128000308818B9322002F0EBFFF9E7012802D0CC
:10129000031F584258410DF5167DBDE8F08700BF89
:1012A000800200208C040020F5970A08E2980A08C2
:1012B00030940A081C03002014980A08E79E0A08C4
:1012C0001C980A0823980A082D980A0831980A08D9
:1012D000C4020020B402002044980A0863980A0857
:1012E0002C030020F2970A08E4980A0808B517486A
:1012F00001F0F1F840BB03F087F9154902F06EFDEB
:101300001449124801F0CCF978B103F07DF9124983
:1013100002F077FD022211490C4801F0A3FB0222E2
:101320000F490A4801F09EFBE1E703F06DF90D4912
:1013300002F067FD03F068F90B4902F062FD41F22B
:10134000883002F08DFFD2E708BD00BFC402002044
:1013500065980A0888980A0897980A088D970A08D5
:10136000A1970A08A7980A08BF980A082DE9F04F24
:10137000B448ADB001F0AFF818B1B24801F06CFA62
:1013800001E0FFF7B3FFB04DFFF708F8012229682D
:101390000CA802F039FC0CA910A802F0C5FBAB495F
:1013A00010A802F08BFC0446A94F0122796814A80A
:1013B00002F02AFC14A9204602F074FCA34902F0B2
:1013C0007DFC0446A34B0122996818A802F01CFC7E
:1013D00018A9204602F066FC9C4902F06FFC044606
:1013E0009D4B0122D9681CA802F00EFC1CA92046C6
:1013F00002F058FC954902F061FC0446974B01222B
:10140000596820A802F000FC20A9204602F04AFCFE
:101410008E4902F053FC04460122696924A802F0B7
:10142000F3FB24A9204602F03DFC884902F046FC6B
:1014300006468B4B28AC19680222204602F0E4FBDA
:101440002146304602F02EFC0146864802F05DFB44
:10145000204602F0E3FA24A802F0E0FA20A802F005
:10146000DDFA1CA802F0DAFA18A802F0D7FA14A8DC
:1014700002F0D4FA10A802F0D1FA0CA802F0CEFAC9
:1014800001F0E2FEA94608B901F0D6FEFFF7BEF969
:101490000646FEF783FF744B1A680A2A45DD0022D0
:1014A0001A6003F0B1F8714D8046714924A802F02A
:1014B000FCFA0A22296820A802F092FB20A924A89D
:1014C00002F0F0FB6B4902F0F9FB82460A226968E0
:1014D000204602F085FB2146504602F0E3FB0168FE
:1014E000404602F08EFC204602F098FA20A802F056
:1014F00095FA24A802F092FA03F086F8D9F81010B1
:101500000546D9F80C0004F07BFAD9F8141004F061
:1015100077FA06220146204602F076FB28992846F3
:1015200002F06FFC204602F079FA4F4A524D1368E0
:101530000133136001F06AFC2A78504B53F82230D3
:10154000984218D9701E012815D8FEF727FFFFF71B
:10155000BFF92D786E1C864200F09480032800F0BD
:101560009180454B1C7801F051FC444B00F5EA405A
:10157000303043F82400FEF711FF0120FFF752FD41
:101580000220FFF74FFD3E4B384C1A681E460A2AD0
:1015900007DD236803F13C0502F051FE854208D3C4
:1015A00016E0236803F1460502F049FE8542F0D8B3
:1015B0000EE0254D6968286804F022FAA96804F055
:1015C0001FFA4FF07E5104F0C1FC002840F0AD80BE
:1015D00073680A2B06DD646802F031FE3C348442F5
:1015E00008D316E0636803F1460502F028FE854241
:1015F000F1D80EE0144C2169E06804F001FA616949
:1016000004F0FEF94FF07E5104F0A0FC002840F0F9
:10161000AE80642002F024FEFFF75AF920F00200A9
:10162000012840F0C680FFF753F90238012800F284
:10163000C580114A137883F0010313702DB0BDE803
:10164000F08F00BFC402002064030020E4980A0861
:10165000840200204C0300207C0300207004002042
:10166000AC0200207C04002008000020780200204A
:10167000D1980A08E3980A0882020020000000209E
:101680001001002031462046FFF7CEF94E49204692
:1016900002F026FB8046204602F0C0F9B8F1000FA8
:1016A0007FF45FAF0C236B43FA18D2F80480926882
:1016B00059F80310089209EB0302D2F80490D2F80B
:1016C00008A0424A099102EB030BD058DBF8041042
:1016D000FF5804F095F9DBF8081004F091F93C4B41
:1016E0003C4A53F82530834652F825500B9302F0BC
:1016F000A6FD31460A902046FFF796F90A9A0B9B01
:10170000059203933846079406960495CDF808B0E1
:10171000CDF804A0CDF80090099B089A4146FFF748
:1017200075FB204602F07AF91BE702F06DFF2A49AB
:10173000054628A802F0B9F90A22012124A802F0DE
:1017400029FA24A928A802F0ADFA0168284602F077
:1017500058FB24A802F062F928A802F05FF90021E2
:10176000052003F058FA1D4A1D4B1A6030E702F0BD
:101770004BFF1949044628A802F097F90A220221D2
:1017800024A802F007FA24A928A802F08BFA01681D
:10179000204602F036FB24A802F040F928A802F007
:1017A0003DF90021062003F036FA0C4A0C4B5A6032
:1017B0002FE70C490C4802F0CAF934E709490B48F5
:1017C00002F0C5F935E700BFC1950A087C03002087
:1017D00070040020AC020020E6980A089CFFFF7FFE
:1017E00078020020F6980A081C0300202C03002031
:1017F0000246014802F016BEF9430A081FB502F07E
:1018000003FF4FF4E13102F0F3FE02F0B3FF4FF4B7
:10181000165102F0A9FF01F017FD002873D001F066
:1018200013FD0121052003F0E5F90121062003F055
:10183000E1F90021102003F0DDF90021112003F06F
:10184000D9F90121022003F0D5F90121042003F088
:10185000D1F90121072003F0CDF90021052003F083
:10186000DAF90021062003F0D6F90021022003F066
:10187000D2F90121042003F0CEF90021072003F062
:10188000CAF92249684602F010F96846FEF72EFDB3
:10189000684602F0C3F81E491E48FFF7A9FF1E491B
:1018A0001E48FFF7A5FF1E491E48FFF7A1FF1E496E
:1018B0001E48FFF79DFF1E491E48FFF799FF1E496E
:1018C0001E48FFF795FF1E491E48FFF791FF1E496E
:1018D0001E48FFF78DFF1E491E48FEF7F5FC1E4906
:1018E0001E48FEF7F1FC1E491E48FEF7EDFCFEF710
:1018F00055FD012002F0C6FC4FF07E5002F0ACFB1B
:1019000005B05DF804FB01F08FFC84E7E2980A085B
:1019100049010A08FC980A0881010A0807990A087F
:1019200005020A0814990A08C3000A0821990A083E
:10193000E1000A082D990A0841010A083A990A08A3
:1019400025010A0847990A08ED020A0852990A086F
:101950007C0400205B990A083C03002066990A0871
:101960009C0400206F990A08F7B5324F324E334C71
:10197000334D01F0FBF93946304602F096F8304617
:10198000304E2246294603F0CBF93946304602F064
:101990008CF822462946304603F0C2F9012001F0B6
:1019A0007FFB4FF40073284E0193284B40F25B728B
:1019B000009327490F23304600F0A6FC3046254E01
:1019C0002246254903F0ACF92449304602F06DF86F
:1019D00022462946304603F0A3F9214E214F0A2220
:1019E0000B21214800F048F80A220C211F4800F082
:1019F00043F83146384602F058F838461C4F224624
:101A0000294603F08DF93146384602F04EF8384643
:101A1000184F2246294603F083F93146384602F032
:101A200044F822462946384603B0BDE8F04003F0AA
:101A300077B900BFF6980A081C030020FC000020BC
:101A40001D3A0A082C030020C4020020790D0A0860
:101A500075990A089C040020B12A0A08F3970A081D
:101A6000E2980A083C0300208C040020B402002005
:101A70009C0200207C04002038B504461546084628
:101A80002173012103F0B6F8207B012103F0C3F894
:101A900028466573012103F0ADF8607B002103F057
:101AA000BAF8204638BD000038B50B4D296811F052
:101AB00001040FD12846FEF7FAFA58B1214607482B
:101AC00001F028FC2846FEF7F7FA054A05490348C5
:101AD00003F026F9014838BD000100200401002070
:101AE000FC0000208D020A0810B50446FFF7DCFF59
:101AF0002146BDE8104001F02CBC70B50E461546DD
:101B000004460021007B03F086F806F07E00FFF714
:101B1000EBFF2846FFF7E8FF207B0121BDE870407E
:101B200003F079B8F8B50D46144600210646007B4F
:101B30001F4603F070F805F07E00FFF7D5FF013C6B
:101B40007D1E3C44A54204D015F8010FFFF7CCFFE1
:101B5000F8E7307B0121BDE8F84003F05CB838B508
:101B60000C4605460021007B03F055F804F07E008A
:101B700040F08000FFF7B8FF0020FFF7B5FF0446F4
:101B80000121287B03F047F8204638BD70B5054693
:101B90000E461446FFF7E3FF40EA040231462846AA
:101BA000BDE87040D2B2FFF7A8BF70B505460E463B
:101BB0001446FFF7D4FF20EA040231462846BDE868
:101BC0007040D2B2FFF799BFF8B5044615460F46EC
:101BD000002202211E46FFF790FF04220A21204620
:101BE000FFF78BFF802214212046FFF7CFFF2A4604
:101BF0003B4612212046FFF795FF03220221204693
:101C0000FFF77BFF41F288350A212046FFF7A7FF47
:101C1000430705D4013DADB2002DF5D10420F8BD38
:101C2000002220460221FFF768FF44212046FFF7EB
:101C300096FF422130702046FFF791FF707001201F
:101C4000F8BD10B50F2202210446FFF756FF3220DF
:101C500002F006FB02212046FFF781FFC306F9D4FC
:101C600010BD10B528210446FFF779FF00F00303EB
:101C7000032B08D040F00302D2B22046BDE810404A
:101C80002821FFF73ABF10BD10B50446407B02F093
:101C9000DBFF38B9607B012102F0BDFF322002F08A
:101CA000DFFA02E02046FFF7CCFF204680225421D5
:101CB000FFF723FF2046A9225621FFF71EFF2046EB
:101CC00003225821FFF719FF2046E8225A21FFF787
:101CD00014FF204640222A21FFF70FFF20463D2215
:101CE0002221FFF70AFF2046BDE81040FFF7B9BFE9
:101CF00008B54C21FFF733FF00F0700008BD38B580
:101D00000D460446FFF7F4FFA8420CD0204670228F
:101D10004C21FFF74AFF05F070022046BDE838402D
:101D20004C21FFF733BF38BD2DE9F84F80461F46E1
:101D30009DF828901546002A3FD001F07E0141F021
:101D40008006007B002102F066FF3046FFF7CCFEE4
:101D5000013DEDB24FF0000B4FF0010A5FFA8BF43A
:101D6000A5421FD9B4B9B9F1000F13D04B46072BC8
:101D700006D80AFA03F004430133E4B2DBB2F6E713
:101D80003046FFF7B1FE3B78204023EA04031843B6
:101D9000387004E03046FFF7A7FE07F80B000BF1A0
:101DA000010BDBE70020FFF79FFE785598F80C0049
:101DB0000121BDE8F84F02F02EBFBDE8F88F2DE9F4
:101DC000F04F87B0DDF84C8004468B460292119F9D
:101DD000129D9DF850A0B8F1000F02D098F8006055
:101DE00000E046460022022120460393FFF785FECD
:101DF0007F2208212046FFF780FE06EB0A1680228C
:101E000014212046FFF7C2FEF6B2039B9DF8402046
:101E100012212046FFF786FE32461A212046FFF7A0
:101E20006CFE5A4602212046FFF767FEBBF10C0FFD
:101E300004D180221A212046FFF7A8FE4FF4FA664B
:101E400008212046FFF78BFE029B184204D1C207EF
:101E500052D4013EF4D14FE00C212046FFF77FFE23
:101E600010F0130F064649D1DFB1D5B11421204639
:101E7000FFF775FE2B780246834241D328703B461C
:101E800012212046CDF800A0FFF74EFF1821204672
:101E9000FFF765FE00F00709B8F1000F01D088F8E0
:101EA000009033072ED47FB375B39DF854305BB3E5
:101EB0002A78012A04D1B9F1040F27D1092026E09C
:101EC00024D9B9F1000F21D1023A05ABD2B239467B
:101ED0002046FFF779FE012819D12B781F4417F807
:101EE000022C9DF814309A4210D117F8012C9DF85D
:101EF00015309A420AD10AE0042008E0022006E0E8
:101F0000052004E0032002E0012000E0082007B0E3
:101F1000BDE8F08F10B586B09DF82C4005949DF873
:101F200028400494099C0394089C8DE81C000B46EF
:101F300030220C21FFF743FF06B010BD70B588B00A
:101F400006461C468DF81710154612B31B78012B58
:101F50001FD980221C21FFF728FE07238DF81F3090
:101F60000023039302930DF11F03019300942B466A
:101F700001220DF117013046FFF7CCFF01280BD1EC
:101F80002078022807D19DF81F30002B08BF0120C0
:101F900002E0052000E0022008B070BD13460A46AA
:101FA0002621FFF7CBBF07B5022302AA02F8053DA1
:101FB00001A9FFF7F3FF012802D0C31E5842584180
:101FC00003B05DF804FB2DE9F04F502A8BB0834637
:101FD0008A46174600F2F68080221C21FFF7E5FDB5
:101FE0000125022D10D0032D1BD0012D40F0EC80D7
:101FF00093238DF81C30D7B19AF800300026042BBB
:1020000094BF0023012316E06FF06A038DF81C30A3
:102010007FB19AF800300326072B94BF00230123D9
:1020200009E097238DF81C300626002303E03E4686
:1020300000E003263B46A7EBC60464B224EAE4743E
:102040002BB188228DF81E204FF0030801E04FF0DD
:102050000208E1B211F0070218BF012202EBE4020C
:1020600012F0FF0206D1002B00F08C8001F1080471
:1020700064B287E0002B14BF03200420824228BFF3
:102080000246002008EB000E0DF1280C5FFA8EFED0
:10209000E64406EB000CD4449CF801C001300EF875
:1020A0000CCC5FFA80FE9645ECD3DCE7012840F0CB
:1020B0008D801F2C00F38C8020244FF070039DF83E
:1020C0001E208DF81D309DF81F3007A953409DF844
:1020D000202058465A409DF8213053408DF8223038
:1020E00007220DF12303FFF76FFD012840F0B780B1
:1020F0004FF000038DF81A3003238DF81B300923AD
:102100000DF1220904930DF1280818F80E3D1A214B
:1021100003EB0312D2B258460593FFF7EEFC0023FF
:102120000393059BCDF8048002930DF11B030093EC
:10213000049A4B4607A95846FFF7ECFE0328804651
:10214000B4D11C215846FFF70AFD81063ED410F099
:102150001F0008BF2020A04236DD44B2013800F045
:10216000070310F0070018BF012000EBE4000AAAE3
:1021700001301044012202FA03F310F80C2C13432F
:1021800000F80C3C1F2C98DCE3100233DBB204F0A7
:1021900007085FFA88F2B8F1000F0CBF984603F108
:1021A00001088DF81A2002EB03128DF81D205FFA4A
:1021B00088F2049207AA02EB0309C3F109038DF820
:1021C0001B30A0E707204AE0062048E0404646E0F2
:1021D0009DF81E30882B3FD0022104240023CA180A
:1021E000D2B20DF1280E7244F01812F80C2C5044A3
:1021F00001334270DAB29442F1D89DF81B30032BC0
:1022000026D19DF81A301BBB0DF11E030122494651
:102210005846FFF7D9FC012821D19DF81E2099F8D6
:1022200001309A4216D19DF81F2099F802309A4247
:1022300010D199F800305A0702D50135EDB2D0E639
:1022400005EB450501358AF80B308AF8005006E0A9
:10225000022004E0082002E003210C46BEE70BB098
:10226000BDE8F08F08B500220146FFF7ACFE431E23
:102270005842584108BD00F079BD000038B50B4BFD
:102280008469054603607CB16368013B63605BB9A8
:10229000236820469B689847A368013BA3601BB94D
:1022A00023682046DB689847284638BD009A0A080C
:1022B00010B50446FFF7E2FF20461C2102F03EFD68
:1022C000204610BD38B51D46059B04460363002318
:1022D000436302B1826419B104F1380001F037FCA4
:1022E000049BE0692365069BA4F84C50FF2BB8BF04
:1022F000FF23A4F8543008B1FDF7D7FEB4F854001A
:10230000FDF7CFFEE06138BD2DE9FF4104461746D9
:1023100098460E46002501F0C7FAE5610A4904F126
:10232000380001F0C2FB0B9B204602930A9BA56478
:102330000193CDF800803B462A463146FFF7C2FFA5
:10234000204604B0BDE8F081E2980A0810B50446C2
:10235000204601F03DF90028FAD0204601F0EDF8C2
:10236000C0B210BD2DE9F0470546C4698A46FFF7A3
:10237000EDFF4FF0010846462070EB69002793F807
:10238000009009F0F0092846FFF7E0FFEB69741CA4
:10239000985500F07F0303FB08770306A4B2BFB291
:1023A0004FEAC81801D52646EDE7631EB9F1300F94
:1023B0008AF8003013D12846D5F81C80FFF7C6FFF5
:1023C00008F804002846D5F81C80FFF7BFFFF41C6E
:1023D0000236B6B2A4B208F80600022300E00023D9
:1023E0001B1B9EB2A3199BB29F420BD92846FFF735
:1023F000ADFFB5F85430A34284BFEB6918550134E2
:10240000A4B2EFE7B5F85400A0422CBF204600204C
:10241000BDE8F087F7B507468E461E461D460024E8
:1024200005F07F0302A9ED09214418BF43F08003A2
:10243000013401F8043CE4B2002DF1D1C4F10403ED
:10244000D11802F803E0A54206DA01A82B1B285C8C
:10245000134458710135F6E7721C2244384601F0E6
:1024600014F8054600F0D2FC013478623444A8B276
:10247000231A5842584103B0F0BD10B50446C36951
:10248000E0221A70C36900225A70C169022200F06A
:10249000FCFF204601F0D8F800F0B8FC6062A062B2
:1024A00010BDF0B50D4602339BB26C1A15F8016BE6
:1024B000A4B23EB1B0F854709F4203D95C1CD6540C
:1024C000A3B2F2E7191B0A44211202F8021C02F817
:1024D000014C1846F0BD38B5054601F076F90028E4
:1024E00014BF0124002402D1284601F0ADF8204693
:1024F00038BD00002DE9F04387B0044689461746F1
:102500001E46DDF83880FFF7E6FF0546002840F05C
:10251000BD80A16C39B90346B4F84C20A16B2046AC
:1025200001F0E4F909E0684602F002F82B46B4F83D
:102530004C206946204601F0A1F8002800F0A28056
:10254000012323849DF84C30042B15D1524B18687D
:102550009A880090ADF804209B79E26900988DF884
:102560000630C2F80500531DBDF804109DF8062082
:1025700099809A710C2312E06A46484BD4F81CC02B
:10258000186859681B7A03C213706B4603CBCCF8EA
:102590000500CCF8091013788CF80D300E23B8F133
:1025A000000F0AD09DF840209DF83C10520142F0E7
:1025B000060242EAC102D2B200E002229DF84810AF
:1025C00009B902F0FD022FB116B942F0800201E014
:1025D00042F0C002E169581CCA54226DE16912122E
:1025E0000A54E169206D9A1C88540333E269494614
:1025F0002046FFF756FFB8F1000F0BD00346E26903
:1026000041462046FFF74DFFE269034611992046F7
:10261000FFF747FF67B10346E26939462046FFF7F7
:1026200040FF2EB10346E26931462046FFF739FFED
:10263000431F9BB2E26910212046FFF7EBFE00F03A
:10264000E5FB4FF47A766062A062204600F0C0FF9E
:1026500040B900F0DBFBA36AC01A236D73439842B4
:10266000F3D90FE069462046FFF77CFE042809D124
:10267000E369DE7836B900F0C9FB0125A06284F871
:102680002C6004E0204600F0DFFF00E00025284633
:1026900007B0BDE8F08300BF87990A088E990A0841
:1026A0007FB504230593012304930023039302932E
:1026B000019300931A46FFF71DFF07B05DF804FB76
:1026C0002DE9F14F0D9E04468B4691469A469DF8A2
:1026D00028809DF82C509DF83070FFF7FCFE0028F4
:1026E0004BD0B4F854200021E06903F08AFF0523A1
:1026F000E26959462046FFF7D4FE6B1E012B12D823
:10270000238CE26901339BB223841B121354411CB6
:10271000E369228C89B2023080B25A541EB1238CF4
:102720005A1C22843380002291B283188A459BB2BE
:1027300009D9B4F8546001329E4204D919F80160F5
:10274000E169CE54F0E7B8F1000F0CBF3021312120
:102750000FB141F00801022D02D141F0040103E064
:10276000012D08BF41F002012046053BE2699BB202
:1027700001B0BDE8F04FFFF74DBE01B0BDE8F08FEE
:102780001FB5089C0394002402949DF81C400194FA
:102790009DF818400094FFF793FF04B010BD7FB57B
:1027A000054610460E46144604F082FC00230293B0
:1027B000019300932246034631462846FFF7E0FF87
:1027C00004B070BDF0B5054685B010461F460E46F4
:1027D000144604F06DFC0A9B0197029300230093BA
:1027E0002246034631462846FFF7CAFF05B0F0BD32
:1027F00038B504460D46FFF76EFE90B1E3696222DC
:102800001A70E36902225A70E3692A129A70E36926
:102810000422DD70E169204600F037FE003018BF69
:10282000012038BD38B504460D46FFF754FE90B17F
:10283000E36972221A70E36902225A70E3692A126C
:102840009A70E3690422DD70E169204600F01DFE04
:10285000003018BF012038BD2DE9F04F83B000AF24
:102860000446FFF738FE8146002800F0F68000F0AD
:10287000CDFA226D4FF47A735343A26A0546821A49
:102880009A4203D8626A821A934217D294F82C3083
:102890002BB1204600F0D8FE4FF00009DDE0E269E0
:1028A000C0211170E26920465370E169022200F0F4
:1028B000ECFD01236562A56284F82C30204600F00F
:1028C00087FE002800F0C980F91D2046FFF74AFD69
:1028D0000246002800F0C180E369A562187800F084
:1028E000F00130297DD1D4F830B0BBF1000F00F0F9
:1028F000B48097F807C0EA4603EB0C00817890F8A3
:1029000001E001EB0E2E1FFA8EFE0EF1080121F000
:102910000701ADEB010D684600218EB2B64506D920
:102920000CEB01061E44F67846540131F5E7002110
:1029300000F80E101E780CF1030106F00606022EB8
:10294000CCEB02021ED1714413F80180194449787E
:10295000CEEB020201EB08280CF105017144053AA7
:102960001944D847E36940221A70E3691FFA88F8CE
:102970005E70E3694FEA28229A70E369042283F8C3
:10298000038020E0042E24D1714413F801801944FF
:102990004978CEEB020201EB08280CF105017144E5
:1029A000053A1944D847E36950221A70E3690222B4
:1029B0005A70E3691FFA88F84FEA28229A70324663
:1029C000E36983F80380E169204600F05EFD6562FB
:1029D00005E0033A7144CEEB02021944D847D546CC
:1029E0003BE0502908D19978DB78204603EB0121A0
:1029F00089B2FFF7FDFE30E040290CD0602908D1F4
:102A00009978DB78204603EB012189B2FFF70AFFB2
:102A100023E070290DD1616BF9B1042A1DD110F0AA
:102A2000060F1AD19878DB7803EB002080B2884734
:102A300013E0902911D0C0290AD1D0221A70E3697D
:102A400000225A70E1690222204600F01EFD04E0D7
:102A5000D02904BF002384F82C3048460C37BD46EB
:102A6000BDE8F08F70B504460E461546FFF733FDFE
:102A7000E8B1238C01339BB203B901232384238C57
:102A8000E2691B125371E369228C31469A71E26943
:102A900007232046FFF705FDE36982211D54031F2C
:102AA000E2692046BDE870409BB2FFF7B3BC70BD41
:102AB00010B50446FFF70FFD10B12046FFF7DDFC0F
:102AC000E06908B1FDF7F1FA04F1380000F0A6FF63
:102AD0002046FFF7D3FB204610BD00F047B90000A9
:102AE00010B5054B04460360037C1BB9406808B170
:102AF00000F0CAFB204610BDA0990A0810B5044694
:102B0000FFF7EEFF2046142102F018F9204610BD11
:102B100010B50446024B0360FFF7E2FF204610BDEC
:102B2000B0990A0810B50446FFF7F2FF204630219D
:102B300002F004F9204610BD00230122C360436166
:102B40000276437680F82A30704700000023C36085
:102B500010B501230374054B416003604FF0FF3350
:102B60008260C362FFF7E8FF10BD00BFB0990A089A
:102B7000C368826810B593423DBF42685C1CC46064
:102B8000012334BFD15480F82A3010BD10B54369F9
:102B9000044643B100EB4303597E09B1FFF7E8FF58
:102BA0006369013B6361A368E068616898424FF024
:102BB00000022ABF5B180A5403F8012C10BD70B53F
:102BC0000446C068A56866682D1A134630440A4654
:102BD000294600F089FB854235BFA368E368E360BE
:102BE000C01836BF0123E06084F82A3070BD0EB4EF
:102BF00003B503AA52F8041B0192FFF7E0FF02B0ED
:102C00005DF804EB03B070472DE9F04104460E4631
:102C1000174612B12221FFF7ABFF0025715D06EBCD
:102C20000508002971D0E268A3689A426DD20B06AC
:102C300033D501F0F003E02B17D198F8013003F001
:102C4000C002802A11D105F1020816F8082002F00E
:102C5000C000802809D102F03F029B0142EA013204
:102C600003F47C631A4392B211E001F0E003C02B3D
:102C700046D105F1010816F8083003F0C002802A99
:102C80003ED1890101F4F86203F03F031A4323495E
:102C90002046FFF7ACFF454635E00C2918D00BD88D
:102CA000092921D00A2919D0082929D15C212046D7
:102CB000FFF75EFF622123E022291BD05C2919D097
:102CC0000D291DD15C212046FFF752FF722117E02C
:102CD0005C212046FFF74CFF662111E05C21204675
:102CE000FFF746FF6E210BE05C212046FFF740FF17
:102CF000742105E05C212046FFF73AFF98F80010A8
:102D00002046FFF735FF013588E72FB12046BDE8A3
:102D1000F0412221FFF72CBFBDE8F081C1990A08DC
:102D2000426900EB42031A7E12B100221A76704704
:102D30002C21FFF71DBFF8B543690E460133082B60
:102D400017460ED8FFF7ECFF436901245A1C00EB2D
:102D50004303426131469C76DF76FFF709FF204648
:102D6000F8BD0020F8BD00F001B8000008B5024B26
:102D70001B681B68019308BDB001060808B5024B2B
:102D80001B689B68019308BDB001060808B5024B9B
:102D90001B68DB68019308BDB001060808B5024B4B
:102DA0001B681B69019308BDB001060808B5024BFA
:102DB0001B685B69019308BDB001060808B5024BAA
:102DC0001B681B68019308BDB401060808B5024BD7
:102DD0001B685B69019308BDB401060808B5024B86
:102DE0001B68DB69019308BDB401060808B5024BF6
:102DF0001B681B6A019308BDB401060808B5024BA5
:102E00001B685B68019308BD9C01060808B5024B6E
:102E10001B685B69019308BD9C01060808B5024B5D
:102E20001B68DB69019308BD9C01060808B5024BCD
:102E30001B689B6D019308BD9C01060808B5024BF9
:102E40001B689B6E019308BDB801060808B5024BCC
:102E50001B685B6C019308BDD001060808B5024BE6
:102E60001B689B6C019308BDD001060808B5024B96
:102E70001B68DB6C019308BDD001060808B5024B46
:102E80001B685B6D019308BDD001060808B5024BB5
:102E90001B689B69019308BDC401060808B5024B75
:102EA0001B685B6A019308BDC401060808B5024BA4
:102EB0001B689B6A019308BDC401060808B5024B54
:102EC0001B68DB6A019308BDC401060808B5024B04
:102ED0001B681B6B019308BDC401060808B5024BB3
:102EE0001B685B6B019308BDC401060808B5024B63
:102EF0001B689B6B019308BDC401060808B5024B13
:102F00001B681B6C019308BDC401060808B5024B81
:102F10001B68DB6C019308BDC401060808B5024BB1
:102F20001B681B6E019308BDAC01060808B5024B77
:102F30001B685B6E019308BDAC01060808B5024B27
:102F40001B689B6E019308BDAC01060808B5024BD7
:102F50001B68DB6E019308BDAC01060808B5024B87
:102F60001B681B6F019308BDAC01060808B5024B36
:102F70001B685B6F019308BDAC01060808B5034BE5
:102F80001B68D3F88030019308BD0000AC0106082F
:102F900008B5024B1B681B68019308BDBC010608FD
:102FA00008B5024B1B685B68019308BDBC010608AD
:102FB00008B5024B1B689B68019308BDBC0106085D
:102FC00008B5024B1B68DB68019308BDBC0106080D
:102FD00008B5024B1B681B69019308BDBC010608BC
:102FE00008B5024B1B681B6A019308BDBC010608AB
:102FF00008B5024B1B681B6B019308BDBC0106089A
:1030000008B5024B1B685B6C019308BDBC01060848
:1030100008B5024B1B681B68019308BDD801060860
:1030200008B5024B1B685B68019308BDD801060810
:1030300008B5024B1B681B69019308BDD80106083F
:1030400008B5024B1B685B69019308BDD8010608EF
:1030500008B5024B1B689B69019308BDD80106089F
:1030600008B5024B1B68DB69019308BDD80106084F
:1030700008B5024B1B681B6A019308BDD8010608FE
:1030800008B5024B1B685B6C019308BDC0010608C4
:1030900008B5024B1B689B6C019308BDC001060874
:1030A00008B5024B1B681B6D019308BDC0010608E3
:1030B00008B5024B1B685B6F019308BDC001060891
:1030C00008B5024B1B689B68019308BDA801020864
:1030D00008B5024B1B68DB68019308BDA801020814
:1030E00008B5024B1B689B69019308BDA801020843
:1030F00008B5024B1B681B6D019308BDA8010208AF
:1031000008B5024B1B681B68019308BDA4010608A3
:1031100008B5024B1B685B68019308BDA401060853
:1031200008B5024B1B685B69019308BDA401060842
:1031300008B5024B1B689B6D019308BDA4010608EE
:1031400008B5034B1B68D3F89030019308BD00000D
:10315000A401060808B5034B1B68D3F89C30019303
:1031600008BD0000A401060808B5024B1B685B6897
:10317000019308BDC801060808B5024B1B689B688F
:10318000019308BDC801060808B5024B1B68DB683F
:10319000019308BDC801060808B5024B1B681B69EE
:1031A000019308BDC801060808B5024B1B685B699E
:1031B000019308BDC801060808B5024B1B689B694E
:1031C000019308BDC801060808B5024B1B68DB69FE
:1031D000019308BDC801060808B5024B1B681B6AAD
:1031E000019308BDC801060808B5024B1B681B6B9C
:1031F000019308BDC801060808B5024B1B685B6B4C
:10320000019308BDC801060808B5024B1B681B687E
:10321000019308BDCC01060808B5024B1B685B682A
:10322000019308BDCC01060808B5024B1B689B68DA
:10323000019308BDCC01060808B5024B1B68DB688A
:10324000019308BDCC01060808B5024B1B685B69F9
:10325000019308BDCC01060808B5024B1B681B6B27
:10326000019308BDCC01060808B5024B1B68DB6B57
:10327000019308BDCC01060808B5024B1B681B680A
:10328000019308BDA001060808B5024B1B685B68E6
:10329000019308BDA001060808B5024B1B689B6896
:1032A000019308BDA001060808B5024B1B681B6905
:1032B000019308BDA001060808B5024B1B689B6975
:1032C000019308BDA001060808B5024B1B68DB6925
:1032D000019308BDA001060808B5024B1B681B6AD4
:1032E000019308BDA001060808B5024B1B685B6A84
:1032F000019308BDA001060808B5024B1B681B6BB3
:10330000019308BDA00106080068FFF7AFBD006883
:10331000FFF7B4BD70B504460E46002540F8085FBF
:10332000FFF794FD30462670FFF758FD6560204694
:1033300070BD70B505460E4600F108042046FFF743
:10334000E3FF28783146FFF739FD2046FFF7DFFF1E
:1033500070BD08B50078FFF739FDC0B208BD007830
:10336000FFF744BD10B50446006818B1FFF78CFFA5
:103370000023236010BD10B50446FFF7F3FF20467D
:1033800010BD014600228C20FFF758BD0020FFF73A
:10339000F8BF00004FF6FF7310B5084C0020206006
:1033A000A080A07120816381FFF7B2FE2046BDE8B6
:1033B0001040034A034901F0B3BC00BF00050020E0
:1033C000FC00002077330A0810B5044603F070FEB5
:1033D000013823182046984206D20278197800F85E
:1033E000011B03F80129F6E710BD70B50C46911ECC
:1033F000222920D82546294610B9234430220EE040
:10340000B0FBF2F602FB1600C1B2092805F8011B59
:1034100094BF3031573105F8011C3046EBE7994233
:1034200002D201F8012BFAE7002320460B70FFF7C8
:10343000CBFF204670BD002070BD38B5031E0C4682
:1034400015460BDAB3F1004F4FF02D0214BF58426E
:10345000184601230A702A46194400E00123FFF7A9
:10346000C4FF204638BD08B50123FFF7BEFF08BDE5
:1034700037B502AC036804F8011DDD6B012247F289
:1034800030532146A84703B030BD10B40368DC6B4D
:1034900047F23053A44610BC604737B502AC03680E
:1034A00004F8011DDD6B214613460122A84703B035
:1034B00030BD704770470020704710B50446142196
:1034C00001F03CFC204610BDFCF7EDBD10B50446F4
:1034D00003689B689847A368013BA3602BB92368E6
:1034E0002046BDE81040DB68184710BD70B50446A3
:1034F00006464D69044B8C3544F8043B0FCD0FC490
:103500002B683046237070BD789B0A0810B543695C
:103510000446B3F88620B3F884309A4205D0626935
:10352000B2F884301344187910BD03681B699847BA
:103530000028F4D14FF0FF3010BD10B543690446A8
:10354000B3F88620B3F884309A4208D06269B2F8A2
:103550008430591CA2F884101344187910BD0368F4
:103560001B6998470028F1D14FF0FF3010BDF8B526
:1035700043691746B3F88620B3F8843005469A426B
:103580000E4606D103681B69984710B94FF0FF3407
:1035900014E069693046B1F88430B1F886401944C6
:1035A000E41ABC4228BF3C460431224603F01EF810
:1035B0006A69B2F884302344A2F884302046F8BD0A
:1035C00042690023A2F884304269A2F8863070472D
:1035D00038B542690446B2F886301BB1B2F884208F
:1035E0009A420CD0206901F0B1FA0368DB68984771
:1035F00018B363691868FFF7D3FC18B91DE0FFF72B
:10360000DFFFEFE76069B0F886107F2915D8051D48
:10361000C1F18002002329440068FFF7D9FC00288B
:103620000BDD6369B3F886200AB9A3F884206269C8
:10363000B2F886301844A2F886006269B2F8863083
:10364000B2F88400181A38BD38B5436904461868C2
:10365000FFF7A6FC18B163691868FFF7C1FC65693C
:10366000FFF7C6FC28606069112200218C3002F04F
:10367000C8FF2046BDE83840FFF7A2BF2DE9F04162
:103680001F4603688AB0DB6A06460C461546984713
:10369000384601F05BFA0368DB689847002856D08B
:1036A00000972B46062201210220D6F81480FFF74E
:1036B0007FFC2023C8F8000000270293736903975A
:1036C0001B6801200193234B02AA009322493B4629
:1036D000FFF70EFD73691868FFF762FC002836D00B
:1036E0003046FFF76DFF0223ADF808302B0A8DF846
:1036F0000A30E3794FF4FA508DF80C30A3798DF845
:103700000B508DF80D3063798DF80E3014F8043FAE
:103710008DF80F30FFF7B4FC73690546102202A93B
:103720001868FFF74DFC80462846FFF7A9FC0FCC30
:1037300075698C350FC523682B70B8F1000F05D063
:1037400033683046DB6A9847384600E001200AB00B
:10375000BDE8F0814B9A0A08449A0A0810B54369FB
:1037600004461868FFF71CFC08B9002010BD20694A
:1037700001F0ECF90368DB6898470028F5D063692D
:103780001868FFF705FCB0FA80F0400910BD2DE97C
:10379000F3410025456004460E4617469846FFF75C
:1037A000DDFF60B160690195CDF800802B463A4697
:1037B00031460068FFF724FC002803DA01E04FF0EF
:1037C000FF30606002B0BDE8F08138B50446FFF715
:1037D000C5FF00BB6369B3F88610B3F8842091423B
:1037E00019D11868FFF7DCFB28B163691868FFF787
:1037F000CFFB012801D000250EE0236820461B697D
:103800009847002814BF0125002505D123682046CC
:10381000DB6A984700E00125284638BD08B5FFF768
:103820009DFF003018BF012008BD10B504460023DD
:103830000160A0F88430A0F88630883000F02AFEBD
:10384000204610BD4FF47A7270B58260144A00238E
:1038500043600260436183610446A0200E46FCF78A
:103860001EFC054610B13146FFF7DFFF1420FCF7C0
:1038700016FC034628B1012242608260094A0561B4
:103880000260A0696561A36128B14368013B4360A0
:103890000BB9FFF71BFE2046FFF792FE204670BDD6
:1038A000009A0A08E4990A0810B50446FFF7A0FB3D
:1038B00001462046FFF7C6FF204610BD10B504465E
:1038C0000068FFF76DFB10B12068FFF789FB204609
:1038D00010BD10B504692046FFF7F0FF24B1204663
:1038E000BDE81040FCF7DFBB10BD00002DE9F04340
:1038F0001F4603688FB0DB6A06460D469046984720
:10390000134801F0D6F800B302A800F0C3FD284622
:1039100003F0CEFB002481B200943B4603AA284664
:10392000FFF7B6FB80B9336809ADD3F82090094B97
:1039300003AC08930FCC0FC5236842462B7008A92F
:103940003B463046C84700E020460FB0BDE8F08354
:1039500094050020789B0A082DE9F14F80460D461A
:1039600017461E46002200234046294601F06CFF00
:1039700020B12D23337005F10045013600230124C9
:103980000A22D9B28F4202D954430133F9E72046C3
:1039900001F082FC42462B4601F0E4FC82468B4655
:1039A00002F03AFB8046894601F0A6FC02460B462F
:1039B0005046594601F022FB0022174B01F058FFF8
:1039C00018B118F1010849F10009E51722462B4604
:1039D0004046494602F008FB01230A223146FFF720
:1039E00004FDAFB1304603F063FB2E2333540130A6
:1039F000064422462B464046494602F0F5FA3B462D
:103A0000104631460A2201B0BDE8F04FFFF7EDBC89
:103A100001B0BDE8F08F00BF0000E03F10B50446E4
:103A20000068FFF731FC204610BD10B50446006861
:103A300008B1FFF729FC00232360A360636010BD79
:103A400038B504460D4600680131FFF725FC10B17A
:103A500084E82100012038BD10B50368044613B185
:103A600043688B4207D22046FFF7EAFF20B1A368E4
:103A70000BB922681370012010BD70B50E461146B7
:103A800004461546FFF7E8FF18B92046FFF7CDFFBB
:103A900009E02A463146A560206802F0A7FD2268A9
:103AA000A3680021D154204670BD38B500230446D8
:103AB00003604360836003730D4639B1084603F029
:103AC000F7FA294602462046FFF7D7FF204638BDC1
:103AD00038B5054600680C4660B16A688B689A4242
:103AE00006D3096802F0C8FDA368AB6000230AE0B2
:103AF000FFF7CAFB23682B6063686B60A368AB6049
:103B0000002323606360A36038BD884210B50B4674
:103B1000044607D0096819B19A68FFF7AEFF01E0C3
:103B2000FFF783FF204610BD10B504460023036055
:103B3000436083600373FFF7E8FF204610BD8842AF
:103B400010B5044601D0FFF7C3FF204610BD38B5BD
:103B500005460C4641B1084603F0AAFA2146024642
:103B60002846FFF78AFF01E0FFF75FFF284638BDD0
:103B70001FB50446002323606360A36023730846D7
:103B800001A9FFF770FC01A92046FFF7E0FF2046DE
:103B900004B010BD10B5044600238AB023606360F2
:103BA000A3602373084601A9FFF747FC01A920463B
:103BB000FFF7CDFF20460AB010BD10B50446002324
:103BC0008AB023606360A3602373084601A9FFF7EE
:103BD0004AFC01A92046FFF7BAFF20460AB010BDF3
:103BE00010B504468AB0002323606360A36023738A
:103BF0000846012301A9FFF7F8FB01A92046FFF7BA
:103C0000A6FF20460AB010BD30B5044600238BB095
:103C10000360436083600373D5B2084601F04EFB36
:103C200001AB2A46FFF798FE01A92046FFF78FFF58
:103C300020460BB030BD70B504460E4609B90020D1
:103C400070BD6AB18368D5182946FFF705FF0028C3
:103C5000F5D02068A3683146184402F00DFDA56038
:103C6000012070BD8A680968FFF7E5BF38B50546D1
:103C70000C46084641B103F01BFA2146024628468D
:103C8000BDE83840FFF7D7BF38BD07B500238DF832
:103C90000410012201A98DF80530FFF7CCFF03B015
:103CA0005DF804FB10B58A6809680446FFF7C3FF96
:103CB00010B92046FFF7B9FE204610BD38B50446BE
:103CC0000D4641B1084603F0F3F929460246204665
:103CD000FFF7B1FF10B92046FFF7A7FE204638BD19
:103CE00008B582680B4612B919B9012008BD11B98F
:103CF0000368187802E0006802F0B4FCB0FA80F0C3
:103D0000400908BD83688B4201D9006818B903488F
:103D10000023037070470844704700BF0C05002063
:103D2000F8B51D469A4288BF13460F46144688BF11
:103D30002C460B4988BF1D460646FFF7B6FEBA68FB
:103D400094420AD83968954294BFC4EB0502C4EB8B
:103D5000020221443046FFF790FE3046F8BD00BF16
:103D6000E2980A0810B504468B68FFF7D9FF204691
:103D700010BD006808B102F02ABB704708B50068A2
:103D800020B102F021FB01F0E5FD08BD002008BDD7
:103D9000F8B506460D468F180024BD420CD0336896
:103DA00015F8011B9B6830469847002801DB044446
:103DB000F3E7002C08BF04462046F8BD70B5054661
:103DC0000C46084649B103F073F92B6802462146B8
:103DD0002846BDE87040DB68184770BD08B5FFF79E
:103DE000EDFF08BD03689B68184738B50D210546EF
:103DF000FFF7F8FF0A2104462846FFF7F3FF2044A7
:103E000038BD38B50546FFF7D9FF04462846FFF709
:103E1000ECFF204438BD012A98BF0A2230B50B467A
:103E20008BB000218DF824100DF12304B3FBF2F5C3
:103E300005FB1233DBB2092B94BF30333733DBB2CF
:103E4000214604F801392B46002DEFD1FFF7B6FFCC
:103E50000BB030BD2DE9F047194680461046174695
:103E60001E469DF8205001F017FD08B14D4912E0A3
:103E700026F000444FF0FF324B4B3846214601F00C
:103E80000BFD68B94FF0FF32474B3846214601F031
:103E9000E5FC28B945494046FFF790FFBDE8F087AB
:103EA0004FF06042424B3846314601F0EBFC08B11E
:103EB0004049F0E74FF060423F4B3846314601F051
:103EC000C3FC0028F4D1002200233846314601F01B
:103ED000BBFC38B12D214046FFF784FF06F10046B8
:103EE000044600E0044635494FF0000900205FFA1F
:103EF00089F39D4206D90022314B01F05DFB09F1A7
:103F00000109F4E73A46334601F07AF80F460646CF
:103F100001F000FD0A22014681464046FFF77BFF83
:103F20000444E5B3484601F0A7F902460B46304683
:103F3000394601F063F806460F4640462149FFF72F
:103F40003DFF044400221E4B3046394601F00AFA78
:103F500006460F4601F0B6FCB0F1000A07DA2D2143
:103F60004046FFF73FFFCAF10001814602E051469B
:103F70004FF000090A224046FFF74DFF4844044431
:103F8000504601F089F902460B463046394601F0A9
:103F900035F8013D15F0FF0506460F46D2D1204603
:103FA000BDE8F0875F9A0A08FFFFEF7F679A0A086B
:103FB000FFFFEF41639A0A08FFFFEFC10000E03FF7
:103FC00000002440CF980A0837B505461446084635
:103FD00001F074F9E4B2024600940B462846FFF75C
:103FE00039FF03B030BD37B59DF818100546009174
:103FF000FFF730FF04462846FFF7F7FE204403B0E2
:1040000030BD37B504460846154601F057F900950E
:1040100002460B462046FFF7E6FF03B030BD002303
:104020001A4619464068FFF7BFB80000014A024B24
:104030001A607047E19A0A081005002008B50020B0
:10404000FFF70AF928B1FFF7FFF880F00100C0B2CE
:1040500008BD012008BD000010B50949044601F063
:1040600075FF60B90749204601F08EFF38B906494F
:10407000204601F0CDFD01F091FF044B186010BD0A
:10408000000040C100006041000061451C050020A7
:1040900037B50E4B04461B6802A819440C4B1B682D
:1040A000194440F8041D02F0A5F902F051F9054643
:1040B00002F0FEFF0023284400F8013C2946204678
:1040C000FFF7F3FC204603B030BD00BF1C05002005
:1040D000180500202DE9F047A4B014AC0746894626
:1040E000204611463F221D4602F0FFFF00232046D6
:1040F0008DF88F3002F0DCFF804625B9244903A8F3
:1041000002F0BAFA13E03C2195FBF1F2002AB8BFA5
:10411000524292FBF1F301FB13224FF461630092D0
:1041200095FBF3F31B4A102103A8FFF7CDF82546B2
:104130002E1B08F1FF3AB2451BD92B78252B16D13F
:104140006B787A2B13D103A802F0B2FF804630447B
:10415000C6EB0A02A91C204402F048FA424603A911
:10416000284602F043FA204602F0A2FF80460135BD
:10417000DEE74B462246322107A802F0E5FA07A9FE
:104180003846FFF792FC384624B0BDE8F08700BF00
:104190009DA10A08479B0A08F7B5054601921C46EF
:1041A00013B9124B1C682CB1114B2046196802F050
:1041B00059FA20B901992846FFF76AFF13E00D4F1D
:1041C000019A3B680C4E1A44336802A8134440F825
:1041D000043D02F00FF93A6833680146134428465B
:1041E0002246FFF777FF284603B0F0BD14050020F4
:1041F0000C0000201C0500201805002010B5002030
:10420000FEF714FE044668B9FEF77AFF01280BD1C9
:104210002046FEF78DFF38B9FFF710FF30B9FFF7E2
:1042200003F8F9E7012010BD002010BDFFF706FFDD
:104230000020FEF7FBFD003018BF012010BD08B5BF
:10424000FFF7DCFFBDE80840FEF7E8BD024B1A6847
:10425000024B1A60704700BF0C00002014050020BC
:104260000021FEF75DBF10B58368044613B1032239
:1042700001469847204610BD10B50446FFF7F3FFEE
:10428000204610BD10B50446FEF72AFF844208D030
:104290001CB1BDE81040FEF713BFBDE81040FEF7AB
:1042A00017BF10BD034800238360034A034900F091
:1042B00037BD00BF24050020FC00002079420A0819
:1042C00008B5144B33B100F09FF903681B69984798
:1042D000002816DC104B33B100F04CFA03681B6960
:1042E0009847002810DC0D4B0BB1AFF300800C4B4E
:1042F0007BB100F0B7F903681B699847002806DC1A
:1043000008BDAFF30080E5E7AFF30080EBE7AFF364
:10431000008008BD00000000000000000000000058
:104320000000000008B5FFF7CBFFFEF76FFD014B63
:10433000186008BD9C0500200248034A0349121A70
:1043400002F054B9004002400440024018A30A0899
:1043500007B5002300931A466FF07701FEF7FAFEC7
:1043600003B05DF804FB000007B543880A2B08D0B2
:10437000502B09D1094B1B683BB103B05DF804EB2E
:104380001847FFF7E5FF06E0002300931A466FF099
:104390007701FEF7DFFE03B05DF804FB3405002073
:1043A00038B5104C104D2368AB42104B0CBF0122A6
:1043B00000221A7002D0FFF7BFFF2560FEF71EFD36
:1043C000044602F027F90A4B13B12046AFF30080F0
:1043D00000210748FEF748FFBDE8384000210548A6
:1043E000FEF7AEBE004002401E1C279A3805002092
:1043F0000000000069430A0810B588B0044668460A
:10440000FFF753FB694604A8FFF78EFB04A8A047FB
:10441000044604A8FFF702FB6846FFF7FFFA2046B0
:1044200008B010BDF0B507460E46154685B01024FD
:1044300022460021684602F0E4F800226946104650
:10444000ADF80040029703960195FEF7E5FE05B032
:10445000F0BD704710B50446182100F06FFC2046EF
:1044600010BDF8B50F4600F10806051D002416F82A
:10447000011D0A223846FFF7CEFCAE42044407D0A5
:10448000002CF4D02E213846FFF7ACFC0444EEE7B4
:104490002046F8BD10B50446044B112240F8043BF9
:1044A000002102F0AEF8204610BD00BF789B0A083C
:1044B0000346074A10B543F8042B01F1100251F8E6
:1044C000044B914243F8044BF9D10A781A7010BD9D
:1044D000789B0A08024A4160026004220275704714
:1044E000789B0A0810B59DF8084044EA032343EA84
:1044F000024242EA016104234160037510BD0000DD
:1045000037B5044D05609DF818500095FFF7EAFF98
:1045100003B030BD789B0A0837B50D788B784A78A0
:10452000C97800912946FFF7DDFF03B030BD0000D8
:1045300010B50446024B0360FFF7EEFF204610BDA6
:10454000789B0A0841747047704708B50021007CC9
:10455000FEF77EFD30EA200028BF4FF0FF3008BD97
:1045600008B50121007CFEF773FD30EA200028BF6A
:104570004FF0FF3008BD08B5007CFEF761FD20EA72
:10458000E07008BD08B5007CFEF752FD20EAE0703F
:1045900008BD007CFEF76CBD10B50446142100F088
:1045A000CDFB204610BD38B50446007C0D46FEF715
:1045B00047FD002801DC607C28B12946207CFEF7FD
:1045C0004FFD20EAE07038BD10B50446002363605B
:1045D0004FF47A73A360054B0846236001232174CE
:1045E00063741146FEF714FD204610BD8C9B0A082B
:1045F0000022007CFEF714BD10B5044614220021F1
:1046000001F0FFFF204610BD30B50E4D87B001A868
:10461000FFF7F2FF296811F0010410D12846FBF7DB
:1046200046FD60B101AA21460748FFF7CDFF2846A5
:10463000FBF742FD054A0649034800F071FB0248BA
:1046400007B030BD3C05002044050020FC000020E0
:1046500049450A0810B504461422002101F0D1FF93
:10466000204610BD10B50E4C86B001A8FFF7F2FF32
:104670002368DB0710D42046FBF719FD60B101AABF
:1046800001210848FFF7A0FF2046FBF715FD064A69
:104690000649044800F044FB024806B010BD00BFC4
:1046A0004005002058050020FC00002049450A086C
:1046B00070474174704708B5007CFEF71FFC20EA84
:1046C000E07008BD08B5007CFEF7F0FB20EAE07062
:1046D00008BD08B5007CFEF7F9FB30EA200028BFD2
:1046E0004FF0FF3008BD08B5007CFEF7E7FB30EA6D
:1046F000200028BF4FF0FF3008BD007CFEF7EEBB66
:1047000010B50446142100F019FB204610BD70B509
:10471000457C04460E4625B9007CFEF7EFFB0028D9
:1047200005DD3146207CBDE87040FEF7B7BB28466A
:1047300070BD000010B504460846114600226260B4
:104740004FF47A72A260054A2074226001226274DA
:104750001A46FEF79BFB204610BD00BFBC9B0A0813
:104760000023007CFEF7D2BB0022FFF7F9BF007CDC
:10477000FEF7BCBBF8B5194C25684DB98420FBF792
:104780008EFC064618B18422294601F03AFF2660C5
:10479000134D2E684EB98420FBF781FC074618B1F3
:1047A0008422314601F02DFF2F600E4F396811F041
:1047B000010611D13846FBF77AFC68B12268314610
:1047C0002B680948FFF7B6FF3846FBF775FC074A28
:1047D0000749054800F0A4FA0348F8BD8805002001
:1047E00080050020840500206C050020FC000020CE
:1047F000B1460A087047F8B5064615460C468F18AC
:10480000BC4206D0336814F8011B9B6830469847B9
:10481000F6E72846F8BD0022007CFEF77FBB0021AA
:10482000007CFEF783BB0021007CFEF787BB0021E4
:10483000007CFEF78BBB0021007CFEF78FBB10B520
:104840000446142100F07AFA204610BD10B5044643
:10485000002363604FF47A73A360044B217408460D
:1048600023601146FEF78AFB204610BDEC9B0A0828
:104870000021007CFEF77ABB7047012070470000E2
:1048800008B583891BB10069B0F1004F01D1002048
:1048900008BD01F069F9024901F06EFA08BD00BFD8
:1048A0000000C84208B583891BB18069B0F1004F90
:1048B00001D1002008BD01F057F9024901F05CFA6E
:1048C00008BD00BF0000C842002211464068FEF744
:1048D00063BC10B50446242100F030FA204610BD18
:1048E000F0B5164689B011220F460446002103A8F0
:1048F00001F087FE304602F0DBFB0025009581B217
:104900007B6803AA3046FEF7C3FB20B12946204648
:10491000FFF7E0FD03E003A92046FFF7C9FD2046AD
:1049200009B0F0BD002211464068FEF755BC0022D8
:1049300011464068FEF760BC00224068FEF754BC98
:10494000002281F001014068FEF73EBC00231A46B8
:1049500019464068FEF730BC002211464068FEF759
:104960000BBC002202214068FEF70EBC00231A4651
:104970004068FEF7F9BB000008B583895BB1006AA7
:10498000002808DB01F0F0F8044901F0F5F90449CA
:1049900001F03EF908BD034808BD00BF00FF7F4796
:1049A0000000C842000080BF08B583895BB1406940
:1049B000002808DB01F0D8F8044901F0DDF90449CA
:1049C00001F026F908BD034808BD00BF00FF7F477E
:1049D0000000C842000080BF90F90400704770B525
:1049E0000D46064600F10C040FCD0FC495E80300F8
:1049F00084E8030033690120B3F1004F1ABF642239
:104A000093FBF2F302237360B369B3F1004F1ABF53
:104A1000642293FBF2F30023B36070BD2DE9F041F3
:104A20008846164B00250227182686B0036047608B
:104A300085603246294604460C3001F0E2FD2A46E4
:104A40002946D8F80400FEF7A7FB90B13246294664
:104A5000684601F0D6FD2A4669462846ADF8006052
:104A6000FEF726FB20B969462046FFF7B8FF00E0B5
:104A70006760204606B0BDE8F08100BF489C0A0888
:104A8000024B04225A60024A1A6070478C050020CB
:104A9000149C0A0800231A464068FEF765BB0022F2
:104AA00002214068FEF770BB002211464068FEF705
:104AB00063BB002211464068FEF76EBB00231A4616
:104AC00019464068FEF770BB00231A461946406835
:104AD000FEF772BB002281F001014068FEF774BB53
:104AE00000224068FEF780BB002211464068FEF7B6
:104AF00083BB002211464068FEF76EBB70B51646B8
:104B00008EB0044608A8FFF7C5FC1122002103A8B7
:104B100001F077FD304602F0CBFA00250A4B0095F4
:104B200081B25B6803AA3046FEF7B2FA20B129468B
:104B30002046FFF7CFFC03E003A92046FFF7B8FCAF
:104B400020460EB070BD00BF8C050020034B044A08
:104B500004280CBF10461846704700BF940500207B
:104B60008C050020024B034A1A6000225A607047ED
:104B7000940500206C9C0A0870B51A4E04463168F2
:104B800011F001050FD13046FBF791FA58B12946D3
:104B90001548FEF7BFFB3046FBF78EFA134A14495F
:104BA000114800F0BDF81048FEF7D9FB28B1A4F178
:104BB0000D03022B01D8002070BD00F08BF8FFF729
:104BC00057FE08B1012CF6D9FFF7D4FDFFF7CFFD52
:104BD00018B1A4F11203012BEDD9172C8CBF0020C2
:104BE000012070BD0001002004010020FC00002015
:104BF0008D020A08172838B504460D460AD8FF2941
:104C000008D0FFF7B9FF28B129462046BDE8384053
:104C1000FEF7B4B838BD38B504460D46FEF7B6F811
:104C2000FF2810D0062804D84D2323FA00F0C3072C
:104C300009D42046FFF7A0FF28B129462046BDE849
:104C40003840FEF7ABB838BD10B50446FEF79EF805
:104C50000438C0B2012808D92046FFF78DFF20B1E3
:104C60002046BDE81040FEF7A1B8002010BD0000AE
:104C700013B5084C00231A46194600932046FFF747
:104C80003FFC2046044A054902B0BDE8104000F050
:104C900047B800BFA0050020FC00002053440A08CC
:104CA00070B5044614252A46094E002101F0A9FCDE
:104CB000258020253146A5602561284600F040F872
:104CC00031466060284600F03BF8E060204670BD49
:104CD000989C0A0830B50E4D87B0296811F0010480
:104CE00013D12846FBF7E3F978B101A8FFF7D8FF05
:104CF00001AA21460748FFF7A9FD2846FBF7DCF982
:104D0000054A0649034800F00BF8024807B030BDD9
:104D1000B8050020BC050020FC000020F5470A086B
:104D20000B460146184601F057BB0000024B1868BD
:104D3000BFF35F8F704700BFD0050020FBF7B3B90A
:104D400000F000B810B5002814BF04460124204626
:104D5000FEF792FA20B9FFF7E9FF08B18047F6E7BE
:104D600010BD0000184B1A68D1075CBF01221A6001
:104D7000164B1A68D2075CBF01221A60144B1A68DE
:104D8000D0075CBF01221A60124B1A68D1075CBFC2
:104D900001221A60104B1A68D2075CBF01221A6008
:104DA0000E4B1A68D0075CBF01221A600C4B1A68C0
:104DB000D1075CBF01221A600A4B1A68D2075CBF98
:104DC00001221A60704700BFF0050020EC050020AA
:104DD000E8050020E4050020E0050020DC050020B7
:104DE000D8050020D4050020244B1A68D0075CBFEA
:104DF00001221A60224B1A68D1075CBF01221A6097
:104E0000204B1A68D2075CBF01221A601E4B1A6839
:104E1000D0075CBF01221A601C4B1A68D1075CBF27
:104E200001221A601A4B1A68D2075CBF01221A606D
:104E3000184B1A68D0075CBF01221A60164B1A681B
:104E4000D1075CBF01221A60144B1A68D2075CBFFD
:104E500001221A60124B1A68D0075CBF01221A6047
:104E6000104B1A68D1075CBF01221A600E4B1A68FA
:104E7000D2075CBF01221A60704700BF20060020E5
:104E80001C06002018060020140600201006002032
:104E90000C06002008060020040600200006002062
:104EA000FC050020F8050020F4050020244B1A68BA
:104EB000D0075CBF01221A60224B1A68D1075CBF81
:104EC00001221A60204B1A68D2075CBF01221A60C7
:104ED0001E4B1A68D0075CBF01221A601C4B1A686F
:104EE000D1075CBF01221A601A4B1A68D2075CBF57
:104EF00001221A60184B1A68D0075CBF01221A60A1
:104F0000164B1A68D1075CBF01221A60144B1A684D
:104F1000D2075CBF01221A60124B1A68D0075CBF2F
:104F200001221A60104B1A68D1075CBF01221A6077
:104F30000E4B1A68D2075CBF01221A60704700BF8F
:104F4000500600204C0600204806002044060020A1
:104F5000400600203C0600203806002034060020D1
:104F6000300600202C060020280600202406002001
:104F7000184B1A68D1075CBF01221A60164B1A68D9
:104F8000D2075CBF01221A60144B1A68D0075CBFBD
:104F900001221A60124B1A68D1075CBF01221A6005
:104FA000104B1A68D2075CBF01221A600E4B1A68B8
:104FB000D0075CBF01221A600C4B1A68D1075CBF96
:104FC00001221A600A4B1A68D2075CBF01221A60DC
:104FD000704700BF700600206C06002068060020A5
:104FE00064060020600600205C06002058060020B1
:104FF0005406002081F0004102E000BF83F000432E
:1050000030B54FEA41044FEA430594EA050F08BF63
:1050100090EA020F1FBF54EA000C55EA020C7FEA27
:10502000645C7FEA655C00F0E2804FEA5454D4EBA4
:105030005555B8BF6D420CDD2C4480EA020281EA6E
:10504000030382EA000083EA010180EA020281EAA6
:105050000303362D88BF30BD11F0004F4FEA0131F8
:105060004FF4801C4CEA113102D0404261EB410107
:1050700013F0004F4FEA03334CEA133302D052428D
:1050800063EB430394EA050F00F0A780A4F1010449
:10509000D5F1200E0DDB02FA0EFC22FA05F2801883
:1050A00041F1000103FA0EF2801843FA05F3594169
:1050B0000EE0A5F120050EF1200E012A03FA0EFCE8
:1050C00028BF4CF0020C43FA05F3C01851EBE37112
:1050D00001F0004507D54FF0000EDCF1000C7EEB2F
:1050E00000006EEB0101B1F5801F1BD3B1F5001F6D
:1050F0000CD349085FEA30004FEA3C0C04F101048C
:105100004FEA445212F5800F80F09A80BCF1004FB4
:1051100008BF5FEA500C50F1000041EB045141EA36
:10512000050130BD5FEA4C0C404141EB010111F437
:10513000801FA4F10104E9D191F0000F04BF0146E2
:105140000020B1FA81F308BF2033A3F10B03B3F1C0
:1051500020020CDA0C3208DD02F1140CC2F10C0250
:1051600001FA0CF021FA02F10CE002F11402D8BFAE
:10517000C2F1200C01FA02F120FA0CFCDCBF41EA7A
:105180000C019040E41AA2BF01EB0451294330BD49
:105190006FEA04041F3C1CDA0C340EDC04F1140426
:1051A000C4F1200220FA04F001FA02F340EA0300FD
:1051B00021FA04F345EA030130BDC4F10C04C4F143
:1051C000200220FA02F001FA04F340EA0300294623
:1051D00030BD21FA04F0294630BD94F0000F83F46D
:1051E000801306BF81F480110134013D4EE77FEA50
:1051F000645C18BF7FEA655C29D094EA050F08BF9C
:1052000090EA020F05D054EA000C04BF194610467C
:1052100030BD91EA030F1EBF0021002030BD5FEAC0
:10522000545C05D14000494128BF41F0004130BDE8
:1052300014F580043CBF01F5801130BD01F000453C
:1052400045F0FE4141F470014FF0000030BD7FEAAF
:10525000645C1ABF194610467FEA655C1CBF0B46AA
:10526000024650EA013406BF52EA033591EA030FC1
:1052700041F4002130BD00BF90F0000F04BF0021B9
:10528000704730B54FF4806404F132044FF00005EC
:105290004FF0000150E700BF90F0000F04BF002165
:1052A000704730B54FF4806404F1320410F00045CB
:1052B00048BF40424FF000013EE700BF42004FEAC6
:1052C000E2014FEA31014FEA02701FBF12F07F4343
:1052D00093F07F4F81F06051704792F0000F14BF40
:1052E00093F07F4F704730B54FF4607401F0004584
:1052F00021F0004120E700BF50EA010208BF7047DB
:1053000030B54FF000050AE050EA010208BF7047CF
:1053100030B511F0004502D5404261EB41014FF438
:10532000806404F132045FEA915C3FF4DCAE4FF03C
:1053300003025FEADC0C18BF03325FEADC0C18BF23
:10534000033202EBDC02C2F1200300FA03FC20FA74
:1053500002F001FA03FE40EA0E0021FA02F11444C1
:10536000C1E600BF70B54FF0FF0C4CF4E06C1CEAD6
:1053700011541DBF1CEA135594EA0C0F95EA0C0F4B
:1053800000F0DEF82C4481EA030621EA4C5123EABE
:105390004C5350EA013518BF52EA033541F48011ED
:1053A00043F4801338D0A0FB02CE4FF00005E1FBA0
:1053B00002E506F00042E0FB03E54FF00006E1FBEA
:1053C00003569CF0000F18BF4EF0010EA4F1FF042D
:1053D000B6F5007F64F5407404D25FEA4E0E6D416D
:1053E00046EB060642EAC62141EA55514FEAC5207E
:1053F00040EA5E504FEACE2EB4F1FD0C88BFBCF5FA
:10540000E06F1ED8BEF1004F08BF5FEA500E50F1AA
:10541000000041EB045170BD06F0004646EA010170
:1054200040EA020081EA0301B4EB5C04C2BFD4EBA2
:105430000C0541EA045170BD41F480114FF0000E9B
:10544000013C00F3AB8014F1360FDEBF002001F009
:10545000004170BDC4F10004203C35DA0C341BDC83
:1054600004F11404C4F1200500FA05F320FA04F055
:1054700001FA05F240EA020001F0004221F0004189
:1054800010EBD37021FA04F642EB06015EEA430EFC
:1054900008BF20EAD37070BDC4F10C04C4F120052C
:1054A00000FA04F320FA05F001FA04F240EA0200DF
:1054B00001F0004110EBD37041F100015EEA430EB0
:1054C00008BF20EAD37070BDC4F1200500FA05F2D0
:1054D0004EEA020E20FA04F301FA05F243EA02034F
:1054E00021FA04F001F0004121FA04F220EA02005E
:1054F00000EBD3705EEA430E08BF20EAD37070BDA4
:1055000094F0000F0FD101F00046400041EB010183
:1055100011F4801F08BF013CF7D041EA060195F065
:10552000000F18BF704703F00046520043EB03031F
:1055300013F4801F08BF013DF7D043EA060370470C
:1055400094EA0C0F0CEA135518BF95EA0C0F0CD017
:1055500050EA410618BF52EA4306D1D181EA03015D
:1055600001F000414FF0000070BD50EA410606BF57
:105570001046194652EA430619D094EA0C0F02D19C
:1055800050EA013613D195EA0C0F05D152EA0336E1
:105590001CBF104619460AD181EA030101F00041FF
:1055A00041F0FE4141F470014FF0000070BD41F048
:1055B000FE4141F4780170BD70B54FF0FF0C4CF422
:1055C000E06C1CEA11541DBF1CEA135594EA0C0F41
:1055D00095EA0C0F00F0A7F8A4EB050481EA030E8E
:1055E00052EA03354FEA013100F088804FEA033375
:1055F0004FF0805545EA131343EA12634FEA022243
:1056000045EA111545EA10654FEA00260EF0004103
:105610009D4208BF964244F1FD0404F5407402D255
:105620005B084FEA3202B61A65EB03055B084FEAE6
:1056300032024FF480104FF4002CB6EB020E75EBE3
:10564000030E22BFB61A754640EA0C005B084FEA0B
:105650003202B6EB020E75EB030E22BFB61A754688
:1056600040EA5C005B084FEA3202B6EB020E75EBD3
:10567000030E22BFB61A754640EA9C005B084FEA4B
:105680003202B6EB020E75EB030E22BFB61A754658
:1056900040EADC0055EA060E18D04FEA051545EA47
:1056A00016754FEA06164FEAC30343EA52734FEAF0
:1056B000C2025FEA1C1CC0D111F4801F0BD141EA69
:1056C00000014FF000004FF0004CB6E711F4801FCE
:1056D00004BF01430020B4F1FD0C88BFBCF5E06FAE
:1056E0003FF6AFAEB5EB030C04BFB6EB020C5FEABE
:1056F000500C50F1000041EB045170BD0EF0004E13
:105700004EEA113114EB5C04C2BFD4EB0C0541EA44
:10571000045170BD41F480114FF0000E013C90E641
:1057200045EA060E8DE60CEA135594EA0C0F08BF05
:1057300095EA0C0F3FF43BAF94EA0C0F0AD150EA04
:1057400001347FF434AF95EA0C0F7FF425AF104697
:1057500019462CE795EA0C0F06D152EA03353FF4BF
:10576000FDAE1046194622E750EA410618BF52EA3C
:1057700043067FF4C5AE50EA41047FF40DAF52EA10
:1057800043057FF4EBAE12E74FF0FF3C06E000BFAD
:105790004FF0010C02E000BF4FF0010C4DF804CDBA
:1057A0004FEA410C7FEA6C5C4FEA430C18BF7FEA7A
:1057B0006C5C1BD001B050EA410C0CBF52EA430CA8
:1057C00091EA030F02BF90EA020F0020704710F128
:1057D000000F91EA030F58BF994208BF90422CBFB7
:1057E000D8176FEAE37040F0010070474FEA410CB0
:1057F0007FEA6C5C02D150EA013C07D14FEA430CCE
:105800007FEA6C5CD6D152EA033CD3D05DF8040B3E
:10581000704700BF8446104662468C461946634670
:1058200000E000BF01B5FFF7B7FF002848BF10F147
:10583000000F01BD4DF808EDFFF7F4FF0CBF01208C
:1058400000205DF808FB00BF4DF808EDFFF7EAFF08
:1058500034BF012000205DF808FB00BF4DF808EDC3
:10586000FFF7E0FF94BF012000205DF808FB00BFB8
:105870004DF808EDFFF7CEFF94BF012000205DF842
:1058800008FB00BF4DF808EDFFF7C4FF34BF01204F
:1058900000205DF808FB00BF4FEA410C7FEA6C5C1A
:1058A00002D150EA013C0AD14FEA430C7FEA6C5C1A
:1058B00002D152EA033C02D14FF0000070474FF092
:1058C000010070474FEA410212F5001215D211D5BE
:1058D0006FF47873B3EB625212D94FEAC12343F0ED
:1058E000004343EA505311F0004F23FA02F018BF6F
:1058F000404270474FF00000704750EA013005D138
:1059000011F0004008BF6FF0004070474FF00000FA
:10591000704700BF4A0011D212F5001211D20DD506
:105920006FF47873B3EB62520ED44FEAC12343F0A5
:10593000004343EA505323FA02F070474FF000004F
:10594000704750EA013002D14FF0FF3070474FF0FE
:10595000000070474FEA4102B2F1E04324BFB3F5C3
:10596000001CDCF1FE5C0DD901F0004C4FEAC002D6
:105970004CEA5070B2F1004F40EB830008BF20F0BA
:105980000100704711F0804F21D113F13872BCBF74
:1059900001F00040704741F480114FEA5252C2F1C9
:1059A0001802C2F1200C10FA0CF320FA02F018BF12
:1059B00040F001004FEAC1234FEAD32303FA0CFC65
:1059C00040EA0C0023FA02F34FEA4303CCE77FEAF4
:1059D000625307D150EA01331EBF4FF0FE4040F43E
:1059E0004000704701F0004040F0FE4040F40000ED
:1059F000704700BF80F0004002E000BF81F000412E
:105A000042001FBF5FEA410392EA030F7FEA226C64
:105A10007FEA236C6AD04FEA1262D2EB1363C1BFF4
:105A2000D218414048404140B8BF5B42192B88BF63
:105A3000704710F0004F40F4000020F07F4018BF86
:105A4000404211F0004F41F4000121F07F4118BFA6
:105A5000494292EA030F3FD0A2F1010241FA03FC4E
:105A600010EB0C00C3F1200301FA03F100F0004336
:105A700002D5494260EB4000B0F5000F13D3B0F1FE
:105A8000807F06D340084FEA310102F10102FE2A6D
:105A900051D2B1F1004F40EBC25008BF20F00100DD
:105AA00040EA03007047490040EB000010F4000F8B
:105AB000A2F10102EDD1B0FA80FCACF1080CB2EB1E
:105AC0000C0200FA0CF0AABF00EBC250524218437D
:105AD000BCBFD0401843704792F0000F81F4000122
