:02000004080AE8
:1000000000000A08C06B0A0800000600060005018F
:080010000402E80500000000F5
:04001800645D0A0811
:10001C0009480A4908B5884205D0094A824202D0EB
:10002C00121A04F0C7FC0748074A0021121A04F000
:10003C00CCFC064808BD00BF00000020DC6A0A08A2
:10004C00BC000020BC000020C8040020C804002014
:10005C0070B502F01FFC074B074C1E46E41AA408AF
:10006C000025A54204D056F8253098470135F8E70D
:10007C0070BD00BF946A0A08D06A0A0800F032BC4E
:10008C0008B500F081FABDE8084002F0C5BB01F0EC
:10009C00F3BC01F0F1BC01F0F7BC01F0F5BC007849
:1000AC00B0FA80F040097047012303707047106864
:1000BC00704708B50021042003F027F84FF4FA70BC
:1000CC0002F048FB0121042003F01FF8012008BDB9
:1000DC001FB50121022003F018F84FF4FA7002F05A
:1000EC0039FB0B49684602F0D8F86846FFF7E1FF88
:1000FC00684602F08BF84FF4FA7002F02BFB0021EB
:10010C00022003F002F8012005B05DF804FB00BFEB
:10011C009E610A0800B58BB0044901A802F0F8FEF4
:10012C0001A802F0D3FE0BB05DF804FBB80200206E
:10013C0008B501F023FD08BD38B50A49054602F0A3
:10014C0070F9044618B1084B0120187038BD0749E6
:10015C00284602F066F918B1034B20461C7038BDD6
:10016C0038BD00BF785D0A08FC0100207D5D0A08DF
:10017C0070B58AB002F067F90546FE238DF804309D
:10018C00FF238DF80730184B01201C788DF80500E3
:10019C008DF806502CBB02F067FD03680422DB6867
:1001AC000DEB0201984702F0A9FC1049064606A87F
:1001BC0002F073F80A22294602A802F0BFF802A93D
:1001CC0006A802F010F90A4902F019F90168304644
:1001DC0002F077F902A802F019F806A802F016F856
:1001EC0020460AB070BD00BFFC010020835D0A08E8
:1001FC00A65D0A0870B58AB002F025F9FE238DF8C9
:10020C00043002238DF80530FF238DF80730184B8E
:10021C0005461C788DF8060034BB02F025FD0368FA
:10022C000422DB680DEB0201984702F067FC1149D0
:10023C00064606A802F031F80A22294602A802F066
:10024C007DF802A906A802F0CEF80B4902F0D7F807
:10025C000168304602F035F902A801F0D7FF06A874
:10026C0001F0D4FF204600E001200AB070BD00BFB1
:10027C00FC010020AD5D0A08A65D0A0810B5044615
:10028C00806808B101F0F2F9204610BD1FB50023BB
:10029C00019303930C23ADF80430044B0422029316
:1002AC0001AB01F0B1FB05B05DF804FBBB000A0823
:1002BC0038B501210B2002F017FF01210B2002F0B1
:1002CC0024FF204D01210C2002F00EFF01210C20F7
:1002DC0002F01BFF296811F001040FD12846FFF72B
:1002EC00DEFE58B12146184801F00CFC2846FFF7F9
:1002FC00DBFE164A1649144802F08CFF0021124806
:10030C0001F00FFC322002F025FA124800F0C6FC76
:10031C004FF4FA7002F01EFA0F4800F0BFFC702187
:10032C000C4800F0F6FC70210B4800F0F2FC02F0D7
:10033C00E5FB0A4902F0C5F802F0E0FB02F0B5F863
:10034C00012038BDC0000020C4000020BC000020EB
:10035C0089020A081002002014010020D05D0A084E
:10036C0008B501F05BF9034B1860BDE8084001F0DB
:10037C005BBB00BFC802002070B5134D002128687C
:10038C0003F0C6FF60B10021686803F0C1FF38B10B
:10039C000021A86803F0BCFFB0FA80F4640900E007
:1003AC0001240021E868084E03F0B2FF48B1002197
:1003BC00306903F0ADFF20B10021706903F0A8FF94
:1003CC0000B90234204670BDC4010020B0B50C4603
:1003DC0001F1080382B023F007036D4600AFADEBCB
:1003EC00030D0A460146684604F0E4FA00230DF8B2
:1003FC0004300A22391D684605F0F4F87B680128A0
:10040C0003F101037B6003D0022831D1062400E004
:10041C0005240A221846391D05F0E4F882B2164B61
:10042C0002B9092201381A8006281CD8DFE800F02E
:10043C00040A0C0E151719000121204602F065FE66
:10044C000E4A08E00E4A0FE00E4A04E00021204656
:10045C0002F05BFE0C4A0D4907E00D4A04E00D4A20
:10046C0002E00D4A00E00D4A0D490E4800F0F9FE7D
:10047C00AD460837BD46B0BDE0000020355F0A0828
:10048C006A5F0A08C65F0A08EA5F0A08515F0A0831
:10049C0009600A0869600A0895600A08CB600A08B6
:1004AC00AE5F0A08240100207FB506460C461448AE
:1004BC001449154601F01EFF1349304604F0B6FAF4
:1004CC0018B929462046FFF781FF02F032F905469C
:1004DC0002F014FB0D4901F0E1FF02F00FFB0446A2
:1004EC000B4B2A461B6868460A4902F0CFF8009964
:1004FC00204601F0E6FF684601F088FE04B070BDAE
:10050C0020020020E3600A08E6600A08F9600A0885
:10051C00040000204C02002008B5144800F03DFDFA
:10052C0018BB02F0EBFA124901F0B8FF11490F4861
:10053C0000F018FE50B102F0E1FA0F4901F0C1FFD2
:10054C0002220E49094800F0D9FFE6E702F0D6FA7C
:10055C000B4901F0B6FF02F0D1FA0A4901F0B1FFE4
:10056C0041F2883002F0F6F8D7E708BD24010020EC
:10057C0020610A0843610A0853610A08E6600A0808
:10058C0063610A087B610A082DE9F041B948A0B003
:10059C0000F003FD18B1B74800F0AAFE01E0FFF728
:1005AC00BBFFB54CFFF7DCFE01222168684601F069
:1005BC00ECFE694604A801F092FEB04904A801F0D3
:1005CC001EFF0546AE4B0122596808A801F0DDFE5E
:1005DC0008A9284601F007FFA84901F010FF0546BD
:1005EC00A84B012299680CA801F0CFFE0CA9284653
:1005FC0001F0F9FEA14901F002FF0546A24B0122D0
:10060C00D96810A801F0C1FE10A9284601F0EBFE34
:10061C009A4901F0F4FE05469C4B0122596814A836
:10062C0001F0B3FE14A9284601F0DDFE934901F058
:10063C00E6FE05460122616918A801F0A6FE18A97C
:10064C00284601F0D0FE8D4901F0D9FE0546904BAD
:10065C00022219681CA801F098FE1CA9284601F07A
:10066C00C2FE01468B4801F02BFE1CA801F0CEFD0A
:10067C0018A801F0CBFD14A801F0C8FD10A801F0DA
:10068C00C5FD0CA801F0C2FD08A801F0BFFD04A82F
:10069C0001F0BCFD684601F0B9FD01F0D5F908B9CF
:1006AC0001F0CAF97C4EFFF75BFE33687B4D0A2BD9
:1006BC0041DD0023336002F021FA7949074618A87E
:1006CC0001F0EBFD0A22296814A801F04AFE14A9D6
:1006DC0018A801F088FE734901F091FE80460A22A9
:1006EC0069681CA801F03DFE1CA9404601F07BFE88
:1006FC000168384601F0E5FE1CA801F087FD14A83E
:10070C0001F084FD18A801F081FD02F0F7F92169D0
:10071C000746E06803F060FB616903F05DFB0622AD
:10072C0001461CA801F031FE1C99384601F0C9FEA7
:10073C001CA801F06BFD3368013333605A4B1A6807
:10074C001F460A2A07DD2B6803F13C0601F0F1FF76
:10075C00864208D314E02B6803F1460601F0E9FF4A
:10076C008642F0D80CE06168206803F035FBA16884
:10077C0003F032FB4FF07E5103F0D4FD002834D14E
:10078C007B680A2B06DD6D6801F0D3FF3C35854292
:10079C0008D314E06B6803F1460601F0CAFF8642E9
:1007AC00F1D80CE02169E06803F016FB616903F0F5
:1007BC0013FB4FF07E5103F0B5FD002837D16420B8
:1007CC0001F0C8FFFFF7D8FD20F00200012873D11B
:1007DC00FFF7D2FD0238012873D8344A137883F01E
:1007EC000103137020B0BDE8F08102F087F93049A5
:1007FC0006461CA801F051FD0A22012118A801F09F
:10080C008AFD18A91CA801F0EEFD0168304601F024
:10081C0058FE18A801F0FAFC1CA801F0F7FC002106
:10082C00052002F072FC234A1C4B1A60A8E702F068
:10083C0065F91F4904461CA801F02FFD0A2202216C
:10084C0018A801F068FD18A91CA801F0CCFD0168DE
:10085C00204601F036FE18A801F0D8FC1CA801F0C7
:10086C00D5FC0021062002F050FC124A0B4B5A60BA
:10087C00A5E700BF24010020C4010020A0610A08E4
:10088C00E4000020AC010020DC010020F401002079
:10089C000C0100200002002000000020D8000020E5
:1008AC008D610A089F610A08D0000020E200002038
:1008BC00A2610A089CFFFF7F0449054801F01AFD5C
:1008CC0086E70249034801F015FD86E7B2610A0884
:1008DC007C0100208C0100200246014802F01CB86B
:1008EC00F9280A0808B502F009F94FF4E13102F0D1
:1008FC00F9F802F0B9F94FF4165102F0AFF901F022
:10090C00A3F8002868D001F09FF80121052002F01F
:10091C00EBFB0121062002F0E7FB0021102002F086
:10092C00E3FB0021112002F0DFFB0121022002F089
:10093C00DBFB0121042002F0D7FB0121072002F090
:10094C00D3FB0021052002F0E0FB0021062002F081
:10095C00DCFB0021022002F0D8FB0121042002F074
:10096C00D4FB0021072002F0D0FB1D491D48FFF7E6
:10097C00B3FF1D491D48FFF7AFFF1D491D48FFF789
:10098C00ABFF1D491D48FFF7A7FF1D491D48FFF789
:10099C00A3FF1D491D48FFF79FFF1D491D48FFF789
:1009AC009BFF1D491D48FFF797FF1D491D48FFF789
:1009BC006DFC1D491D48FFF769FC1D491D48FFF7DB
:1009CC0065FCFFF7CDFC012001F0D6FEBDE8084028
:1009DC004FF07E5001F0BABD01F026F88FE700BF52
:1009EC0045010A0869620A087D010A0874620A084E
:1009FC0001020A0881620A08BF000A088E620A080E
:100A0C00DD000A089A620A083D010A08A7620A0872
:100A1C0021010A08B4620A08BD020A08BF620A086A
:100A2C0000020020C8620A089C010020D3620A0858
:100A3C0020020020DC620A08F7B5304F304E314CF2
:100A4C00314D00F09BFD3946304601F026FC304616
:100A5C002E4E2246294602F0DDFB3946304601F087
:100A6C001CFC22462946304602F0D4FB4FF400739E
:100A7C00274E0193274B40F25B72009326490F23BC
:100A8C00304600F0A3F93046244E2246244902F0A9
:100A9C00C1FB2449304601F000FC22462946304671
:100AAC0002F0B8FB204E214F0A220B21204800F007
:100ABC0047F80A220C211F4800F042F8314638460C
:100ACC0001F0EBFB38461C4F2246294602F0A2FBF4
:100ADC003146384601F0E1FB3846184F224629468C
:100AEC0002F098FB3146384601F0D7FB22462946E6
:100AFC00384603B0BDE8F04002F08CBBB2610A0886
:100B0C007C010020BC00002019220A088C01002066
:100B1C0024010020B5040A08E2620A082002002021
:100B2C0055150A08FD610A089E610A089C010020FF
:100B3C001002002014010020FC0000200002002004
:100B4C0038B50446154608462173012102F0CCFA4B
:100B5C00207B012102F0D9FA28466573012102F0AD
:100B6C00C3FA607B002102F0D0FA204638BD0000A9
:100B7C0038B50B4D296811F001040FD12846FFF749
:100B8C008EFA58B12146074800F0BCFF2846FFF703
:100B9C008BFA054A0549034802F03CFB014838BD75
:100BAC00C0000020C4000020BC00002089020A08FC
:100BBC0010B50446FFF7DCFF2146BDE8104000F0FD
:100BCC00C0BF70B50E46154604460021007B02F0EE
:100BDC009CFA06F07E00FFF7EBFF2846FFF7E8FFD4
:100BEC00207B0121BDE8704002F08FBA38B50C466D
:100BFC0005460021007B02F088FA04F07E0040F0EC
:100C0C008000FFF7D5FF0020FFF7D2FF044601213B
:100C1C00287B02F07AFA204638BD70B505460E46A0
:100C2C001446FFF7E3FF40EA040231462846BDE8CC
:100C3C007040D2B2FFF7C5BF70B505460E461446DC
:100C4C00FFF7D4FF20EA040231462846BDE8704085
:100C5C00D2B2FFF7B6BF10B50F2202210446FFF740
:100C6C00B0FF322001F076FD02212046FFF7BEFFD7
:100C7C00C306F9D410BD10B528210446FFF7B6FF02
:100C8C0000F00303032B08D040F00302D2B220463D
:100C9C00BDE810402821FFF794BF10BD10B50446E5
:100CAC00407B02F04BFA38B9607B012102F02DFA3F
:100CBC00322001F04FFD02E02046FFF7CCFF20462A
:100CCC0080225421FFF77DFF2046A9225621FFF7F1
:100CDC0078FF204603225821FFF773FF2046E822B5
:100CEC005A21FFF76EFF204640222A21FFF769FFA9
:100CFC0020463D222221FFF764FF2046BDE810402C
:100D0C00FFF7B9BF08B54C21FFF770FF00F070007A
:100D1C0008BD38B50D460446FFF7F4FFA8420CD0C9
:100D2C00204670224C21FFF787FF05F07002204609
:100D3C00BDE838404C21FFF770BF38BD00F01EBC39
:100D4C0038B50B4B8469054603607CB16368013B85
:100D5C0063605BB9236820469B689847A368013B96
:100D6C00A3601BB923682046DB689847284638BD2A
:100D7C0028630A0810B50446FFF7E2FF20461C2141
:100D8C0002F056FA204610BD38B51D46059B0446A8
:100D9C0003630023436302B1826419B104F1380088
:100DAC0001F0A8FA049BE0692365069BA4F84C505B
:100DBC00FF2BB8BFFF23A4F8543008B1FFF76DF92F
:100DCC00B4F85400FFF765F9E06138BD2DE9FF4137
:100DDC000446174698460E46002501F05DF9E5617C
:100DEC000A4904F1380001F058FA0B9B2046029393
:100DFC000A9BA5640193CDF800803B462A463146F8
:100E0C00FFF7C2FF204604B0BDE8F0819E610A08DE
:100E1C0010B50446204600F0D3FF0028FAD0204637
:100E2C0000F083FFC0B210BD2DE9F0470546C46940
:100E3C008A46FFF7EDFF4FF0010846462070EB693C
:100E4C00002793F8009009F0F0092846FFF7E0FF1F
:100E5C00EB69741C985500F07F0303FB08770306BD
:100E6C00A4B2BFB24FEAC81801D52646EDE7631EFF
:100E7C00B9F1300F8AF8003013D12846D5F81C8010
:100E8C00FFF7C6FF08F804002846D5F81C80FFF7CA
:100E9C00BFFFF41C0236B6B2A4B208F80600022357
:100EAC0000E000231B1B9EB2A3199BB29F420BD9DF
:100EBC002846FFF7ADFFB5F85430A34284BFEB6969
:100ECC0018550134A4B2EFE7B5F85400A0422CBF7A
:100EDC0020460020BDE8F087F7B507468E461E4633
:100EEC001D46002405F07F0302A9ED09214418BF1B
:100EFC0043F08003013401F8043CE4B2002DF1D13D
:100F0C00C4F10403D11802F803E0A54206DA01A8E3
:100F1C002B1B285C134458710135F6E7721C2244D4
:100F2C00384600F0AAFE054600F078FB01347862E2
:100F3C003444A8B2231A5842584103B0F0BD10B53E
:100F4C000446C369E0221A70C36900225A70C16951
:100F5C00022200F092FE204600F06EFF00F05EFBD5
:100F6C006062A06210BDF0B50D4602339BB26C1AE4
:100F7C0015F8016BA4B23EB1B0F854709F4203D97E
:100F8C005C1CD654A3B2F2E7191B0A44211202F8D6
:100F9C00021C02F8014C1846F0BD38B5054601F0AC
:100FAC000CF8002814BF0124002402D1284600F0BC
:100FBC0043FF204638BD00002DE9F04387B00446BE
:100FCC00894617461E46DDF83880FFF7E6FF0546D2
:100FDC00002840F0BD80A16C39B90346B4F84C2010
:100FEC00A16B204601F07AF809E0684601F01AFD81
:100FFC002B46B4F84C206946204600F037FF0028F9
:10100C0000F0A280012323849DF84C30042B15D1D1
:10101C00524B18689A880090ADF804209B79E269CD
:10102C0000988DF80630C2F80500531DBDF8041069
:10103C009DF8062099809A710C2312E06A46484B61
:10104C00D4F81CC0186859681B7A03C213706B461D
:10105C0003CBCCF80500CCF8091013788CF80D30C4
:10106C000E23B8F1000F0AD09DF840209DF83C10DB
:10107C00520142F0060242EAC102D2B200E0022260
:10108C009DF8481009B902F0FD022FB116B942F0D3
:10109C00800201E042F0C002E169581CCA54226D82
:1010AC00E16912120A54E169206D9A1C88540333C9
:1010BC00E26949462046FFF756FFB8F1000F0BD006
:1010CC000346E26941462046FFF74DFFE2690346BD
:1010DC0011992046FFF747FF67B10346E26939468D
:1010EC002046FFF740FF2EB10346E2693146204609
:1010FC00FFF739FF431F9BB2E26910212046FFF72F
:10110C00EBFE00F08BFA4FF47A766062A062204618
:10111C0000F056FE40B900F081FAA36AC01A236DA4
:10112C0073439842F3D90FE069462046FFF77CFEE3
:10113C00042809D1E369DE7836B900F06FFA01258D
:10114C00A06284F82C6004E0204600F075FE00E0FC
:10115C000025284607B0BDE8F08300BFF4620A08FA
:10116C00FB620A087FB50423059301230493002333
:10117C0003930293019300931A46FFF71DFF07B0E8
:10118C005DF804FB2DE9F14F0D9E04468B4691460C
:10119C009A469DF828809DF82C509DF83070FFF7EA
:1011AC00FCFE00284BD0B4F854200021E06903F079
:1011BC000CFC0523E26959462046FFF7D4FE6B1E52
:1011CC00012B12D8238CE26901339BB223841B12AE
:1011DC001354411CE369228C89B2023080B25A54F8
:1011EC001EB1238C5A1C22843380002291B28318A6
:1011FC008A459BB209D9B4F8546001329E4204D995
:10120C0019F80160E169CE54F0E7B8F1000F0CBF9A
:10121C00302131210FB141F00801022D02D141F0F2
:10122C00040103E0012D08BF41F002012046053BFB
:10123C00E2699BB201B0BDE8F04FFFF74DBE01B0C3
:10124C00BDE8F08F1FB5089C0394002402949DF810
:10125C001C4001949DF818400094FFF793FF04B0D4
:10126C0010BD7FB5054610460E46144604F004F931
:10127C0000230293019300932246034631462846ED
:10128C00FFF7E0FF04B070BD38B504460D46FFF71C
:10129C0084FE90B1E36962221A70E36902225A70EB
:1012AC00E3692A129A70E3690422DD70E169204631
:1012BC0000F0E3FC003018BF012038BD38B50446FF
:1012CC000D46FFF76AFE90B1E36972221A70E3696A
:1012DC0002225A70E3692A129A70E3690422DD70C3
:1012EC00E169204600F0C9FC003018BF012038BD70
:1012FC002DE9F04F83B000AF0446FFF74EFE814658
:10130C00002800F0F68000F089F9226D4FF47A7312
:10131C005343A26A0546821A9A4203D8626A821A19
:10132C00934217D294F82C302BB1204600F084FD58
:10133C004FF00009DDE0E269C0211170E26920463E
:10134C005370E169022200F098FC01236562A562EA
:10135C0084F82C30204600F033FD002800F0C980C2
:10136C00F91D2046FFF760FD0246002800F0C18001
:10137C00E369A562187800F0F00130297DD1D4F82A
:10138C0030B0BBF1000F00F0B48097F807C0EA460C
:10139C0003EB0C00817890F801E001EB0E2E1FFAA4
:1013AC008EFE0EF1080121F00701ADEB010D684630
:1013BC0000218EB2B64506D90CEB01061E44F67818
:1013CC0046540131F5E7002100F80E101E780CF19F
:1013DC00030106F00606022ECCEB02021ED171446C
:1013EC0013F8018019444978CEEB020201EB08286E
:1013FC000CF105017144053A1944D847E3694022C0
:10140C001A70E3691FFA88F85E70E3694FEA2822C4
:10141C009A70E369042283F8038020E0042E24D11F
:10142C00714413F8018019444978CEEB020201EBA8
:10143C0008280CF105017144053A1944D847E369B1
:10144C0050221A70E36902225A70E3691FFA88F875
:10145C004FEA28229A703246E36983F80380E169E7
:10146C00204600F00AFC656205E0033A7144CEEBBD
:10147C0002021944D847D5463BE0502908D1997847
:10148C00DB78204603EB012189B2FFF7FDFE30E04B
:10149C0040290CD0602908D19978DB78204603EBE1
:1014AC00012189B2FFF70AFF23E070290DD1616B8E
:1014BC00F9B1042A1DD110F0060F1AD19878DB78F7
:1014CC0003EB002080B2884713E0902911D0C0298B
:1014DC000AD1D0221A70E36900225A70E169022203
:1014EC00204600F0CAFB04E0D02904BF002384F896
:1014FC002C3048460C37BD46BDE8F08F70B504461D
:10150C000E461546FFF749FDE8B1238C01339BB21B
:10151C0003B901232384238CE2691B125371E36901
:10152C00228C31469A71E26907232046FFF71BFD96
:10153C00E36982211D54031FE2692046BDE8704017
:10154C009BB2FFF7C9BC70BD10B50446FFF725FD73
:10155C0010B12046FFF7F3FCE06908B1FEF79DFDE2
:10156C0004F1380000F052FE2046FFF7E9FB20465C
:10157C0010BD00F003B800F001B8000008B5024B34
:10158C001B681B68019308BDB001060808B5024B27
:10159C001B689B68019308BDB001060808B5024B97
:1015AC001B68DB68019308BDB001060808B5024B47
:1015BC001B681B69019308BDB001060808B5024BF6
:1015CC001B685B69019308BDB001060808B5024BA6
:1015DC001B681B68019308BDB401060808B5024BD3
:1015EC001B685B69019308BDB401060808B5024B82
:1015FC001B68DB69019308BDB401060808B5024BF2
:10160C001B681B6A019308BDB401060808B5024BA0
:10161C001B685B68019308BD9C01060808B5024B6A
:10162C001B685B69019308BD9C01060808B5024B59
:10163C001B68DB69019308BD9C01060808B5024BC9
:10164C001B689B6D019308BD9C01060808B5024BF5
:10165C001B689B6E019308BDB801060808B5024BC8
:10166C001B685B6C019308BDD001060808B5024BE2
:10167C001B689B6C019308BDD001060808B5024B92
:10168C001B68DB6C019308BDD001060808B5024B42
:10169C001B685B6D019308BDD001060808B5024BB1
:1016AC001B689B69019308BDC401060808B5024B71
:1016BC001B685B6A019308BDC401060808B5024BA0
:1016CC001B689B6A019308BDC401060808B5024B50
:1016DC001B68DB6A019308BDC401060808B5024B00
:1016EC001B681B6B019308BDC401060808B5024BAF
:1016FC001B685B6B019308BDC401060808B5024B5F
:10170C001B689B6B019308BDC401060808B5024B0E
:10171C001B681B6C019308BDC401060808B5024B7D
:10172C001B68DB6C019308BDC401060808B5024BAD
:10173C001B681B6E019308BDAC01060808B5024B73
:10174C001B685B6E019308BDAC01060808B5024B23
:10175C001B689B6E019308BDAC01060808B5024BD3
:10176C001B68DB6E019308BDAC01060808B5024B83
:10177C001B681B6F019308BDAC01060808B5024B32
:10178C001B685B6F019308BDAC01060808B5034BE1
:10179C001B68D3F88030019308BD0000AC0106082B
:1017AC0008B5024B1B681B68019308BDBC010608F9
:1017BC0008B5024B1B685B68019308BDBC010608A9
:1017CC0008B5024B1B689B68019308BDBC01060859
:1017DC0008B5024B1B68DB68019308BDBC01060809
:1017EC0008B5024B1B681B69019308BDBC010608B8
:1017FC0008B5024B1B681B6A019308BDBC010608A7
:10180C0008B5024B1B681B6B019308BDBC01060895
:10181C0008B5024B1B685B6C019308BDBC01060844
:10182C0008B5024B1B681B68019308BDD80106085C
:10183C0008B5024B1B685B68019308BDD80106080C
:10184C0008B5024B1B681B69019308BDD80106083B
:10185C0008B5024B1B685B69019308BDD8010608EB
:10186C0008B5024B1B689B69019308BDD80106089B
:10187C0008B5024B1B68DB69019308BDD80106084B
:10188C0008B5024B1B681B6A019308BDD8010608FA
:10189C0008B5024B1B685B6C019308BDC0010608C0
:1018AC0008B5024B1B689B6C019308BDC001060870
:1018BC0008B5024B1B685B6F019308BDC00106089D
:1018CC0008B5024B1B689B68019308BDA801020870
:1018DC0008B5024B1B68DB68019308BDA801020820
:1018EC0008B5024B1B689B69019308BDA80102084F
:1018FC0008B5024B1B681B6D019308BDA8010208BB
:10190C0008B5024B1B681B68019308BDA4010608AF
:10191C0008B5024B1B685B68019308BDA40106085F
:10192C0008B5024B1B685B69019308BDA40106084E
:10193C0008B5024B1B689B6D019308BDA4010608FA
:10194C0008B5034B1B68D3F89030019308BD000019
:10195C00A401060808B5034B1B68D3F89C3001930F
:10196C0008BD0000A401060808B5024B1B685B68A3
:10197C00019308BDC801060808B5024B1B689B689B
:10198C00019308BDC801060808B5024B1B68DB684B
:10199C00019308BDC801060808B5024B1B681B69FA
:1019AC00019308BDC801060808B5024B1B685B69AA
:1019BC00019308BDC801060808B5024B1B689B695A
:1019CC00019308BDC801060808B5024B1B68DB690A
:1019DC00019308BDC801060808B5024B1B681B6AB9
:1019EC00019308BDC801060808B5024B1B681B6BA8
:1019FC00019308BDC801060808B5024B1B685B6B58
:101A0C00019308BDC801060808B5024B1B681B688A
:101A1C00019308BDCC01060808B5024B1B685B6836
:101A2C00019308BDCC01060808B5024B1B689B68E6
:101A3C00019308BDCC01060808B5024B1B68DB6896
:101A4C00019308BDCC01060808B5024B1B685B6905
:101A5C00019308BDCC01060808B5024B1B681B6B33
:101A6C00019308BDCC01060808B5024B1B68DB6B63
:101A7C00019308BDCC01060808B5024B1B681B6816
:101A8C00019308BDA001060808B5024B1B685B68F2
:101A9C00019308BDA001060808B5024B1B689B68A2
:101AAC00019308BDA001060808B5024B1B681B6911
:101ABC00019308BDA001060808B5024B1B689B6981
:101ACC00019308BDA001060808B5024B1B68DB6931
:101ADC00019308BDA001060808B5024B1B681B6AE0
:101AEC00019308BDA001060808B5024B1B681B6BCF
:101AFC00019308BDA00106080068FFF7BFBD006890
:101B0C00FFF7C4BD70B504460E46002540F8085FCB
:101B1C00FFF7A4FD30462670FFF768FD6560204690
:101B2C0070BD70B505460E4600F108042046FFF75F
:101B3C00E3FF28783146FFF749FD2046FFF7DFFF2A
:101B4C0070BD08B50078FFF749FDC0B208BD00783C
:101B5C00FFF754BD10B50446006818B1FFF794FFA9
:101B6C000023236010BD10B50446FFF7F3FF204699
:101B7C0010BD014600228C20FFF768BD0020FFF746
:101B8C00F8BF00004FF6FF7310B5084C0020206022
:101B9C00A080A07120816381FFF7BAFE2046BDE8CA
:101BAC001040034A034901F035BB00BF300200204E
:101BBC00BC000020731B0A0810B5044603F05CFC43
:101BCC00013823182046984206D20278197800F87A
:101BDC00011B03F80129F6E710BD70B50C46911EE8
:101BEC00222920D82546294610B9234430220EE05C
:101BFC00B0FBF2F602FB1600C1B2092805F8011B76
:101C0C0094BF3031573105F8011C3046EBE799424F
:101C1C0002D201F8012BFAE7002320460B70FFF7E4
:101C2C00CBFF204670BD002070BD38B5031E0C469E
:101C3C0015460BDAB3F1004F4FF02D0214BF58428A
:101C4C00184601230A702A46194400E00123FFF7C5
:101C5C00C4FF204638BD08B50123FFF7BEFF08BD01
:101C6C0037B502AC036804F8011DDD6B012247F2A5
:101C7C0030532146A84703B030BD10B40368DC6B69
:101C8C0047F23053A44610BC604737B502AC03682A
:101C9C0004F8011DDD6B214613460122A84703B051
:101CAC0030BD704770470020704710B504461421B2
:101CBC0001F0BEFA204610BDFEF7EDB910B5044692
:101CCC0003689B689847A368013BA3602BB9236802
:101CDC002046BDE81040DB68184710BD70B50446BF
:101CEC0006464D69044B8C3544F8043B0FCD0FC4AC
:101CFC002B683046237070BD94640A0810B5436994
:101D0C000446B3F88620B3F884309A4205D0626951
:101D1C00B2F884301344187910BD03681B699847D6
:101D2C000028F4D14FF0FF3010BD10B543690446C4
:101D3C00B3F88620B3F884309A4208D06269B2F8BE
:101D4C008430591CA2F884101344187910BD036810
:101D5C001B6998470028F1D14FF0FF3010BDF8B542
:101D6C0043691746B3F88620B3F8843005469A4287
:101D7C000E4606D103681B69984710B94FF0FF3423
:101D8C0014E069693046B1F88430B1F886401944E2
:101D9C00E41ABC4228BF3C460431224602F00AFE3B
:101DAC006A69B2F884302344A2F884302046F8BD26
:101DBC0042690023A2F884304269A2F88630704749
:101DCC0038B542690446B2F886301BB1B2F88420AB
:101DDC009A420CD0206901F033F90368DB6898470C
:101DEC0018B363691868FFF7E3FC18B91DE0FFF737
:101DFC00DFFFEFE76069B0F886107F2915D8051D65
:101E0C00C1F18002002329440068FFF7E9FC002897
:101E1C000BDD6369B3F886200AB9A3F884206269E4
:101E2C00B2F886301844A2F886006269B2F886309F
:101E3C00B2F88400181A38BD38B5436904461868DE
:101E4C00FFF7B6FC18B163691868FFF7D1FC656938
:101E5C00FFF7D6FC28606069112200218C3002F05B
:101E6C00B4FD2046BDE83840FFF7A2BF2DE9F04194
:101E7C001F4603688AB0DB6A06460C46154698472F
:101E8C00384601F0DDF80368DB689847002856D027
:101E9C0000972B46062201210220D6F81480FFF76A
:101EAC008FFC2023C8F80000002702937369039766
:101EBC001B6801200193234B02AA009322493B4645
:101ECC00FFF716FD73691868FFF772FC002836D00F
:101EDC003046FFF76DFF0223ADF808302B0A8DF862
:101EEC000A30E3794FF4FA508DF80C30A3798DF861
:101EFC000B508DF80D3063798DF80E3014F8043FCB
:101F0C008DF80F30FFF7C4FC73690546102202A947
:101F1C001868FFF75DFC80462846FFF7B9FC0FCC2C
:101F2C0075698C350FC523682B70B8F1000F05D07F
:101F3C0033683046DB6A9847384600E001200AB027
:101F4C00BDE8F08173630A086C630A0810B5436935
:101F5C0004461868FFF72CFC08B9002010BD206956
:101F6C0001F06EF80368DB6898470028F5D06369C8
:101F7C001868FFF715FCB0FA80F0400910BD2DE988
:101F8C00F3410025456004460E4617469846FFF778
:101F9C00DDFF60B160690195CDF800802B463A46B3
:101FAC0031460068FFF734FC002803DA01E04FF0FB
:101FBC00FF30606002B0BDE8F08138B50446FFF731
:101FCC00C5FF00BB6369B3F88610B3F88420914257
:101FDC0019D11868FFF7ECFB28B163691868FFF793
:101FEC00DFFB012801D000250EE0236820461B6989
:101FFC009847002814BF0125002505D123682046E9
:10200C00DB6A984700E00125284638BD08B5FFF784
:10201C009DFF003018BF012008BD10B504460023F9
:10202C000160A0F88430A0F88630883000F0ACFC59
:10203C00204610BD4FF47A7270B58260144A0023AA
:10204C0043600260436183610446A0200E46FEF7A4
:10205C001EF8054610B13146FFF7DFFF1420FEF7DE
:10206C0016F8034628B1012242608260094A0561D4
:10207C000260A0696561A36128B14368013B4360BC
:10208C000BB9FFF71BFE2046FFF792FE204670BDF2
:10209C0028630A080C630A0810B50446FFF7B0FB66
:1020AC0001462046FFF7C6FF204610BD10B504467A
:1020BC000068FFF77DFB10B12068FFF799FB204605
:1020CC0010BD10B504692046FFF7F0FF24B120467F
:1020DC00BDE81040FDF7DFBF10BD00002DE9F04357
:1020EC001F4603688FB0DB6A06460D46904698473C
:1020FC00134800F058FF00B302A800F045FC284636
:10210C0003F0BAF9002481B200943B4603AA284696
:10211C00FFF7C6FB80B9336809ADD3F82090094BA3
:10212C0003AC08930FCC0FC5236842462B7008A94B
:10213C003B463046C84700E020460FB0BDE8F08370
:10214C00C002002094640A082DE9F14F80460D4628
:10215C0017461E46002200234046294601F0EEFD9C
:10216C0020B12D23337005F10045013600230124E5
:10217C000A22D9B28F4202D954430133F9E72046DF
:10218C0001F004FB42462B4601F066FB82468B466F
:10219C0002F02EF98046894601F028FB02460B46D8
:1021AC005046594601F0A4F90022174B01F0DAFD14
:1021BC0018B118F1010849F10009E51722462B4620
:1021CC004046494602F0FCF801230A223146FFF74B
:1021DC0004FDAFB1304603F04FF92E2333540130D8
:1021EC00064422462B464046494602F0E9F83B4657
:1021FC00104631460A2201B0BDE8F04FFFF7EDBCA6
:10220C0001B0BDE8F08F00BF0000E03F10B5044600
:10221C000068FFF739FC204610BD10B50446006875
:10222C0008B1FFF731FC00232360A360636010BD8D
:10223C0038B504460D4600680131FFF72DFC10B18E
:10224C0084E82100012038BD10B50368044613B1A1
:10225C0043688B4207D22046FFF7EAFF20B1A36800
:10226C000BB922681370012010BD70B50E461146D3
:10227C0004461546FFF7E8FF18B92046FFF7CDFFD7
:10228C0009E02A463146A560206802F093FB2268DB
:10229C00A3680021D154204670BD38B500230446F4
:1022AC0003604360836003730D4639B1084603F045
:1022BC00E3F8294602462046FFF7D7FF204638BDF3
:1022CC00884210B50B46044607D0096819B19A68C4
:1022DC00FFF7CBFF01E0FFF7A0FF204610BD10B5C4
:1022EC00044600230360436083600373FFF7E8FF39
:1022FC00204610BD38B505460C4641B1084603F0E2
:10230C00BBF8214602462846FFF7AFFF01E0FFF776
:10231C0084FF284638BD10B5044600238AB02360DC
:10232C006360A3602373084601A9FFF77EFC01A933
:10233C002046FFF7DFFF20460AB010BD10B504465B
:10234C0000238AB023606360A3602373084601A94D
:10235C00FFF781FC01A92046FFF7CCFF20460AB00D
:10236C0010BD10B504468AB0002323606360A360DF
:10237C0023730846012301A9FFF72FFC01A920466E
:10238C00FFF7B8FF20460AB010BD30B50446002355
:10239C008BB00360436083600373D5B2084601F0D1
:1023AC0007FA01AB2A46FFF7CFFE01A92046FFF73B
:1023BC00A1FF20460BB030BD70B504460E4609B9DE
:1023CC00002070BD6AB18368D5182946FFF73CFF21
:1023DC000028F5D02068A3683146184402F030FB81
:1023EC00A560012070BD10B58A6809680446FFF726
:1023FC00E3FF10B92046FFF710FF204610BD38B59B
:10240C0004460D4641B1084603F036F8294602460B
:10241C002046FFF7D1FF10B92046FFF7FEFE2046FD
:10242C0038BD08B582680B4612B919B9012008BD30
:10243C0011B90368187802E0006802F0F7FAB0FAF4
:10244C0080F0400908BD006808B102F0A9B97047D6
:10245C00F8B506460D468F180024BD420CD03368E3
:10246C0015F8011B9B6830469847002801DB044493
:10247C00F3E7002C08BF04462046F8BD70B50546AE
:10248C000C46084649B102F0F7FF2B68024621467C
:10249C002846BDE87040DB68184770BD08B5FFF7EB
:1024AC00EDFF08BD03689B68184738B50D2105463C
:1024BC00FFF7F8FF0A2104462846FFF7F3FF2044F4
:1024CC0038BD38B50546FFF7D9FF04462846FFF757
:1024DC00ECFF204438BD012A98BF0A2230B50B46C8
:1024EC008BB000218DF824100DF12304B3FBF2F511
:1024FC0005FB1233DBB2092B94BF30333733DBB21D
:10250C00214604F801392B46002DEFD1FFF7B6FF19
:10251C000BB030BD00231A4619464068FFF744BA89
:10252C00014A024B1A607047FD630A083C02002006
:10253C0008B50020FFF790FA28B1FFF785FA80F074
:10254C000100C0B208BD012008BD000010B509494A
:10255C00044601F0E7FE60B90749204601F000FF90
:10256C0038B90649204601F03FFD01F003FF044B4A
:10257C00186010BD000040C10000604100006145C2
:10258C004802002037B50E4B04461B6802A81944BC
:10259C000C4B1B68194440F8041D02F013F902F0AF
:1025AC00C3F8054602F068FF0023284400F8013CFC
:1025BC0029462046FFF771FE204603B030BD00BF10
:1025CC0048020020440200202DE9F047A4B014ACCE
:1025DC0007468946204611463F221D4602F069FFF8
:1025EC00002320468DF88F3002F046FF804625B937
:1025FC00244903A802F024FA13E03C2195FBF1F2E4
:10260C00002AB8BF524292FBF1F301FB13224FF4A4
:10261C006163009295FBF3F31B4A102103A8FFF7AB
:10262C0053FA25462E1B08F1FF3AB2451BD92B78DD
:10263C00252B16D16B787A2B13D103A802F01CFF33
:10264C0080463044C6EB0A02A91C204402F0B2F9C1
:10265C00424603A9284602F0ADF9204602F00CFFD1
:10266C0080460135DEE74B462246322107A802F0B0
:10267C004FFA07A93846FFF710FE384624B0BDE8DC
:10268C00F08700BF596A0A0865640A08F7B5054661
:10269C0001921C4613B9124B1C682CB1114B2046ED
:1026AC00196802F0C3F920B901992846FFF76AFFAF
:1026BC0013E00D4F019A3B680C4E1A44336802A884
:1026CC00134440F8043D02F07DF83A683368014643
:1026DC00134428462246FFF777FF284603B0F0BD87
:1026EC004002002004000020480200204402002088
:1026FC0010B50020FEF7A2FF044668B9FFF700F9F9
:10270C0001280BD12046FFF713F938B9FFF710FF5A
:10271C0030B9FFF789F9F9E7012010BD002010BD91
:10272C00FFF706FF0020FEF789FF003018BF0120DD
:10273C0010BD08B5FFF7DCFFBDE80840FEF776BF1B
:10274C00024B1A68024B1A60704700BF040000204D
:10275C00400200200021FFF7E3B810B5836804465F
:10276C0013B1032201469847204610BD10B504460C
:10277C00FFF7F3FF204610BD10B50446FFF7B0F885
:10278C00844208D01CB1BDE81040FFF799B8BDE8F1
:10279C001040FFF79DB810BD034800238360034A27
:1027AC00034900F037BD00BF50020020BC000020E0
:1027BC0079270A0808B5144B33B100F09FF9036868
:1027CC001B699847002816DC104B33B100F04CFA0B
:1027DC0003681B699847002810DC0D4B0BB1AFF355
:1027EC0000800C4B7BB100F0B7F903681B6998476C
:1027FC00002806DC08BDAFF30080E5E7AFF30080EE
:10280C00EBE7AFF3008008BD000000000000000003
:10281C00000000000000000008B5FFF7CBFFFEF73A
:10282C00FDFE014B186008BDC80200200248034A97
:10283C000349121A02F0BEB80040024004400240A4
:10284C00D86A0A0807B5002300931A466FF077017F
:10285C00FFF780F803B05DF804FB000007B5438870
:10286C000A2B08D0502B09D1094B1B683BB103B084
:10287C005DF804EB1847FFF7E5FF06E00023009333
:10288C001A466FF07701FFF765F803B05DF804FBAB
:10289C006002002038B5104C104D2368AB42104B31
:1028AC000CBF012200221A7002D0FFF7BFFF256077
:1028BC00FEF7ACFE044602F091F80A4B13B1204629
:1028CC00AFF3008000210748FFF7CEF8BDE8384091
:1028DC0000210548FFF734B8004002401E1C279A1F
:1028EC00640200200000000069280A0810B588B0B6
:1028FC0004466846FFF7D1FC694604A8FFF7EFFCD5
:10290C0004A8A047044604A8FFF780FC6846FFF71C
:10291C007DFC204608B010BDF0B507460E461546A6
:10292C0085B0102422460021684602F04EF80022A1
:10293C0069461046ADF80040029703960195FFF7E3
:10294C006BF805B0F0BD704710B50446182100F0C7
:10295C006FFC204610BDF8B50F4600F10806051DAA
:10296C00002416F8011D0A223846FFF7B4FDAE42CA
:10297C00044407D0002CF4D02E213846FFF792FDEA
:10298C000444EEE72046F8BD10B50446044B112272
:10299C0040F8043B002102F018F8204610BD00BF9F
:1029AC0094640A080346074A10B543F8042B01F156
:1029BC00100251F8044B914243F8044BF9D10A78B8
:1029CC001A7010BD94640A08024A41600260042225
:1029DC000275704794640A0810B59DF8084044EAE3
:1029EC00032343EA024242EA016104234160037576
:1029FC0010BD000037B5044D05609DF818500095CA
:102A0C00FFF7EAFF03B030BD94640A0837B50D78C0
:102A1C008B784A78C97800912946FFF7DDFF03B01F
:102A2C0030BD000010B50446024B0360FFF7EEFF0B
:102A3C00204610BD94640A0841747047704708B56D
:102A4C000021007CFEF70CFF30EA200028BF4FF07D
:102A5C00FF3008BD08B50121007CFEF701FF30EA0C
:102A6C00200028BF4FF0FF3008BD08B5007CFEF7F2
:102A7C00EFFE20EAE07008BD08B5007CFEF7E0FE32
:102A8C0020EAE07008BD007CFEF7FABE10B50446E3
:102A9C00142100F0CDFB204610BD38B50446007C57
:102AAC000D46FEF7D5FE002801DC607C28B12946D6
:102ABC00207CFEF7DDFE20EAE07038BD10B5044640
:102ACC00002363604FF47A73A360054B08462360C0
:102ADC000123217463741146FEF7A2FE204610BD3B
:102AEC00A8640A080022007CFEF7A2BE10B50446BA
:102AFC001422002101F069FF204610BD30B50E4DA7
:102B0C0087B001A8FFF7F2FF296811F0010410D17A
:102B1C002846FDF7C4FA60B101AA21460748FFF721
:102B2C00CDFF2846FDF7C0FA054A0649034800F0D8
:102B3C0071FB024807B030BD680200207002002013
:102B4C00BC000020492A0A0810B5044614220021B2
:102B5C0001F03BFF204610BD10B50E4C86B001A80D
:102B6C00FFF7F2FF2368DB0710D42046FDF797FA36
:102B7C0060B101AA01210848FFF7A0FF2046FDF72C
:102B8C0093FA064A0649044800F044FB024806B092
:102B9C0010BD00BF6C02002084020020BC0000208D
:102BAC00492A0A0870474174704708B5007CFEF743
:102BBC00ADFD20EAE07008BD08B5007CFEF77EFD97
:102BCC0020EAE07008BD08B5007CFEF787FD30EA0E
:102BDC00200028BF4FF0FF3008BD08B5007CFEF781
:102BEC0075FD30EA200028BF4FF0FF3008BD007C97
:102BFC00FEF77CBD10B50446142100F019FB2046ED
:102C0C0010BD70B5457C04460E4625B9007CFEF718
:102C1C007DFD002805DD3146207CBDE87040FEF7C7
:102C2C0045BD284670BD000010B504460846114647
:102C3C00002262604FF47A72A260054A207422600E
:102C4C00012262741A46FEF729FD204610BD00BF12
:102C5C00D8640A080023007CFEF760BD0022FFF751
:102C6C00F9BF007CFEF74ABDF8B5194C25684DB983
:102C7C008420FDF70CFA064618B18422294601F08F
:102C8C00A4FE2660134D2E684EB98420FDF7FFF983
:102C9C00074618B18422314601F097FE2F600E4F83
:102CAC00396811F0010611D13846FDF7F8F968B111
:102CBC00226831462B680948FFF7B6FF3846FDF706
:102CCC00F3F9074A0749054800F0A4FA0348F8BD90
:102CDC00B4020020AC020020B002002098020020B8
:102CEC00BC000020B12B0A087047F8B50646154603
:102CFC000C468F18BC4206D0336814F8011B9B6835
:102D0C0030469847F6E72846F8BD0022007CFEF7CF
:102D1C000DBD0021007CFEF711BD0021007CFEF7EB
:102D2C0015BD0021007CFEF719BD0021007CFEF7CB
:102D3C001DBD10B50446142100F07AFA204610BDD2
:102D4C0010B50446002363604FF47A73A360044B00
:102D5C002174084623601146FEF718FD204610BD6D
:102D6C0008650A080021007CFEF708BD70470120A9
:102D7C007047000008B583891BB10069B0F1004FA2
:102D8C0001D1002008BD01F0DBF8024901F0E0F9A7
:102D9C0008BD00BF0000C84208B583891BB180691B
:102DAC00B0F1004F01D1002008BD01F0C9F8024973
:102DBC0001F0CEF908BD00BF0000C8420022114648
:102DCC004068FEF7E9BD10B50446242100F030FA46
:102DDC00204610BDF0B5164689B011220F460446A8
:102DEC00002103A801F0F1FD304602F045FB00255F
:102DFC00009581B27B6803AA3046FEF751FD20B1E5
:102E0C0029462046FFF7E0FD03E003A92046FFF723
:102E1C00C9FD204609B0F0BD002211464068FEF7FE
:102E2C00DBBD002211464068FEF7E6BD002240687B
:102E3C00FEF7DABD002281F001014068FEF7C4BD47
:102E4C0000231A4619464068FEF7B6BD002211460B
:102E5C004068FEF791BD002202214068FEF794BD48
:102E6C0000231A464068FEF77FBD000008B5838931
:102E7C005BB1006A002808DB01F062F8044901F03C
:102E8C0067F9044901F0B0F808BD034808BD00BF5C
:102E9C0000FF7F470000C842000080BF08B583894F
:102EAC005BB14069002808DB01F04AF8044901F0E5
:102EBC004FF9044901F098F808BD034808BD00BF5C
:102ECC0000FF7F470000C842000080BF90F904005B
:102EDC00704770B50D46064600F10C040FCD0FC4BB
:102EEC0095E8030084E8030033690120B3F1004F37
:102EFC001ABF642293FBF2F302237360B369B3F13C
:102F0C00004F1ABF642293FBF2F30023B36070BD31
:102F1C002DE9F0418846164B00250227182686B06D
:102F2C000360476085603246294604460C3001F048
:102F3C004CFD2A462946D8F80400FEF72DFD90B129
:102F4C0032462946684601F040FD2A466946284625
:102F5C00ADF80060FEF7ACFC20B969462046FFF7DF
:102F6C00B8FF00E06760204606B0BDE8F08100BF06
:102F7C0064650A08024B04225A60024A1A607047C0
:102F8C00B802002030650A0800231A464068FEF794
:102F9C00EBBC002202214068FEF7F6BC0022114671
:102FAC004068FEF7E9BC002211464068FEF7F4BC0D
:102FBC0000231A4619464068FEF7F6BC00231A4651
:102FCC0019464068FEF7F8BC002281F00101406808
:102FDC00FEF7FABC00224068FEF706BD002211463F
:102FEC004068FEF709BD002211464068FEF7F4BCAC
:102FFC0070B516468EB0044608A8FFF7C5FC112222
:10300C00002103A801F0E1FC304602F035FA00255E
:10301C000A4B009581B25B6803AA3046FEF740FC70
:10302C0020B129462046FFF7CFFC03E003A9204638
:10303C00FFF7B8FC20460EB070BD00BFB8020020F0
:10304C00034B044A04280CBF10461846704700BFB7
:10305C00C0020020B8020020024B034A1A60002272
:10306C005A607047C002002088650A0870B51A4E75
:10307C000446316811F001050FD13046FDF70FF809
:10308C0058B129461548FEF73DFD3046FDF70CF8C2
:10309C00134A1449114800F0BDF81048FEF757FDCB
:1030AC0028B1A4F10D03022B01D8002070BD00F053
:1030BC008BF8FFF757FE08B1012CF6D9FFF7D4FDBA
:1030CC00FFF7CFFD18B1A4F11203012BEDD9172C8A
:1030DC008CBF0020012070BDC0000020C400002067
:1030EC00BC00002089020A08172838B504460D4692
:1030FC000AD8FF2908D0FFF7B9FF28B12946204686
:10310C00BDE83840FEF742BA38BD38B504460D4626
:10311C00FEF744FAFF2810D0062804D84D2323FAD2
:10312C0000F0C30709D42046FFF7A0FF28B12946B9
:10313C002046BDE83840FEF739BA38BD10B5044614
:10314C00FEF72CFA0438C0B2012808D92046FFF744
:10315C008DFF20B12046BDE81040FEF72FBA0020AD
:10316C0010BD000013B5084C00231A4619460093F5
:10317C002046FFF73FFC2046044A054902B0BDE853
:10318C00104000F047B800BFCC020020BC0000206B
:10319C0053290A0870B5044614252A46094E002105
:1031AC0001F013FC258020253146A56025612846B9
:1031BC0000F040F831466060284600F03BF8E060D3
:1031CC00204670BDB4650A0830B50E4D87B029682D
:1031DC0011F0010413D12846FCF761FF78B101A866
:1031EC00FFF7D8FF01AA21460748FFF7A9FD28469B
:1031FC00FCF75AFF054A0649034800F00BF8024851
:10320C0007B030BDE4020020E8020020BC00002022
:10321C00F52C0A080B460146184601F0C5BA000009
:10322C00024B1868BFF35F8F704700BFFC02002091
:10323C00FCF731BF00F000B810B5002814BF0446ED
:10324C0001242046FEF718FC20B9FFF7E9FF08B16E
:10325C008047F6E710BD0000184B1A68D1075CBF19
:10326C0001221A60164B1A68D2075CBF01221A6041
:10327C00144B1A68D0075CBF01221A60124B1A68F3
:10328C00D1075CBF01221A60104B1A68D2075CBFD1
:10329C0001221A600E4B1A68D0075CBF01221A601B
:1032AC000C4B1A68D1075CBF01221A600A4B1A68D2
:1032BC00D2075CBF01221A60704700BF1C030020BC
:1032CC001803002014030020100300200C0300201E
:1032DC00080300200403002000030020244B1A687C
:1032EC00D0075CBF01221A60224B1A68D1075CBF61
:1032FC0001221A60204B1A68D2075CBF01221A60A7
:10330C001E4B1A68D0075CBF01221A601C4B1A684E
:10331C00D1075CBF01221A601A4B1A68D2075CBF36
:10332C0001221A60184B1A68D0075CBF01221A6080
:10333C00164B1A68D1075CBF01221A60144B1A682D
:10334C00D2075CBF01221A60124B1A68D0075CBF0F
:10335C0001221A60104B1A68D1075CBF01221A6057
:10336C000E4B1A68D2075CBF01221A60704700BF6F
:10337C004C0300204803002044030020400300209D
:10338C003C030020380300203403002030030020CD
:10339C002C030020280300202403002020030020FD
:1033AC00244B1A68D0075CBF01221A60224B1A68A2
:1033BC00D1075CBF01221A60204B1A68D2075CBF90
:1033CC0001221A601E4B1A68D0075CBF01221A60DA
:1033DC001C4B1A68D1075CBF01221A601A4B1A6881
:1033EC00D2075CBF01221A60184B1A68D0075CBF69
:1033FC0001221A60164B1A68D1075CBF01221A60B1
:10340C00144B1A68D2075CBF01221A60124B1A685F
:10341C00D0075CBF01221A60104B1A68D1075CBF41
:10342C0001221A600E4B1A68D2075CBF01221A6087
:10343C00704700BF7C030020780300207403002039
:10344C00700300206C03002068030020640300203C
:10345C00600300205C03002058030020540300206C
:10346C0050030020184B1A68D1075CBF01221A6068
:10347C00164B1A68D2075CBF01221A60144B1A68EB
:10348C00D0075CBF01221A60124B1A68D1075CBFCF
:10349C0001221A60104B1A68D2075CBF01221A6015
:1034AC000E4B1A68D0075CBF01221A600C4B1A68CD
:1034BC00D1075CBF01221A600A4B1A68D2075CBFA5
:1034CC0001221A60704700BF9C0300209803002063
:1034DC0094030020900300208C030020880300201C
:1034EC00840300208003002081F0004102E000BF33
:1034FC0083F0004330B54FEA41044FEA430594EAA8
:10350C00050F08BF90EA020F1FBF54EA000C55EAE2
:10351C00020C7FEA645C7FEA655C00F0E2804FEAB3
:10352C005454D4EB5555B8BF6D420CDD2C4480EA95
:10353C00020281EA030382EA000083EA010180EAC5
:10354C00020281EA0303362D88BF30BD11F0004F13
:10355C004FEA01314FF4801C4CEA113102D0404249
:10356C0061EB410113F0004F4FEA03334CEA133384
:10357C0002D0524263EB430394EA050F00F0A7809C
:10358C00A4F10104D5F1200E0DDB02FA0EFC22FA97
:10359C0005F2801841F1000103FA0EF2801843FA8B
:1035AC0005F359410EE0A5F120050EF1200E012A7C
:1035BC0003FA0EFC28BF4CF0020C43FA05F3C018BA
:1035CC0051EBE37101F0004507D54FF0000EDCF133
:1035DC00000C7EEB00006EEB0101B1F5801F1BD3DC
:1035EC00B1F5001F0CD349085FEA30004FEA3C0CE0
:1035FC0004F101044FEA445212F5800F80F09A80D6
:10360C00BCF1004F08BF5FEA500C50F1000041EBD9
:10361C00045141EA050130BD5FEA4C0C404141EBDD
:10362C00010111F4801FA4F10104E9D191F0000F04
:10363C0004BF01460020B1FA81F308BF2033A3F187
:10364C000B03B3F120020CDA0C3208DD02F1140C7E
:10365C00C2F10C0201FA0CF021FA02F10CE002F1B9
:10366C001402D8BFC2F1200C01FA02F120FA0CFCB2
:10367C00DCBF41EA0C019040E41AA2BF01EB0451FB
:10368C00294330BD6FEA04041F3C1CDA0C340EDCF9
:10369C0004F11404C4F1200220FA04F001FA02F33C
:1036AC0040EA030021FA04F345EA030130BDC4F1FA
:1036BC000C04C4F1200220FA02F001FA04F340EAEF
:1036CC000300294630BD21FA04F0294630BD94F0A0
:1036DC00000F83F4801306BF81F480110134013D87
:1036EC004EE77FEA645C18BF7FEA655C29D094EAF8
:1036FC00050F08BF90EA020F05D054EA000C04BF76
:10370C001946104630BD91EA030F1EBF0021002060
:10371C0030BD5FEA545C05D14000494128BF41F0FF
:10372C00004130BD14F580043CBF01F5801130BD63
:10373C0001F0004545F0FE4141F470014FF00000EE
:10374C0030BD7FEA645C1ABF194610467FEA655C9F
:10375C001CBF0B46024650EA013406BF52EA033541
:10376C0091EA030F41F4002130BD00BF90F0000F2F
:10377C0004BF0021704730B54FF4806404F132046B
:10378C004FF000054FF0000150E700BF90F0000F24
:10379C0004BF0021704730B54FF4806404F132044B
:1037AC0010F0004548BF40424FF000013EE700BF1B
:1037BC0042004FEAE2014FEA31014FEA02701FBFAB
:1037CC0012F07F4393F07F4F81F06051704792F07D
:1037DC00000F14BF93F07F4F704730B54FF46074F7
:1037EC0001F0004521F0004120E700BF50EA010242
:1037FC0008BF704730B54FF000050AE050EA0102EF
:10380C0008BF704730B511F0004502D5404261EB5E
:10381C0041014FF4806404F132045FEA915C3FF49F
:10382C00DCAE4FF003025FEADC0C18BF03325FEA38
:10383C00DC0C18BF033202EBDC02C2F1200300FAED
:10384C0003FC20FA02F001FA03FE40EA0E0021FA12
:10385C0002F11444C1E600BF70B54FF0FF0C4CF4FC
:10386C00E06C1CEA11541DBF1CEA135594EA0C0FB2
:10387C0095EA0C0F00F0DEF82C4481EA030621EAED
:10388C004C5123EA4C5350EA013518BF52EA033528
:10389C0041F4801143F4801338D0A0FB02CE4FF0DA
:1038AC000005E1FB02E506F00042E0FB03E54FF00A
:1038BC000006E1FB03569CF0000F18BF4EF0010E02
:1038CC00A4F1FF04B6F5007F64F5407404D25FEAFE
:1038DC004E0E6D4146EB060642EAC62141EA5551B1
:1038EC004FEAC52040EA5E504FEACE2EB4F1FD0CF3
:1038FC0088BFBCF5E06F1ED8BEF1004F08BF5FEA71
:10390C00500E50F1000041EB045170BD06F0004622
:10391C0046EA010140EA020081EA0301B4EB5C04CF
:10392C00C2BFD4EB0C0541EA045170BD41F48011C7
:10393C004FF0000E013C00F3AB8014F1360FDEBFEC
:10394C00002001F0004170BDC4F10004203C35DAC8
:10395C000C341BDC04F11404C4F1200500FA05F34B
:10396C0020FA04F001FA05F240EA020001F00042EC
:10397C0021F0004110EBD37021FA04F642EB060162
:10398C005EEA430E08BF20EAD37070BDC4F10C048C
:10399C00C4F1200500FA04F320FA05F001FA04F250
:1039AC0040EA020001F0004110EBD37041F100013C
:1039BC005EEA430E08BF20EAD37070BDC4F1200547
:1039CC0000FA05F24EEA020E20FA04F301FA05F2AF
:1039DC0043EA020321FA04F001F0004121FA04F257
:1039EC0020EA020000EBD3705EEA430E08BF20EA27
:1039FC00D37070BD94F0000F0FD101F00046400061
:103A0C0041EB010111F4801F08BF013CF7D041EAE2
:103A1C00060195F0000F18BF704703F000465200E6
:103A2C0043EB030313F4801F08BF013DF7D043EAB7
:103A3C000603704794EA0C0F0CEA135518BF95EA6D
:103A4C000C0F0CD050EA410618BF52EA4306D1D1F4
:103A5C0081EA030101F000414FF0000070BD50EA13
:103A6C00410606BF1046194652EA430619D094EA9D
:103A7C000C0F02D150EA013613D195EA0C0F05D187
:103A8C0052EA03361CBF104619460AD181EA0301DB
:103A9C0001F0004141F0FE4141F470014FF0000093
:103AAC0070BD41F0FE4141F4780170BD70B54FF02E
:103ABC00FF0C4CF4E06C1CEA11541DBF1CEA1355AE
:103ACC0094EA0C0F95EA0C0F00F0A7F8A4EB050490
:103ADC0081EA030E52EA03354FEA013100F0888087
:103AEC004FEA03334FF0805545EA131343EA126350
:103AFC004FEA022245EA111545EA10654FEA002605
:103B0C000EF000419D4208BF964244F1FD0404F5BD
:103B1C00407402D25B084FEA3202B61A65EB030519
:103B2C005B084FEA32024FF480104FF4002CB6EBD6
:103B3C00020E75EB030E22BFB61A754640EA0C0056
:103B4C005B084FEA3202B6EB020E75EB030E22BF96
:103B5C00B61A754640EA5C005B084FEA3202B6EBD7
:103B6C00020E75EB030E22BFB61A754640EA9C0096
:103B7C005B084FEA3202B6EB020E75EB030E22BF66
:103B8C00B61A754640EADC0055EA060E18D04FEA24
:103B9C00051545EA16754FEA06164FEAC30343EAC4
:103BAC0052734FEAC2025FEA1C1CC0D111F4801F91
:103BBC000BD141EA00014FF000004FF0004CB6E78A
:103BCC0011F4801F04BF01430020B4F1FD0C88BF29
:103BDC00BCF5E06F3FF6AFAEB5EB030C04BFB6EB34
:103BEC00020C5FEA500C50F1000041EB045170BD27
:103BFC000EF0004E4EEA113114EB5C04C2BFD4EB54
:103C0C000C0541EA045170BD41F480114FF0000ED7
:103C1C00013C90E645EA060E8DE60CEA135594EA53
:103C2C000C0F08BF95EA0C0F3FF43BAF94EA0C0F56
:103C3C000AD150EA01347FF434AF95EA0C0F7FF4CB
:103C4C0025AF104619462CE795EA0C0F06D152EA1F
:103C5C0003353FF4FDAE1046194622E750EA410603
:103C6C0018BF52EA43067FF4C5AE50EA41047FF414
:103C7C000DAF52EA43057FF4EBAE12E74FF0FF3C79
:103C8C0006E000BF4FF0010C02E000BF4FF0010C4A
:103C9C004DF804CD4FEA410C7FEA6C5C4FEA430CC3
:103CAC0018BF7FEA6C5C1BD001B050EA410C0CBF12
:103CBC0052EA430C91EA030F02BF90EA020F002074
:103CCC00704710F1000F91EA030F58BF994208BFDB
:103CDC0090422CBFD8176FEAE37040F00100704798
:103CEC004FEA410C7FEA6C5C02D150EA013C07D1EF
:103CFC004FEA430C7FEA6C5CD6D152EA033CD3D03A
:103D0C005DF8040B704700BF8446104662468C4633
:103D1C001946634600E000BF01B5FFF7B7FF002866
:103D2C0048BF10F1000F01BD4DF808EDFFF7F4FF8F
:103D3C000CBF012000205DF808FB00BF4DF808ED1A
:103D4C00FFF7EAFF34BF012000205DF808FB00BF3D
:103D5C004DF808EDFFF7E0FF94BF012000205DF85F
:103D6C0008FB00BF4DF808EDFFF7CEFF94BF012014
:103D7C0000205DF808FB00BF4DF808EDFFF7C4FF0D
:103D8C0034BF012000205DF808FB00BF4A0011D2AF
:103D9C0012F5001211D20DD56FF47873B3EB625299
:103DAC000ED44FEAC12343F0004343EA505323FAA5
:103DBC0002F070474FF00000704750EA013002D11A
:103DCC004FF0FF3070474FF00000704780F000401C
:103DDC0002E000BF81F0004142001FBF5FEA4103D7
:103DEC0092EA030F7FEA226C7FEA236C6AD04FEAD7
:103DFC001262D2EB1363C1BFD2184140484041401C
:103E0C00B8BF5B42192B88BF704710F0004F40F4CD
:103E1C00000020F07F4018BF404211F0004F41F4E9
:103E2C00000121F07F4118BF494292EA030F3FD0B5
:103E3C00A2F1010241FA03FC10EB0C00C3F12003C8
:103E4C0001FA03F100F0004302D5494260EB400057
:103E5C00B0F5000F13D3B0F1807F06D340084FEAC2
:103E6C00310102F10102FE2A51D2B1F1004F40EBB7
:103E7C00C25008BF20F0010040EA0300704749001F
:103E8C0040EB000010F4000FA2F10102EDD1B0FAEA
:103E9C0080FCACF1080CB2EB0C0200FA0CF0AABFDF
:103EAC0000EBC25052421843BCBFD040184370477D
:103EBC0092F0000F81F4000106BF80F40000013283
:103ECC00013BB5E74FEA41037FEA226C18BF7FEA5A
:103EDC00236C21D092EA030F04D092F0000F08BF9C
:103EEC000846704790EA010F1CBF0020704712F083
:103EFC007F4F04D1400028BF40F00040704712F1C2
:103F0C0000723CBF00F50000704700F0004343F026
:103F1C00FE4040F4000070477FEA226216BF08465C
:103F2C007FEA23630146420206BF5FEA412390EA1F
:103F3C00010F40F4800070474FF0000304E000BF15
:103F4C0010F0004348BF40425FEA000C08BF7047C6
:103F5C0043F0964301464FF000001CE050EA01028A
:103F6C0008BF70474FF000030AE000BF50EA01029F
:103F7C0008BF704711F0004302D5404261EB41018C
:103F8C005FEA010C02BF84460146002043F0B643B1
:103F9C0008BFA3F18053A3F50003BCFA8CF2083AD6
:103FAC00A3EBC25310DB01FA02FC634400FA02FCDF
:103FBC00C2F12002BCF1004F20FA02F243EB0200E6
:103FCC0008BF20F00100704702F1200201FA02FC48
:103FDC00C2F1200250EA4C0021FA02F243EB02003B
:103FEC0008BF20EADC7070474FF0FF0C1CEAD0527F
:103FFC001EBF1CEAD15392EA0C0F93EA0C0F6FD040
:10400C001A4480EA010C400218BF5FEA41211ED01D
:10401C004FF0006343EA501043EA5111A0FB013109
:10402C000CF00040B1F5000F3EBF490041EAD371DE
:10403C005B0040EA010062F17F02FD2A1DD8B3F15A
:10404C00004F40EBC25008BF20F00100704790F0C9
:10405C00000F0CF0004C08BF49024CEA502040EA1B
:10406C0051207F3AC2BFD2F1FF0340EAC2507047E1
:10407C0040F400004FF00003013A5DDC12F1190F1F
:10408C00DCBF00F000407047C2F10002410021FA91
:10409C0002F1C2F1200200FA02FC5FEA310040F1A9
:1040AC00000053EA4C0308BF20EADC70704792F022
:1040BC00000F00F0004C02BF400010F4000F013A5A
:1040CC00F9D040EA0C0093F0000F01F0004C02BF55
:1040DC00490011F4000F013BF9D041EA0C018FE7C4
:1040EC000CEAD15392EA0C0F18BF93EA0C0F0AD0CA
:1040FC0030F0004C18BF31F0004CD8D180EA0100F0
:10410C0000F00040704790F0000F17BF90F0004F88
:10411C00084691F0000F91F0004F14D092EA0C0F6A
:10412C0001D142020FD193EA0C0F03D14B0218BFFD
:10413C00084608D180EA010000F0004040F0FE4043
:10414C0040F40000704740F0FE4040F440007047DF
:10415C004FF0FF0C1CEAD0521EBF1CEAD15392EA5E
:10416C000C0F93EA0C0F69D0A2EB030280EA010C4E
:10417C0049024FEA402037D04FF0805343EA1111E7
:10418C0043EA10130CF000408B4238BF5B0042F145
:10419C007D024FF4000C8B4224BF5B1A40EA0C00EA
:1041AC00B3EB510F24BFA3EB510340EA5C00B3EB1C
:1041BC00910F24BFA3EB910340EA9C00B3EBD10F0A
:1041CC0024BFA3EBD10340EADC001B0118BF5FEA5C
:1041DC001C1CE0D1FD2A3FF650AF8B4240EBC25085
:1041EC0008BF20F0010070470CF0004C4CEA502046
:1041FC007F32C2BFD2F1FF0340EAC250704740F495
:10420C0000004FF00003013A37E792F0000F00F086
:10421C00004C02BF400010F4000F013AF9D040EA04
:10422C000C0093F0000F01F0004C02BF490011F498
:10423C00000F013BF9D041EA0C0195E70CEAD15390
:10424C0092EA0C0F08D142027FF47DAF93EA0C0F77
:10425C007FF470AF084676E793EA0C0F04D14B025B
:10426C003FF44CAF08466EE730F0004C18BF31F00D
:10427C00004CCAD130F000427FF45CAF31F0004307
:10428C007FF43CAF5FE700BF4FF0FF3C06E000BFA0
:10429C004FF0010C02E000BF4FF0010C4DF804CDC3
:1042AC004FEA40024FEA41037FEA226C18BF7FEAD3
:1042BC00236C11D001B052EA530C18BF90EA010FD5
:1042CC0058BFB2EB030088BFC81738BF6FEAE17064
:1042DC0018BF40F0010070477FEA226C02D15FEA00
:1042EC00402C05D17FEA236CE4D15FEA412CE1D06C
:1042FC005DF8040B704700BF844608466146FFE733
:10430C000FB5FFF7C9FF002848BF10F1000F0FBD14
:10431C004DF808EDFFF7F4FF0CBF012000205DF80D
:10432C0008FB00BF4DF808EDFFF7EAFF34BF012092
:10433C0000205DF808FB00BF4DF808EDFFF7E0FF2B
:10434C0094BF012000205DF808FB00BF4DF808ED7C
:10435C00FFF7D2FF94BF012000205DF808FB00BFDF
:10436C004DF808EDFFF7C8FF34BF012000205DF8C1
:10437C0008FB00BF4FEA4002B2F1FE4F0FD34FF0E3
:10438C009E03B3EB12620DD94FEA002343F00043B6
:10439C0010F0004F23FA02F018BF404270474FF064
:1043AC000000704712F1610F01D1420205D110F0EB
:1043BC00004008BF6FF0004070474FF0000070479E
:1043CC0053B94AB9002908BF00281CBF4FF0FF3170
:1043DC004FF0FF3000F0A6B9ADF1080C6DE904CE3A
:1043EC0000F02AF8DDF804E0DDE9022304B07047A0
:1043FC00D0B500220E4B06460F46FFF72DFAFFF7FD
:10440C00C5FC0446FFF7B2F900220A4BFFF724FA69
:10441C0002460B4630463946FFF76AF8FFF7B6FC02
:10442C002346002242EA000210461946D0BD00BFC6
:10443C000000F03D0000F0412DE9F04F8C460C4699
:10444C000546099E002B4FD18A4217466BD9B2FA0A
:10445C0082FEBEF1000F0BD0CEF1200520FA05F53F
:10446C0001FA0EF345EA030C02FA0EF700FA0EF508
:10447C00390CBCFBF1F0BAB201FB10C300FB02F823
:10448C004FEA154C4CEA0344A04509D9E41900F154
:10449C00FF3380F02881A04540F2258102383C444E
:1044AC00C8EB0404B4FBF1F301FB134C03FB02F265
:1044BC00ACB244EA0C418A4209D9C91903F1FF3460
:1044CC0080F00F818A4240F20C81023B39448A1AF7
:1044DC0043EA00400021002E63D022FA0EF20023A2
:1044EC0086E80C00BDE8F08F8B4207D9002E56D021
:1044FC00002186E811000846BDE8F08FB3FA83F17D
:10450C00002940F09380A34202D3824200F2FE8045
:10451C00851A64EB03039C460120002E41D086E8EB
:10452C002010BDE8F08F12B90127B7FBF2F7B7FAEC
:10453C0087FEBEF1000F36D1E41B4FEA17481FFA75
:10454C0087F90121B4FBF8F308FB134409FB03F2D0
:10455C004FEA154C4CEA0444A24207D9E41903F182
:10456C00FF3002D2A24200F2D3800346A41AB4FB5D
:10457C00F8F008FB104809FB00F9ACB244EA084219
:10458C00914507D9D21900F1FF3402D2914500F2BE
:10459C00BA802046C9EB020240EA03409BE7314651
:1045AC003046BDE8F08F07FA0EF7CEF1200C24FA56
:1045BC000CF34FEA1748B3FBF8FA1FFA87F908FB1C
:1045CC001A3520FA0CFC04FA0EF40AFB09FB4CEA2F
:1045DC00040C4FEA1C4242EA05439B4500FA0EF5D7
:1045EC000AD9DB190AF1FF3280F08B809B4540F22F
:1045FC008880AAF1020A3B44CBEB0303B3FBF8F02F
:10460C0008FB103300FB09F41FFA8CFC4CEA034343
:10461C009C4207D9DB1900F1FF326ED29C426CD957
:10462C0002383B441C1B40EA0A418BE7C1F1200EC7
:10463C008B4022FA0EFC4CEA030C24FA0EF74FEADC
:10464C001C49B7FBF9FA1FFA8CF309FB1A7720FA0D
:10465C000EF88C400AFB03F548EA04044FEA1448B0
:10466C0048EA0747BD4202FA01F200FA01FB09D9F8
:10467C0017EB0C070AF1FF3041D2BD423FD9AAF12A
:10468C00020A67447F1BB7FBF9F509FB157705FB9D
:10469C0003F3A4B244EA0747BB4208D917EB0C0753
:1046AC0005F1FF3027D2BB4225D9023D674445EACC
:1046BC000A40A0FB0289FF1A4F4545464C4614D3CD
:1046CC0029D066B3BBEB050367EB040707FA0EFEB4
:1046DC00CB40CF404EEA030386E888000021BDE8BA
:1046EC00F08F2346F3E61846DAE6B8EB020569EBE1
:1046FC000C040138E5E70546D9E7104692E78246F7
:10470C00C0E7924678E702383A4443E7084604E7A4
:10471C00023B3C442AE7C345E7D33C46D1E731464C
:10472C00BDE8F08F704700BF094B70B51C6806469A
:10473C00256C3DB91A20FDF79FF91A2220642946F1
:10474C0000F043F9216C3046BDE8704000F002B82F
:10475C006C00002010B50C46416986B001F26C71FA
:10476C00036982690491016803EB43030391416877
:10477C0002EB4202029181680191C16820460091CE
:10478C0004490B4404490A440449FDF78DF92046B9
:10479C0006B010BDCA650A08B5650A08EE650A08B8
:1047AC000A22002100F01EBF10B5054C13462CB197
:1047BC000A4601460220AFF3008010BD204610BD12
:1047CC000000000038B5074B05461C68E36B1BB9AD
:1047DC002420FDF751F9E063E16B2846BDE8384031
:1047EC0000F002B86C0000202DE9F0410C46804628
:1047FC0001F012FA21460746404601F011FA4669CB
:10480C00044606F26C76B30705D1642296FBF2F3EC
:10481C0002FB13634BB94FF4C87596FBF5F305FB1C
:10482C001365B5FA85F35B0900E001235F4A302577
:10483C0005FB032501F020F801F020F85C4B1B6808
:10484C00F3B17B689E4205D13968D8F80030FA691B
:10485C0041B90AE0304600F067FF0028F4D14FF070
:10486C00FF330DE0934208DB01E0934207DABA6BA9
:10487C009342ACBF0023012302E0002300E001239C
:10488C002362236A3C20012B0CBFF96B396A4FF46D
:10489C00616391FBF3F603FB161393FBF0F200FB41
:1048AC00123061682368891AA2681B1A921B3B2B71
:1048BC0023606160A26003DD013161603C3B04E078
:1048CC00002B03DA013961603C33236063683B2BB6
:1048DC0003DD0132A2603C3B04E0002B03DA013A19
:1048EC00A2603C336360A368172B22DDE269183B9E
:1048FC000132E261A269A3600132062AC8BF00221C
:10490C00A261E26823690132E26055F823108A4201
:10491C0046DD01330C2B08BF6369A2EB0102E26098
:10492C0005BF013300222361226104BF6361E26190
:10493C0036E0002B34DAE2691833013AE261A269FD
:10494C00A360013A48BF0622A261E268013AE26024
:10495C0032BB2369013B01D423611DE00B2323618E
:10496C0063695A1E12F0030F626103F26B7305D177
:10497C00642193FBF1F201FB12324AB94FF4C87176
:10498C0093FBF1F201FB1233B3FA83F35B0900E002
:10499C00012303F5B673E361236955F82330E36013
:1049AC0000F06BFF2046BDE8F08100BF74670A0879
:1049BC00BC04002010B5431E0A44914204D011F8E7
:1049CC00014B03F8014FF8E710BD03460244934234
:1049DC0002D003F8011BFAE77047000038B5124B00
:1049EC0005461C68A36BD3B91820FDF745F843F2B4
:1049FC000E33A06303804AF6CD33438041F2342357
:104A0C0083804EF26D63C3804DF6EC630381052306
:104A1C0043810B23838101220023C0E90423A36B70
:104A2C0000221D615A6138BD6C00002010F8012B6A
:104A3C0011F8013B012A28BF9A42F7D0D01A7047CF
:104A4C00034611F8012B03F8012B002AF9D170470A
:104A5C00416910B58B070CD140F26C730029A8BFCB
:104A6C006FF063030B44642493FBF4F204FB1233E6
:104A7C0083B940F26C730029A8BF6FF063034FF445
:104A8C00C8720B4493FBF2F102FB1133B3FA83F2BD
:104A9C00520900E001228369C1695B0003EB011339
:104AAC001344212B0EDC202B2FDA0D2B02DC0A2BCE
:104ABC0005DB2AE0102B26DB112B26DD1C3B012B02
:104ACC0023D920E041F2C66293420EDC41F2C2626D
:104ADC00934216DA41F2A262934212D013DBA3F591
:104AEC00B553123B022B0CD90DE041F2D562934227
:104AFC0007D041F2D762934203D041F2D362934282
:104B0C0001D1012010BD002010BD4FF0FF3010BDB1
:104B1C002DE9F04F0E4693B01D460746914600F026
:104B2C00F3FD002306931C46731E0390029399F821
:104B3C000030002B00F09284252B08D0029A94426E
:104B4C0080F090843B5509F101090134EFE799F8A5
:104B5C0001A0BAF1300F07D0BAF12B0F04D009F134
:104B6C0001094FF0000A01E009F1020999F800303F
:104B7C00313B082B08D848460A220AA900F0BAFD96
:104B8C00DDF82890804601E04FF0000899F80030DD
:104B9C00452B01D04F2B01D109F1010999F80000E7
:104BAC00A0F12503552B00F25D84DFE813F04A04D5
:104BBC005B045B045B045B045B045B045B045B04F1
:104BCC005B045B045B045B045B045B045B045B04E1
:104BDC005B045B045B045B045B045B045B045B04D1
:104BEC005B045B045B046F00A100D4001A015B043E
:104BFC003F01A00126022D025B045B045B046002F2
:104C0C005B045B0468025B0496021C0324033A03F6
:104C1C0042038503C6009F031F045B045B045B0413
:104C2C005B045B045B0456008900BA000C010C01A8
:104C3C005B04710189005B043D0226022D025D02BA
:104C4C0062025B0468025B04BE009B021E032D0320
:104C5C005B047E03C2009103E703AB69039A18332C
:104C6C0052F82380404600F007FC08F1FF383B194E
:104C7C002044844200F0EB83029A944280F0F28349
:104C8C0018F8012F013403F8012BF2E7AB69039AF2
:104C9C0002EB8303D3F87C80404600F0EDFB08F177
:104CAC00FF383B192044844200F0D183029A94428D
:104CBC0080F0D88318F8012F013403F8012BF2E7A8
:104CCC002B69039A52F82380404600F0D5FB08F17B
:104CDC00FF383B192044844200F0B983029A944275
:104CEC0080F0C08318F8012F013403F8012BF2E790
:104CFC002B69039A0C3352F82380404600F0BCFB1E
:104D0C0008F1FF383B192044844200F0A083029A3A
:104D1C00944280F0A78318F8012F013403F8012B7B
:104D2C00F2E7039BD3F8A0800AE0039BD3F8E4805E
:104D3C0006E0039BD3F89C8002E0039BD3F8988099
:104D4C00404600F099FB98F80030002B00F07F8370
:104D5C002B46424693E0B649D5F814B08B45ACBF10
:104D6C0000210121BBF1000F04DB64209BFBF0F060
:104D7C00133008E00BF26C70079100F005FF642310
:104D8C0090FBF3F00799BAF1000F08D0632809DD06
:104D9C00A84BA94ABAF12B0F18BF134603E0A64B38
:104DAC00A64A01E0A44BA64AB8F1010F98BF4FF0F8
:104DBC000208C1EB0801019000919D48A14983456F
:104DCC00B8BF0B461DE2A04AA049EB68642808BF97
:104DDC000A46311B3819FCF77FFE002880F202834B
:104DEC0040E368692B69002803F1010B07EB040809
:104DFC00C4EB060AEB6805DB642290FBF2F102FBC4
:104E0C0011000AE000F26C70079300F0BDFE642202
:104E1C0090FBF2F101FB1200079B019000935146AD
:104E2C005B4640468A4AFCF757FED6E725238DF8A9
:104E3C002830BAF1000F07D0B8F1050F8DF829A072
:104E4C0098BF4FF0060804E02B238DF829304FF063
:104E5C000A08B8F1060302D10DF12A000AE07D4AD6
:104E6C001E210DF12A00FCF737FE0028F4DD0DF1B0
:104E7C002A0318447849FFF7E3FD2B460AAA311B95
:104E8C003819FFF745FE002840F3EC820444DEE2BB
:104E9C002846FFF7DDFD80466869002805DB6422A3
:104EAC0090FBF2F102FB110008E000F26C7000F0D4
:104EBC006BFE642290FBF2F303FB1200B8F1000FBF
:104ECC0006DA6A69654B9A42B8BF4FF0010806E0F2
:104EDC0005D06A69564B9A42B8BF4FF0FF3864232D
:104EEC00404490FBF3F203FB12001844F8E1504BE2
:104EFC00696928469942ACBF0023012308910793A6
:104F0C00FFF7A6FD08998346002904DB642391FB77
:104F1C00F3F3133308E001F26C70089100F034FEE7
:104F2C00642390FBF3F308996869002806DB4FF0C3
:104F3C00640E90FBFEFC0EFB1C000DE000F26C708E
:104F4C000991089300F020FE4FF0640E90FBFEFCDC
:104F5C000CFB1E000999089BBBF1000F08DA69696C
:104F6C003E4A91420ADA4FF0010BCDF81CB005E035
:104F7C0004D02F4A9142B8BF4FF0FF3B0BEB00021D
:104F8C00501C02D1013B632203E0642A04BF0133AD
:104F9C000022642000FB0323079A42B12D228DF8D6
:104FAC002820B8F1000F13D008F1FF3810E0BAF147
:104FBC002B0F10D142F20F7293420CD98DF828A00E
:104FCC00B8F1000FF0D112AA252102F81F1D0AE03A
:104FDC000DF1290200E00AAA25211170BAF1000F87
:104FEC0001D1501C02E03021901C51701C490793D8
:104FFC00FFF726FD079B0093ACE1144A1249AB68FE
:10500C006B2808BF0A46E4E6A9680C2331B1994223
:10501C0016BF91FBF3F20B4603FB12130A4A0B4922
:10502C00492808BF0A46D4E6EB690E4A0133D0E69C
:10503C0094F8FFFFE3670A089E610A08D4670A0820
:10504C00DB670A08E5670A08E7670A08F5670A08D4
:10505C00EB670A08DE610A08FA670A0895F8FFFF91
:10506C0002680A0806680A082B6901333CE16B6880
:10507C003AE1029B9C4280F0F5810A23E5E1AB68A2
:10508C00039A0B2BCCBFA423A0231344D3F8048086
:10509C00404600F0F1F94246B14B3919D3F800E023
:1050AC002044844200F0D381029B9C4280F0DA8140
:1050BC0099F800300134502B13780AD10EEB030C05
:1050CC009CF801C00CF0030CBCF1010F08BF20339D
:1050DC00DBB201F8013B0132E3E76B68A14A0093B4
:1050EC00AB6839E12B6A002B17DB00F0C5FB069B84
:1050FC001BB900F0C3FB0123069300F08DFD2B6A56
:10510C001C22002BD4BF0023012302FB0300036AE3
:10511C00C3F1000800F0B1FB01E04FF00008D5F836
:10512C0014E0C4EB060C7046BEF145024FEAE07188
:10513C0041F1FF33002A73F1000B07EB040A03DA89
:10514C00BEF1420241F1FF33910841EA83719B1099
:10515C00049105930EF1FF31642391FBF3F1DDE92A
:10516C000423521A63EBE1730EF22B104FF4C87147
:10517C0090FBF1F1521843EBE17340F26D11AEF17B
:10518C00460E01FB0EFEE96912EB0E0243EBEE73C9
:10519C0052184FF0180E43EBE173A2FB0E010EFBFD
:1051AC000311AB684FF03C0EC01841EBE371A0FB50
:1051BC000E230EFB01336968521843EBE173A2FB1B
:1051CC000E010EFB03112B68674AC01841EBE3710B
:1051DC00B0EB080061EBE871CDE900016146504687
:1051EC00FCF77AFCF9E52B687EE0029B9C4280F090
:1051FC003981092329E12B685C4A01936B68009380
:10520C00AB68311B38190EE6029B9C4280F02A8158
:10521C00AB69621C0BB9372300E030333B551446A5
:10522C0015E1EB69AA6907339B1A072293FBF2F38A
:10523C005AE02846FFF70CFCAA690AB1531E00E09D
:10524C00062300282FDCEA6901D10A323BE040F248
:10525C006B719A1A6B69002BB4BF08466FF064002F
:10526C001844810707D14FF0640E014690FBFEF005
:10527C000EFB101181B940F26B71002BA8BF6FF0BF
:10528C00640119444FF4C87391FBF3F003FB101144
:10529C00B1FA81F1490900E00121521A052AB4BF83
:1052AC003523342320E001231EE0029B9C4280F036
:1052BC00D980AB693033C8E0AA690AB1531E00E04B
:1052CC000623EA690732D21A072392FBF3F30BE0A9
:1052DC006869002803DA00F26C7000F055FC642356
:1052EC0090FBF3F202FB1303214A72E56B69214A2E
:1052FC0003F26C7B934205DA2D238DF82830CBF129
:10530C00000B08E0BAF12B0F0DD142F20F739B4545
:10531C0011D98DF828A0B8F1000F01D008F1FF3891
:10532C000DF1290300E00AAB25221A70BAF1000F27
:10533C0008D1581C09E0B8F1000FF4D125238DF8E1
:10534C0028300AAB3022981C5A700B49FFF778FBB7
:10535C00CDF800B043460AAA311B38193FE000BF14
:10536C000800002015680A080B680A0810680A086B
:10537C00F5670A0894F8FFFF02680A082B6A002BED
:10538C0065DB00F079FA069B1BB900F077FA012374
:10539C00069300F041FC2B6A1C22002BD4BF002387
:1053AC00012302FB0300036A07EB040AC3F10008A4
:1053BC0000F063FA3C2398FBF3F0079300F0C6FC73
:1053CC00079BC4EB060B90FBF3F202FB13004FF4AC
:1053DC006163009098FBF3F359465046244AFCF75E
:1053EC007BFBFAE40444A64231D83BE02B6A002B49
:1053FC002DDB00F041FA069B1BB900F03FFA0123AC
:10540C0006932B6A1B4A002BD4BF0023012352F8AE
:10541C002380404600F030F808F1FF383B19204457
:10542C0084420BD0029A944205D218F8012F013411
:10543C0003F8012BF4E700F020FA13E000F01DFA5A
:10544C0005E0029B9C420DD225233B55013499F873
:10545C0000301BB109F10109FFF769BB26B100232C
:10546C003B5501E0002000E0204613B0BDE8F08F72
:10547C001F680A0870000020034613F8012B002A4D
:10548C00FBD1181A0138704730B582B1451E01396D
:10549C0015F8013F11F8014FA34206D1EC43144417
:1054AC00E04201D0002BF3D11C46181B30BD104636
:1054BC0030BD034610B542B111F8014B013A03F867
:1054CC00014B002CF7D11A4400E010BD934202D0DE
:1054DC0003F8014BFAE710BD2DE9F0470F46804663
:1054EC003F48D0F800903D4615F8014B09EB0400FD
:1054FC00407800F0080000F0FF0608B12F46F2E7F4
:10550C002D2C03D1BD1C7C78012603E02B2C04BF71
:10551C007C78BD1C13B1102B0AD15BE0302C57D119
:10552C00287800F0DF0058284DD16C781023023514
:10553C00002E14BF4FF0004C6FF0004CBCFBF3FA84
:10554C000027384603FB1ACC09EB040E9EF801E049
:10555C001EF0040F01D0303C0BE01EF0030E1BD0EC
:10556C00BEF1010F0CBF4FF0370E4FF0570ECEEBC4
:10557C000404A34210DDB7F1FF3F0AD0504506D812
:10558C0001D1644503DC03FB0040012701E04FF02F
:10559C00FF3715F8014BD7E77B1C0CD1002E4FF0D1
:1055AC00220314BF4FF000406FF00040C8F80030E9
:1055BC002AB9BDE8F08706B1404272B107B1691E45
:1055CC001160BDE8F0873024002BB1D10823AFE780
:1055DC000A23ADE7302CA3D0AAE7BDE8F08700BFC3
:1055EC000800002013460A46014602480068FFF7EF
:1055FC0073BF00BF6C0000202DE9F0470E468046BB
:10560C003B48D0F80090354615F8014B09EB0400E7
:10561C00407800F0080000F0FF0708B12E46F2E7D2
:10562C002D2C03D1B51C7478012703E02B2C04BF5F
:10563C007478B51C13B1102B0AD153E0302C4FD118
:10564C00287800F0DF00582845D16C7810230235FB
:10565C004FF0FF3CBCFBF3FC03FB0CFA00266FEA9B
:10566C000A0A304609EB040E9EF801E01EF0040F06
:10567C0001D0303C0BE01EF0030E1AD0BEF1010F2E
:10568C000CBF4FF0370E4FF0570ECEEB0404A34275
:10569C000FDD002E08DB604506D801D1544503DC34
:1056AC0003FB0040012601E04FF0FF3615F8014BDB
:1056BC00D8E7002E07DA2223C8F800304FF0FF306D
:1056CC002AB9BDE8F08707B1404272B106B1691E34
:1056DC001160BDE8F0873024002BB9D10823B7E75F
:1056EC000A23B5E7302CABD0B2E7BDE8F08700BF9A
:1056FC000800002013460A46014602480068FFF7DE
:10570C007BBF00BF6C000020044B054A1868054B9A
:10571C00002814BF10461846704700BFA003002095
:10572C00A40300205C690A082DE9F74F044600F039
:10573C0073FA40F2B1739C4240F3968040F26D15BF
:10574C006FF4F663E318A4F2B2729B1005FB0235FA
:10575C00A4F26D726FF0630392FBF3F36FF4C86203
:10576C002B44A5184FF4C87294FBF2F795FBF2F595
:10577C0002FB17471D44642394FBF3F6B7FA87FE2C
:10578C00014603FB164600F13803019304F00303B2
:10579C0044604FEA5E1E00934FF0070C0B7A4A2BC5
:1057AC000ED14B69009AEC1802B906B927B93B2BFC
:1057BC00D4BF0023012300E000232344013B3FE03E
:1057CC00442B02D14B692B443AE0009B2BB9002EA1
:1057DC000CBFF0464FF0010800E0F046A946244B00
:1057EC00302202FB0838CC68A8F1040A0123A3423A
:1057FC0004DA5AF804BF0133D944F8E709F1040379
:10580C0093FBFCFBCBEBCB0ACAEB030A4B69012CD9
:10581C00B8BF0124B3EB0A0A0B6904F1804403F10D
:10582C00FF3304F1FF3448BF0AF1070AC3EBC3038B
:10583C0058F824405344A34201DB073BFBE74B449D
:10584C008C690C4A02FB03430C6A234441F81C3F4D
:10585C00019B9942A2D1C369826B9342ACBF0023D6
:10586C0001230360012000E0002003B0BDE8F08FAD
:10587C0074670A088051010070477047014B186823
:10588C0000F002B86C0000202DE9F04F8DB00746F7
:10589C0000F0C2F9B0490446384600F0B5F9AF4EF5
:1058AC00054660B9AE4BAF4A1860AF4B1860AF4BB2
:1058BC0030681A605A60FCF7E7F8356048E13168E7
:1058CC0079B93068FCF7E0F82846FFF7D5FD411CA4
:1058DC003846FCF709F9306048B12946FFF7B0F8B3
:1058EC0005E0FFF7A3F8002800F03281E9E72B78F8
:1058FC000AAE3A2B08BF013533469D4A9D492846CE
:10590C00FCF7DAF8002840F323810A9BEF18EB5CD4
:10591C002D2B03D101374FF0FF3503E02B2B08BFA4
:10592C00013701250DF1200A0DF11E0B4FF0000877
:10593C000396CDF808A00196CDF800B0334607AA1F
:10594C008D493846ADF81E80ADF82080FCF7B4F8D0
:10595C00404540F3FD80BDF81E20BDF820303C21B1
:10596C0001FB0233BDF81C204FF4616101FB0233D3
:10597C005D437F4B25627D4DDFF808922B600A9BBF
:10598C004A461F447B4933463846FCF795F8404558
:10599C0008DC2B68226A6B60714B1A60724BC3F87F
:1059AC000080D5E00A9BC5F80490FD18FB5C2D2BFC
:1059BC0003D101354FF0FF3703E02B2B08BF013526
:1059CC0001270023ADF81C30ADF81E30ADF82030A7
:1059DC000A930396CDF808A00196CDF800B0334693
:1059EC0007AA65492846FCF767F8002804DC236AF7
:1059FC00A3F56163E3630EE0BDF81E20BDF8203013
:105A0C003C2101FB0233BDF81C204FF4616101FB0A
:105A1C0002335F43E76327460A9B4FF000091D449E
:105A2C002B782C2B08BF013595F80080B8F14D0F61
:105A3C0026D10DF12603029309AB00930396019630
:105A4C0033460DF122024D492846FCF735F8032860
:105A5C007ED1BDF822104B1E0B2B79D8BDF824201B
:105A6C00531E042B74D8BDF82630062B70D887F83B
:105A7C000880F9603A617B610A9B05EB03082AE018
:105A8C00B8F14A0F06BF4346013544230A220BA93D
:105A9C0028460593FFF72EFEDDF82C80ADF8260086
:105AAC004545059B14D14D23B9F1000F07D1237245
:105ABC000323E36002232361C4F814900BE084F801
:105ACC0024300B23A3620123E3620023236302E04F
