:02000004080AE8
:1000000000000A08D0A40A08000006000600050146
:080010000402E80500000000F5
:0400180074940A08CA
:1000200009480A4908B5884205D0094A824202D0E7
:10003000121A06F00DFB0748074A0021121A06F0B3
:1000400012FB064808BD00BF00000020ACA30A0850
:10005000FC000020FC0000209C0700209C070020E2
:1000600070B504F0CFF9074B074C1E46E41AA408FC
:100070000025A54204D056F8253098470135F8E709
:1000800070BD00BF64A30A08A0A30A0801F0DABB90
:1000900008B501F013FABDE8084004F075B903F0A3
:1000A0001BB903F019B903F01FB903F01DB90078AB
:1000B000B0FA80F040097047012303707047106860
:1000C000704708B50021042004F0D7FD4FF4FA7002
:1000D00004F0F8F80121042004F0CFFD012008BD50
:1000E0001FB50121022004F0C8FD4FF4FA7004F09E
:1000F000E9F80B49684603F008FD6846FFF7E1FFA1
:10010000684603F0BBFC4FF4FA7004F0DBF8002102
:10011000022004F0B2FD012005B05DF804FB00BF31
:100120007B990A0800B58BB0044901A804F0A8FC2B
:1001300001A804F083FC0BB05DF804FB8C050020E3
:1001400008B503F053F908BD38B50D49054603F06D
:10015000F9FD044630B10B4802F0B3F90A4B012017
:10016000187038BD0949284603F0ECFD30B1054848
:1001700002F0A7F9044B20461C7038BD38BD00BF03
:1001800098940A08C4020020780400209D940A086C
:1001900070B58AB003F01FFE0546FE238DF80430CB
:1001A000FF238DF80730184B01201C788DF80500CF
:1001B0008DF806502CBB04F00FFB03680422DB68AB
:1001C0000DEB0201984704F051FA1049064606A8C3
:1001D00003F09BFC0A22294602A803F01EFD02A997
:1001E00006A803F091FD0A4903F09AFD0168304624
:1001F00003F039FE02A803F041FC06A803F03EFC20
:1002000020460AB070BD00BF78040020A3940A08FD
:10021000C6940A0870B58AB003F0DDFDFE238DF8A0
:10022000043002238DF80530FF238DF80730184B7A
:1002300005461C788DF8060034BB04F0CDFA03683F
:100240000422DB680DEB0201984704F00FFA114914
:10025000064606A803F059FC0A22294602A803F024
:10026000DCFC02A906A803F04FFD0B4903F058FD82
:100270000168304603F0F7FD02A803F0FFFB06A873
:1002800003F0FCFB204600E001200AB070BD00BF77
:1002900078040020CD940A08C6940A0810B50446D4
:1002A000024B036002F044FC204610BD90940A0803
:1002B00010B50446FFF7F2FF20464FF40C7104F02E
:1002C0006FFD204610BD10B50446806808B102F0ED
:1002D000F5FD204610BD00001FB5002301930393D8
:1002E0000C23ADF80430044B0422029301AB02F05E
:1002F000BBFF05B05DF804FBBF000A0838B501215B
:100300000B2004F0A9FC01210B2004F0B6FC204DC9
:1003100001210C2004F0A0FC01210C2004F0ADFC14
:10032000296811F001040FD12846FFF7C0FE58B12B
:100330002146184803F01EF82846FFF7BDFE164A6E
:100340001649144804F01EFD0021124803F021F85C
:10035000322003F0B7FF124801F0BAFC4FF4FA70F4
:1003600003F0B0FF0F4801F0B3FC70210C4801F01E
:10037000EAFC70210B4801F0E6FC04F077F90A4929
:1003800003F071FD04F072F903F061FD012038BD46
:100390000001002004010020FC000020C7020A0820
:1003A0008C040020B4020020F0940A0808B502F082
:1003B0005DFD034B1860BDE8084002F065BF00BF5B
:1003C0009C0500207D227B2102F0C5BC37B5890841
:1003D00000249C4218D08C4200F1040014D010F884
:1003E000045C8DF8075010F8035C8DF8065010F887
:1003F000025C8DF8055010F8015C8DF80450019DE9
:1004000042F824500134E4E7012003B030BD00007D
:100410002DE9F04F80469FB00E4606A8BA4903F07A
:1004200074FB474608F102040025C8EB07039E420F
:1004300040F3EA813B780F2B08D1C8EB04039E42BE
:1004400004DC04F013F9B14903F00DFD17F8013B8A
:10045000A3F10E02012A00F2D581C8EB04029642F4
:1004600040F3D0810F2B0CBF0125022504F0FEF8CC
:10047000A74981461AA803F048FB0A22294616A874
:1004800003F0B8FB16A91AA803F03EFCA14903F03B
:1004900047FC0168484603F0D3FC16A803F0EEFAC7
:1004A0001AA803F0EBFA98490AA803F02EFB3B7850
:1004B000013B052B00F2A381DFE813F006001500D5
:1004C0008600AB00FE005201042E08DD032303AAC0
:1004D0000C212046FFF77AFFDFF86C924BE104F025
:1004E000C5F88D490DE10C2E6ADD0C2105F1FF3AAE
:1004F00001FB0AFB894B204603EB0B094A46032309
:10050000FFF764FF04F0B2F8854903F099FC04F0AA
:10051000ADF8824B042253F80B1003F087FD04F072
:10052000A5F8804903F08CFC04F0A0F80422D9F867
:10053000041003F07BFD04F099F87A4903F080FC85
:1005400004F094F80422D9F8081003F08CFD734BE2
:10055000D9F8041053F80B0005F084FAD9F8081004
:1005600005F080FA4FF07E5105F022FDDFF8DCB196
:1005700028B15BF82A3001334BF82A3001E04BF800
:100580002A00694A122352F8041D13F1FF33516007
:10059000F9D2624BDFF8B8A1D3F80890596818680F
:1005A00005F060FA494605F05DFACAF80000DBF88C
:1005B000000005F00BFBCAF80890CAF804001EE121
:1005C00004F054F859499CE0042E1EDDA2786178AD
:1005D000E37820788DF869208DF86A108DF86B002B
:1005E0008DF868301A9BDFF86C91C9F80030C9F8B3
:1005F000043004F03BF84E4903F022FC04F036F8D6
:100600006B1E042259F8231075E004F02FF84949B5
:1006100077E0042E4CDD0C2105F1FF3901FB09F9CF
:10062000DFF834B103230BEB090A52462046FFF7EB
:10063000CDFE04F01BF84049019012A803F065FAC2
:1006400004225BF809100EA803F00EFB0EA912A8F5
:1006500003F05AFB334903F063FB81460422DAF8C6
:10066000041016A803F000FB16A9484603F04CFB43
:100670002C4903F055FB81460422DAF808101AA829
:1006800003F0F2FA1AA9484603F03EFB019B016809
:10069000184603F0D5FB1AA803F0F0F916A803F0EA
:1006A000EDF90EA803F0EAF912A803F0E7F9A6E0C5
:1006B00003F0DCFF214924E0042E1FDDA2786178DD
:1006C000E37820788DF869208DF86A108DF86B003A
:1006D0008DF868301A9BDFF8849005F1FF3A49F8ED
:1006E0002A3003F0C3FF164903F0AAFB03F0BEFF54
:1006F00059F82A10042203F099FC80E003F0B6FFB9
:10070000104903F09DFB7AE07B990A0806A00A08CD
:1007100017950A08859B0A082A950A086403002091
:100720004E950A087D990A08FC04002058950A088D
:100730007C950A0888950A08AE950A08B6950A08B5
:10074000D8950A08E1950A088402002010010020CB
:10075000B0040020AC0200207C03002070040020C4
:10076000042E7FF7BCAE032303AA0C212046FFF71B
:100770002DFEDFF8AC90002834D103F077FF264936
:10078000834612A803F0C1F96A1E0C2353430EA836
:1007900059F80310042209EB030A03F065FA0EA9C5
:1007A00012A803F0B1FA1D4903F0BAFA81460422F7
:1007B000DAF8041016A803F057FA16A9484603F011
:1007C000A3FA164903F0ACFA81460422DAF80810BD
:1007D0001AA803F049FA1AA9484603F095FA0168E5
:1007E000584656E76A1E0C235343039909EB03024C
:1007F00049F80310049B5360059B9360BDE70AA86A
:1008000003F03CF9013410E606A803F037F9284656
:100810001FB0BDE8F08F00BF20950A087D990A0837
:100820004C0300202DE9F041204C02F01FFB27462D
:100830000A2503F0D1FF03681B69984788B303F0CA
:10084000CBFF03685B699847C6B203F00FFF102225
:10085000314603F012FB03F009FF154903F0F0FAEB
:100860002368B3F5AF7F04DA124AD654013323600C
:1008700006E00023236003F0F9FE0F4903F0E0FADD
:100880000A2E0ED139680B48FFF7C2FD00238046BF
:100890001946084A99540133B3F5AF7FFAD10023C2
:1008A0003B60013DC5D14046BDE8F081AC0400206D
:1008B0007D990A081801002004960A0870B50E46B2
:1008C00004460849304603F072F925462B1B15F8FB
:1008D000012BDBB222B1E15C304603F0F7F9F5E71A
:1008E00070BD00BF7B990A0870B5134D00212868C0
:1008F00005F054FB60B10021686805F04FFB38B18A
:100900000021A86805F04AFBB0FA80F4640900E011
:1009100001240021E868084E05F040FB48B10021A1
:10092000306905F03BFB20B10021706905F036FB12
:1009300000B90234204670BD6403002030B504467F
:100940008BB0FE238DF80430FF238DF80730184B51
:1009500001201B788DF805008DF806402BB303F0BD
:100960003BFF03680422DB680DEB0201984703F0AC
:100970007DFE1049054606A803F0C7F80A22214665
:1009800002A803F037F902A906A803F0BDF90A4945
:1009900003F0C6F90168284603F065FA02A803F0DF
:1009A0006DF806A803F06AF800200BB030BD00BF58
:1009B00078040020A3940A08C6940A0830B5FE23E0
:1009C0008BB08DF8043002238DF80530FF238DF8AD
:1009D0000730184B04461B788DF8060033B303F03C
:1009E000FBFE03680422DB680DEB0201984703F06D
:1009F0003DFE1149054606A803F087F80A22214664
:100A000002A803F0F7F802A906A803F07DF90B4944
:100A100003F086F90168284603F025FA02A803F0DE
:100A20002DF806A803F02AF8002000E001200BB002
:100A300030BD00BF78040020A3940A08C6940A08B9
:100A4000012910B5044601D1064902E0022903D16B
:100A5000054903F099F802E0044903F056F82046EE
:100A600010BD00BF1C0300202C03002021960A08A3
:100A70002DE9F04F0D46044689B000AF894938464C
:100A800003F043F805F1080323F00703ADEB030D72
:100A900021462A46684605F0DBFD002439466846B3
:100AA0000DF80540FFF70AFF7F4E06F1DC08002530
:100AB000A1464946384603F057F9037809F1010A7F
:100AC000252B01D0D146F4E722464B46394607F1A3
:100AD000100003F057F907F1100003F081F9A6F1B7
:100AE000140343F8250007F11000013502F0C6FF9A
:100AF000032D5446DCD1A6F10C092546294638467B
:100B000003F032F9037805F1010A252B01D055468F
:100B1000F4E722462B46394607F1100003F032F97C
:100B200007F1100003F05CF949F8040F07F1100019
:100B300002F0A4FF4E455446DFD1B14606F10C0B3E
:100B400025462946384603F00FF9037805F1010AD6
:100B5000252B01D05546F4E722462B46394607F1AE
:100B6000100003F00FF907F1100003F039F949F80C
:100B7000040F07F1100002F081FFD9455446DFD180
:100B80002146384603F0F0F8037804F10109252BDB
:100B900001D04C46F4E723465246394607F110008F
:100BA00003F0F0F807F1100003F01AF9306107F1D3
:100BB000100002F063FF4D462946384603F0D4F892
:100BC00003786C1C252B01D02546F5E72B464A46B9
:100BD000394607F1100003F0D5F8386905F029FC13
:100BE0002C3646F8180C07F1100002F047FF464576
:100BF0007FF45DAF03F055FB054603F037FD2B494D
:100C000003F01EF903F032FD0446294B2A461B6807
:100C1000284907F1100003F0F1FA3969204603F082
:100C200022F907F1100002F029FFFFF75DFE224CC8
:100C30000128A16E0AD1606E04F014FFE16E04F089
:100C400011FF05F0DDF9FFF779FE24E00228606E60
:100C500005D104F007FFE16E04F004FF17E004F093
:100C600001FFE16E04F0FEFE4FF07C5105F002F84A
:100C700005F0C6F9FFF762FEA16E606E04F0F2FEA9
:100C8000E16E04F0EFFE4FF07C5104F0F3FF05F04D
:100C9000B7F9FFF793FE384602F0F0FE2437BD4661
:100CA000BDE8F08F7B990A08A803002024960A0863
:100CB0000C0000202005002094030020B0B50C4655
:100CC00001F1080386B023F007036D4600AFADEBDA
:100CD000030D0A460146684605F0BAFC00230DF8EC
:100CE00004300A22391D684607F0F4F80446244906
:100CF00007F1080002F009FF214607F1080002F0A1
:100D0000F2FF7868012C00F10100786003D0022C1A
:100D10002DD1062400E005240A22391D07F0DAF857
:100D2000184B1880013806281CD8DFE800F0040BA7
:100D30000D0F151719000121204603F09EFF124ADE
:100D4000B96811E0114A0EE0114A0CE0002120467A
:100D500003F093FF0F4A06E00F4A04E00F4A02E057
:100D60000F4A00E00F4A1049104801F03CFD07F11E
:100D7000080002F083FEAD461837BD46B0BD00BF87
:100D800055960A08800200206E960A088A960A087C
:100D9000E6960A080A970A0829970A0889970A080E
:100DA000B5970A08EB970A08CE960A08C4020020F5
:100DB0007FB506460C461B481B49154602F0F7FE58
:100DC0001A49304605F080FC40B91949154802F02F
:100DD000EEFE29462046FFF74BFE08E01549304657
:100DE00005F072FC18B929462046FFF767FF03F0AB
:100DF00058FA054603F03AFC0F4903F021F803F0D6
:100E000035FC04460D4B2A461B6868460C4903F026
:100E1000F5F90099204603F026F8684602F02EFE08
:100E200004B070BD9C04002003980A0806980A08C4
:100E3000AB990A081A980A082C980A080C00002096
:100E40002005002008B5174801F069FB48BB03F0F6
:100E50000DFC154902F0F4FF1449124801F044FC5E
:100E600080B103F003FC124902F0FDFF114B1B7827
:100E70001BB111490B4801F029FE1049094801F046
:100E800025FEE0E703F0F2FB0D4902F0ECFF03F072
:100E9000EDFB0C4902F0E7FF41F2883003F012FA53
:100EA000D1E708BDC402002053980A0876980A08C2
:100EB00081980A087804002006980A081A980A08F7
:100EC00091980A08A9980A0810B504464FF40072D0
:100ED00000F1300101F04AFE014B2046236010BDB5
:100EE00090940A0870B504460E46154601F028FF96
:100EF00031462046012201F097FE20463A2101F0BA
:100F000047FE29462046BDE8704001F03DBF70B560
:100F100004460E46154601F013FF012231462046D5
:100F200001F082FE20463A2101F032FE2968204677
:100F3000BDE87040012201F077BE000070B50446A4
:100F40000E46154601F0FCFE01223146204601F016
:100F50006BFE20463A2101F01BFE2A462046BDE8E2
:100F60007040014901F053BE7B9F0A082DE9F0470C
:100F70000F46ADF5107D6C4916461D4604F07AFE0D
:100F800004F0CEF90022694B04F06CF804F0CCFCBC
:100F90004FF47A7490FBF4FA6349384604F06AFE21
:100FA00004F0BEF90022614B04F05CF804F0BCFCD4
:100FB0005D4990FBF4F9304604F05CFE04F0B0F9B2
:100FC00000225A4B04F04EF804F0AEFC564990FB58
:100FD000F4F8284604F04EFE04F0A2F90022534B28
:100FE00004F040F804F0A0FC4F4990FBF4F7989807
:100FF00004F040FE04F094F900224C4B04F032F867
:1010000004F092FC484990FBF4F6999804F032FE03
:1010100004F086F90022454B04F024F804F084FC27
:10102000414990FBF4F59A9804F024FE04F078F915
:101030003E4B002204F016F804F076FC90FBF4F42A
:1010400004A8FFF741FF04A8FFF7BCF9504604F0DD
:10105000BDFD3749024604A8FFF744FF484604F0A7
:10106000B5FD3449024604A8FFF73CFF404604F0B2
:10107000ADFD3149024604A8FFF734FF384604F0BD
:10108000A5FD2E49024604A8FFF72CFF304604F0C8
:101090009DFD2B49024604A8FFF724FF284604F0D3
:1010A00095FD2849024604A8FFF71CFF204604F0DE
:1010B0008DFD2549024604A8FFF714FF9D99684657
:1010C00002F062FD6A46214904A8FFF720FF684646
:1010D00002F0D4FC9C9A1E4904A8FFF72FFF04A835
:1010E00001F02EFE01221B4904A801F09DFD3A21CA
:1010F00004A801F04DFD9B9A174904A801F087FD53
:1011000004A801F053FD0324059A1449144801F082
:101110006AFB08B9013CF7D104A8FFF7BFF80DF549
:10112000107DBDE8F08700BF00007A440000E03F7A
:10113000BB980A08BE980A08C1980A08C4980A0809
:10114000C7980A08CA980A08CD980A08CF980A08CA
:10115000D6980A0833990A08DF980A08E3980A081B
:10116000C4020020000000002DE9F04F1C4685B0AD
:10117000139B80460193149B89460293159B2E492D
:10118000204692460E9D0F9E109FDDF848B00393B7
:1011900004F02CFF002848D12749284604F026FFF8
:1011A000002842D12449304604F020FF00283CD1D9
:1011B000204604F0B5F81EA3D3E9002304F076FB23
:1011C00000B3284604F0ACF819A3D3E9002304F0D7
:1011D0006DFBB8B1304604F0A3F815A3D3E90023A2
:1011E00004F064FB70B14146384604F0FFFE48B19C
:1011F0004946384604F0FAFE20B15146384604F01C
:10120000F5FE90B9039B52461393029B49461293F5
:10121000019B404611932346CDF840B00F960E95A2
:1012200005B0BDE8F04FFFF7A1BE05B0BDE8F08FF7
:101230009A9999999999B93F0000484270B5044626
:101240000E46154601F07CFD01223146204601F094
:10125000EBFC20463A2101F09BFC2A462046BDE8E3
:101260007040014901F0D3BCF9980A082DE9F04318
:10127000834B00240128ADF5157D1C806AD181487F
:1012800000F0B5FE7F4E002800F0EA80304601F005
:101290000DF8002800F0E48003F0E8F97A4902F044
:1012A000CFFD7A49684602F030FCB146DFF808828B
:1012B000774F3378E5B2AB422CD94D4403F0D6F9E1
:1012C000697801340F2994BF4146394602F0B8FDD0
:1012D00003F0CCF91022697802F0CFFD697808A8F4
:1012E0000F2994BF4146394602F00FFC08A9684611
:1012F00002F0E8FC08A802F0C1FB1022697808A8F7
:1013000002F066FC08A9684602F0DCFC08A802F0BE
:10131000B5FBCEE708A8FFF7D7FD0122694604A870
:1013200002F052FD04A95B4802F039FC04A802F067
:10133000A5FB08A8FFF746F8564904A802F024FCCC
:1013400004AA554908A8FFF7E2FD04A802F096FB9D
:1013500001226BE0022840F08580504800F047FEF3
:101360004E4E00287CD0304600F0A0FF002877D0F9
:1013700003F07CF94A4902F063FD4449684602F0F3
:10138000C4FB2546B146DFF83081414F3378ECB2DB
:10139000A3422CD94C4403F069F9617801350F2937
:1013A00094BF4146394602F04BFD03F05FF910222D
:1013B000617802F062FD617808A80F2994BF414668
:1013C000394602F0A2FB08A9684602F07BFC08A897
:1013D00002F054FB1022617808A802F0F9FB08A97A
:1013E000684602F06FFC08A802F048FBCEE7012235
:1013F000694608A802F0E8FC08A92A4802F0CFFBD9
:1014000008A802F03BFB08A8FFF75EFD08A8FEF75E
:10141000D9FF244904A802F0B7FB04AA1E4908A872
:10142000FFF775FD04A802F029FB02221E4908A857
:10143000FFF784FD02F035FF1C49024608A8FFF7BC
:10144000FDFE08A801F0B2FB099A1949194801F0FC
:10145000CAF908A8FEF722FF684602F00FFB01E078
:10146000002009E003F002F9084902F0FCFC4FF407
:10147000FA7002F027FF01200DF5157DBDE8F0831D
:10148000800200208C04002000990A087B990A0839
:101490007D990A081C0300201F990A08B402002045
:1014A0004B990A082C03002026990A082E990A084D
:1014B00038990A08C4020020FD980A082DE9F04F67
:1014C000B14899B001F02BF818B1AF4801F0D2F94A
:1014D00001E0FFF7B7FCFEF769FF01F0E5FE08B990
:1014E00001F0DAFEFFF79EF9A84C0646FEF75EFF14
:1014F00023680A2B43DD0023236003F0B7F8A44DD3
:101500000746A44910A802F000FB0A2229680CA88B
:1015100002F096FB0CA910A802F0F6FB9E4902F01F
:10152000FFFB80460A22696814A802F089FB14A90F
:10153000404602F0E9FB0168384602F094FC14A82A
:1015400002F09CFA0CA802F099FA10A802F096FAA0
:1015500003F08CF8914D07462969E86804F082FA97
:10156000696904F07FFA0622014614A802F07CFBA8
:101570001499384602F077FC14A802F07FFA236829
:101580000133236001F072FC854C864B227853F8BE
:101590002230984216D9701E012813D8FEF706FF94
:1015A000FFF7A2F925786E1C864277D0032875D004
:1015B0007B4B1C7801F05AFC7A4B00F5EA40303046
:1015C00043F82400FEF7F2FE0120FFF74FFE05204E
:1015D00002F078FE0220FFF749FE052002F072FEBD
:1015E000714B6B4C1A681E460A2A07DD236803F10B
:1015F0003C0502F056FE854208D316E0236803F14D
:10160000460502F04EFE8542F0D80EE0634D696853
:10161000286804F027FAA96804F024FA4FF07E51F4
:1016200004F0C6FC002840F08C8073680A2B06DDAD
:10163000646802F036FE3C34844208D316E06368E6
:1016400003F1460502F02DFE8542F1D80EE0534C21
:101650002169E06804F006FA616904F003FA4FF0CA
:101660007E5104F0A5FC002840F0AE80642002F01A
:1016700029FEFFF739F920F00200012840F0C6806A
:10168000FFF732F90238012800F2C580444A137886
:1016900083F00103137019B0BDE8F08F14AC31462C
:1016A0002046FFF7CDF94149204602F04BFB0746A3
:1016B000204602F0E3F9002F7FF47AAF0C236B434E
:1016C0003B49CA18CF58D2F804803449926808922E
:1016D000CA18D2F80490D2F808A0364AC95802EBCA
:1016E000030BD0580991DBF8041004F0BBF9DBF8C8
:1016F000081004F0B7F9304B304A53F825308346D0
:1017000052F825500B9302F0CCFD31460A9020464A
:10171000FFF796F90A9A0B9B0592039338460794B4
:1017200006960495CDF808B0CDF804A0CDF8009049
:10173000099B089A4146FFF717FD204602F09EF9E3
:1017400036E702F093FF1E49054614A802F0DDF9C2
:101750000A22012110A802F04DFA10A914A802F0E3
:10176000D3FA0168284602F07EFB10A802F086F941
:1017700014A802F083F90021052003F07EFA114A33
:10178000034B1A6051E700BFC4020020080000208C
:10179000780200206A990A087C990A0864030020EC
:1017A00082020020000000201001002021960A087B
:1017B000840200207C03002070040020AC02002082
:1017C0007F990A089CFFFF7F02F050FF14490446EE
:1017D00014A802F09AF90A22022110A802F00AFACB
:1017E00010A914A802F090FA0168204602F03BFB11
:1017F00010A802F043F914A802F040F900210620D5
:1018000003F03BFA074A084B5A602FE7074908489C
:1018100002F0CDF934E70549064802F0C8F935E78A
:101820007F990A089CFFFF7F780200208F990A08A1
:101830001C0300202C0300200246014802F024BEB5
:101840005D440A081FB502F011FF4FF4E13102F0C8
:1018500001FF02F0C1FF4FF4165102F0B7FF01F093
:1018600023FD002873D001F01FFD0121052003F0A6
:10187000F3F90121062003F0EFF90021102003F015
:10188000EBF90021112003F0E7F90121022003F018
:10189000E3F90121042003F0DFF90121072003F01F
:1018A000DBF90021052003F0E8F90021062003F010
:1018B000E4F90021022003F0E0F90121042003F003
:1018C000DCF90021072003F0D8F92249684602F02C
:1018D0001CF96846FEF712FD684602F0CFF81E4973
:1018E0001E48FFF7A9FF1E491E48FFF7A5FF1E4926
:1018F0001E48FFF7A1FF1E491E48FFF79DFF1E4926
:101900001E48FFF799FF1E491E48FFF795FF1E4925
:101910001E48FFF791FF1E491E48FFF78DFF1E4925
:101920001E48FEF7D9FC1E491E48FEF7D5FC1E498D
:101930001E48FEF7D1FCFEF739FD012002F0D4FC71
:101940004FF07E5002F0BAFB05B05DF804FB01F0E9
:101950009BFC84E77B990A0849010A0895990A08C3
:1019600091010A08A0990A0815020A08AD990A0807
:10197000C3000A08BA990A08E1000A08C6990A08C9
:1019800041010A08D3990A0825010A08E0990A08C2
:10199000FD020A08EB990A087C040020F4990A0861
:1019A0003C030020FF990A089C040020089A0A08BA
:1019B000F7B5324F324E334C334D01F007FA39460A
:1019C000304602F0A2F83046304E2246294603F057
:1019D000D9F93946304602F098F822462946304671
:1019E00003F0D0F9012001F08BFB4FF40073284E77
:1019F0000193284B40F25B72009327490F23304636
:101A000000F0A6FC3046254E2246254903F0BAF9DF
:101A10002449304602F079F822462946304603F040
:101A2000B1F9214E214F0A220B21214800F048F83C
:101A30000A220C211F4800F043F83146384602F0D4
:101A400064F838461C4F2246294603F09BF931467C
:101A5000384602F05AF83846184F2246294603F015
:101A600091F93146384602F050F822462946384668
:101A700003B0BDE8F04003F085B900BF8F990A08B4
:101A80001C030020FC0000207D3A0A082C030020E3
:101A9000C4020020B10D0A080E9A0A089C04002016
:101AA000D32A0A08FE980A087B990A083C030020FA
:101AB0008C040020B40200209C0200207C04002042
:101AC00038B50446154608462173012103F0C4F8D1
:101AD000207B012103F0D1F828466573012103F032
:101AE000BBF8607B002103F0C8F8204638BD000039
:101AF00038B50B4D296811F001040FD12846FEF7C7
:101B0000D6FA58B12146074801F034FC2846FEF7C2
:101B1000D3FA054A0549034803F034F9014838BDB2
:101B20000001002004010020FC000020C7020A0878
:101B300010B50446FFF7DCFF2146BDE8104001F078
:101B400038BC70B50E46154604460021007B03F0F4
:101B500094F806F07E00FFF7EBFF2846FFF7E8FF5A
:101B6000207B0121BDE8704003F087B8F8B50D4631
:101B7000144600210646007B1F4603F07EF805F060
:101B80007E00FFF7D5FF013C7D1E3C44A54204D0FA
:101B900015F8010FFFF7CCFFF8E7307B0121BDE816
:101BA000F84003F06AB838B50C4605460021007BC2
:101BB00003F063F804F07E0040F08000FFF7B8FF08
:101BC0000020FFF7B5FF04460121287B03F055F8FC
:101BD000204638BD70B505460E461446FFF7E3FFB4
:101BE00040EA040231462846BDE87040D2B2FFF711
:101BF000A8BF70B505460E461446FFF7D4FF20EA8D
:101C0000040231462846BDE87040D2B2FFF799BFC2
:101C1000F8B5044615460F46002202211E46FFF77E
:101C200090FF04220A212046FFF78BFF8022142117
:101C30002046FFF7CFFF2A463B4612212046FFF7FA
:101C400095FF032202212046FFF77BFF41F28835F2
:101C50000A212046FFF7A7FF430705D4013DADB297
:101C6000002DF5D10420F8BD002220460221FFF707
:101C700068FF44212046FFF796FF4221307020463E
:101C8000FFF791FF70700120F8BD10B50F220221FF
:101C90000446FFF756FF322002F014FB02212046D3
:101CA000FFF781FFC306F9D410BD10B52821044603
:101CB000FFF779FF00F00303032B08D040F0030285
:101CC000D2B22046BDE810402821FFF73ABF10BD30
:101CD00010B50446407B02F0E9FF38B9607B012172
:101CE00002F0CBFF322002F0EDFA02E02046FFF7CF
:101CF000CCFF204680225421FFF723FF2046A92253
:101D00005621FFF71EFF204603225821FFF719FF37
:101D10002046E8225A21FFF714FF204640222A21BC
:101D2000FFF70FFF20463D222221FFF70AFF204642
:101D3000BDE81040FFF7B9BF08B54C21FFF733FFEE
:101D400000F0700008BD38B50D460446FFF7F4FFFB
:101D5000A8420CD0204670224C21FFF74AFF05F024
:101D600070022046BDE838404C21FFF733BF38BD34
:101D70002DE9F84F80461F469DF828901546002A09
:101D80003FD001F07E0141F08006007B002102F08F
:101D900074FF3046FFF7CCFE013DEDB24FF0000B73
:101DA0004FF0010A5FFA8BF4A5421FD9B4B9B9F11B
:101DB000000F13D04B46072B06D80AFA03F0044352
:101DC0000133E4B2DBB2F6E73046FFF7B1FE3B7811
:101DD000204023EA04031843387004E03046FFF73C
:101DE000A7FE07F80B000BF1010BDBE70020FFF764
:101DF0009FFE785598F80C000121BDE8F84F02F0DD
:101E00003CBFBDE8F88F2DE9F04F87B0DDF84C807E
:101E100004468B460292119F129D9DF850A0B8F186
:101E2000000F02D098F8006000E046460022022130
:101E300020460393FFF785FE7F2208212046FFF707
:101E400080FE06EB0A16802214212046FFF7C2FE10
:101E5000F6B2039B9DF8402012212046FFF786FE34
:101E600032461A212046FFF76CFE5A4602212046D0
:101E7000FFF767FEBBF10C0F04D180221A21204628
:101E8000FFF7A8FE4FF4FA6608212046FFF78BFE05
:101E9000029B184204D1C20752D4013EF4D14FE054
:101EA0000C212046FFF77FFE10F0130F064649D1A4
:101EB000DFB1D5B114212046FFF775FE2B7802461D
:101EC000834241D328703B4612212046CDF800A022
:101ED000FFF74EFF18212046FFF765FE00F00709C7
:101EE000B8F1000F01D088F8009033072ED47FB3EB
:101EF00075B39DF854305BB32A78012A04D1B9F147
:101F0000040F27D1092026E024D9B9F1000F21D1EF
:101F1000023A05ABD2B239462046FFF779FE0128D6
:101F200019D12B781F4417F8022C9DF814309A42CF
:101F300010D117F8012C9DF815309A420AD10AE009
:101F4000042008E0022006E0052004E0032002E06F
:101F5000012000E0082007B0BDE8F08F10B586B082
:101F60009DF82C4005949DF828400494099C039406
:101F7000089C8DE81C000B4630220C21FFF743FF24
:101F800006B010BD70B588B006461C468DF8171017
:101F9000154612B31B78012B1FD980221C21FFF795
:101FA00028FE07238DF81F300023039302930DF1C1
:101FB0001F03019300942B4601220DF117013046B7
:101FC000FFF7CCFF01280BD12078022807D19DF81C
:101FD0001F30002B08BF012002E0052000E0022096
:101FE00008B070BD13460A462621FFF7CBBF07B5E0
:101FF000022302AA02F8053D01A9FFF7F3FF012819
:1020000002D0C31E5842584103B05DF804FB2DE9CD
:10201000F04F502A8BB083468A46174600F2F6806E
:1020200080221C21FFF7E5FD0125022D10D0032D94
:102030001BD0012D40F0EC8093238DF81C30D7B1DC
:102040009AF800300026042B94BF0023012316E0E9
:102050006FF06A038DF81C307FB19AF800300326C8
:10206000072B94BF0023012309E097238DF81C3030
:102070000626002303E03E4600E003263B46A7EB8E
:10208000C60464B224EAE4742BB188228DF81E20C1
:102090004FF0030801E04FF00208E1B211F007022F
:1020A00018BF012202EBE40212F0FF0206D1002B5E
:1020B00000F08C8001F1080464B287E0002B14BFAB
:1020C00003200420824228BF0246002008EB000EB5
:1020D0000DF1280C5FFA8EFEE64406EB000CD444AA
:1020E0009CF801C001300EF80CCC5FFA80FE9645DA
:1020F000ECD3DCE7012840F08D801F2C00F38C80AE
:1021000020244FF070039DF81E208DF81D309DF89F
:102110001F3007A953409DF8202058465A409DF88B
:10212000213053408DF8223007220DF12303FFF7B1
:102130006FFD012840F0B7804FF000038DF81A3092
:1021400003238DF81B3009230DF1220904930DF1AF
:10215000280818F80E3D1A2103EB0312D2B2584694
:102160000593FFF7EEFC00230393059BCDF8048055
:1021700002930DF11B030093049A4B4607A958469E
:10218000FFF7ECFE03288046B4D11C215846FFF728
:102190000AFD81063ED410F01F0008BF2020A04297
:1021A00036DD44B2013800F0070310F0070018BF15
:1021B000012000EBE4000AAA01301044012202FAD7
:1021C00003F310F80C2C134300F80C3C1F2C98DC84
:1021D000E3100233DBB204F007085FFA88F2B8F1CB
:1021E000000F0CBF984603F101088DF81A2002EB8E
:1021F00003128DF81D205FFA88F2049207AA02EB01
:102200000309C3F109038DF81B30A0E707204AE05A
:10221000062048E0404646E09DF81E30882B3FD01F
:10222000022104240023CA18D2B20DF1280E7244F0
:10223000F01812F80C2C504401334270DAB2944278
:10224000F1D89DF81B30032B26D19DF81A301BBB0B
:102250000DF11E03012249465846FFF7D9FC01281B
:1022600021D19DF81E2099F801309A4216D19DF88F
:102270001F2099F802309A4210D199F800305A077D
:1022800002D50135EDB2D0E605EB450501358AF8FA
:102290000B308AF8005006E0022004E0082002E03B
:1022A00003210C46BEE70BB0BDE8F08F08B5002255
:1022B0000146FFF7ACFE431E5842584108BD00F0EE
:1022C00085BD000038B50B4B8469054603607CB1C1
:1022D0006368013B63605BB9236820469B6898474D
:1022E000A368013BA3601BB923682046DB689847BD
:1022F000284638BD949A0A0810B50446FFF7E2FF55
:1023000020461C2102F04CFD204610BD38B51D466C
:10231000059B044603630023436302B1826419B141
:1023200004F1380001F043FC049BE0692365069B3F
:10233000A4F84C50FF2BB8BFFF23A4F8543008B1C9
:10234000FDF7B3FEB4F85400FDF7ABFEE06138BD15
:102350002DE9FF410446174698460E46002501F038
:10236000D3FAE5610A4904F1380001F0CEFB0B9B7A
:10237000204602930A9BA5640193CDF800803B465A
:102380002A463146FFF7C2FF204604B0BDE8F0817F
:102390007B990A0810B50446204601F049F9002847
:1023A000FAD0204601F0F9F8C0B210BD2DE9F0478F
:1023B0000546C4698A46FFF7EDFF4FF0010846461F
:1023C0002070EB69002793F8009009F0F009284687
:1023D000FFF7E0FFEB69741C985500F07F0303FBE7
:1023E00008770306A4B2BFB24FEAC81801D5264643
:1023F000EDE7631EB9F1300F8AF8003013D128469B
:10240000D5F81C80FFF7C6FF08F804002846D5F869
:102410001C80FFF7BFFFF41C0236B6B2A4B208F866
:102420000600022300E000231B1B9EB2A3199BB2EF
:102430009F420BD92846FFF7ADFFB5F85430A342B1
:1024400084BFEB6918550134A4B2EFE7B5F8540026
:10245000A0422CBF20460020BDE8F087F7B5074614
:102460008E461E461D46002405F07F0302A9ED0995
:10247000214418BF43F08003013401F8043CE4B266
:10248000002DF1D1C4F10403D11802F803E0A542F4
:1024900006DA01A82B1B285C134458710135F6E7B6
:1024A000721C2244384601F020F8054600F0DEFC9C
:1024B000013478623444A8B2231A5842584103B018
:1024C000F0BD10B50446C369E0221A70C36900224A
:1024D0005A70C169022201F008F8204601F0E4F8C0
:1024E00000F0C4FC6062A06210BDF0B50D4602337E
:1024F0009BB26C1A15F8016BA4B23EB1B0F85470DF
:102500009F4203D95C1CD654A3B2F2E7191B0A44BC
:10251000211202F8021C02F8014C1846F0BD38B531
:10252000054601F082F9002814BF0124002402D1DD
:10253000284601F0B9F8204638BD00002DE9F043E7
:1025400087B00446894617461E46DDF83880FFF7F7
:10255000E6FF0546002840F0BD80A16C39B903466E
:10256000B4F84C20A16B204601F0F0F909E0684670
:1025700002F010F82B46B4F84C206946204601F0D2
:10258000ADF8002800F0A280012323849DF84C3090
:10259000042B15D1524B18689A880090ADF804208E
:1025A0009B79E26900988DF80630C2F80500531D4A
:1025B000BDF804109DF8062099809A710C2312E052
:1025C0006A46484BD4F81CC0186859681B7A03C285
:1025D00013706B4603CBCCF80500CCF809101378C8
:1025E0008CF80D300E23B8F1000F0AD09DF8402072
:1025F0009DF83C10520142F0060242EAC102D2B2FA
:1026000000E002229DF8481009B902F0FD022FB146
:1026100016B942F0800201E042F0C002E169581CA4
:10262000CA54226DE16912120A54E169206D9A1CA4
:1026300088540333E26949462046FFF756FFB8F154
:10264000000F0BD00346E26941462046FFF74DFFDD
:10265000E269034611992046FFF747FF67B1034639
:10266000E26939462046FFF740FF2EB10346E26992
:1026700031462046FFF739FF431F9BB2E269102124
:102680002046FFF7EBFE00F0F1FB4FF47A76606234
:10269000A062204600F0CCFF40B900F0E7FBA36A3F
:1026A000C01A236D73439842F3D90FE06946204660
:1026B000FFF77CFE042809D1E369DE7836B900F023
:1026C000D5FB0125A06284F82C6004E0204600F0D0
:1026D000EBFF00E00025284607B0BDE8F08300BF0F
:1026E000209A0A08279A0A087FB504230593012334
:1026F0000493002303930293019300931A46FFF778
:102700001DFF07B05DF804FB2DE9F14F0D9E044657
:102710008B4691469A469DF828809DF82C509DF84E
:102720003070FFF7FCFE00284BD0B4F85420002195
:10273000E06903F098FF0523E26959462046FFF758
:10274000D4FE6B1E012B12D8238CE26901339BB29D
:1027500023841B121354411CE369228C89B202307A
:1027600080B25A541EB1238C5A1C2284338000221A
:1027700091B283188A459BB209D9B4F854600132EA
:102780009E4204D919F80160E169CE54F0E7B8F12E
:10279000000F0CBF302131210FB141F00801022D93
:1027A00002D141F0040103E0012D08BF41F0020114
:1027B0002046053BE2699BB201B0BDE8F04FFFF750
:1027C0004DBE01B0BDE8F08F1FB5089C03940024F6
:1027D00002949DF81C4001949DF818400094FFF766
:1027E00093FF04B010BD7FB5054610460E46144653
:1027F00004F090FC002302930193009322460346C9
:1028000031462846FFF7E0FF04B070BD38B50446F6
:102810000D46FFF784FE90B1E36962221A70E36906
:1028200002225A70E3692A129A70E3690422DD7069
:10283000E169204600F059FE003018BF012038BD84
:1028400038B504460D46FFF76AFE90B1E36972227F
:102850001A70E36902225A70E3692A129A70E369D6
:102860000422DD70E169204600F03FFE003018BF11
:10287000012038BD2DE9F04F83B000AF0446FFF7CB
:102880004EFE8146002800F0F68000F0EFFA226D3F
:102890004FF47A735343A26A0546821A9A4203D8C8
:1028A000626A821A934217D294F82C302BB12046D8
:1028B00000F0FAFE4FF00009DDE0E269C02111707E
:1028C000E26920465370E169022200F00EFE012306
:1028D0006562A56284F82C30204600F0A9FE00282D
:1028E00000F0C980F91D2046FFF760FD0246002870
:1028F00000F0C180E369A562187800F0F00130298A
:102900007DD1D4F830B0BBF1000F00F0B48097F85F
:1029100007C0EA4603EB0C00817890F801E001EB78
:102920000E2E1FFA8EFE0EF1080121F00701ADEB0D
:10293000010D684600218EB2B64506D90CEB0106A2
:102940001E44F67846540131F5E7002100F80E10D8
:102950001E780CF1030106F00606022ECCEB0202F3
:102960001ED1714413F8018019444978CEEB02025C
:1029700001EB08280CF105017144053A1944D847C8
:10298000E36940221A70E3691FFA88F85E70E36910
:102990004FEA28229A70E369042283F8038020E03A
:1029A000042E24D1714413F8018019444978CEEBE8
:1029B000020201EB08280CF105017144053A1944A3
:1029C000D847E36950221A70E36902225A70E3691A
:1029D0001FFA88F84FEA28229A703246E36983F892
:1029E0000380E169204600F080FD656205E0033A5E
:1029F0007144CEEB02021944D847D5463BE050293A
:102A000008D19978DB78204603EB012189B2FFF7E2
:102A1000FDFE30E040290CD0602908D19978DB78A0
:102A2000204603EB012189B2FFF70AFF23E070295A
:102A30000DD1616BF9B1042A1DD110F0060F1AD126
:102A40009878DB7803EB002080B2884713E0902968
:102A500011D0C0290AD1D0221A70E36900225A701D
:102A6000E1690222204600F040FD04E0D02904BFC5
:102A7000002384F82C3048460C37BD46BDE8F08F63
:102A800070B504460E461546FFF749FDE8B1238CA4
:102A900001339BB203B901232384238CE2691B1207
:102AA0005371E369228C31469A71E269072320460B
:102AB000FFF71BFDE36982211D54031FE2692046D5
:102AC000BDE870409BB2FFF7C9BC70BD0022FFF7A4
:102AD000D7BF10B50446FFF722FD10B12046FFF71F
:102AE000F0FCE06908B1FDF7E0FA04F1380000F00D
:102AF000C5FF2046FFF7E6FB204610BD00F066B993
:102B000010B5054B04460360037C1BB9406808B14F
:102B100000F0EAFB204610BD389A0A0810B50446BA
:102B2000FFF7EEFF2046142102F03AF9204610BDCF
:102B300010B50446024B0360FFF7E2FF204610BDCC
:102B4000489A0A0810B50446FFF7F2FF20463021E4
:102B500002F026F9204610BD00230122C360436124
:102B60000276437680F82A30704700000023C36065
:102B700010B501230374054B416003604FF0FF3330
:102B80008260C362FFF7E8FF10BD00BF489A0A08E1
:102B9000C368826810B593423DBF42685C1CC46044
:102BA000012334BFD15480F82A3010BD10B54369D9
:102BB000044643B100EB4303597E09B1FFF7E8FF38
:102BC0006369013B6361A368E068616898424FF004
:102BD00000022ABF5B180A5403F8012C10BD70B51F
:102BE0000446C068A56866682D1A134630440A4634
:102BF000294600F0A9FB854235BFA368E368E3607E
:102C0000C01836BF0123E06084F82A3070BD0EB4CE
:102C100003B503AA52F8041B0192FFF7E0FF02B0CC
:102C20005DF804EB03B070472DE9F04104460E4611
:102C3000174612B12221FFF7ABFF0025715D06EBAD
:102C40000508002971D0E268A3689A426DD20B068C
:102C500033D501F0F003E02B17D198F8013003F0E1
:102C6000C002802A11D105F1020816F8082002F0EE
:102C7000C000802809D102F03F029B0142EA0132E4
:102C800003F47C631A4392B211E001F0E003C02B1D
:102C900046D105F1010816F8083003F0C002802A79
:102CA0003ED1890101F4F86203F03F031A4323493E
:102CB0002046FFF7ACFF454635E00C2918D00BD86D
:102CC000092921D00A2919D0082929D15C212046B7
:102CD000FFF75EFF622123E022291BD05C2919D077
:102CE0000D291DD15C212046FFF752FF722117E00C
:102CF0005C212046FFF74CFF662111E05C21204655
:102D0000FFF746FF6E210BE05C212046FFF740FFF6
:102D1000742105E05C212046FFF73AFF98F8001087
:102D20002046FFF735FF013588E72FB12046BDE883
:102D3000F0412221FFF72CBFBDE8F081559A0A0827
:102D4000426900EB42031A7E12B100221A767047E4
:102D50002C21FFF71DBFF8B543690E460133082B40
:102D600017460ED8FFF7ECFF436901245A1C00EB0D
:102D70004303426131469C76DF76FFF709FF204628
:102D8000F8BD0020F8BD000037B50446E56A0846E6
:102D9000002D0ADB02F0C4FA2A46CDE900010849F9
:102DA0002046FFF734FF03B030BD02F0B9FA024607
:102DB0000B462046034903B0BDE83040FFF727BF6C
:102DC0005C9A0A08619A0A0800F000B808B5024B3C
:102DD0001B681B68019308BDB001060808B5024BCB
:102DE0001B689B68019308BDB001060808B5024B3B
:102DF0001B68DB68019308BDB001060808B5024BEB
:102E00001B681B69019308BDB001060808B5024B99
:102E10001B685B69019308BDB001060808B5024B49
:102E20001B681B68019308BDB401060808B5024B76
:102E30001B685B69019308BDB401060808B5024B25
:102E40001B68DB69019308BDB401060808B5024B95
:102E50001B681B6A019308BDB401060808B5024B44
:102E60001B685B68019308BD9C01060808B5024B0E
:102E70001B685B69019308BD9C01060808B5024BFD
:102E80001B68DB69019308BD9C01060808B5024B6D
:102E90001B689B6D019308BD9C01060808B5024B99
:102EA0001B689B6E019308BDB801060808B5024B6C
:102EB0001B685B6C019308BDD001060808B5024B86
:102EC0001B689B6C019308BDD001060808B5024B36
:102ED0001B68DB6C019308BDD001060808B5024BE6
:102EE0001B685B6D019308BDD001060808B5024B55
:102EF0001B689B69019308BDC401060808B5024B15
:102F00001B685B6A019308BDC401060808B5024B43
:102F10001B689B6A019308BDC401060808B5024BF3
:102F20001B68DB6A019308BDC401060808B5024BA3
:102F30001B681B6B019308BDC401060808B5024B52
:102F40001B685B6B019308BDC401060808B5024B02
:102F50001B689B6B019308BDC401060808B5024BB2
:102F60001B681B6C019308BDC401060808B5024B21
:102F70001B68DB6C019308BDC401060808B5024B51
:102F80001B681B6E019308BDAC01060808B5024B17
:102F90001B685B6E019308BDAC01060808B5024BC7
:102FA0001B689B6E019308BDAC01060808B5024B77
:102FB0001B68DB6E019308BDAC01060808B5024B27
:102FC0001B681B6F019308BDAC01060808B5024BD6
:102FD0001B685B6F019308BDAC01060808B5034B85
:102FE0001B68D3F88030019308BD0000AC010608CF
:102FF00008B5024B1B681B68019308BDBC0106089D
:1030000008B5024B1B685B68019308BDBC0106084C
:1030100008B5024B1B689B68019308BDBC010608FC
:1030200008B5024B1B68DB68019308BDBC010608AC
:1030300008B5024B1B681B69019308BDBC0106085B
:1030400008B5024B1B681B6A019308BDBC0106084A
:1030500008B5024B1B681B6B019308BDBC01060839
:1030600008B5024B1B685B6C019308BDBC010608E8
:1030700008B5024B1B681B68019308BDD801060800
:1030800008B5024B1B685B68019308BDD8010608B0
:1030900008B5024B1B681B69019308BDD8010608DF
:1030A00008B5024B1B685B69019308BDD80106088F
:1030B00008B5024B1B689B69019308BDD80106083F
:1030C00008B5024B1B68DB69019308BDD8010608EF
:1030D00008B5024B1B681B6A019308BDD80106089E
:1030E00008B5024B1B685B6C019308BDC001060864
:1030F00008B5024B1B689B6C019308BDC001060814
:1031000008B5024B1B681B6D019308BDC001060882
:1031100008B5024B1B685B6F019308BDC001060830
:1031200008B5024B1B689B68019308BDA801020803
:1031300008B5024B1B68DB68019308BDA8010208B3
:1031400008B5024B1B689B69019308BDA8010208E2
:1031500008B5024B1B681B6D019308BDA80102084E
:1031600008B5024B1B681B68019308BDA401060843
:1031700008B5024B1B685B68019308BDA4010608F3
:1031800008B5024B1B685B69019308BDA4010608E2
:1031900008B5024B1B689B6D019308BDA40106088E
:1031A00008B5034B1B68D3F89030019308BD0000AD
:1031B000A401060808B5034B1B68D3F89C300193A3
:1031C00008BD0000A401060808B5024B1B685B6837
:1031D000019308BDC801060808B5024B1B689B682F
:1031E000019308BDC801060808B5024B1B68DB68DF
:1031F000019308BDC801060808B5024B1B681B698E
:10320000019308BDC801060808B5024B1B685B693D
:10321000019308BDC801060808B5024B1B689B69ED
:10322000019308BDC801060808B5024B1B68DB699D
:10323000019308BDC801060808B5024B1B681B6A4C
:10324000019308BDC801060808B5024B1B681B6B3B
:10325000019308BDC801060808B5024B1B685B6BEB
:10326000019308BDC801060808B5024B1B681B681E
:10327000019308BDCC01060808B5024B1B685B68CA
:10328000019308BDCC01060808B5024B1B689B687A
:10329000019308BDCC01060808B5024B1B68DB682A
:1032A000019308BDCC01060808B5024B1B685B6999
:1032B000019308BDCC01060808B5024B1B681B6BC7
:1032C000019308BDCC01060808B5024B1B68DB6BF7
:1032D000019308BDCC01060808B5024B1B681B68AA
:1032E000019308BDA001060808B5024B1B685B6886
:1032F000019308BDA001060808B5024B1B689B6836
:10330000019308BDA001060808B5024B1B681B69A4
:10331000019308BDA001060808B5024B1B689B6914
:10332000019308BDA001060808B5024B1B68DB69C4
:10333000019308BDA001060808B5024B1B681B6A73
:10334000019308BDA001060808B5024B1B685B6A23
:10335000019308BDA001060808B5024B1B681B6B52
:10336000019308BDA00106080068FFF7AFBD006823
:10337000FFF7B4BD70B504460E46002540F8085F5F
:10338000FFF794FD30462670FFF758FD6560204634
:1033900070BD70B505460E4600F108042046FFF7E3
:1033A000E3FF28783146FFF739FD2046FFF7DFFFBE
:1033B00070BD08B50078FFF739FDC0B208BD0078D0
:1033C000FFF744BD10B50446006818B1FFF78CFF45
:1033D0000023236010BD10B50446FFF7F3FF20461D
:1033E00010BD014600228C20FFF758BD0020FFF7DA
:1033F000F8BF00004FF6FF7310B5084C00202060A6
:10340000A080A07120816381FFF7B2FE2046BDE855
:103410001040034A034901F0B5BC00BF000500207D
:10342000FC000020D7330A0810B5044603F072FEF2
:10343000013823182046984206D20278197800F8FD
:10344000011B03F80129F6E710BD70B50C46911E6B
:10345000222920D82546294610B9234430220EE0DF
:10346000B0FBF2F602FB1600C1B2092805F8011BF9
:1034700094BF3031573105F8011C3046EBE79942D3
:1034800002D201F8012BFAE7002320460B70FFF768
:10349000CBFF204670BD002070BD38B5031E0C4622
:1034A00015460BDAB3F1004F4FF02D0214BF58420E
:1034B000184601230A702A46194400E00123FFF749
:1034C000C4FF204638BD08B50123FFF7BEFF08BD85
:1034D00037B502AC036804F8011DDD6B012247F229
:1034E00030532146A84703B030BD10B40368DC6BED
:1034F00047F23053A44610BC604737B502AC0368AE
:1035000004F8011DDD6B214613460122A84703B0D4
:1035100030BD704770470020704710B50446142135
:1035200001F03EFC204610BDFCF7BDBD10B50446C1
:1035300003689B689847A368013BA3602BB9236885
:103540002046BDE81040DB68184710BD70B5044642
:1035500006464D69044B8C3544F8043B0FCD0FC42F
:103560002B683046237070BD0C9C0A0810B5436967
:103570000446B3F88620B3F884309A4205D06269D5
:10358000B2F884301344187910BD03681B6998475A
:103590000028F4D14FF0FF3010BD10B54369044648
:1035A000B3F88620B3F884309A4208D06269B2F842
:1035B0008430591CA2F884101344187910BD036894
:1035C0001B6998470028F1D14FF0FF3010BDF8B5C6
:1035D00043691746B3F88620B3F8843005469A420B
:1035E0000E4606D103681B69984710B94FF0FF34A7
:1035F00014E069693046B1F88430B1F88640194466
:10360000E41ABC4228BF3C460431224603F020F8AD
:103610006A69B2F884302344A2F884302046F8BDA9
:1036200042690023A2F884304269A2F886307047CC
:1036300038B542690446B2F886301BB1B2F884202E
:103640009A420CD0206901F0B3FA0368DB6898470E
:1036500018B363691868FFF7D3FC18B91DE0FFF7CA
:10366000DFFFEFE76069B0F886107F2915D8051DE8
:10367000C1F18002002329440068FFF7D9FC00282B
:103680000BDD6369B3F886200AB9A3F88420626968
:10369000B2F886301844A2F886006269B2F8863023
:1036A000B2F88400181A38BD38B543690446186862
:1036B000FFF7A6FC18B163691868FFF7C1FC6569DC
:1036C000FFF7C6FC28606069112200218C3002F0EF
:1036D000CAFF2046BDE83840FFF7A2BF2DE9F04100
:1036E0001F4603688AB0DB6A06460C4615469847B3
:1036F000384601F05DFA0368DB689847002856D029
:1037000000972B46062201210220D6F81480FFF7ED
:103710007FFC2023C8F800000027029373690397F9
:103720001B6801200193234B02AA009322493B46C8
:10373000FFF70EFD73691868FFF762FC002836D0AA
:103740003046FFF76DFF0223ADF808302B0A8DF8E5
:103750000A30E3794FF4FA508DF80C30A3798DF8E4
:103760000B508DF80D3063798DF80E3014F8043F4E
:103770008DF80F30FFF7B4FC73690546102202A9DB
:103780001868FFF74DFC80462846FFF7A9FC0FCCD0
:1037900075698C350FC523682B70B8F1000F05D003
:1037A00033683046DB6A9847384600E001200AB0AB
:1037B000BDE8F081DF9A0A08D89A0A0810B5436973
:1037C00004461868FFF71CFC08B9002010BD2069EA
:1037D00001F0EEF90368DB6898470028F5D06369CB
:1037E0001868FFF705FCB0FA80F0400910BD2DE91C
:1037F000F3410025456004460E4617469846FFF7FC
:10380000DDFF60B160690195CDF800802B463A4636
:1038100031460068FFF724FC002803DA01E04FF08E
:10382000FF30606002B0BDE8F08138B50446FFF7B4
:10383000C5FF00BB6369B3F88610B3F884209142DA
:1038400019D11868FFF7DCFB28B163691868FFF726
:10385000CFFB012801D000250EE0236820461B691C
:103860009847002814BF0125002505D1236820466C
:10387000DB6A984700E00125284638BD08B5FFF708
:103880009DFF003018BF012008BD10B5044600237D
:103890000160A0F88430A0F88630883000F02CFE5B
:1038A000204610BD4FF47A7270B58260144A00232E
:1038B00043600260436183610446A0200E46FCF72A
:1038C000EEFB054610B13146FFF7DFFF1420FCF791
:1038D000E6FB034628B1012242608260094A056185
:1038E0000260A0696561A36128B14368013B436040
:1038F0000BB9FFF71BFE2046FFF792FE204670BD76
:10390000949A0A08789A0A0810B50446FFF7A0FBB3
:1039100001462046FFF7C6FF204610BD10B50446FD
:103920000068FFF76DFB10B12068FFF789FB2046A8
:1039300010BD10B504692046FFF7F0FF24B1204602
:10394000BDE81040FCF7AFBB10BD00002DE9F0430F
:103950001F4603688FB0DB6A06460D4690469847BF
:10396000134801F0D8F800B302A800F0C5FD2846BE
:1039700003F0D0FB002481B200943B4603AA284602
:10398000FFF7B6FB80B9336809ADD3F82090094B37
:1039900003AC08930FCC0FC5236842462B7008A9CF
:1039A0003B463046C84700E020460FB0BDE8F083F4
:1039B000940500200C9C0A082DE9F14F80460D4625
:1039C00017461E46002200234046294601F06EFF9E
:1039D00020B12D23337005F1004501360023012469
:1039E0000A22D9B28F4202D954430133F9E7204663
:1039F00001F084FC42462B4601F0E6FC82468B46F1
:103A000002F03CFB8046894601F0A8FC02460B46CA
:103A10005046594601F024FB0022174B01F05AFF93
:103A200018B118F1010849F10009E51722462B46A3
:103A30004046494602F00AFB01230A223146FFF7BD
:103A400004FDAFB1304603F065FB2E233354013043
:103A5000064422462B464046494602F0F7FA3B46CA
:103A6000104631460A2201B0BDE8F04FFFF7EDBC29
:103A700001B0BDE8F08F00BF0000E03F10B5044684
:103A80000068FFF731FC204610BD10B50446006801
:103A900008B1FFF729FC00232360A360636010BD19
:103AA00038B504460D4600680131FFF725FC10B11A
:103AB00084E82100012038BD10B50368044613B125
:103AC00043688B4207D22046FFF7EAFF20B1A36884
:103AD0000BB922681370012010BD70B50E46114657
:103AE00004461546FFF7E8FF18B92046FFF7CDFF5B
:103AF00009E02A463146A560206802F0A9FD226847
:103B0000A3680021D154204670BD38B50023044677
:103B100003604360836003730D4639B1084603F0C8
:103B2000F9FA294602462046FFF7D7FF204638BD5E
:103B300038B5054600680C4660B16A688B689A42E1
:103B400006D3096802F0CAFDA368AB6000230AE04F
:103B5000FFF7CAFB23682B6063686B60A368AB60E8
:103B6000002323606360A36038BD884210B50B4614
:103B7000044607D0096819B19A68FFF7AEFF01E063
:103B8000FFF783FF204610BD10B5044600230360F5
:103B9000436083600373FFF7E8FF204610BD88424F
:103BA00010B5044601D0FFF7C3FF204610BD38B55D
:103BB00005460C4641B1084603F0ACFA21460246E0
:103BC0002846FFF78AFF01E0FFF75FFF284638BD70
:103BD0001FB50446002323606360A3602373084677
:103BE00001A9FFF770FC01A92046FFF7E0FF20467E
:103BF00004B010BD10B5044600238AB02360636092
:103C0000A3602373084601A9FFF747FC01A92046DA
:103C1000FFF7CDFF20460AB010BD10B504460023C3
:103C20008AB023606360A3602373084601A9FFF78D
:103C30004AFC01A92046FFF7BAFF20460AB010BD92
:103C400010B504468AB0002323606360A360237329
:103C50000846012301A9FFF7F8FB01A92046FFF759
:103C6000A6FF20460AB010BD30B5044600238BB035
:103C70000360436083600373D5B2084601F050FBD4
:103C800001AB2A46FFF798FE01A92046FFF78FFFF8
:103C900020460BB030BD70B504460E4609B9002071
:103CA00070BD6AB18368D5182946FFF705FF002863
:103CB000F5D02068A3683146184402F00FFDA560D6
:103CC000012070BD8A680968FFF7E5BF07B50023CA
:103CD0008DF80410012201A98DF80530FFF7DBFFF4
:103CE00003B05DF804FB13B50A2204460846694692
:103CF000FFF7D3FB684603F00DFA694602462046FB
:103D0000FFF7C9FF02B010BD10B58A680968044604
:103D1000FFF7C1FF10B92046FFF7B7FE204610BDE0
:103D200038B504460D4641B1084603F0F3F929467B
:103D300002462046FFF7AFFF10B92046FFF7A5FE69
:103D4000204638BD08B582680B4612B919B9012062
:103D500008BD11B90368187802E0006802F0B4FCED
:103D6000B0FA80F0400908BD83688B4201D9006831
:103D700018B903480023037070470844704700BF18
:103D80000C050020F8B51D469A4288BF13460F4621
:103D9000144688BF2C460B4988BF1D460646FFF7D0
:103DA000B4FEBA6894420AD83968954294BFC4EB0D
:103DB0000502C4EB020221443046FFF78EFE304676
:103DC000F8BD00BF7B990A0810B504468B68FFF761
:103DD000D9FF204610BD006808B102F02ABB704729
:103DE00008B5006820B102F021FB01F0E5FD08BD37
:103DF000002008BDF8B506460D468F180024BD42C8
:103E00000CD0336815F8011B9B6830469847002892
:103E100001DB0444F3E7002C08BF04462046F8BD4C
:103E200070B505460C46084649B103F073F92B6896
:103E3000024621462846BDE87040DB68184770BD41
:103E400008B5FFF7EDFF08BD03689B68184738B554
:103E50000D210546FFF7F8FF0A2104462846FFF723
:103E6000F3FF204438BD38B50546FFF7D9FF0446B7
:103E70002846FFF7ECFF204438BD012A98BF0A22EC
:103E800030B50B468BB000218DF824100DF12304C2
:103E9000B3FBF2F505FB1233DBB2092B94BF3033D1
:103EA0003733DBB2214604F801392B46002DEFD120
:103EB000FFF7B6FF0BB030BD2DE9F047194680463D
:103EC000104617461E469DF8205001F017FD08B118
:103ED0004D4912E026F000444FF0FF324B4B38467C
:103EE000214601F00BFD68B94FF0FF32474B3846D1
:103EF000214601F0E5FC28B945494046FFF790FF0F
:103F0000BDE8F0874FF06042424B3846314601F041
:103F1000EBFC08B14049F0E74FF060423F4B3846B8
:103F2000314601F0C3FC0028F4D1002200233846BA
:103F3000314601F0BBFC38B12D214046FFF784FF2C
:103F400006F10046044600E0044635494FF00009FA
:103F500000205FFA89F39D4206D90022314B01F01F
:103F60005DFB09F10109F4E73A46334601F07AF8BE
:103F70000F46064601F000FD0A22014681464046F2
:103F8000FFF77BFF0444E5B3484601F0A7F902467A
:103F90000B463046394601F063F806460F46404668
:103FA0002149FFF73DFF044400221E4B30463946AD
:103FB00001F00AFA06460F4601F0B6FCB0F1000A1D
:103FC00007DA2D214046FFF73FFFCAF10001814685
:103FD00002E051464FF000090A224046FFF74DFF2C
:103FE00048440444504601F089F902460B463046E5
:103FF000394601F035F8013D15F0FF0506460F463C
:10400000D2D12046BDE8F087F39A0A08FFFFEF7F80
:10401000FB9A0A08FFFFEF41F79A0A08FFFFEFC17A
:104020000000E03F00002440B9980A0837B5054673
:104030001446084601F074F9E4B2024600940B46B7
:104040002846FFF739FF03B030BD37B59DF818108B
:1040500005460091FFF730FF04462846FFF7F7FEBC
:10406000204403B030BD37B504460846154601F07C
:1040700057F9009502460B462046FFF7E6FF03B0CE
:1040800030BD00231A4619464068FFF7BDB800004E
:10409000014A024B1A607047759B0A081005002000
:1040A00008B50020FFF708F928B1FFF7FDF880F008
:1040B0000100C0B208BD012008BD000010B50949CB
:1040C000044601F075FF60B90749204601F08EFFF4
:1040D00038B90649204601F0CDFD01F091FF044BAF
:1040E000186010BD000040C1000060410000614543
:1040F0001C05002037B50E4B04461B6802A8194466
:104100000C4B1B68194440F8041D02F0A5F902F09D
:1041100051F9054602F0FEFF0023284400F8013C57
:1041200029462046FFF7F1FC204603B030BD00BF12
:104130001C050020180500202DE9F047A4B014ACA0
:1041400007468946204611463F221D4602F0FFFFE2
:10415000002320468DF88F3002F0DCFF804625B921
:10416000244903A802F0BAFA13E03C2195FBF1F2CE
:10417000002AB8BF524292FBF1F301FB13224FF425
:104180006163009295FBF3F31B4A102103A8FFF72C
:10419000CBF825462E1B08F1FF3AB2451BD92B78E8
:1041A000252B16D16B787A2B13D103A802F0B2FF1E
:1041B00080463044C6EB0A02A91C204402F048FAAB
:1041C000424603A9284602F043FA204602F0A2FF25
:1041D00080460135DEE74B462246322107A802F031
:1041E000E5FA07A93846FFF790FC384624B0BDE849
:1041F000F08700BF2DA20A08DB9B0A08F7B5054629
:1042000001921C4613B9124B1C682CB1114B20466D
:10421000196802F059FA20B901992846FFF76AFF98
:1042200013E00D4F019A3B680C4E1A44336802A804
:10423000134440F8043D02F00FF93A683368014630
:10424000134428462246FFF777FF284603B0F0BD07
:10425000140500200C0000201C050020180500207B
:1042600010B50020FEF712FE044668B9FEF778FF8D
:1042700001280BD12046FEF78BFF38B9FFF710FF5E
:1042800030B9FFF701F8F9E7012010BD002010BD9B
:10429000FFF706FF0020FEF7F9FD003018BF0120F0
:1042A00010BD08B5FFF7DCFFBDE80840FEF7E6BD2E
:1042B000024B1A68024B1A60704700BF0C000020C6
:1042C000140500200021FEF75BBF10B5836804468B
:1042D00013B1032201469847204610BD10B504468D
:1042E000FFF7F3FF204610BD10B50446FEF728FF88
:1042F000844208D01CB1BDE81040FEF711BFBDE8F4
:104300001040FEF715BF10BD034800238360034A29
:10431000034900F037BD00BF24050020FC00002049
:10432000DD420A0808B5144B33B100F09FF9036869
:104330001B699847002816DC104B33B100F04CFA8B
:1043400003681B699847002810DC0D4B0BB1AFF3D5
:1043500000800C4B7BB100F0B7F903681B699847EC
:10436000002806DC08BDAFF30080E5E7AFF300806E
:10437000EBE7AFF3008008BD000000000000000084
:10438000000000000000000008B5FFF7CBFFFEF7BB
:104390006DFD014B186008BD9C0500200248034AD2
:1043A0000349121A02F054B900400240044002408E
:1043B000A8A30A0807B5002300931A466FF07701F7
:1043C000FEF7F8FE03B05DF804FB000007B5438874
:1043D0000A2B08D0502B09D1094B1B683BB103B005
:1043E0005DF804EB1847FFF7E5FF06E000230093B4
:1043F0001A466FF07701FEF7DDFE03B05DF804FBAF
:104400003405002038B5104C104D2368AB42104BDA
:104410000CBF012200221A7002D0FFF7BFFF2560F7
:10442000FEF71CFD044602F027F90A4B13B12046A3
:10443000AFF3008000210748FEF746FFBDE8384093
:1044400000210548FEF7ACBE004002401E1C279A22
:104450003805002000000000CD430A0810B588B0E0
:1044600004466846FFF751FB694604A8FFF78CFB3A
:1044700004A8A047044604A8FFF700FB6846FFF71E
:10448000FDFA204608B010BDF0B507460E461546A9
:1044900085B0102422460021684602F0E4F800228C
:1044A00069461046ADF80040029703960195FEF765
:1044B000E3FE05B0F0BD704710B50446182100F0CA
:1044C0006FFC204610BDF8B50F4600F10806051D2B
:1044D000002416F8011D0A223846FFF7CEFCAE4232
:1044E000044407D0002CF4D02E213846FFF7ACFC52
:1044F0000444EEE72046F8BD10B50446044B1122F3
:1045000040F8043B002102F0AEF8204610BD00BF89
:104510000C9C0A080346074A10B543F8042B01F126
:10452000100251F8044B914243F8044BF9D10A7838
:104530001A7010BD0C9C0A08024A416002600422F5
:10454000027570470C9C0A0810B59DF8084044EAB3
:10455000032343EA024242EA0161042341600375F6
:1045600010BD000037B5044D05609DF8185000954A
:10457000FFF7EAFF03B030BD0C9C0A0837B50D7891
:104580008B784A78C97800912946FFF7DDFF03B0A0
:1045900030BD000010B50446024B0360FFF7EEFF8C
:1045A000204610BD0C9C0A0841747047704708B53E
:1045B0000021007CFEF77CFD30EA200028BF4FF090
:1045C000FF3008BD08B50121007CFEF771FD30EA1F
:1045D000200028BF4FF0FF3008BD08B5007CFEF773
:1045E0005FFD20EAE07008BD08B5007CFEF750FDD5
:1045F00020EAE07008BD007CFEF76ABD10B50446F5
:10460000142100F0CDFB204610BD38B50446007CD7
:104610000D46FEF745FD002801DC607C28B12946E7
:10462000207CFEF74DFD20EAE07038BD10B5044651
:10463000002363604FF47A73A360054B0846236040
:104640000123217463741146FEF712FD204610BD4C
:10465000209C0A080022007CFEF712BD10B504461B
:104660001422002101F0FFFF204610BD30B50E4D91
:1046700087B001A8FFF7F2FF296811F0010410D1FB
:104680002846FBF714FD60B101AA21460748FFF751
:10469000CDFF2846FBF710FD054A0649034800F008
:1046A00071FB024807B030BD3C05002044050020E6
:1046B000FC000020AD450A0810B504461422002174
:1046C00001F0D1FF204610BD10B50E4C86B001A8F8
:1046D000FFF7F2FF2368DB0710D42046FBF7E7FC67
:1046E00060B101AA01210848FFF7A0FF2046FBF7AF
:1046F000E3FC064A0649044800F044FB024806B0C1
:1047000010BD00BF4005002058050020FC0000201F
:10471000AD450A0870474174704708B5007CFEF744
:104720001DFC20EAE07008BD08B5007CFEF7EEFB3A
:1047300020EAE07008BD08B5007CFEF7F7FB30EA20
:10474000200028BF4FF0FF3008BD08B5007CFEF701
:10475000E5FB30EA200028BF4FF0FF3008BD007CA9
:10476000FEF7ECBB10B50446142100F019FB2046FF
:1047700010BD70B5457C04460E4625B9007CFEF799
:10478000EDFB002805DD3146207CBDE87040FEF7DA
:10479000B5BB284670BD000010B50446084611465A
:1047A000002262604FF47A72A260054A207422608F
:1047B000012262741A46FEF799FB204610BD00BF25
:1047C000509C0A080023007CFEF7D0BB0022FFF7B4
:1047D000F9BF007CFEF7BABBF8B5194C25684DB996
:1047E0008420FBF75CFC064618B18422294601F0C0
:1047F0003AFF2660134D2E684EB98420FBF74FFC1C
:10480000074618B18422314601F02DFF2F600E4F6C
:10481000396811F0010611D13846FBF748FC68B140
:10482000226831462B680948FFF7B6FF3846FBF788
:1048300043FC074A0749054800F0A4FA0348F8BDBD
:104840008805002080050020840500206C050020DC
:10485000FC00002015470A087047F8B506461546C3
:104860000C468F18BC4206D0336814F8011B9B68B5
:1048700030469847F6E72846F8BD0022007CFEF750
:104880007DBB0021007CFEF781BB0021007CFEF790
:1048900085BB0021007CFEF789BB0021007CFEF770
:1048A0008DBB10B50446142100F07AFA204610BDE5
:1048B00010B50446002363604FF47A73A360044B81
:1048C0002174084623601146FEF788FB204610BD80
:1048D000809C0A080021007CFEF778BB704701200D
:1048E0007047000008B583891BB10069B0F1004F23
:1048F00001D1002008BD01F069F9024901F06EFA0A
:1049000008BD00BF0000C84208B583891BB180699B
:10491000B0F1004F01D1002008BD01F057F9024964
:1049200001F05CFA08BD00BF0000C8420022114639
:104930004068FEF761BC10B50446242100F030FA4F
:10494000204610BDF0B5164689B011220F46044628
:10495000002103A801F087FE304602F0DBFB0025B2
:10496000009581B27B6803AA3046FEF7C1FB20B1F7
:1049700029462046FFF7E0FD03E003A92046FFF7A4
:10498000C9FD204609B0F0BD002211464068FEF77F
:1049900053BC002211464068FEF75EBC002240680E
:1049A000FEF752BC002281F001014068FEF73CBCDA
:1049B00000231A4619464068FEF72EBC0022114615
:1049C0004068FEF709BC002202214068FEF70CBCDB
:1049D00000231A464068FEF7F7BB000008B583893C
:1049E0005BB1006A002808DB01F0F0F8044901F02F
:1049F000F5F9044901F03EF908BD034808BD00BFC0
:104A000000FF7F470000C842000080BF08B58389CF
:104A10005BB14069002808DB01F0D8F8044901F0D7
:104A2000DDF9044901F026F908BD034808BD00BFBF
:104A300000FF7F470000C842000080BF90F90400DB
:104A4000704770B50D46064600F10C040FCD0FC43B
:104A500095E8030084E8030033690120B3F1004FB7
:104A60001ABF642293FBF2F302237360B369B3F1BC
:104A7000004F1ABF642293FBF2F30023B36070BDB2
:104A80002DE9F0418846164B00250227182686B0EE
:104A90000360476085603246294604460C3001F0C9
:104AA000E2FD2A462946D8F80400FEF7A5FB90B19E
:104AB00032462946684601F0D6FD2A466946284610
:104AC000ADF80060FEF724FB20B969462046FFF7E9
:104AD000B8FF00E06760204606B0BDE8F08100BF87
:104AE000DC9C0A08024B04225A60024A1A60704792
:104AF0008C050020A89C0A0800231A464068FEF78F
:104B000063BB002202214068FEF76EBB0022114603
:104B10004068FEF761BB002211464068FEF76CBB9F
:104B200000231A4619464068FEF76EBB00231A465A
:104B300019464068FEF770BB002281F00101406811
:104B4000FEF772BB00224068FEF77EBB00221146D2
:104B50004068FEF781BB002211464068FEF76CBB3F
:104B600070B516468EB0044608A8FFF7C5FC1122A2
:104B7000002103A801F077FD304602F0CBFA0025B2
:104B80000A4B009581B25B6803AA3046FEF7B0FA83
:104B900020B129462046FFF7CFFC03E003A92046B9
:104BA000FFF7B8FC20460EB070BD00BF8C0500209A
:104BB000034B044A04280CBF10461846704700BF38
:104BC000940500208C050020024B034A1A60002245
:104BD0005A60704794050020009D0A0870B51A4E6F
:104BE0000446316811F001050FD13046FBF75FFA3A
:104BF00058B129461548FEF7BDFB3046FBF75CFA75
:104C0000134A1449114800F0BDF81048FEF7D7FBCD
:104C100028B1A4F10D03022B01D8002070BD00F0D3
:104C20008BF8FFF757FE08B1012CF6D9FFF7D4FD3A
:104C3000FFF7CFFD18B1A4F11203012BEDD9172C0A
:104C40008CBF0020012070BD000100200401002065
:104C5000FC000020C7020A08172838B504460D4694
:104C60000AD8FF2908D0FFF7B9FF28B12946204606
:104C7000BDE83840FEF7B2B838BD38B504460D4639
:104C8000FEF7B4F8FF2810D0062804D84D2323FAE5
:104C900000F0C30709D42046FFF7A0FF28B129463A
:104CA0002046BDE83840FEF7A9B838BD10B5044627
:104CB000FEF79CF80438C0B2012808D92046FFF757
:104CC0008DFF20B12046BDE81040FEF79FB80020C0
:104CD00010BD000013B5084C00231A461946009376
:104CE0002046FFF73FFC2046044A054902B0BDE8D4
:104CF000104000F047B800BFA0050020FC000020D5
:104D0000B7440A0870B5044614252A46094E002106
:104D100001F0A9FC258020253146A56025612846A3
:104D200000F040F831466060284600F03BF8E06053
:104D3000204670BD2C9D0A0830B50E4D87B02968FD
:104D400011F0010413D12846FBF7B1F978B101A89D
:104D5000FFF7D8FF01AA21460748FFF7A9FD28461B
:104D6000FBF7AAF9054A0649034800F00BF8024888
:104D700007B030BDB8050020BC050020FC000020B5
:104D800059480A080B460146184601F057BB000077
:104D9000024B1868BFF35F8F704700BFD00500203B
:104DA000FBF781B900F000B810B5002814BF044625
:104DB00001242046FEF790FA20B9FFF7E9FF08B179
:104DC0008047F6E710BD0000184B1A68D1075CBF9A
:104DD00001221A60164B1A68D2075CBF01221A60C2
:104DE000144B1A68D0075CBF01221A60124B1A6874
:104DF000D1075CBF01221A60104B1A68D2075CBF52
:104E000001221A600E4B1A68D0075CBF01221A609B
:104E10000C4B1A68D1075CBF01221A600A4B1A6852
:104E2000D2075CBF01221A60704700BFF005002066
:104E3000EC050020E8050020E4050020E005002046
:104E4000DC050020D8050020D4050020244B1A687A
:104E5000D0075CBF01221A60224B1A68D1075CBFE1
:104E600001221A60204B1A68D2075CBF01221A6027
:104E70001E4B1A68D0075CBF01221A601C4B1A68CF
:104E8000D1075CBF01221A601A4B1A68D2075CBFB7
:104E900001221A60184B1A68D0075CBF01221A6001
:104EA000164B1A68D1075CBF01221A60144B1A68AE
:104EB000D2075CBF01221A60124B1A68D0075CBF90
:104EC00001221A60104B1A68D1075CBF01221A60D8
:104ED0000E4B1A68D2075CBF01221A60704700BFF0
:104EE000200600201C0600201806002014060020C2
:104EF000100600200C0600200806002004060020F2
:104F000000060020FC050020F8050020F405002024
:104F1000244B1A68D0075CBF01221A60224B1A6822
:104F2000D1075CBF01221A60204B1A68D2075CBF10
:104F300001221A601E4B1A68D0075CBF01221A605A
:104F40001C4B1A68D1075CBF01221A601A4B1A6801
:104F5000D2075CBF01221A60184B1A68D0075CBFE9
:104F600001221A60164B1A68D1075CBF01221A6031
:104F7000144B1A68D2075CBF01221A60124B1A68E0
:104F8000D0075CBF01221A60104B1A68D1075CBFC2
:104F900001221A600E4B1A68D2075CBF01221A6008
:104FA000704700BF500600204C0600204806002035
:104FB00044060020400600203C0600203806002061
:104FC00034060020300600202C0600202806002091
:104FD00024060020184B1A68D1075CBF01221A6012
:104FE000164B1A68D2075CBF01221A60144B1A686C
:104FF000D0075CBF01221A60124B1A68D1075CBF50
:1050000001221A60104B1A68D2075CBF01221A6095
:105010000E4B1A68D0075CBF01221A600C4B1A684D
:10502000D1075CBF01221A600A4B1A68D2075CBF25
:1050300001221A60704700BF700600206C06002035
:105040006806002064060020600600205C06002040
:10505000580600205406002081F0004102E000BF05
:1050600083F0004330B54FEA41044FEA430594EA28
:10507000050F08BF90EA020F1FBF54EA000C55EA63
:10508000020C7FEA645C7FEA655C00F0E2804FEA34
:105090005454D4EB5555B8BF6D420CDD2C4480EA16
:1050A000020281EA030382EA000083EA010180EA46
:1050B000020281EA0303362D88BF30BD11F0004F94
:1050C0004FEA01314FF4801C4CEA113102D04042CA
:1050D00061EB410113F0004F4FEA03334CEA133305
:1050E00002D0524263EB430394EA050F00F0A7801D
:1050F000A4F10104D5F1200E0DDB02FA0EFC22FA18
:1051000005F2801841F1000103FA0EF2801843FA0B
:1051100005F359410EE0A5F120050EF1200E012AFC
:1051200003FA0EFC28BF4CF0020C43FA05F3C0183A
:1051300051EBE37101F0004507D54FF0000EDCF1B3
:10514000000C7EEB00006EEB0101B1F5801F1BD35C
:10515000B1F5001F0CD349085FEA30004FEA3C0C60
:1051600004F101044FEA445212F5800F80F09A8056
:10517000BCF1004F08BF5FEA500C50F1000041EB5A
:10518000045141EA050130BD5FEA4C0C404141EB5E
:10519000010111F4801FA4F10104E9D191F0000F85
:1051A00004BF01460020B1FA81F308BF2033A3F108
:1051B0000B03B3F120020CDA0C3208DD02F1140CFF
:1051C000C2F10C0201FA0CF021FA02F10CE002F13A
:1051D0001402D8BFC2F1200C01FA02F120FA0CFC33
:1051E000DCBF41EA0C019040E41AA2BF01EB04517C
:1051F000294330BD6FEA04041F3C1CDA0C340EDC7A
:1052000004F11404C4F1200220FA04F001FA02F3BC
:1052100040EA030021FA04F345EA030130BDC4F17A
:105220000C04C4F1200220FA02F001FA04F340EA6F
:105230000300294630BD21FA04F0294630BD94F020
:10524000000F83F4801306BF81F480110134013D07
:105250004EE77FEA645C18BF7FEA655C29D094EA78
:10526000050F08BF90EA020F05D054EA000C04BFF6
:105270001946104630BD91EA030F1EBF00210020E1
:1052800030BD5FEA545C05D14000494128BF41F080
:10529000004130BD14F580043CBF01F5801130BDE4
:1052A00001F0004545F0FE4141F470014FF000006F
:1052B00030BD7FEA645C1ABF194610467FEA655C20
:1052C0001CBF0B46024650EA013406BF52EA0335C2
:1052D00091EA030F41F4002130BD00BF90F0000FB0
:1052E00004BF0021704730B54FF4806404F13204EC
:1052F0004FF000054FF0000150E700BF90F0000FA5
:1053000004BF0021704730B54FF4806404F13204CB
:1053100010F0004548BF40424FF000013EE700BF9B
:1053200042004FEAE2014FEA31014FEA02701FBF2B
:1053300012F07F4393F07F4F81F06051704792F0FD
:10534000000F14BF93F07F4F704730B54FF4607477
:1053500001F0004521F0004120E700BF50EA0102C2
:1053600008BF704730B54FF000050AE050EA01026F
:1053700008BF704730B511F0004502D5404261EBDF
:1053800041014FF4806404F132045FEA915C3FF420
:10539000DCAE4FF003025FEADC0C18BF03325FEAB9
:1053A000DC0C18BF033202EBDC02C2F1200300FA6E
:1053B00003FC20FA02F001FA03FE40EA0E0021FA93
:1053C00002F11444C1E600BF70B54FF0FF0C4CF47D
:1053D000E06C1CEA11541DBF1CEA135594EA0C0F33
:1053E00095EA0C0F00F0DEF82C4481EA030621EA6E
:1053F0004C5123EA4C5350EA013518BF52EA0335A9
:1054000041F4801143F4801338D0A0FB02CE4FF05A
:105410000005E1FB02E506F00042E0FB03E54FF08A
:105420000006E1FB03569CF0000F18BF4EF0010E82
:10543000A4F1FF04B6F5007F64F5407404D25FEA7E
:105440004E0E6D4146EB060642EAC62141EA555131
:105450004FEAC52040EA5E504FEACE2EB4F1FD0C73
:1054600088BFBCF5E06F1ED8BEF1004F08BF5FEAF1
:10547000500E50F1000041EB045170BD06F00046A3
:1054800046EA010140EA020081EA0301B4EB5C0450
:10549000C2BFD4EB0C0541EA045170BD41F4801148
:1054A0004FF0000E013C00F3AB8014F1360FDEBF6D
:1054B000002001F0004170BDC4F10004203C35DA49
:1054C0000C341BDC04F11404C4F1200500FA05F3CC
:1054D00020FA04F001FA05F240EA020001F000426D
:1054E00021F0004110EBD37021FA04F642EB0601E3
:1054F0005EEA430E08BF20EAD37070BDC4F10C040D
:10550000C4F1200500FA04F320FA05F001FA04F2D0
:1055100040EA020001F0004110EBD37041F10001BC
:105520005EEA430E08BF20EAD37070BDC4F12005C7
:1055300000FA05F24EEA020E20FA04F301FA05F22F
:1055400043EA020321FA04F001F0004121FA04F2D7
:1055500020EA020000EBD3705EEA430E08BF20EAA7
:10556000D37070BD94F0000F0FD101F000464000E1
:1055700041EB010111F4801F08BF013CF7D041EA63
:10558000060195F0000F18BF704703F00046520067
:1055900043EB030313F4801F08BF013DF7D043EA38
:1055A0000603704794EA0C0F0CEA135518BF95EAEE
:1055B0000C0F0CD050EA410618BF52EA4306D1D175
:1055C00081EA030101F000414FF0000070BD50EA94
:1055D000410606BF1046194652EA430619D094EA1E
:1055E0000C0F02D150EA013613D195EA0C0F05D108
:1055F00052EA03361CBF104619460AD181EA03015C
:1056000001F0004141F0FE4141F470014FF0000013
:1056100070BD41F0FE4141F4780170BD70B54FF0AE
:10562000FF0C4CF4E06C1CEA11541DBF1CEA13552E
:1056300094EA0C0F95EA0C0F00F0A7F8A4EB050410
:1056400081EA030E52EA03354FEA013100F0888007
:105650004FEA03334FF0805545EA131343EA1263D0
:105660004FEA022245EA111545EA10654FEA002685
:105670000EF000419D4208BF964244F1FD0404F53E
:10568000407402D25B084FEA3202B61A65EB03059A
:105690005B084FEA32024FF480104FF4002CB6EB57
:1056A000020E75EB030E22BFB61A754640EA0C00D7
:1056B0005B084FEA3202B6EB020E75EB030E22BF17
:1056C000B61A754640EA5C005B084FEA3202B6EB58
:1056D000020E75EB030E22BFB61A754640EA9C0017
:1056E0005B084FEA3202B6EB020E75EB030E22BFE7
:1056F000B61A754640EADC0055EA060E18D04FEAA5
:10570000051545EA16754FEA06164FEAC30343EA44
:1057100052734FEAC2025FEA1C1CC0D111F4801F11
:105720000BD141EA00014FF000004FF0004CB6E70A
:1057300011F4801F04BF01430020B4F1FD0C88BFA9
:10574000BCF5E06F3FF6AFAEB5EB030C04BFB6EBB4
:10575000020C5FEA500C50F1000041EB045170BDA7
:105760000EF0004E4EEA113114EB5C04C2BFD4EBD4
:105770000C0541EA045170BD41F480114FF0000E58
:10578000013C90E645EA060E8DE60CEA135594EAD4
:105790000C0F08BF95EA0C0F3FF43BAF94EA0C0FD7
:1057A0000AD150EA01347FF434AF95EA0C0F7FF44C
:1057B00025AF104619462CE795EA0C0F06D152EAA0
:1057C00003353FF4FDAE1046194622E750EA410684
:1057D00018BF52EA43067FF4C5AE50EA41047FF495
:1057E0000DAF52EA43057FF4EBAE12E74FF0FF3CFA
:1057F00006E000BF4FF0010C02E000BF4FF0010CCB
:105800004DF804CD4FEA410C7FEA6C5C4FEA430C43
:1058100018BF7FEA6C5C1BD001B050EA410C0CBF92
:1058200052EA430C91EA030F02BF90EA020F0020F4
:10583000704710F1000F91EA030F58BF994208BF5B
:1058400090422CBFD8176FEAE37040F00100704718
:105850004FEA410C7FEA6C5C02D150EA013C07D16F
:105860004FEA430C7FEA6C5CD6D152EA033CD3D0BA
:105870005DF8040B704700BF8446104662468C46B4
:105880001946634600E000BF01B5FFF7B7FF0028E7
:1058900048BF10F1000F01BD4DF808EDFFF7F4FF10
:1058A0000CBF012000205DF808FB00BF4DF808ED9B
:1058B000FFF7EAFF34BF012000205DF808FB00BFBE
:1058C0004DF808EDFFF7E0FF94BF012000205DF8E0
:1058D00008FB00BF4DF808EDFFF7CEFF94BF012095
:1058E00000205DF808FB00BF4DF808EDFFF7C4FF8E
:1058F00034BF012000205DF808FB00BF4FEA410CD7
:105900007FEA6C5C02D150EA013C0AD14FEA430CB9
:105910007FEA6C5C02D152EA033C02D14FF00000F6
:1059200070474FF0010070474FEA410212F5001234
:1059300015D211D56FF47873B3EB625212D94FEAD6
:10594000C12343F0004343EA505311F0004F23FAC0
:1059500002F018BF404270474FF00000704750EA15
:10596000013005D111F0004008BF6FF000407047D2
:105970004FF00000704700BF4A0011D212F500122C
:1059800011D20DD56FF47873B3EB62520ED44FEA97
:10599000C12343F0004343EA505323FA02F0704717
:1059A0004FF00000704750EA013002D14FF0FF3055
:1059B00070474FF0000070474FEA4102B2F1E043F8
:1059C00024BFB3F5001CDCF1FE5C0DD901F0004CE6
:1059D0004FEAC0024CEA5070B2F1004F40EB830036
:1059E00008BF20F00100704711F0804F21D113F162
:1059F0003872BCBF01F00040704741F480114FEA9B
:105A00005252C2F11802C2F1200C10FA0CF320FA23
:105A100002F018BF40F001004FEAC1234FEAD32340
:105A200003FA0CFC40EA0C0023FA02F34FEA4303AA
:105A3000CCE77FEA625307D150EA01331EBF4FF033
:105A4000FE4040F44000704701F0004040F0FE404E
:105A500040F40000704700BF80F0004002E000BF4B
:105A600081F0004142001FBF5FEA410392EA030F49
:105A70007FEA226C7FEA236C6AD04FEA1262D2EB93
:105A80001363C1BFD218414048404140B8BF5B4298
:105A9000192B88BF704710F0004F40F4000020F031
:105AA0007F4018BF404211F0004F41F4000121F047
:105AB0007F4118BF494292EA030F3FD0A2F1010291
:105AC00041FA03FC10EB0C00C3F1200301FA03F1CF
:105AD00000F0004302D5494260EB4000B0F5000FF2
