:02000004080AE8
:1000000000000A08F4AA0A0800000600060005011C
:080010000402E80500000000F5
:04001800A09A0A0898
:1000200009480A4908B5884205D0094A824202D0E7
:10003000121A06F00DFE0748074A0021121A06F0B0
:1000400012FE064808BD00BF00000020CCA90A0827
:100050000001002000010020E4060020E40600204A
:1000600070B504F0D3FC074B074C1E46E41AA408F5
:100070000025A54204D056F8253098470135F8E709
:1000800070BD00BF84A90A08C0A90A0801F066BAB9
:1000900008B501F09FF8BDE8084004F079BC03F012
:1000A0003FBC03F03DBC03F043BC03F041BC00780F
:1000B000B0FA80F040097047012303707047106860
:1000C000704708B50021042005F0DBF84FF4FA7002
:1000D00004F00CFC0121042005F0D3F8012008BD38
:1000E0001FB50121022005F0CCF84FF4FA7004F09E
:1000F000FDFB0B49684604F034F86846FFF7E1FF62
:10010000684603F0E7FF4FF4FA7004F0EFFB0021BC
:10011000022005F0B6F8012005B05DF804FB00BF31
:10012000539F0A0800B58BB0044901A804F0ACFF46
:1001300001A804F087FF0BB05DF804FBD404002095
:1001400008B503F07FFC08BD38B50D49054604F03D
:1001500025F9044630B10B4802F001F90A4B0120A1
:10016000187038BD0949284604F018F930B105481F
:1001700002F0F5F8044B20461C7038BD38BD00BFB6
:10018000C49A0A08D00200200C000020C99A0A086C
:1001900070B58AB004F03DF90546FE238DF80430B1
:1001A000FF238DF80730184B01201C788DF80500CF
:1001B0008DF806502CBB04F013FE03680422DB68A4
:1001C0000DEB0201984704F055FD1049064606A8BC
:1001D00003F0C7FF0A22294602A804F04AF802A940
:1001E00006A804F0BDF80A4904F0C6F801683046D4
:1001F00004F04DF902A803F06DFF06A803F06AFFB2
:1002000020460AB070BD00BF0C000020CF9A0A083B
:10021000F29A0A0870B58AB004F0FBF8FE238DF854
:10022000043002238DF80530FF238DF80730184B7A
:1002300005461C788DF8060034BB04F0D1FD036838
:100240000422DB680DEB0201984704F013FD11490D
:10025000064606A803F085FF0A22294602A804F0F4
:1002600008F802A906A804F07BF80B4904F084F80A
:100270000168304604F00BF902A803F02BFF06A832
:1002800003F028FF204600E001200AB070BD00BF47
:100290000C000020F99A0A08F29A0A0810B50446E0
:1002A000024B036002F0AEFB204610BDBC9A0A0868
:1002B00010B50446FFF7F2FF20464FF40C7105F02D
:1002C00073F8204610BD10B50446806808B103F0ED
:1002D00031F9204610BD00001FB5002301930393A0
:1002E0000C23ADF80430044B0422029301AB03F05D
:1002F000DFFA05B05DF804FBBF000A0838B501213C
:100300000B2004F0ADFF01210B2004F0BAFF204DBB
:1003100001210C2004F0A4FF01210C2004F0B1FF06
:10032000296811F001040FD12846FFF7C0FE58B12B
:100330002146184803F04AFB2846FFF7BDFE164A3F
:100340001649144805F022F80021124803F04DFB2D
:10035000322004F0CBFA124801F008FC4FF4FA7096
:1003600004F0C4FA0F4801F001FC70210C4801F0C0
:1003700038FC70210B4801F034FC04F07BFC0A4986
:1003800004F085F804F076FC04F075F8012038BD1F
:10039000040100200801002000010020C7020A0813
:1003A000B0030020BE0300201C9B0A0808B503F020
:1003B00099F8034B1860BDE8084003F089BA00BF04
:1003C000E40400207D227B2102F0E3BD37B58908DB
:1003D00000249C4218D08C4200F1040014D010F884
:1003E000045C8DF8075010F8035C8DF8065010F887
:1003F000025C8DF8055010F8015C8DF80450019DE9
:1004000042F824500134E4E7012003B030BD00007D
:100410002DE9F04F80469FB00E4606A8BA4903F07A
:10042000A0FE474608F102040025C8EB07039E42E0
:1004300040F3EA813B780F2B08D1C8EB04039E42BE
:1004400004DC04F017FCB14904F021F817F8013B73
:10045000A3F10E02012A00F2D581C8EB04029642F4
:1004600040F3D0810F2B0CBF0125022504F002FCC4
:10047000A74981461AA803F074FE0A22294616A845
:1004800003F0E4FE16A91AA803F06AFFA14903F0DD
:1004900073FF0168484603F0E7FF16A803F01AFE51
:1004A0001AA803F017FE98490AA803F05AFE3B78F1
:1004B000013B052B00F2A381DFE813F006001500D5
:1004C0008600AB00FE005201042E08DD032303AAC0
:1004D0000C212046FFF77AFFDFF86C924BE104F025
:1004E000C9FB8D490DE10C2E6ADD0C2105F1FF3AA7
:1004F00001FB0AFB894B204603EB0B094A46032309
:10050000FFF764FF04F0B6FB854903F0ADFF04F08C
:10051000B1FB824B042253F80B1004F09BF804F05B
:10052000A9FB804903F0A0FF04F0A4FB0422D9F842
:10053000041004F08FF804F09DFB7A4903F094FF57
:1005400004F098FB0422D9F8081004F0A0F8734BCB
:10055000D9F8041053F80B0005F088FDD9F80810FD
:1005600005F084FD4FF07E5106F026F8DFF8DCB18F
:1005700028B15BF82A3001334BF82A3001E04BF800
:100580002A00694A122352F8041D13F1FF33516007
:10059000F9D2624BDFF8B8A1D3F80890596818680F
:1005A00005F064FD494605F061FDCAF80000DBF87E
:1005B000000005F00FFECAF80890CAF804001EE11A
:1005C00004F058FB59499CE0042E1EDDA2786178A6
:1005D000E37820788DF869208DF86A108DF86B002B
:1005E0008DF868301A9BDFF86C91C9F80030C9F8B3
:1005F000043004F03FFB4E4903F036FF04F03AFBB1
:100600006B1E042259F8231075E004F033FB4949AE
:1006100077E0042E4CDD0C2105F1FF3901FB09F9CF
:10062000DFF834B103230BEB090A52462046FFF7EB
:10063000CDFE04F01FFB4049019012A803F091FD8C
:1006400004225BF809100EA803F03AFE0EA912A8C6
:1006500003F086FE334903F08FFE81460422DAF868
:10066000041016A803F02CFE16A9484603F078FEE5
:100670002C4903F081FE81460422DAF808101AA8FA
:1006800003F01EFE1AA9484603F06AFE019B0168AA
:10069000184603F0E9FE1AA803F01CFD16A803F0A3
:1006A00019FD0EA803F016FD12A803F013FDA6E035
:1006B00004F0E0FA214924E0042E1FDDA2786178DD
:1006C000E37820788DF869208DF86A108DF86B003A
:1006D0008DF868301A9BDFF8849005F1FF3A49F8ED
:1006E0002A3004F0C7FA164903F0BEFE04F0C2FA3D
:1006F00059F82A10042203F0ADFF80E004F0BAFAA2
:10070000104903F0B1FE7AE0539F0A0826A60A08B2
:10071000439B0A08A5A10A08569B0A086803002003
:100720007A9B0A08559F0A081C040020849B0A082B
:10073000A89B0A08B49B0A08DA9B0A08E29B0A08ED
:10074000049C0A080D9C0A0888020020140100205D
:10075000D0030020B0020020800300209803002076
:10076000042E7FF7BCAE032303AA0C212046FFF71B
:100770002DFEDFF8AC90002834D104F07BFA264936
:10078000834612A803F0EDFC6A1E0C2353430EA807
:1007900059F80310042209EB030A03F091FD0EA996
:1007A00012A803F0DDFD1D4903F0E6FD8146042299
:1007B000DAF8041016A803F083FD16A9484603F0E2
:1007C000CFFD164903F0D8FD81460422DAF808105F
:1007D0001AA803F075FD1AA9484603F0C1FD016887
:1007E000584656E76A1E0C235343039909EB03024C
:1007F00049F80310049B5360059B9360BDE70AA86A
:1008000003F068FC013410E606A803F063FC2846F8
:100810001FB0BDE8F08F00BF4C9B0A08559F0A0827
:10082000B80200202DE9F041204C02F05BFE274683
:100830000A2504F0D5FA03681B69984788B304F0C9
:10084000CFFA03685B699847C6B204F013FA102226
:10085000314603F026FE04F00DFA154903F004FEBC
:100860002368B3F5AF7F04DA124AD654013323600C
:1008700006E00023236004F0FDF90F4903F0F4FDC6
:100880000A2E0ED139680B48FFF7C2FD00238046BF
:100890001946084A99540133B3F5AF7FFAD10023C2
:1008A0003B60013DC5D14046BDE8F081CC0300204E
:1008B000559F0A081C010020309C0A0870B5134D92
:1008C0000021286805F06EFE60B10021686805F01F
:1008D00069FE38B10021A86805F064FEB0FA80F422
:1008E000640900E001240021E868084E05F05AFE82
:1008F00048B10021306905F055FE20B10021706932
:1009000005F050FE00B90234204670BD6803002097
:1009100030B504468BB0FE238DF80430FF238DF8EC
:100920000730184B01201B788DF805008DF8064024
:100930002BB304F055FA03680422DB680DEB0201C7
:10094000984704F097F91049054606A803F009FCFA
:100950000A22214602A803F079FC02A906A803F0A6
:10096000FFFC0A4903F008FD0168284603F08FFDEB
:1009700002A803F0AFFB06A803F0ACFB00200BB00D
:1009800030BD00BF0C000020CF9A0A08F29A0A0876
:1009900030B5FE238BB08DF8043002238DF805307E
:1009A000FF238DF80730184B04461B788DF806009E
:1009B00033B304F015FA03680422DB680DEB02017F
:1009C000984704F057F91149054606A803F0C9FBFA
:1009D0000A22214602A803F039FC02A906A803F066
:1009E000BFFC0B4903F0C8FC0168284603F04FFD2B
:1009F00002A803F06FFB06A803F06CFB002000E0E8
:100A000001200BB030BD00BF0C000020CF9A0A08B7
:100A1000F29A0A08012910B5044601D1064902E0FC
:100A2000022903D1054903F0DBFB02E0044903F08E
:100A300098FB204610BD00BF28030020380300208B
:100A40004D9C0A08B0B50C4601F1080386B023F0AE
:100A500007036D4600AFADEB030D0A46014668463D
:100A600006F0F6F800230DF804300A22391D684616
:100A700007F042FD0446244907F1080003F071FB2A
:100A8000214607F1080003F05AFC7868012C00F1B8
:100A90000100786003D0022C2DD1062400E005244B
:100AA0000A22391D07F028FD184B18800138062846
:100AB0001CD8DFE800F0040B0D0F151719000121F9
:100AC000204604F0DEFB124AB96811E0114A0EE03C
:100AD000114A0CE00021204604F0D3FB0F4A06E047
:100AE0000F4A04E00F4A02E00F4A00E00F4A1049A3
:100AF000104801F0C6FD07F1080003F0EBFAAD461F
:100B00001837BD46B0BD00BF509C0A0884020020C3
:100B1000699C0A08859C0A08E19C0A08059D0A0848
:100B2000249D0A08849D0A08B09D0A08E69D0A08CB
:100B3000C99C0A08D002002008B5174801F03DFC06
:100B400048BB04F097F8154903F08EFC144912488D
:100B500001F018FD80B104F08DF8124903F097FC04
:100B6000114B1B781BB111490B4801F0FDFE1049D8
:100B7000094801F0F9FEE0E704F07CF80D4903F0C4
:100B800086FC04F077F80C4903F081FC41F28830D0
:100B900003F0ACFED1E708BDD0020020FE9D0A089C
:100BA000219E0A08319E0A080C000020419E0A0876
:100BB000569E0A08699E0A08819E0A0873B50E4669
:100BC0000446154601F080FF01AB0146324620463F
:100BD00002F0B4F820B12A460199204601F0F2FF54
:100BE00002B070BD10B504464FF4007200F1300140
:100BF00002F0DAF8014B2046236010BDBC9A0A08C7
:100C000070B504460E46154602F0B8F93146204646
:100C1000012202F027F920463A2102F0D7F82946AE
:100C20002046BDE8704002F0CDB970B504460E46CE
:100C3000154602F0A3F901223146204602F012F9CE
:100C400020463A2102F0C2F829682046BDE87040EB
:100C5000012202F007B9000070B504460E461546A1
:100C600002F08CF901223146204602F0FBF82046C2
:100C70003A2102F0ABF82A462046BDE8704001490F
:100C800002F0E3B89BA50A082DE9F0470F46ADF541
:100C9000107D6C4916461D4605F0F0FA04F044FE3E
:100CA0000022694B04F0E2FC05F042F94FF47A743B
:100CB00090FBF4FA6349384605F0E0FA04F034FE9C
:100CC0000022614B04F0D2FC05F032F95D4990FB43
:100CD000F4F9304605F0D2FA04F026FE00225A4B11
:100CE00004F0C4FC05F024F9564990FBF4F82846BA
:100CF00005F0C4FA04F018FE0022534B04F0B6FCD1
:100D000005F016F94F4990FBF4F7989805F0B6FAFC
:100D100004F00AFE00224C4B04F0A8FC05F008F990
:100D2000484990FBF4F6999805F0A8FA04F0FCFD08
:100D30000022454B04F09AFC05F0FAF8414990FB7B
:100D4000F4F59A9805F09AFA04F0EEFD3E4B002275
:100D500004F08CFC05F0ECF890FBF4F404A8FFF729
:100D600041FF04A8FFF72EFB504605F033FA374940
:100D7000024604A8FFF744FF484605F02BFA344921
:100D8000024604A8FFF73CFF404605F023FA31492C
:100D9000024604A8FFF734FF384605F01BFA2E4937
:100DA000024604A8FFF72CFF304605F013FA2B4942
:100DB000024604A8FFF724FF284605F00BFA28494D
:100DC000024604A8FFF71CFF204605F003FA254958
:100DD000024604A8FFF714FF9D99684603F000FA45
:100DE0006A46214904A8FFF720FF684603F072F91C
:100DF0009C9A1E4904A8FFF72FFF04A802F0BEF832
:100E000001221B4904A802F02DF83A2104A801F0A0
:100E1000DDFF9B9A174904A802F017F804A801F017
:100E2000E3FF0324059A1449144801F02AFC08B989
:100E3000013CF7D104A8FFF731FA0DF5107DBDE8AC
:100E4000F08700BF00007A440000E03F939E0A084C
:100E5000969E0A08999E0A089C9E0A089F9E0A0868
:100E6000A29E0A08A59E0A08A79E0A08AE9E0A0826
:100E70000B9F0A08B79E0A08BB9E0A08D0020020F2
:100E80002DE9F04F1C4685B0139B80460193149BBF
:100E900089460293159B2E49204692460E9D0F9E31
:100EA000109FDDF848B0039305F0A4FB002848D15B
:100EB0002749284605F09EFB002842D124493046A8
:100EC00005F098FB00283CD1204604F02DFD1EA320
:100ED000D3E9002304F0EEFF00B3284604F024FD1C
:100EE00019A3D3E9002304F0E5FFB8B1304604F0BC
:100EF0001BFD15A3D3E9002304F0DCFF70B14146CC
:100F0000384605F077FB48B14946384605F072FB94
:100F100020B15146384605F06DFB90B9039B52460F
:100F20001393029B49461293019B4046119323461B
:100F3000CDF840B00F960E9505B0BDE8F04FFFF725
:100F4000A3BE05B0BDE8F08F9A9999999999B93FD8
:100F50000000484270B504460E46154602F00EF8F1
:100F600001223146204601F07DFF20463A2101F062
:100F70002DFF2A462046BDE87040014901F065BFBB
:100F8000D19E0A082DE9F043834B00240128ADF5DA
:100F9000157D1C806AD1814800F077FF7F4E0028C4
:100FA00000F0EA80304601F0CFF8002800F0E4803D
:100FB00003F060FE7A4903F057FA7A49684603F075
:100FC000D0F8B146DFF80882774F3378E5B2AB420C
:100FD0002CD94D4403F04EFE697801340F2994BF9B
:100FE0004146394603F040FA03F044FE1022697886
:100FF00003F057FA697808A80F2994BF414639468B
:1010000003F0AFF808A9684603F088F908A803F0D0
:1010100061F81022697808A803F006F908A9684663
:1010200003F07CF908A803F055F8CEE708A8FFF70D
:10103000D9FD0122694604A803F0E4F904A95B483C
:1010400003F0D9F804A803F045F808A8FFF7BAF9A7
:10105000564904A803F0C4F804AA554908A8FFF7A4
:10106000E4FD04A803F036F801226BE0022840F00A
:101070008580504800F009FF4E4E00287CD0304655
:1010800001F062F8002877D003F0F4FD4A4903F03C
:10109000EBF94449684603F064F82546B146DFF8A9
:1010A0003081414F3378ECB2A3422CD94C4403F049
:1010B000E1FD617801350F2994BF4146394603F0BF
:1010C000D3F903F0D7FD1022617803F0EAF96178D3
:1010D00008A80F2994BF4146394603F042F808A9F1
:1010E000684603F01BF908A802F0F4FF10226178AB
:1010F00008A803F099F808A9684603F00FF908A8B2
:1011000002F0E8FFCEE70122694608A803F07AF969
:1011100008A92A4803F06FF808A802F0DBFF08A826
:10112000FFF760FD08A8FFF74DF9244904A803F074
:1011300057F804AA1E4908A8FFF777FD04A802F093
:10114000C9FF02221E4908A8FFF786FD03F0BDFB78
:101150001C49024608A8FFF7FDFE08A801F044FE5E
:10116000099A1949194801F08CFA08A8FFF796F86E
:10117000684602F0AFFF01E0002009E003F07AFDCD
:10118000084903F084F94FF4FA7003F0AFFB012033
:101190000DF5157DBDE8F08384020020B00300202A
:1011A000D89E0A08539F0A08559F0A082803002062
:1011B000F79E0A08BE030020239F0A083803002078
:1011C000FE9E0A08069F0A08109F0A08D002002007
:1011D000D59E0A082DE9F04FB14899B001F0EDF81D
:1011E00018B1AF4801F094FA01E0FFF7A5FCFFF752
:1011F000DDF802F07DFB08B902F072FBFFF712FB8D
:10120000A84C0646FFF7D2F823680A2B43DD0023DB
:10121000236003F02FFDA44D0746A44910A802F057
:10122000A0FF0A2229680CA803F036F80CA910A820
:1012300003F096F89E4903F09FF880460A226968F9
:1012400014A803F029F814A9404603F089F80168AE
:10125000384603F01CF914A802F03CFF0CA802F079
:1012600039FF10A802F036FF03F004FD914D074648
:101270002969E86804F0FAFE696904F0F7FE0622BD
:10128000014614A803F01CF81499384603F0FFF83F
:1012900014A802F01FFF23680133236002F022F933
:1012A000854C864B227853F82230984216D9701E0E
:1012B000012813D8FFF77AF8FFF700FB25786E1C9A
:1012C000864277D0032875D07B4B1C7802F00AF950
:1012D0007A4B00F5EA40303043F82400FFF766F817
:1012E0000120FFF74FFE052003F000FB0220FFF76F
:1012F00049FE052003F0FAFA714B6B4C1A681E4642
:101300000A2A07DD236803F13C0503F0DEFA854273
:1013100008D316E0236803F1460503F0D6FA8542A8
:10132000F0D80EE0634D6968286804F09FFEA96854
:1013300004F09CFE4FF07E5105F03EF9002840F08D
:101340008C8073680A2B06DD646803F0BEFA3C34B7
:10135000844208D316E0636803F1460503F0B5FA4A
:101360008542F1D80EE0534C2169E06804F07EFE1E
:10137000616904F07BFE4FF07E5105F01DF90028F5
:1013800040F0AE80642003F0B1FAFFF797FA20F046
:101390000200012840F0C680FFF790FA02380128C9
:1013A00000F2C580444A137883F00103137019B02A
:1013B000BDE8F08F14AC31462046FFF72BFB4149C6
:1013C000204602F0EBFF0746204602F083FE002F86
:1013D0007FF47AAF0C236B433B49CA18CF58D2F83D
:1013E0000480344992680892CA18D2F80490D2F85E
:1013F00008A0364AC95802EB030BD0580991DBF814
:10140000041004F033FEDBF8081004F02FFE304B1C
:10141000304A53F82530834652F825500B9303F099
:1014200054FA31460A902046FFF7F4FA0A9A0B9BC9
:10143000059203933846079406960495CDF808B0B4
:10144000CDF804A0CDF80090099B089A4146FFF71B
:1014500017FD204602F03EFE36E703F00BFC1E4966
:10146000054614A802F07DFE0A22012110A802F010
:10147000EDFE10A914A802F073FF0168284603F0DE
:1014800006F810A802F026FE14A802F023FE0021A0
:10149000052003F0F6FE114A034B1A6051E700BF26
:1014A000D0020020080000207C020020429F0A0891
:1014B000549F0A08680300208602002000000020D4
:1014C000140100204D9C0A0888020020800300209F
:1014D00098030020B0020020579F0A089CFFFF7F5E
:1014E00003F0C8FB1449044614A802F03AFE0A228D
:1014F000022110A802F0AAFE10A914A802F030FFE1
:101500000168204602F0C3FF10A802F0E3FD14A812
:1015100002F0E0FD0021062003F0B3FE074A084B6D
:101520005A602FE70749084802F06DFE34E7054985
:10153000064802F068FE35E7579F0A089CFFFF7FC8
:101540007C020020679F0A0828030020380300203F
:101550000246014803F09CBA654A0A081FB503F029
:1015600089FB4FF4E13103F079FB03F039FC4FF4D0
:10157000165103F02FFC02F0BBF9002870D002F0E6
:10158000B7F90121052003F06BFE0121062003F0CD
:1015900067FE0021102003F063FE0021112003F0FC
:1015A0005FFE0121022003F05BFE0121042003F015
:1015B00057FE0121072003F053FE0021052003F010
:1015C00060FE0021062003F05CFE0021022003F0F3
:1015D00058FE0121042003F054FE0021072003F0EF
:1015E00050FE2149684602F0BCFD6846FEF786FEC3
:1015F000684602F06FFD1D491D48FFF7A9FF1D4910
:101600001D48FFF7A5FF1D491D48FFF7A1FF1D4914
:101610001D48FFF79DFF1D491D48FFF799FF1D4914
:101620001D48FFF795FF1D491D48FFF791FF1D4914
:101630001D48FFF78DFF1D491D48FEF74DFE1D4952
:101640001D48FEF749FE1D491D48FEF745FEFEF701
:10165000ADFE4FF07E5003F045F805B05DF804FB99
:1016600002F036F987E700BF539F0A0849010A08CC
:101670006D9F0A0891010A08789F0A0815020A0856
:10168000859F0A08C3000A08929F0A08E1000A0819
:101690009E9F0A0841010A08AB9F0A0825010A0813
:1016A000B89F0A08FD020A08C39F0A08A003002089
:1016B000CC9F0A0858030020D79F0A08480300203F
:1016C000E09F0A08F7B5324F324E334C334D01F0EC
:1016D000B9FE3946304602F044FD3046304E2246CF
:1016E000294603F053FE3946304602F03AFD2246C1
:1016F0002946304603F04AFE012002F03DF84FF43F
:101700000073284E0193284B40F25B7200932749E7
:101710000F23304600F06AFD3046254E224625490B
:1017200003F034FE2449304602F01BFD22462946D0
:10173000304603F02BFE214E214F0A220B21214877
:1017400000F00CF90A220C211F4800F007F931467D
:10175000384602F006FD38461C4F2246294603F063
:1017600015FE3146384602F0FCFC3846184F22463A
:10177000294603F00BFE3146384602F0F2FC2246C1
:101780002946384603B0BDE8F04003F0FFBD00BF76
:10179000679F0A082803002000010020D5400A089E
:1017A00038030020D0020020C9180A08E69F0A0862
:1017B000480300206F290A08D69E0A08539F0A088A
:1017C00058030020B0030020BE030020A002002028
:1017D000A003002030B504460D4693B0314903A85C
:1017E00002F0BFFC002307A8019301F05FF907A8EE
:1017F00001F059F92A46214607A801F036F907A851
:1018000001F0CCFD284A294907A8FFF7D7F9284A53
:10181000284907A8FFF7D2F9274A284907A8FFF760
:10182000CDF907A801F050F902AB0146244A07A8F8
:1018300001F084FA20B101AA029907A801F0B0F9D9
:10184000FFF73CF830B31F4C2169E06804F00EFC50
:10185000616904F00BFC0546019804F0BBFC0146ED
:10186000284604F0BFFD04F0CFFEFFF751F82169D0
:10187000E06804F0FBFB616904F0F8FB04460198A2
:1018800004F0A8FC0146204604F0ACFD04F0BCFEC8
:10189000FFF77EF807A801F099F803A802F01AFCF8
:1018A00013B030BDF89F0A082C0400209C9E0A0843
:1018B000300400209F9E0A0834040020A29E0A08DB
:1018C000FC9F0A08200400207FB506460C461B48F2
:1018D0001B49154602F097FC1A49304605F0F4F909
:1018E00040B91949154802F08EFC29462046FFF7F9
:1018F00071FF08E01549304605F0E6F918B92946A8
:101900002046FFF79FF802F0E0FF054603F0B2F92A
:101910000F4902F0A9FD03F0ADF904460D4B2A462C
:101920001B6868460C4902F07DFF0099204602F0D2
:10193000AEFD684602F0CEFB04B070BD4803002047
:1019400004A00A08419E0A08839F0A08569E0A08B6
:1019500007A00A08100000206804002038B50446DB
:10196000154608462173012103F07AFC207B0121F2
:1019700003F087FC28466573012103F071FC607B4E
:10198000002103F07EFC204638BD000038B50B4D29
:10199000296811F001040FD12846FEF788FB58B1E1
:1019A0002146074802F012F82846FEF785FB054A53
:1019B0000549034803F0EAFC014838BD0401002052
:1019C0000801002000010020C7020A0810B50446E3
:1019D000FFF7DCFF2146BDE8104002F016B870B5F5
:1019E0000E46154604460021007B03F04AFC06F033
:1019F0007E00FFF7EBFF2846FFF7E8FF207B012181
:101A0000BDE8704003F03DBCF8B50D46144600211A
:101A10000646007B1F4603F034FC05F07E00FFF70E
:101A2000D5FF013C7D1E3C44A54204D015F8010FB2
:101A3000FFF7CCFFF8E7307B0121BDE8F84003F069
:101A400020BC38B50C4605460021007B03F019FC8C
:101A500004F07E0040F08000FFF7B8FF0020FFF7A1
:101A6000B5FF04460121287B03F00BFC204638BD5E
:101A700070B505460E461446FFF7E3FF40EA040240
:101A800031462846BDE87040D2B2FFF7A8BF70B516
:101A900005460E461446FFF7D4FF20EA04023146FD
:101AA0002846BDE87040D2B2FFF799BFF8B50446AA
:101AB00015460F46002202211E46FFF790FF042222
:101AC0000A212046FFF78BFF802214212046FFF7D2
:101AD000CFFF2A463B4612212046FFF795FF0322FF
:101AE00002212046FFF77BFF41F288350A2120467C
:101AF000FFF7A7FF430705D4013DADB2002DF5D197
:101B00000420F8BD002220460221FFF768FF44218F
:101B10002046FFF796FF422130702046FFF791FFE5
:101B200070700120F8BD10B50F2202210446FFF7A6
:101B300056FF322002F0DAFE02212046FFF781FF35
:101B4000C306F9D410BD10B528210446FFF779FF6C
:101B500000F00303032B08D040F00302D2B220466A
:101B6000BDE810402821FFF73ABF10BD10B504466C
:101B7000407B03F09FFB38B9607B012103F081FBC0
:101B8000322002F0B3FE02E02046FFF7CCFF2046F1
:101B900080225421FFF723FF2046A9225621FFF778
:101BA0001EFF204603225821FFF719FF2046E82296
:101BB0005A21FFF714FF204640222A21FFF70FFF8A
:101BC00020463D222221FFF70AFF2046BDE81040B3
:101BD000FFF7B9BF08B54C21FFF733FF00F07000E5
:101BE00008BD38B50D460446FFF7F4FFA8420CD0F7
:101BF000204670224C21FFF74AFF05F07002204674
:101C0000BDE838404C21FFF733BF38BD2DE9F84F10
:101C100080461F469DF828901546002A3FD001F0C7
:101C20007E0141F08006007B002103F02AFB304654
:101C3000FFF7CCFE013DEDB24FF0000B4FF0010A73
:101C40005FFA8BF4A5421FD9B4B9B9F1000F13D0D4
:101C50004B46072B06D80AFA03F004430133E4B2DB
:101C6000DBB2F6E73046FFF7B1FE3B78204023EACF
:101C700004031843387004E03046FFF7A7FE07F866
:101C80000B000BF1010BDBE70020FFF79FFE7855FF
:101C900098F80C000121BDE8F84F03F0F2BABDE856
:101CA000F88F2DE9F04F87B0DDF84C8004468B4665
:101CB0000292119F129D9DF850A0B8F1000F02D022
:101CC00098F8006000E04646002202212046039377
:101CD000FFF785FE7F2208212046FFF780FE06EBF6
:101CE0000A16802214212046FFF7C2FEF6B2039B9B
:101CF0009DF8402012212046FFF786FE32461A2129
:101D00002046FFF76CFE5A4602212046FFF767FE89
:101D1000BBF10C0F04D180221A212046FFF7A8FE48
:101D20004FF4FA6608212046FFF78BFE029B18420B
:101D300004D1C20752D4013EF4D14FE00C21204619
:101D4000FFF77FFE10F0130F064649D1DFB1D5B182
:101D500014212046FFF775FE2B780246834241D3BB
:101D600028703B4612212046CDF800A0FFF74EFF19
:101D700018212046FFF765FE00F00709B8F1000FB3
:101D800001D088F8009033072ED47FB375B39DF847
:101D900054305BB32A78012A04D1B9F1040F27D15A
:101DA000092026E024D9B9F1000F21D1023A05AB70
:101DB000D2B239462046FFF779FE012819D12B7897
:101DC0001F4417F8022C9DF814309A4210D117F8CE
:101DD000012C9DF815309A420AD10AE0042008E04F
:101DE000022006E0052004E0032002E0012000E0DC
:101DF000082007B0BDE8F08F10B586B09DF82C40E4
:101E000005949DF828400494099C0394089C8DE84F
:101E10001C000B4630220C21FFF743FF06B010BD1B
:101E200070B588B006461C468DF81710154612B3DB
:101E30001B78012B1FD980221C21FFF728FE0723C6
:101E40008DF81F300023039302930DF11F030193BC
:101E500000942B4601220DF117013046FFF7CCFF0D
:101E600001280BD12078022807D19DF81F30002BC4
:101E700008BF012002E0052000E0022008B070BD8C
:101E800013460A462621FFF7CBBF07B5022302AA55
:101E900002F8053D01A9FFF7F3FF012802D0C31E98
:101EA0005842584103B05DF804FB2DE9F04F502A29
:101EB0008BB083468A46174600F2F68080221C21AA
:101EC000FFF7E5FD0125022D10D0032D1BD0012DBC
:101ED00040F0EC8093238DF81C30D7B19AF8003095
:101EE0000026042B94BF0023012316E06FF06A0341
:101EF0008DF81C307FB19AF800300326072B94BF71
:101F00000023012309E097238DF81C3006260023C7
:101F100003E03E4600E003263B46A7EBC60464B25E
:101F200024EAE4742BB188228DF81E204FF00308B8
:101F300001E04FF00208E1B211F0070218BF0122E0
:101F400002EBE40212F0FF0206D1002B00F08C80BD
:101F500001F1080464B287E0002B14BF03200420C1
:101F6000824228BF0246002008EB000E0DF1280C2B
:101F70005FFA8EFEE64406EB000CD4449CF801C0E8
:101F800001300EF80CCC5FFA80FE9645ECD3DCE70E
:101F9000012840F08D801F2C00F38C8020244FF00E
:101FA00070039DF81E208DF81D309DF81F3007A985
:101FB00053409DF8202058465A409DF82130534008
:101FC0008DF8223007220DF12303FFF76FFD012862
:101FD00040F0B7804FF000038DF81A3003238DF8DE
:101FE0001B3009230DF1220904930DF1280818F87C
:101FF0000E3D1A2103EB0312D2B258460593FFF7A8
:10200000EEFC00230393059BCDF8048002930DF1B1
:102010001B030093049A4B4607A95846FFF7ECFEB2
:1020200003288046B4D11C215846FFF70AFD8106DB
:102030003ED410F01F0008BF2020A04236DD44B27D
:10204000013800F0070310F0070018BF012000EB73
:10205000E4000AAA01301044012202FA03F310F846
:102060000C2C134300F80C3C1F2C98DCE3100233BB
:10207000DBB204F007085FFA88F2B8F1000F0CBF7A
:10208000984603F101088DF81A2002EB03128DF82F
:102090001D205FFA88F2049207AA02EB0309C3F13C
:1020A00009038DF81B30A0E707204AE0062048E02E
:1020B000404646E09DF81E30882B3FD00221042484
:1020C0000023CA18D2B20DF1280E7244F01812F88B
:1020D0000C2C504401334270DAB29442F1D89DF88E
:1020E0001B30032B26D19DF81A301BBB0DF11E03AC
:1020F000012249465846FFF7D9FC012821D19DF815
:102100001E2099F801309A4216D19DF81F2099F8A7
:1021100002309A4210D199F800305A0702D50135A1
:10212000EDB2D0E605EB450501358AF80B308AF8AB
:10213000005006E0022004E0082002E003210C46E3
:10214000BEE70BB0BDE8F08F08B500220146FFF7EF
:10215000ACFE431E5842584108BD01F073B900005F
:1021600038B50B4B8469054603607CB16368013B5D
:1021700063605BB9236820469B689847A368013B6E
:10218000A3601BB923682046DB689847284638BD02
:10219000B4A00A0810B50446FFF7E2FF20461C2150
:1021A00003F002F9204610BD38B51D46059B0446D4
:1021B00003630023436302B1826419B104F1380060
:1021C00002F021F8049BE0692365069BA4F84C50BB
:1021D000FF2BB8BFFF23A4F8543008B1FDF765FF0B
:1021E000B4F85400FDF75DFFE06138BD2DE9FF4113
:1021F0000446174698460E46002501F0B1FEE561FB
:102200000A4904F1380001F0ACFF0B9B2046029311
:102210000A9BA5640193CDF800803B462A463146CF
:10222000FFF7C2FF204604B0BDE8F081539F0A08C3
:1022300010B50446204601F027FD0028FAD02046BC
:1022400001F0D7FCC0B210BD2DE9F0470546C469C6
:102250008A46FFF7EDFF4FF0010846462070EB6914
:10226000002793F8009009F0F0092846FFF7E0FFF7
:10227000EB69741C985500F07F0303FB0877030695
:10228000A4B2BFB24FEAC81801D52646EDE7631ED7
:10229000B9F1300F8AF8003013D12846D5F81C80E8
:1022A000FFF7C6FF08F804002846D5F81C80FFF7A2
:1022B000BFFFF41C0236B6B2A4B208F8060002232F
:1022C00000E000231B1B9EB2A3199BB29F420BD9B7
:1022D0002846FFF7ADFFB5F85430A34284BFEB6941
:1022E00018550134A4B2EFE7B5F85400A0422CBF52
:1022F00020460020BDE8F087F7B507468E461E460B
:102300001D46002405F07F0302A9ED09214418BFF2
:1023100043F08003013401F8043CE4B2002DF1D114
:10232000C4F10403D11802F803E0A54206DA01A8BB
:102330002B1B285C134458710135F6E7721C2244AC
:10234000384601F0FEFB054601F0CCF80134786216
:102350003444A8B2231A5842584103B0F0BD10B516
:102360000446C369E0221A70C36900225A70C16929
:10237000022201F0E6FB204601F0C2FC01F0B2F8B7
:102380006062A06210BDF0B50D4602339BB26C1ABC
:1023900015F8016BA4B23EB1B0F854709F4203D956
:1023A0005C1CD654A3B2F2E7191B0A44211202F8AE
:1023B000021C02F8014C1846F0BD38B5054601F084
:1023C00060FD002814BF0124002402D1284601F03A
:1023D00097FC204638BD00002DE9F04387B0044645
:1023E000894617461E46DDF83880FFF7E6FF0546AA
:1023F000002840F0BD80A16C39B90346B4F84C20E8
:10240000A16B204601F0CEFD09E0684602F0C6FB54
:102410002B46B4F84C206946204601F08BFC00287E
:1024200000F0A280012323849DF84C30042B15D1A9
:10243000524B18689A880090ADF804209B79E269A5
:1024400000988DF80630C2F80500531DBDF8041041
:102450009DF8062099809A710C2312E06A46484B39
:10246000D4F81CC0186859681B7A03C213706B46F5
:1024700003CBCCF80500CCF8091013788CF80D309C
:102480000E23B8F1000F0AD09DF840209DF83C10B3
:10249000520142F0060242EAC102D2B200E0022238
:1024A0009DF8481009B902F0FD022FB116B942F0AB
:1024B000800201E042F0C002E169581CCA54226D5A
:1024C000E16912120A54E169206D9A1C88540333A1
:1024D000E26949462046FFF756FFB8F1000F0BD0DE
:1024E0000346E26941462046FFF74DFFE269034695
:1024F00011992046FFF747FF67B10346E269394665
:102500002046FFF740FF2EB10346E26931462046E0
:10251000FFF739FF431F9BB2E26910212046FFF706
:10252000EBFE00F0DFFF4FF47A766062A062204697
:1025300001F0AAFB40B900F0D5FFA36AC01A236DD1
:1025400073439842F3D90FE069462046FFF77CFEBB
:10255000042809D1E369DE7836B900F0C3FF01250C
:10256000A06284F82C6004E0204601F0C9FB00E082
:102570000025284607B0BDE8F08300BF2EA00A085A
:1025800035A00A087FB50423059301230493002393
:1025900003930293019300931A46FFF71DFF07B0C0
:1025A0005DF804FB2DE9F14F0D9E04468B469146E4
:1025B0009A469DF828809DF82C509DF83070FFF7C2
:1025C000FCFE00284BD0B4F854200021E06904F050
:1025D0004AFB0523E26959462046FFF7D4FE6B1EED
:1025E000012B12D8238CE26901339BB223841B1286
:1025F0001354411CE369228C89B2023080B25A54D0
:102600001EB1238C5A1C22843380002291B283187D
:102610008A459BB209D9B4F8546001329E4204D96C
:1026200019F80160E169CE54F0E7B8F1000F0CBF72
:10263000302131210FB141F00801022D02D141F0CA
:10264000040103E0012D08BF41F002012046053BD3
:10265000E2699BB201B0BDE8F04FFFF74DBE01B09B
:10266000BDE8F08F1FB5089C0394002402949DF8E8
:102670001C4001949DF818400094FFF793FF04B0AC
:1026800010BD7FB5054610460E46144605F042F8CB
:1026900000230293019300932246034631462846C5
:1026A000FFF7E0FF04B070BD38B504460D46FFF7F4
:1026B00084FE90B1E36962221A70E36902225A70C3
:1026C000E3692A129A70E3690422DD70E169204609
:1026D00001F037FA003018BF012038BD38B5044684
:1026E0000D46FFF76AFE90B1E36972221A70E36942
:1026F00002225A70E3692A129A70E3690422DD709B
:10270000E169204601F01DFA003018BF012038BDF4
:102710002DE9F04F83B000AF0446FFF74EFE81462F
:10272000002800F0F68000F0DDFE226D4FF47A7391
:102730005343A26A0546821A9A4203D8626A821AF1
:10274000934217D294F82C302BB1204601F0D8FADE
:102750004FF00009DDE0E269C0211170E269204616
:102760005370E169022201F0ECF901236562A56270
:1027700084F82C30204601F087FA002800F0C98048
:10278000F91D2046FFF760FD0246002800F0C180D9
:10279000E369A562187800F0F00130297DD1D4F802
:1027A00030B0BBF1000F00F0B48097F807C0EA46E4
:1027B00003EB0C00817890F801E001EB0E2E1FFA7C
:1027C0008EFE0EF1080121F00701ADEB010D684608
:1027D00000218EB2B64506D90CEB01061E44F678F0
:1027E00046540131F5E7002100F80E101E780CF177
:1027F000030106F00606022ECCEB02021ED1714444
:1028000013F8018019444978CEEB020201EB082845
:102810000CF105017144053A1944D847E369402297
:102820001A70E3691FFA88F85E70E3694FEA28229C
:102830009A70E369042283F8038020E0042E24D1F7
:10284000714413F8018019444978CEEB020201EB80
:1028500008280CF105017144053A1944D847E36989
:1028600050221A70E36902225A70E3691FFA88F84D
:102870004FEA28229A703246E36983F80380E169BF
:10288000204601F05EF9656205E0033A7144CEEB43
:1028900002021944D847D5463BE0502908D199781F
:1028A000DB78204603EB012189B2FFF7FDFE30E023
:1028B00040290CD0602908D19978DB78204603EBB9
:1028C000012189B2FFF70AFF23E070290DD1616B66
:1028D000F9B1042A1DD110F0060F1AD19878DB78CF
:1028E00003EB002080B2884713E0902911D0C02963
:1028F0000AD1D0221A70E36900225A70E1690222DB
:10290000204601F01EF904E0D02904BF002384F81A
:102910002C3048460C37BD46BDE8F08F70B50446F4
:102920000E461546FFF749FDE8B1238C01339BB2F3
:1029300003B901232384238CE2691B125371E369D9
:10294000228C31469A71E26907232046FFF71BFD6E
:10295000E36982211D54031FE2692046BDE87040EF
:102960009BB2FFF7C9BC70BD0022FFF7D7BF10B5FF
:102970000446FFF722FD10B12046FFF7F0FCE069A6
:1029800008B1FDF792FB04F1380001F0A3FB2046EB
:10299000FFF7E6FB204610BD00F054BD10B5054B17
:1029A00004460360037C1BB9406808B100F0C0FF17
:1029B000204610BD48A00A0810B50446FFF7EEFFF8
:1029C0002046142102F0F0FC204610BD10B5074B44
:1029D00004460360037C1BB9406908B100F0A8FFFE
:1029E0002046FFF7DBFF204610BD00BF88A00A0885
:1029F00010B50446FFF7EAFF20462C2102F0D4FC74
:102A0000204610BD10B50446024B0360FFF7C6FF19
:102A1000204610BD58A00A0810B50446FFF7F2FF83
:102A20002046302102F0C0FC204610BD034A02605F
:102A3000002242608260C2600274704748A00A08A7
:102A400038B5037C04460D460BB1002038BD406804
:102A500010B100F075FF02E0084600F061FF0028A9
:102A6000F3D06060A560012038BD70B543680E46A4
:102A700004461546C1687BB15318826893420BD84F
:102A8000E36860682A463146184404F0E1F8E368D8
:102A900001201D44E56070BD29442046FFF7D0FFAA
:102AA0000028EDD170BD0023C360704708B5034610
:102AB000FFF7BCFF034A18461A6000225A619A6168
:102AC000DA6108BD88A00A0843698269934205D289
:102AD0001A78012A0CBF1846002070470020704762
:102AE00070B513689D68136803F11004146086695B
:102AF000B4420AD29B698C68A34201DA9D42F2DAA1
:102B0000A342CCBF0020012070BD002070BD2DE984
:102B1000F34707460C4691469A4602AD01F1100371
:102B20000A9E45F8043D4FF00008019BBA699A429D
:102B30001ED99968A26891421ADAB0450BD1C9F83A
:102B400000302A4621463846FFF7CAFF18B1019BDC
:102B5000CAF800300DE02A4621463846FFF7C0FF8C
:102B60002A462146384608F10108FFF7B9FFDCE79D
:102B7000002002B0BDE8F08770B5013B00244E682C
:102B80008D68AD1BAC4207DA9C4205DA45682544E6
:102B9000AD5D15550134F2E70023135570BD0000FB
:102BA0001FB5144610236A46FFF7E6FF2246044984
:102BB000684600F0D5FE431E5842584104B010BD8F
:102BC0009BA50A081FB5144610236A46FFF7D4FFD9
:102BD0000021684605F0F0FB2060012004B010BD24
:102BE00038B5044600680D4610B101F09BFB07E0C4
:102BF000616829B1A368E268013B9A4238BF8D54ED
:102C0000E3680133E36038BD7F2870B50C4601D816
:102C1000C1B219E0B0F5006F4FEAA01500F03F0611
:102C200003D265F03F01C9B209E0010B41F0E001B8
:102C30002046FFF7D5FF05F03F0141F08001204617
:102C4000FFF7CEFF46F080012046BDE87040FFF759
:102C5000C7BF00002DE9FF4180460F4616464D686C
:102C60000024B868854245DAD8F80430C4B3595D09
:102C70005A196E290FD005D862290AD066290BD1BE
:102C80000C2109E074290ED075290ED0722903D1C8
:102C900007E0082100E00A213046FFF7A1FF0024E9
:102CA00026E00D21F8E70921F6E72B1D9842F6DD15
:102CB000002312F8011F02A819540133042BF8D184
:102CC000002301AA0D498DF80C3000F049FE0128BF
:102CD000E5D13146BDF80400FFF796FF0535DEE784
:102CE000595D5C2903D03046FFF77AFF00E00124EC
:102CF0000135B6E7012004B0BDE8F08160A00A0804
:102D00007FB50C46154606460B49104601F07BFA86
:102D1000A36861682846591A013101F0F9F90023C6
:102D20006A46214630460095019302930393FFF7CC
:102D300091FF04B070BD00BF539F0A082DE9F04316
:102D400089B006460F4604A811499046994601F0FD
:102D500008FA002500954B4603AA39463046FFF78E
:102D6000D6FE044668B104AA03993046FFF7C8FFAF
:102D7000044620B1414604A801F010FB08B9013512
:102D8000E8E704A801F0A6F9204609B0BDE8F08301
:102D9000539F0A0800230122C360436102764376F1
:102DA00080F82A30704700000023C36010B501236B
:102DB0000374054B416003604FF0FF338260C362D0
:102DC000FFF7E8FF10BD00BF58A00A08C36882687B
:102DD00010B593423DBF42685C1CC460012334BF00
:102DE000D15480F82A3010BD10B54369044643B170
:102DF00000EB4303597E09B1FFF7E8FF6369013B2C
:102E00006361A368E068616898424FF000022ABFDE
:102E10005B180A5403F8012C10BD70B50446C06855
:102E2000A56866682D1A134630440A46294600F004
:102E3000B7FD854235BFA368E368E360C01836BFBD
:102E40000123E06084F82A3070BD0EB403B503AAF4
:102E500052F8041B0192FFF7E0FF02B05DF804EBAB
:102E600003B070472DE9F04104460E46174612B1F3
:102E70002221FFF7ABFF0025715D06EB0508002955
:102E800071D0E268A3689A426DD20B0633D501F087
:102E9000F003E02B17D198F8013003F0C002802A2C
:102EA00011D105F1020816F8082002F0C0008028B0
:102EB00009D102F03F029B0142EA013203F47C6334
:102EC0001A4392B211E001F0E003C02B46D105F1A4
:102ED000010816F8083003F0C002802A3ED18901AB
:102EE00001F4F86203F03F031A4323492046FFF739
:102EF000ACFF454635E00C2918D00BD8092921D064
:102F00000A2919D0082929D15C212046FFF75EFF44
:102F1000622123E022291BD05C2919D00D291DD163
:102F20005C212046FFF752FF722117E05C2120460A
:102F3000FFF74CFF662111E05C212046FFF746FFBA
:102F40006E210BE05C212046FFF740FF742105E075
:102F50005C212046FFF73AFF98F800102046FFF763
:102F600035FF013588E72FB12046BDE8F041222129
:102F7000FFF72CBFBDE8F08165A00A08426900EBAD
:102F800042031A7E12B100221A7670472C21FFF7F5
:102F90001DBFF8B543690E460133082B17460ED8FE
:102FA000FFF7ECFF436901245A1C00EB4303426125
:102FB00031469C76DF76FFF709FF2046F8BD0020FA
:102FC000F8BD000037B50446E56A0846002D0ADB67
:102FD00002F0AAFC2A46CDE9000108492046FFF785
:102FE00034FF03B030BD02F09FFC02460B46204682
:102FF000034903B0BDE83040FFF727BF6CA00A08C3
:1030000071A00A082DE9F04F44684FF0FF354FF0EA
:10301000030ED0F800C0944580F09D8111F80C801B
:10302000B8F1000F00F09781B8F12C0F00F0168175
:1030300018D8B8F10D0F00F08A8106D8A8F1090858
:10304000B8F1010F40F283813DE1B8F1200F00F0AB
:103050007E81B8F1220F40F036810CF10109C0F8F1
:10306000009092E0B8F15D0F3CD007D8B8F13A0F6C
:1030700000F0F080B8F15B0F07D024E1B8F17B0FCE
:1030800003D0B8F17D0F2DD01DE10134002B00F0ED
:103090005E814768099EBE4240F27C8107F1010CC7
:1030A000C0F804C04FEA071C03EB0C0A0026CAF85C
:1030B0000450CAF80C60CAF8085087687E1C1FBF0D
:1030C00003EB0719D9F80C700137C9F80C70B8F187
:1030D0007B0F14BF0227012703F80C700768CAF89A
:1030E0000470B7E0002B00F032814768B8F17D0F23
:1030F00007F1805808F1FF3814BF4FF0020A4FF073
:10310000010A07F1FF3903EB0818B9F1000F19DBC9
:10311000D8F80470013710D0D8F808707E1C0CD194
:1031200098F800B0D34540F0288187600CF1010782
:10313000C8F8087003EB091C11E009F1FF39A8F188
:103140001008E2E7B9F1FF3F40F0018115E109F114
:10315000FF39B9F1FF3FACF1100C00F0F880DCF85A
:1031600004700137F3D0DCF808700137EFD1C0F8F4
:103170000890ECE011F80870002F68D0222F09D0D9
:103180005C2F26D0076801370760D0F800804245E1
:10319000F0D85CE0002B00F0CE804768099EBE426C
:1031A00040F2F68007F1010C3F01C0F804C0002690
:1031B00003EB070CCCF80850CCF80450CCF80C60AA
:1031C000D0F8008003F807E0CCF80490CCF8088031
:1031D000B1E008F10107BA42D4D90760CF5D662F8C
:1031E000D0D008D82F2FCDD001D8222F07E05C2FC8
:1031F000C8D0622F03E0722FC4D002D86E2F75D1D1
:10320000C0E7742FBED0752F70D108F10207076098
:103210004FF0040AD0F80080424503D80768013F08
:103220000760AFE711F80870002FF7D0A7F1300B57
:10323000BBF1090F04D927F02007413F052F55D8CE
:1032400008F10107BAF1010A0760E3D1E6E7C0F827
:1032500000C099E04768013F876078E0002B76D096
:1032600087687E1C73D03F01DF5D013F012F6ED95F
:10327000476807F1FF3803EB071CB8F1000F66DB66
:103280001CF8107C013F012F0AD85CF80C7C013738
:1032900006D05CF8087C013702D1C0F8088056E0FF
:1032A00008F1FF38ACF1100CE7E711F8087007B32C
:1032B000202F1ED010D8092F0AD2203F5E2F15D8FC
:1032C00008F101070760D0F800804245EDD810E012
:1032D0000A2F0ED90D2F07E03A2F0AD001D82C2F34
:1032E00002E05D2F05D07D2FE7D102E0C0F800C0DD
:1032F00043E013B908F1FF371CE04768099EBE425E
:1033000046D907F101083F01C0F80480002603EB0D
:103310000708C8F80C604FF00406C8F80850C8F851
:103320000450D0F80090DE55C8F804C0C8F80890E2
:103330000768013F0760876801347E1C07D033B1FE
:1033400003EB071CDCF80C700137CCF80C70076835
:10335000013707605DE6A3B14268511E03EB02131B
:1033600000290EDB53F80C2C013203D053F8082C43
:10337000013209D00139103BF2E76FF00100BDE8DE
:10338000F08F2046BDE8F08F6FF00200BDE8F08FAF
:10339000C0F800C04FF0FF30BDE8F08FF7B5C2684D
:1033A00004460AB9002048E0436900F12006E3B171
:1033B0000021016241624FF0FF318162C1690091D9
:1033C00041683046FFF71EFE431C08D1257C002DC6
:1033D000E8D1606900F0ACFA6561E56105E00028BC
:1033E000E0DB636903EB001325E000254FF0FF37B6
:1033F00025626562A76200952B46E26861683046E7
:10340000FFF700FE0028CDDBE06113D0000100F0E3
:1034100087FAE26903466061009225626562A762ED
:10342000E26861683046FFF7EDFD636903EB001069
:10343000A06101E06369A361012003B0F0BD00F069
:1034400001B8000008B5024B1B681B68019308BD5A
:10345000B001060808B5024B1B689B68019308BDC4
:10346000B001060808B5024B1B68DB68019308BD74
:10347000B001060808B5024B1B681B69019308BD23
:10348000B001060808B5024B1B685B69019308BDD3
:10349000B001060808B5024B1B681B68019308BD04
:1034A000B401060808B5024B1B685B69019308BDAF
:1034B000B401060808B5024B1B68DB69019308BD1F
:1034C000B401060808B5024B1B681B6A019308BDCE
:1034D000B401060808B5024B1B685B68019308BD80
:1034E0009C01060808B5024B1B685B69019308BD87
:1034F0009C01060808B5024B1B68DB69019308BDF7
:103500009C01060808B5024B1B689B6D019308BD22
:103510009C01060808B5024B1B689B6E019308BD11
:10352000B801060808B5024B1B685B6C019308BD27
:10353000D001060808B5024B1B689B6C019308BDBF
:10354000D001060808B5024B1B68DB6C019308BD6F
:10355000D001060808B5024B1B685B6D019308BDDE
:10356000D001060808B5024B1B689B69019308BD92
:10357000C401060808B5024B1B685B6A019308BDCD
:10358000C401060808B5024B1B689B6A019308BD7D
:10359000C401060808B5024B1B68DB6A019308BD2D
:1035A000C401060808B5024B1B681B6B019308BDDC
:1035B000C401060808B5024B1B685B6B019308BD8C
:1035C000C401060808B5024B1B689B6B019308BD3C
:1035D000C401060808B5024B1B681B6C019308BDAB
:1035E000C401060808B5024B1B68DB6C019308BDDB
:1035F000C401060808B5024B1B681B6E019308BD89
:10360000AC01060808B5024B1B685B6E019308BD50
:10361000AC01060808B5024B1B689B6E019308BD00
:10362000AC01060808B5024B1B68DB6E019308BDB0
:10363000AC01060808B5024B1B681B6F019308BD5F
:10364000AC01060808B5024B1B685B6F019308BD0F
:10365000AC01060808B5034B1B68D3F88030019312
:1036600008BD0000AC01060808B5024B1B681B68CA
:10367000019308BDBC01060808B5024B1B685B68D6
:10368000019308BDBC01060808B5024B1B689B6886
:10369000019308BDBC01060808B5024B1B68DB6836
:1036A000019308BDBC01060808B5024B1B681B69E5
:1036B000019308BDBC01060808B5024B1B681B6AD4
:1036C000019308BDBC01060808B5024B1B681B6BC3
:1036D000019308BDBC01060808B5024B1B685B6C72
:1036E000019308BDBC01060808B5024B1B681B68A6
:1036F000019308BDD801060808B5024B1B685B683A
:10370000019308BDD801060808B5024B1B681B6968
:10371000019308BDD801060808B5024B1B685B6918
:10372000019308BDD801060808B5024B1B689B69C8
:10373000019308BDD801060808B5024B1B68DB6978
:10374000019308BDD801060808B5024B1B681B6A27
:10375000019308BDD801060808B5024B1B685B6CD5
:10376000019308BDC001060808B5024B1B689B6C9D
:10377000019308BDC001060808B5024B1B681B6D0C
:10378000019308BDC001060808B5024B1B685B6FBA
:10379000019308BDC001060808B5024B1B681B6DEC
:1037A000019308BDA801020808B5024B1B681B68FD
:1037B000019308BDA401060808B5024B1B685B68AD
:1037C000019308BDA401060808B5024B1B685B699C
:1037D000019308BDA401060808B5024B1B689B6D48
:1037E000019308BDA401060808B5034B1B68D3F874
:1037F0009030019308BD0000A401060808B5034BF2
:103800001B68D3F89C30019308BD0000A401060892
:1038100008B5024B1B685B68019308BDC801060828
:1038200008B5024B1B689B68019308BDC8010608D8
:1038300008B5024B1B68DB68019308BDC801060888
:1038400008B5024B1B681B69019308BDC801060837
:1038500008B5024B1B685B69019308BDC8010608E7
:1038600008B5024B1B689B69019308BDC801060897
:1038700008B5024B1B68DB69019308BDC801060847
:1038800008B5024B1B681B6A019308BDC8010608F6
:1038900008B5024B1B681B6B019308BDC8010608E5
:1038A00008B5024B1B685B6B019308BDC801060895
:1038B00008B5024B1B681B68019308BDCC010608C4
:1038C00008B5024B1B685B68019308BDCC01060874
:1038D00008B5024B1B689B68019308BDCC01060824
:1038E00008B5024B1B68DB68019308BDCC010608D4
:1038F00008B5024B1B685B69019308BDCC01060843
:1039000008B5024B1B681B6B019308BDCC01060870
:1039100008B5024B1B68DB6B019308BDCC010608A0
:1039200008B5024B1B681B68019308BDA00106087F
:1039300008B5024B1B685B68019308BDA00106082F
:1039400008B5024B1B689B68019308BDA0010608DF
:1039500008B5024B1B681B69019308BDA00106084E
:1039600008B5024B1B685B69019308BDA0010608FE
:1039700008B5024B1B689B69019308BDA0010608AE
:1039800008B5024B1B68DB69019308BDA00106085E
:1039900008B5024B1B681B6A019308BDA00106080D
:1039A00008B5024B1B685B6A019308BDA0010608BD
:1039B00008B5024B1B681B6B019308BDA0010608EC
:1039C0000068FFF7BFBD0068FFF7C4BD70B50446CF
:1039D0000E46002540F8085FFFF7A4FD304626702C
:1039E000FFF768FD6560204670BD70B505460E4660
:1039F00000F108042046FFF7E3FF28783146FFF77F
:103A000049FD2046FFF7DFFF70BD08B50078FFF7DE
:103A100049FDC0B208BD0078FFF754BD10B504469B
:103A2000006818B1FFF784FF0023236010BD10B5B4
:103A30000446FFF7F3FF204610BD014600228C200C
:103A4000FFF768BD0020FFF7F8BF00004FF6FF73D7
:103A500010B5084C00202060A080A07120816381F7
:103A6000FFF7AAFE2046BDE81040034A034901F0D3
:103A70008DBC00BF4C040020000100202F3A0A0832
:103A800010B5044603F046FE01382318204698423C
:103A900006D20278197800F8011B03F80129F6E72D
:103AA00010BD70B50C46911E222920D82546294606
:103AB00010B9234430220EE0B0FBF2F602FB1600F0
:103AC000C1B2092805F8011B94BF3031573105F800
:103AD000011C3046EBE7994202D201F8012BFAE7CC
:103AE000002320460B70FFF7CBFF204670BD00205F
:103AF00070BD38B5031E0C4615460BDAB3F1004F06
:103B00004FF02D0214BF5842184601230A702A466E
:103B1000194400E00123FFF7C4FF204638BD08B573
:103B20000123FFF7BEFF08BD37B502AC036804F8F8
:103B3000011DDD6B012247F230532146A84703B037
:103B400030BD10B40368DC6B47F23053A44610BCA0
:103B5000604737B502AC036804F8011DDD6B2146F0
:103B600013460122A84703B030BD704770470020BC
:103B7000704710B50446142101F016FC204610BD14
:103B8000FCF791BA10B5044603689B689847A36890
:103B9000013BA3602BB923682046BDE81040DB68D9
:103BA000184710BD70B5044606464D69044B8C3568
:103BB00044F8043B0FCD0FC42B683046237070BD12
:103BC0002CA20A0810B543690446B3F88620B3F85E
:103BD00084309A4205D06269B2F88430134418796F
:103BE00010BD03681B6998470028F4D14FF0FF30DF
:103BF00010BD10B543690446B3F88620B3F884308D
:103C00009A4208D06269B2F88430591CA2F8841034
:103C10001344187910BD03681B6998470028F1D137
:103C20004FF0FF3010BDF8B543691746B3F8862052
:103C3000B3F8843005469A420E4606D103681B69E4
:103C4000984710B94FF0FF3414E069693046B1F875
:103C50008430B1F886401944E41ABC4228BF3C467F
:103C60000431224602F0F4FF6A69B2F8843023443A
:103C7000A2F884302046F8BD42690023A2F88430BF
:103C80004269A2F88630704738B542690446B2F8F6
:103C900086301BB1B2F884209A420CD0206901F022
:103CA0008BFA0368DB68984718B363691868FFF7F5
:103CB000E3FC18B91DE0FFF7DFFFEFE76069B0F83C
:103CC00086107F2915D8051DC1F1800200232944E3
:103CD0000068FFF7E9FC00280BDD6369B3F8862074
:103CE0000AB9A3F884206269B2F886301844A2F8B1
:103CF00086006269B2F88630B2F88400181A38BDBE
:103D000038B5436904461868FFF7B6FC18B1636913
:103D10001868FFF7D1FC6569FFF7D6FC2860606979
:103D2000112200218C3002F09EFF2046BDE8384071
:103D3000FFF7A2BF2DE9F0411F4603688AB0DB6A96
:103D400006460C4615469847384601F035FA036892
:103D5000DB689847002856D000972B4606220121A1
:103D60000220D6F81480FFF78FFC2023C8F800004B
:103D700000270293736903971B6801200193234B6B
:103D800002AA009322493B46FFF706FD73691868B3
:103D9000FFF772FC002836D03046FFF76DFF022394
:103DA000ADF808302B0A8DF80A30E3794FF4FA5059
:103DB0008DF80C30A3798DF80B508DF80D306379A8
:103DC0008DF80E3014F8043F8DF80F30FFF7C4FC67
:103DD00073690546102202A91868FFF75DFC80464A
:103DE0002846FFF7B9FC0FCC75698C350FC52368E1
:103DF0002B70B8F1000F05D033683046DB6A984766
:103E0000384600E001200AB0BDE8F081FFA00A08B2
:103E1000F8A00A0810B5436904461868FFF72CFC9F
:103E200008B9002010BD206901F0C6F90368DB68FD
:103E300098470028F5D063691868FFF715FCB0FAB9
:103E400080F0400910BD2DE9F3410025456004468E
:103E50000E4617469846FFF7DDFF60B16069019591
:103E6000CDF800802B463A4631460068FFF734FC17
:103E7000002803DA01E04FF0FF30606002B0BDE8D7
:103E8000F08138B50446FFF7C5FF00BB6369B3F89E
:103E90008610B3F88420914219D11868FFF7ECFB23
:103EA00028B163691868FFF7DFFB012801D00025FE
:103EB0000EE0236820461B699847002814BF01259F
:103EC000002505D123682046DB6A984700E00125DC
:103ED000284638BD08B5FFF79DFF003018BF012008
:103EE00008BD10B5044600230160A0F88430A0F896
:103EF0008630883000F004FE204610BD4FF47A7200
:103F000070B58260144A002343600260436183619C
:103F10000446A0200E46FCF7C2F8054610B1314613
:103F2000FFF7DFFF1420FCF7BAF8034628B101229F
:103F300042608260094A05610260A0696561A3610F
:103F400028B14368013B43600BB9FFF71BFE2046D5
:103F5000FFF792FE204670BDB4A00A0898A00A0898
:103F600010B50446FFF7B0FB01462046FFF7C6FF39
:103F7000204610BD10B504460068FFF77DFB10B168
:103F80002068FFF799FB204610BD10B50469204654
:103F9000FFF7F0FF24B12046BDE81040FCF783B8DE
:103FA00010BD00002DE9F0431F4603688FB0DB6AA7
:103FB00006460D4690469847134801F0B0F800B306
:103FC00002A800F09DFD284603F0A4FB002481B266
:103FD00000943B4603AA2846FFF7C6FB80B9336826
:103FE00009ADD3F82090094B03AC08930FCC0FC553
:103FF000236842462B7008A93B463046C84700E07C
:1040000020460FB0BDE8F083DC0400202CA20A0893
:104010002DE9F14F80460D4617461E46002200232B
:104020004046294601F046FF20B12D23337005F1AB
:1040300000450136002301240A22D9B28F4202D959
:1040400054430133F9E7204601F05CFC42462B461D
:1040500001F0BEFC82468B4602F014FB8046894686
:1040600001F080FC02460B465046594601F0FCFA2E
:104070000022174B01F032FF18B118F1010849F185
:104080000009E51722462B464046494602F0E2FA6F
:1040900001230A223146FFF704FDAFB1304603F099
:1040A00039FB2E2333540130064422462B4640462A
:1040B000494602F0CFFA3B46104631460A2201B08B
:1040C000BDE8F04FFFF7EDBC01B0BDE8F08F00BFD9
:1040D0000000E03F10B504460068FFF729FC2046C9
:1040E00010BD10B50446006808B1FFF721FC00239D
:1040F0002360A360636010BD38B504460D460068B8
:104100000131FFF71DFC10B184E82100012038BD0A
:1041100010B50368044613B143688B4207D22046AA
:10412000FFF7EAFF20B1A3680BB9226813700120E2
:1041300010BD70B50E46114604461546FFF7E8FF60
:1041400018B92046FFF7CDFF09E02A463146A560A1
:10415000206802F07DFD2268A3680021D15420462A
:1041600070BD38B500230446036043608360037369
:104170000D4639B1084603F0CDFA294602462046DD
:10418000FFF7D7FF204638BD38B5054600680C4616
:1041900060B16A688B689A4206D3096802F09EFD96
:1041A000A368AB6000230AE0FFF7C2FB23682B6023
:1041B00063686B60A368AB60002323606360A360E7
:1041C00038BD884210B50B46044607D0096819B1BE
:1041D0009A68FFF7AEFF01E0FFF783FF204610BDAE
:1041E00010B5044600230360436083600373FFF748
:1041F000E8FF204610BD884210B5044601D0FFF705
:10420000C3FF204610BD38B505460C4641B10846EF
:1042100003F080FA214602462846FFF78AFF01E0B4
:10422000FFF75FFF284638BD1FB504460023236013
:104230006360A3602373084601A9FFF770FC01A91E
:104240002046FFF7E0FF204604B010BD10B504463D
:1042500000238AB023606360A3602373084601A92A
:10426000FFF747FC01A92046FFF7CDFF20460AB023
:1042700010BD10B5044600238AB023606360A360BC
:104280002373084601A9FFF74AFC01A92046FFF75E
:10429000BAFF20460AB010BD10B504468AB000230C
:1042A00023606360A36023730846012301A9FFF71D
:1042B000F8FB01A92046FFF7A6FF20460AB010BD73
:1042C00030B5044600238BB0036043608360037302
:1042D000D5B2084601F028FB01AB2A46FFF798FE4D
:1042E00001A92046FFF78FFF20460BB030BD70B507
:1042F00004460E4609B9002070BD6AB18368D5181E
:104300002946FFF705FF0028F5D02068A36831464D
:10431000184402F0E3FCA560012070BD8A680968BA
:10432000FFF7E5BF07B500238DF80410012201A9AE
:104330008DF80530FFF7DBFF03B05DF804FB13B524
:104340000A22044608466946FFF7D3FB684603F095
:10435000E1F9694602462046FFF7C9FF02B010BDE9
:1043600010B58A6809680446FFF7C1FF10B92046F6
:10437000FFF7B7FE204610BD38B504460D4641B1E3
:10438000084603F0C7F9294602462046FFF7AFFF6B
:1043900010B92046FFF7A5FE204638BD08B5826853
:1043A0000B4612B919B9012008BD11B90368187874
:1043B00002E0006802F088FCB0FA80F0400908BD15
:1043C000F8B51D469A4288BF13460F46144688BF6B
:1043D0002C460B4988BF1D460646FFF7C2FEBA6849
:1043E00094420AD83968954294BFC4EB0502C4EBE5
:1043F000020221443046FFF79CFE3046F8BD00BF64
:10440000539F0A0810B504468B68FFF7D9FF204672
:1044100010BD006808B102F00DBB7047F8B5064644
:104420000D468F180024BD420CD0336815F8011BCF
:104430009B6830469847002801DB0444F3E7002CD2
:1044400008BF04462046F8BD70B505460C46084630
:1044500049B103F05FF92B68024621462846BDE8C2
:104460007040DB68184770BD08B5FFF7EDFF08BD69
:1044700003689B68184738B50D210546FFF7F8FF1C
:104480000A2104462846FFF7F3FF204438BD38B51B
:104490000546FFF7D9FF04462846FFF7ECFF204406
:1044A00038BD012A98BF0A2230B50B468BB00021D7
:1044B0008DF824100DF12304B3FBF2F505FB123344
:1044C000DBB2092B94BF30333733DBB2214604F81B
:1044D00001392B46002DEFD1FFF7B6FF0BB030BDF1
:1044E0002DE9F04719468046104617461E469DF8AE
:1044F000205001F007FD08B14D4912E026F00044BC
:104500004FF0FF324B4B3846214601F0FBFC68B9B7
:104510004FF0FF32474B3846214601F0D5FC28B911
:1045200045494046FFF790FFBDE8F0874FF06042F5
:10453000424B3846314601F0DBFC08B14049F0E718
:104540004FF060423F4B3846314601F0B3FC002843
:10455000F4D1002200233846314601F0ABFC38B1DB
:104560002D214046FFF784FF06F10046044600E097
:10457000044635494FF0000900205FFA89F39D4257
:1045800006D90022314B01F04DFB09F10109F4E796
:104590003A46334601F06AF80F46064601F0F0FC51
:1045A0000A22014681464046FFF77BFF0444E5B3FB
:1045B000484601F097F902460B463046394601F06D
:1045C00053F806460F4640462149FFF73DFF044495
:1045D00000221E4B3046394601F0FAF906460F46D6
:1045E00001F0A6FCB0F1000A07DA2D214046FFF7E2
:1045F0003FFFCAF10001814602E051464FF0000939
:104600000A224046FFF74DFF48440444504601F05B
:1046100079F902460B463046394601F025F8013D4E
:1046200015F0FF0506460F46D2D12046BDE8F087BB
:1046300013A10A08FFFFEF7F1BA10A08FFFFEF414C
:1046400017A10A08FFFFEFC10000E03F000024406F
:10465000919E0A0837B505461446084601F064F9EC
:10466000E4B2024600940B462846FFF739FF03B038
:1046700030BD37B59DF8181005460091FFF730FFA3
:1046800004462846FFF7F7FE204403B030BD37B597
:1046900004460846154601F047F9009502460B46C8
:1046A0002046FFF7E6FF03B030BD00231A46194647
:1046B0004068FFF7CDB80000014A024B1A6070470E
:1046C00095A10A085804002008B50020FFF718F942
:1046D00028B1FFF70DF980F00100C0B208BD01203C
:1046E00008BD000010B50949044601F065FF60B936
:1046F0000749204601F07EFF38B90649204601F0FF
:10470000BDFD01F081FF044B186010BD000040C1E9
:1047100000006041000061456404002037B50E4B85
:1047200004461B6802A819440C4B1B68194440F846
:10473000041D02F091F902F041F9054602F0EAFF8A
:104740000023284400F8013C29462046FFF709FDD4
:10475000204603B030BD00BF640400206004002088
:104760002DE9F047A4B014AC07468946204611460F
:104770003F221D4602F0EBFF002320468DF88F30CC
:1047800002F0C8FF804625B9244903A802F0A6FA22
:1047900013E03C2195FBF1F2002AB8BF524292FB94
:1047A000F1F301FB13224FF46163009295FBF3F3E5
:1047B0001B4A102103A8FFF7E3F825462E1B08F13A
:1047C000FF3AB2451BD92B78252B16D16B787A2B63
:1047D00013D103A802F09EFF80463044C6EB0A02C4
:1047E000A91C204402F034FA424603A9284602F0EC
:1047F0002FFA204602F08EFF80460135DEE74B4659
:104800002246322107A802F0D1FA07A93846FFF75D
:10481000A8FC384624B0BDE8F08700BF4DA80A08C0
:10482000FBA10A08F7B5054601921C4613B9124BC5
:104830001C682CB1114B2046196802F045FA20B9CA
:1048400001992846FFF76AFF13E00D4F019A3B6874
:104850000C4E1A44336802A8134440F8043D02F099
:10486000FBF83A6833680146134428462246FFF7AE
:1048700077FF284603B0F0BD5C0400201000002044
:10488000640400206004002010B50020FEF73AFE0A
:10489000044668B9FEF788FF01280BD12046FEF7D1
:1048A0009BFF38B9FFF710FF30B9FFF711F8F9E7B0
:1048B000012010BD002010BDFFF706FF0020FEF70D
:1048C00021FE003018BF012010BD08B5FFF7DCFF46
:1048D000BDE80840FEF70EBE024B1A68024B1A6094
:1048E000704700BF100000205C0400200021FEF78C
:1048F0006BBF10B58368044613B103220146984785
:10490000204610BD10B50446FFF7F3FF204610BD4A
:10491000034800238360034A034900F037BD00BF0A
:104920006C0400200001002005490A0808B5144B5A
:1049300033B100F09FF903681B699847002816DC23
:10494000104B33B100F04CFA03681B6998470028FC
:1049500010DC0D4B0BB1AFF300800C4B7BB100F0C2
:10496000B7F903681B699847002806DC08BDAFF358
:104970000080E5E7AFF30080EBE7AFF3008008BD10
:104980000000000000000000000000000000000027
:1049900008B5FFF7CBFFFEF7A5FD014B186008BD7A
:1049A000E40400200248034A0349121A02F050B9F5
:1049B0000040024004400240C8A90A0807B500238D
:1049C00000931A466FF07701FEF718FF03B05DF809
:1049D00004FB000007B543880A2B08D0502B09D1EF
:1049E000094B1B683BB103B05DF804EB1847FFF7B8
:1049F000E5FF06E0002300931A466FF07701FEF70B
:104A0000FDFE03B05DF804FB7C04002038B5104CBB
:104A1000104D2368AB42104B0CBF012200221A70CC
:104A200002D0FFF7BFFF2560FEF754FD044602F0F9
:104A300023F90A4B13B12046AFF300800021074849
:104A4000FEF766FFBDE8384000210548FEF7CCBE02
:104A5000004002401E1C279A800400200000000035
:104A6000D5490A0810B588B004466846FFF779FBB7
:104A7000694604A8FFF7B4FB04A8A047044604A8AD
:104A8000FFF728FB6846FFF725FB204608B010BD5E
:104A9000F0B507460E46154685B010242246002183
:104AA000684602F0E0F8002269461046ADF8004082
:104AB000029703960195FEF703FF05B0F0BD70471E
:104AC00010B50446182100F06FFC204610BDF8B563
:104AD0000F4600F10806051D002416F8011D0A22E4
:104AE0003846FFF7DEFCAE42044407D0002CF4D079
:104AF0002E213846FFF7BCFC0444EEE72046F8BD03
:104B000010B50446044B112240F8043B002102F08A
:104B1000AAF8204610BD00BF2CA20A080346074A87
:104B200010B543F8042B01F1100251F8044B9142E7
:104B300043F8044BF9D10A781A7010BD2CA20A0868
:104B4000024A416002600422027570472CA20A08E2
:104B500010B59DF8084044EA032343EA024242EAC2
:104B6000016104234160037510BD000037B5044D99
:104B700005609DF818500095FFF7EAFF03B030BDBF
:104B80002CA20A0837B50D788B784A78C97800913D
:104B90002946FFF7DDFF03B030BD000010B5044625
:104BA000024B0360FFF7EEFF204610BD2CA20A085F
:104BB00041747047704708B50021007CFEF7B4FDD2
:104BC00030EA200028BF4FF0FF3008BD08B50121B2
:104BD000007CFEF7A9FD30EA200028BF4FF0FF302F
:104BE00008BD08B5007CFEF797FD20EAE07008BD1F
:104BF00008B5007CFEF788FD20EAE07008BD007C67
:104C0000FEF7A2BD10B50446142100F0CDFB2046EE
:104C100010BD38B50446007C0D46FEF77DFD00282A
:104C200001DC607C28B12946207CFEF785FD20EA66
:104C3000E07038BD10B50446002363604FF47A730A
:104C4000A360054B08462360012321746374114659
:104C5000FEF74AFD204610BD40A20A080022007C53
:104C6000FEF74ABD10B504461422002101F0FBFFF7
:104C7000204610BD30B50E4D87B001A8FFF7F2FFFA
:104C8000296811F0010410D12846FBF710FA60B131
:104C900001AA21460748FFF7CDFF2846FBF70CFA8B
:104CA000054A0649034800F071FB024807B030BDD1
:104CB000840400208C04002000010020B54B0A0869
:104CC00010B504461422002101F0CDFF204610BD8E
:104CD00010B50E4C86B001A8FFF7F2FF2368DB0782
:104CE00010D42046FBF7E3F960B101AA012108487E
:104CF000FFF7A0FF2046FBF7DFF9064A0649044804
:104D000000F044FB024806B010BD00BF880400203C
:104D1000A004002000010020B54B0A087047417430
:104D2000704708B5007CFEF755FC20EAE07008BD2E
:104D300008B5007CFEF726FC20EAE07008BD08B547
:104D4000007CFEF72FFC30EA200028BF4FF0FF3038
:104D500008BD08B5007CFEF71DFC30EA200028BF26
:104D60004FF0FF3008BD007CFEF724BC10B50446B0
:104D7000142100F019FB204610BD70B5457C044697
:104D80000E4625B9007CFEF725FC002805DD3146DE
:104D9000207CBDE87040FEF7EDBB284670BD0000EA
:104DA00010B5044608461146002262604FF47A723C
:104DB000A260054A20742260012262741A46FEF73E
:104DC000D1FB204610BD00BF70A20A080023007C62
:104DD000FEF708BC0022FFF7F9BF007CFEF7F2BB2C
:104DE000F8B5194C25684DB98420FBF758F90646EB
:104DF00018B18422294601F036FF2660134D2E6833
:104E00004EB98420FBF74BF9074618B1842231468E
:104E100001F029FF2F600E4F396811F0010611D102
:104E20003846FBF744F968B1226831462B680948D7
:104E3000FFF7B6FF3846FBF73FF9074A0749054831
:104E400000F0A4FA0348F8BDD0040020C8040020F4
:104E5000CC040020B4040020000100201D4D0A08ED
:104E60007047F8B5064615460C468F18BC4206D06A
:104E7000336814F8011B9B6830469847F6E72846CC
:104E8000F8BD0022007CFEF7B5BB0021007CFEF7D8
:104E9000B9BB0021007CFEF7BDBB0021007CFEF702
:104EA000C1BB0021007CFEF7C5BB10B50446142130
:104EB00000F07AFA204610BD10B504460023636066
:104EC0004FF47A73A360044B2174084623601146A3
:104ED000FEF7C0FB204610BDA0A20A080021007CFE
:104EE000FEF7B0BB704701207047000008B583890A
:104EF0001BB10069B0F1004F01D1002008BD01F0E5
:104F000069F9024901F06EFA08BD00BF0000C8420D
:104F100008B583891BB18069B0F1004F01D1002031
:104F200008BD01F057F9024901F05CFA08BD00BF65
:104F30000000C842002211464068FEF781BC10B54F
:104F40000446242100F030FA204610BDF0B5164684
:104F500089B011220F460446002103A801F083FE08
:104F6000304602F0D7FB0025009581B27B6803AA8A
:104F70003046FEF7F9FB20B129462046FFF7E0FD59
:104F800003E003A92046FFF7C9FD204609B0F0BDA4
:104F9000002211464068FEF773BC002211464068AB
:104FA000FEF77EBC00224068FEF772BC002281F052
:104FB00001014068FEF75CBC00231A4619464068B0
:104FC000FEF74EBC002211464068FEF729BC0022C5
:104FD00002214068FEF72CBC00231A464068FEF709
:104FE00017BC000008B583895BB1006A002808DBA4
:104FF00001F0F0F8044901F0F5F9044901F03EF937
:1050000008BD034808BD00BF00FF7F470000C8423D
:10501000000080BF08B583895BB14069002808DBC8
:1050200001F0D8F8044901F0DDF9044901F026F94E
:1050300008BD034808BD00BF00FF7F470000C8420D
:10504000000080BF90F90400704770B50D46064619
:1050500000F10C040FCD0FC495E8030084E80300B1
:1050600033690120B3F1004F1ABF642293FBF2F3BE
:1050700002237360B369B3F1004F1ABF642293FB3C
:10508000F2F30023B36070BD2DE9F0418846164B62
:1050900000250227182686B00360476085603246E7
:1050A000294604460C3001F0DEFD2A462946D8F890
:1050B0000400FEF7C5FB90B132462946684601F070
:1050C000D2FD2A4669462846ADF80060FEF75CFB33
:1050D00020B969462046FFF7B8FF00E06760204628
:1050E00006B0BDE8F08100BFFCA20A08024B042212
:1050F0005A60024A1A607047D4040020C8A20A0805
:1051000000231A464068FEF783BB00220221406854
:10511000FEF78EBB002211464068FEF781BB0022DD
:1051200011464068FEF78CBB00231A4619464068BA
:10513000FEF78EBB00231A4619464068FEF790BB67
:10514000002281F001014068FEF792BB0022406816
:10515000FEF79EBB002211464068FEF7A1BB00226D
:1051600011464068FEF78CBB70B516468EB00446FB
:1051700008A8FFF7C5FC1122002103A801F073FD68
:10518000304602F0C7FA00250A4B009581B25B68F1
:1051900003AA3046FEF7E8FA20B129462046FFF779
:1051A000CFFC03E003A92046FFF7B8FC20460EB071
:1051B00070BD00BFD4040020034B044A04280CBF78
:1051C00010461846704700BFDC040020D4040020BD
:1051D000024B034A1A6000225A607047DC04002028
:1051E00020A30A0870B51A4E0446316811F0010573
:1051F0000FD13046FAF75BFF58B129461548FEF744
:10520000E5FB3046FAF758FF134A1449114800F0FD
:10521000BDF81048FEF7FFFB28B1A4F10D03022BE7
:1052200001D8002070BD00F08BF8FFF757FE08B1E1
:10523000012CF6D9FFF7D4FDFFF7CFFD18B1A4F18B
:105240001203012BEDD9172C8CBF0020012070BD5B
:10525000040100200801002000010020C7020A0804
:10526000172838B504460D460AD8FF2908D0FFF79D
:10527000B9FF28B129462046BDE83840FEF7EAB814
:1052800038BD38B504460D46FEF7ECF8FF2810D0BF
:10529000062804D84D2323FA00F0C30709D420467A
:1052A000FFF7A0FF28B129462046BDE83840FEF7A9
:1052B000E1B838BD10B50446FEF7D4F80438C0B2E2
:1052C000012808D92046FFF78DFF20B12046BDE810
:1052D0001040FEF7D7B8002010BD000013B5084CF1
:1052E00000231A46194600932046FFF73FFC20464C
:1052F000044A054902B0BDE8104000F047B800BFBD
:10530000E804002000010020BF4A0A0870B50446E6
:1053100014252A46094E002101F0A5FC25802025F0
:105320003146A5602561284600F040F831466060AE
:10533000284600F03BF8E060204670BD4CA30A0808
:1053400030B50E4D87B0296811F0010413D12846FD
:10535000FAF7ADFE78B101A8FFF7D8FF01AA214600
:105360000748FFF7A9FD2846FAF7A6FE054A0649B1
:10537000034800F00BF8024807B030BD00050020DC
:105380000405002000010020614E0A080B4601467A
:10539000184601F053BB0000024B1868BFF35F8F43
:1053A000704700BF18050020FAF77DBE00F000B876
:1053B00010B5002814BF044601242046FEF7B0FAB9
:1053C00020B9FFF7E9FF08B18047F6E710BD0000FC
:1053D000184B1A68D1075CBF01221A60164B1A6875
:1053E000D2075CBF01221A60144B1A68D0075CBF59
:1053F00001221A60124B1A68D1075CBF01221A60A1
:10540000104B1A68D2075CBF01221A600E4B1A6853
:10541000D0075CBF01221A600C4B1A68D1075CBF31
:1054200001221A600A4B1A68D2075CBF01221A6077
:10543000704700BF380500203405002030050020EB
:105440002C05002028050020240500202005002030
:105450001C050020244B1A68D0075CBF01221A608B
:10546000224B1A68D1075CBF01221A60204B1A68D0
:10547000D2075CBF01221A601E4B1A68D0075CBFBE
:1054800001221A601C4B1A68D1075CBF01221A6006
:105490001A4B1A68D2075CBF01221A60184B1A68AF
:1054A000D0075CBF01221A60164B1A68D1075CBF97
:1054B00001221A60144B1A68D2075CBF01221A60DD
:1054C000124B1A68D0075CBF01221A60104B1A6891
:1054D000D1075CBF01221A600E4B1A68D2075CBF6D
:1054E00001221A60704700BF680500206405002093
:1054F000600500205C0500205805002054050020B0
:10550000500500204C0500204805002044050020DF
:10551000400500203C050020244B1A68D0075CBFE2
:1055200001221A60224B1A68D1075CBF01221A605F
:10553000204B1A68D2075CBF01221A601E4B1A6802
:10554000D0075CBF01221A601C4B1A68D1075CBFF0
:1055500001221A601A4B1A68D2075CBF01221A6036
:10556000184B1A68D0075CBF01221A60164B1A68E4
:10557000D1075CBF01221A60144B1A68D2075CBFC6
:1055800001221A60124B1A68D0075CBF01221A6010
:10559000104B1A68D1075CBF01221A600E4B1A68C3
:1055A000D2075CBF01221A60704700BF9805002037
:1055B00094050020900500208C050020880500201F
:1055C00084050020800500207C050020780500204F
:1055D00074050020700500206C050020184B1A6827
:1055E000D1075CBF01221A60164B1A68D2075CBF54
:1055F00001221A60144B1A68D0075CBF01221A609E
:10560000124B1A68D1075CBF01221A60104B1A684E
:10561000D2075CBF01221A600E4B1A68D0075CBF2C
:1056200001221A600C4B1A68D1075CBF01221A6074
:105630000A4B1A68D2075CBF01221A60704700BF8C
:10564000B8050020B4050020B0050020AC050020FE
:10565000A8050020A4050020A00500209C0500202E
:1056600081F0004102E000BF83F0004330B54FEA13
:1056700041044FEA430594EA050F08BF90EA020F80
:105680001FBF54EA000C55EA020C7FEA645C7FEA13
:10569000655C00F0E2804FEA5454D4EB5555B8BF36
:1056A0006D420CDD2C4480EA020281EA030382EAA7
:1056B000000083EA010180EA020281EA0303362D39
:1056C00088BF30BD11F0004F4FEA01314FF4801C0C
:1056D0004CEA113102D0404261EB410113F0004F1E
:1056E0004FEA03334CEA133302D0524263EB4303D5
:1056F00094EA050F00F0A780A4F10104D5F1200E73
:105700000DDB02FA0EFC22FA05F2801841F10001CD
:1057100003FA0EF2801843FA05F359410EE0A5F1A1
:1057200020050EF1200E012A03FA0EFC28BF4CF0D2
:10573000020C43FA05F3C01851EBE37101F0004588
:1057400007D54FF0000EDCF1000C7EEB00006EEB95
:105750000101B1F5801F1BD3B1F5001F0CD349081F
:105760005FEA30004FEA3C0C04F101044FEA445276
:1057700012F5800F80F09A80BCF1004F08BF5FEAFD
:10578000500C50F1000041EB045141EA050130BDDD
:105790005FEA4C0C404141EB010111F4801FA4F180
:1057A0000104E9D191F0000F04BF01460020B1FAD5
:1057B00081F308BF2033A3F10B03B3F120020CDA0D
:1057C0000C3208DD02F1140CC2F10C0201FA0CF0EB
:1057D00021FA02F10CE002F11402D8BFC2F1200C50
:1057E00001FA02F120FA0CFCDCBF41EA0C01904006
:1057F000E41AA2BF01EB0451294330BD6FEA04044F
:105800001F3C1CDA0C340EDC04F11404C4F1200239
:1058100020FA04F001FA02F340EA030021FA04F34B
:1058200045EA030130BDC4F10C04C4F1200220FAA2
:1058300002F001FA04F340EA0300294630BD21FAE0
:1058400004F0294630BD94F0000F83F4801306BFA6
:1058500081F480110134013D4EE77FEA645C18BF9A
:105860007FEA655C29D094EA050F08BF90EA020F31
:1058700005D054EA000C04BF1946104630BD91EA29
:10588000030F1EBF0021002030BD5FEA545C05D12C
:105890004000494128BF41F0004130BD14F580046B
:1058A0003CBF01F5801130BD01F0004545F0FE41DF
:1058B00041F470014FF0000030BD7FEA645C1ABF14
:1058C000194610467FEA655C1CBF0B46024650EA4B
:1058D000013406BF52EA033591EA030F41F4002177
:1058E00030BD00BF90F0000F04BF0021704730B5FD
:1058F0004FF4806404F132044FF000054FF00001D2
:1059000050E700BF90F0000F04BF0021704730B592
:105910004FF4806404F1320410F0004548BF404267
:105920004FF000013EE700BF42004FEAE2014FEABC
:1059300031014FEA02701FBF12F07F4393F07F4F97
:1059400081F06051704792F0000F14BF93F07F4FC9
:10595000704730B54FF4607401F0004521F000410C
:1059600020E700BF50EA010208BF704730B54FF092
:1059700000050AE050EA010208BF704730B511F097
:10598000004502D5404261EB41014FF4806404F1CF
:1059900032045FEA915C3FF4DCAE4FF003025FEA51
:1059A000DC0C18BF03325FEADC0C18BF033202EBD9
:1059B000DC02C2F1200300FA03FC20FA02F001FA33
:1059C00003FE40EA0E0021FA02F11444C1E600BFD2
:1059D00070B54FF0FF0C4CF4E06C1CEA11541DBF85
:1059E0001CEA135594EA0C0F95EA0C0F00F0DEF850
:1059F0002C4481EA030621EA4C5123EA4C5350EA35
:105A0000013518BF52EA033541F4801143F4801385
:105A100038D0A0FB02CE4FF00005E1FB02E506F016
:105A20000042E0FB03E54FF00006E1FB03569CF06B
:105A3000000F18BF4EF0010EA4F1FF04B6F5007F71
:105A400064F5407404D25FEA4E0E6D4146EB0606E3
:105A500042EAC62141EA55514FEAC52040EA5E506C
:105A60004FEACE2EB4F1FD0C88BFBCF5E06F1ED816
:105A7000BEF1004F08BF5FEA500E50F1000041EB4D
:105A8000045170BD06F0004646EA010140EA0200FA
:105A900081EA0301B4EB5C04C2BFD4EB0C0541EA1C
:105AA000045170BD41F480114FF0000E013C00F331
:105AB000AB8014F1360FDEBF002001F0004170BD55
:105AC000C4F10004203C35DA0C341BDC04F114046E
:105AD000C4F1200500FA05F320FA04F001FA05F2FA
