:02000004080AE8
:1000000000000A0884900A080000060006000501A6
:080010000402DB070000000000
:04001800A4800A08AE
:10001C0009480A4908B5884205D0094A824202D0EB
:10002C00121A06F09BFD0748074A0021121A06F027
:10003C00A3FD064808BD00BF000000201C8E0A0866
:10004C00400200204002002085060020850600208A
:10005C0070B504F029FD0025054E064CA41BA40820
:10006C00A54200D170BD56F8043B98470135F7E71F
:10007C00EC8D0A080C8E0A0801F0EAB908B501F0FB
:10008C0089F8BDE8084004F0D1BC03F053BC03F080
:10009C0051BC03F057BC03F055BC0078B0FA80F0AB
:1000AC00400970470123037070471068704708B50A
:1000BC000021042005F02BF94FF4FA7004F060FCD9
:1000CC000121042005F023F9012008BD1FB50121F1
:1000DC00022005F01CF94FF4FA7004F051FC0B49A6
:1000EC00684604F05DF86846FFF7E1FF684604F0E7
:1000FC000DF84FF4FA7004F043FC0021022005F0D7
:10010C0006F9012005B05DF804FB00BF8C890A08D4
:10011C0000B58BB0044901A804F0F4FF01A804F069
:10012C00CFFF0BB05DF804FB1006002008B503F000
:10013C009EFC0000F0B58FB004F079F94FF4FF731A
:10014C00ADF80430FF23062838BF06208DF80730A1
:10015C00204B05461C788DF80600002C37D104F096
:10016C0081FE042203680DEB0201DB68984704F062
:10017C00C7FD1949064606A804F012F80A22012107
:10018C0002A804F082F802A906A804F0F4F81349B6
:10019C0004F0FDF807460A2229460AA804F088F85C
:1001AC000AA9384604F0E7F80D4904F0F0F80168A4
:1001BC00304604F07AF90AA803F0A8FF02A803F06D
:1001CC00A5FF06A803F0A2FF20460FB0F0BD01204A
:1001DC00FBE700BF30030020B8800A08C4800A087F
:1001EC00DB800A08F0B58FB004F021F940F2FE2351
:1001FC00ADF80430FF23062838BF06208DF80730F1
:10020C00204B05461C788DF80600002C37D104F0E5
:10021C0029FE042203680DEB0201DB68984704F009
:10022C006FFD1949064606A803F0BAFF0A220221FF
:10023C0002A804F02AF802A906A804F09CF81349B5
:10024C0004F0A5F807460A2229460AA804F030F85B
:10025C000AA9384604F08FF80D4904F098F80168A3
:10026C00304604F022F90AA803F050FF02A803F06C
:10027C004DFF06A803F04AFF20460FB0F0BD012049
:10028C00FBE700BF30030020B8800A08C4800A08CE
:10029C00DB800A0810B50446024B036002F08EFBAB
:1002AC00204610BD30860A0810B50446FFF7F2FF51
:1002BC0020464FF40C7105F0B4F8204610BD10B573
:1002CC000446806808B103F015F9204610BD000003
:1002DC007FB51349054604F06EF8124E044618B16A
:1002EC000120307004B070BD0F49284604F063F84B
:1002FC000E496846347003F053FF6846FFF71AFF47
:10030C00684603F003FF0949684603F049FF684655
:10031C00FFF768FF684603F0F9FE2046E2E700BFEE
:10032C00E2800A0830030020E7800A08ED800A0802
:10033C001FB50023019303930C23ADF80430044B39
:10034C000422029301AB03F0BDFA05B05DF804FB87
:10035C00B7000A0838B501210B2004F0C7FF0121B2
:10036C000B2004F0D4FF214D01210C2004F0BEFF22
:10037C0001210C2004F0CBFF2978BFF35B8F11F027
:10038C0001040FD12846FFF788FE58B121461848C2
:10039C0003F02BFB2846FFF785FE164A1649144836
:1003AC0005F03AF80021124803F02EFB322004F03D
:1003BC00E7FA124801F0C0FB4FF4FA7004F0E0FACF
:1003CC000F4801F0B9FB70210C4801F0F0FB7021D3
:1003DC000B4801F0ECFB04F093FC0A4904F065F8BF
:1003EC0004F08EFC04F055F8012038BD44020020C6
:1003FC004802002040020020CB020A0844050020DD
:10040C0052050020F0800A0808B503F053F8034B9E
:10041C001860BDE8084003F065BA00BF2006002054
:10042C0037B5002489089C4218D08C4200F1040096
:10043C0014D010F8045C8DF8075010F8035C8DF89C
:10044C00065010F8025C8DF8055010F8015C8DF820
:10045C000450019D42F824500134E4E7012003B01C
:10046C0030BD00002DE9F04F4FF000089FB005465D
:10047C000E4606A8A94903F093FE4746B04580F204
:10048C001F822B780F2B08D108F102039E4204DC4B
:10049C0004F036FCA24904F008F82C4614F8013B91
:1004AC00A3F10E02012A00F20D8108F1020296421C
:1004BC0040F308810F2B0CBF0127022704F020FC0E
:1004CC00984981461AA803F06BFE0A22394616A8F1
:1004DC0003F0DBFE16A91AA803F04DFF924903F0B6
:1004EC0056FF0168484603F0CDFF16A803F00EFE38
:1004FC001AA803F00BFE89490AA803F051FE2378D1
:10050C00013B052B00F2DB80DFE813F006007300E3
:10051C00E40028016C018F01042E64DD03230C21FF
:10052C0003AAA81CFFF77CFFDFF82CA2002840D1FF
:10053C0004F0E6FB7D49814612A803F031FE0C2342
:10054C007A1E53430EA85AF8031004220AEB030533
:10055C0003F0C1FE0EA912A803F00DFF744903F0BD
:10056C0016FF82460422696816A803F0B4FE5046B2
:10057C0016A903F000FF6E4903F009FF824604221E
:10058C00A9681AA803F0A7FE1AA9504603F0F3FEB7
:10059C000168484603F076FF1AA803F0B7FD16A8C9
:1005AC0003F0B4FD0EA803F0B1FD12A803F0AEFDEC
:1005BC0085E00C224FF0030902FB07A203AD55F8AE
:1005CC0004BB4FF07E515846019205F0A3FF6FF02B
:1005DC000303019A18B903FB09F142F801B0B9F110
:1005EC000109ECD1A4E704F08BFB524903F04AFF5C
:1005FC0065E00C2E6ADD0C2107F1FF3A01FB0AFBCA
:10060C004D4BA81C03EB0B094A460323FFF708FFCD
:10061C0004F076FB494903F035FF04F071FB464BBF
:10062C0004221D4653F80B1004F026F804F068FB66
:10063C003F4903F027FF04F063FB0422D9F80410B0
:10064C0004F01AF804F05CFB394903F01BFF04F0CA
:10065C0057FB0422D9F8081004F02BF8D9F8041031
:10066C0055F80B0005F0B0FCD9F8081005F0ACFCFF
:10067C004FF07E5105F04EFF314D10B155F82A0068
:10068C000130304B45F82A00A3F14C0A53F8042CE6
:10069C0043F804299A45F9D1274BD3F808905968A7
:1006AC00186805F091FC494605F08EFCCAF800006C
:1006BC00286805F03DFDCAF80890CAF804000AA89D
:1006CC0003F024FD254608F10108D7E604F018FBD9
:1006DC001D498BE7042E1DDDE278A1782379607823
:1006EC008DF869208DF86A108DF86B008DF86830E4
:1006FC001A9B164D2B606B6004F002FB144903F03F
:10070C00C1FE04F0FDFA04227B1E55F8231003F001
:10071C00B3FFD4E704F0F4FA0E4967E78C890A08B2
:10072C0014810A0816810A0826810A081F810A0802
:10073C0027810A0829810A08540200204D810A08E1
:10074C0060050020B802002057810A08C40200206E
:10075C007B810A0887810A08EC020020042E3DDD0B
:10076C000C2107F1FF3901FB09F9DFF884B10323F0
:10077C000BEB090A5246A81CFFF752FE04F0C0FA14
:10078C005349054612A803F00BFD04225BF809102F
:10079C000EA803F0A0FD0EA912A803F0ECFD4D4924
:1007AC0003F0F5FD81460422DAF8041016A803F0D4
:1007BC0092FD484616A903F0DEFD464903F0E7FD1D
:1007CC0081460422DAF808101AA803F084FD1AA94D
:1007DC00484603F0D0FD01682846DBE604F090FAA9
:1007EC003D4903E7042E1CDDE278A178237960787B
:1007FC008DF869208DF86A108DF86B008DF86830D3
:10080C001A9B364D07F1FF3945F8293004F078FA78
:10081C00334903F037FE04F073FA042255F829101B
:10082C0075E704F06DFA2F49E0E6042E7FF7DBAE96
:10083C00A81C03230C2103AAFFF7F2FD2A4D07F194
:10084C00FF3948B10C2303FB09F30399EA18E9506B
:10085C00049B5360059B936004F052FA2349824633
:10086C0012A803F09DFC0C2303FB09F30422E958A6
:10087C000EA805EB030903F02EFD0EA912A803F038
:10088C007AFD144903F083FD05460422D9F80410BF
:10089C0016A803F020FD284616A903F06CFD0D499F
:1008AC0003F075FD05460422D9F808101AA803F0C8
:1008BC0012FD1AA9284603F05EFD0168504669E650
:1008CC0006A803F023FC38461FB0BDE8F08F00BF2C
:1008DC00AD810A0827810A08B5810A08BC020020EC
:1008EC00D7810A08E0810A08D40200201F810A0877
:1008FC00080300202DE9F04100250A271A4CDFF8E7
:10090C006C8004F0AFFA03681B699847F0B104F0EF
:10091C00A9FA03685B6998472368C6B2B3F5AF7F41
:10092C0019DA08F80360013323600A2E0ED121680E
:10093C004046FFF797FD002305461A460B49013345
:10094C00B3F5AF7F01F8012BF9D12260013FD8D16B
:10095C002846BDE8F0810023236004F0D1F9044956
:10096C0003F090FDE1E700BFB40400205403002025
:10097C0003820A087D227B2102F00DBB4FF4FF732A
:10098C0070B58EB0ADF80430FF23062838BF0620B2
:10099C008DF807302C4B04461B788DF80600002B85
:1009AC0050D004F05FFA042203680DEB0201DB68FF
:1009BC00984704F0A5F92549054606A803F0F0FB75
:1009CC000A22012102A803F060FC02A906A803F088
:1009DC00D2FC1F4903F0DBFC06460A2221460AA87A
:1009EC0003F066FC0AA9304603F0C5FC194903F074
:1009FC00CEFC0168284603F058FD0AA803F086FBDC
:100A0C0002A803F083FB06A803F080FB124906A89A
:100A1C0003F0C6FB012106A803F09CFC069D0A22EC
:100A2C0021460AA803F044FC29460A9A0B4801F017
:100A3C000AFE0AA803F06AFB06A803F067FB002075
:100A4C000EB070BD0120FBE730030020B8800A080F
:100A5C00C4800A08DB800A0820820A08B804002037
:100A6C0040F2FE2370B58EB0ADF80430FF2306289B
:100A7C0038BF06208DF807302C4B04461B788DF8B8
:100A8C000600002B50D004F0EDF9042203680DEBA6
:100A9C000201DB68984704F033F92549054606A89E
:100AAC0003F07EFB0A22022102A803F0EEFB02A94E
:100ABC0006A803F060FC1F4903F069FC06460A22F5
:100ACC0021460AA803F0F4FB0AA9304603F053FCB4
:100ADC00194903F05CFC0168284603F0E6FC0AA8FF
:100AEC0003F014FB02A803F011FB06A803F00EFBA5
:100AFC00124906A803F054FB022106A803F02AFCB5
:100B0C00069D0A2221460AA803F0D2FB29460A9A1E
:100B1C000B4801F098FD0AA803F0F8FA06A803F0B8
:100B2C00F5FA00200EB070BD0120FBE73003002069
:100B3C00B8800A08C4800A08DB800A0820820A08E8
:100B4C00B8040020012910B5044604D1064903F06D
:100B5C0066FB204610BD022901D10449F7E7044980
:100B6C0003F01EFBF5E700BF340300204403002014
:100B7C0033820A08F0B501F1080387B023F00703AC
:100B8C006D4600AFADEB030D0C460A4601466846B8
:100B9C0005F0E4FF00230A220DF80430391D6846E5
:100BAC0006F032FE0446324907F1080003F0F8FA69
:100BBC00214607F1080003F0CDFB7868012C00F109
:100BCC000100786009D0022C18D007F1080003F05E
:100BDC009DFAAD461C37BD46F0BD05260A22391DCF
:100BEC0006F012FE234B013C1880013807283CD834
:100BFC00DFE800F0061F2123333537390626EDE7F1
:100C0C000121304604F083FB03F09FFE1A4B43F89E
:100C1C0024004CB919491A4803F0F2FA194AB96878
:100C2C00194801F010FDD0E7012CF7D117491848ED
:100C3C00F2E7184AF3E7184AF1E70021304604F0CE
:100C4C0066FB2CB915490E4803F0FCFA144AE6E78A
:100C5C00012CFBD111490E48F6E7124ADFE7124A84
:100C6C00DDE7124ADBE7124AD9E7124AD7E700BFA1
:100C7C0036820A0804030020CC0200202405002040
:100C8C00340300204F820A08B804002034050020E9
:100C9C00440300206B820A08A3820A08C7820A0850
:100CAC00CD820A08EC820A0822830A084E830A08BD
:100CBC0081830A08B7830A0870B5224C224D234E53
:100CCC00204801F052FB00283AD104F019F82946CB
:100CDC0003F0D8FB3146204601F030FC08B304F099
:100CEC000FF81B4903F0E1FB20461A4901F022FEE4
:100CFC002046194901F01EFE2046184901F01AFE43
:100D0C002046174901F016FE2046164901F012FE46
:100D1C002046154901F00EFE2046144901F00AFE4A
:100D2C00CEE703F0EDFF124903F0BFFB03F0E8FF41
:100D3C00104903F0BAFB42F2107003F021FEBFE73A
:100D4C0070BD00BFB8040020CF830A08F2830A08E4
:100D5C00FD830A080D840A0821840A0833840A08D2
:100D6C0047840A085B840A086F840A087D840A0891
:100D7C008B840A08A3840A0810B504464FF4007249
:100D8C0000F1300102F00CF8014B2046236010BD3D
:100D9C0030860A0870B504460E46154602F0F0F887
:100DAC0031462046012202F059F820463A2102F041
:100DBC0009F829462046BDE8704002F005B970B527
:100DCC0004460E46154602F0DBF801223146204659
:100DDC0002F044F820463A2101F0F4FF204629683D
:100DEC000122BDE8704002F039B8000070B504462D
:100DFC000E46154602F0C4F801223146204602F098
:100E0C002DF820463A2101F0DDFF2A462046BDE8A8
:100E1C007040014902F015B8538A0A08F0B507462C
:100E2C000E4615461C46ADF5117D04A8FFF7A4FF30
:100E3C0004A8FFF79FFD3A462B4904A8FFF7AAFF29
:100E4C0032462A4904A8FFF7A5FF2A46284904A8D8
:100E5C00FFF7A0FF2246274904A8FFF79BFF969AAD
:100E6C00254904A8FFF796FF979A244904A8FFF791
:100E7C0091FF989A224904A8FFF78CFF9B9968462A
:100E8C0003F0CDF96A461F4904A8FFF798FF68469E
:100E9C0003F03CF99A9A1C4904A8FFF7A7FF04A891
:100EAC0002F06EF80122194904A801F0D7FF3A218B
:100EBC0004A801F087FF999A154904A801F0C1FF15
:100ECC0004A801F08EFF0324124D134E2946304620
:100EDC00059A01F0B8FB08B9013CF7D104A8FFF75B
:100EEC00D9F90DF5117DF0BDB5840A08B8840A084E
:100EFC00BB840A08BE840A08C1840A08C4840A0890
:100F0C00C7840A08C9840A08D0840A082D850A08EF
:100F1C00D9840A08DD840A08B804002070B5044698
:100F2C000E46154602F02CF801223146204601F0FF
:100F3C0095FF20463A2101F045FF2A462046BDE8A0
:100F4C007040014901F07DBFF3840A082DE9F0419E
:100F5C000024814B0128ADF5147D1C8040F08D8060
:100F6C007E4800F07FFF7D4E002800F0F080304678
:100F7C0001F0D6F8002800F0EA8003F0C1FE7849B1
:100F8C0003F080FA6846774903F00AF9DFF800822B
:100F9C00754F3378E5B2AB422CD9354403F0B0FE33
:100FAC00697801340F2994BF4146394603F06AFA37
:100FBC0003F0A6FE1022697803F081FA697808A87C
:100FCC000F2994BF4146394603F0EAF808A9684650
:100FDC0003F0AFF908A803F099F81022697808A873
:100FEC0003F041F908A9684603F0A3F908A803F037
:100FFC008DF8CEE708A8FFF7BFFE0122694604A8CA
:10100C0003F00EFA04A9594803F014F904A803F0EC
:10101C007DF808A8FFF7AEFC544904A803F0FFF8CC
:10102C0004AA534908A8FFF7CAFE04A803F06EF8F7
:10103C000122504908A8FFF7D9FE03F086FC4E495F
:10104C00024608A8FFF76AFF08A801F0CAFE099A31
:10105C004A494B4801F0F7FA08A8FFF71BF9684614
:10106C0003F054F803F04CFE3E4903F01EFA4FF423
:10107C00FA7003F085FC01206AE00228F2D14148A5
:10108C0000F0F0FE3F4E002861D0304601F048F8E9
:10109C0000285CD003F034FE3B4903F0F3F96846BA
:1010AC00304903F07DF8DFF8E8802F4F3378E5B254
:1010BC00AB422CD9354403F023FE697801340F2957
:1010CC0094BF4146394603F0DDF903F019FE1022B6
:1010DC00697803F0F4F9697808A80F2994BF4146A0
:1010EC00394603F05DF808A9684603F022F908A810
:1010FC0003F00CF81022697808A803F0B4F808A9DA
:10110C00684603F016F908A803F000F8CEE70122B0
:10111C00694608A803F084F908A91C4803F08AF86A
:10112C0008A802F0F3FF08A8FFF726FE08A8FFF7AF
:10113C0021FC164904A803F072F804AA0C4908A86B
:10114C00FFF73DFE04A802F0E1FF022271E7002048
:10115C000DF5147DBDE8F08104030020440500204A
:10116C00FA840A088C890A0827810A0824050020B9
:10117C0019850A0820850A0828850A0832850A0874
:10118C00B80400205205002045850A0834050020CB
:10119C00F7840A082DE9F04FADF51B7D02F0B2FB88
:1011AC0008B902F0A7FB974801F0DFF8002800F01F
:1011BC002581944801F08EFAFFF726F9FFF79AFB88
:1011CC000546FFF721F902F075F98F4C8F4F237804
:1011DC0057F8233083423FD2013D012D3CD8FFF715
:1011EC0013F90C2322788A4D5343E81855F80380E1
:1011FC00884DD0F80490D0F808A0E81855F803B042
:10120C004368561C069383688348099350F8222040
:10121C000EAD089203F099FB314607902846FFF774
:10122C0091FC079B089A0393099B49460193069BE3
:10123C0040460292009352465B46CDE90465FFF7A7
:10124C00EDFD284602F062FF02F034F9237800F538
:10125C00EA40303047F82300FFF7D6F80120FFF7BB
:10126C0075FE6E4E052003F08BFB0220FFF76EFE21
:10127C0032680A2A59DD6A4D2B6803F13C0403F0ED
:10128C0064FB844251D203F03BFD664904460EA830
:10129C0002F086FF0A2201210AA802F0F6FF0AA931
:1012AC000EA803F068F80168204603F0FEF80AA8BF
:1012BC0002F02CFF0EA802F029FF0021052004F0FB
:1012CC0026F80023584959482B6003F074F860BB8A
:1012DC000EA8FFF751FD0EA8FFF74CFB53490AA8C7
:1012EC0002F09DFF52490AAA0EA8FFF768FD0AA852
:1012FC0002F00CFF01224F490EA8FFF777FD03F017
:10130C0024FB4D4902460EA8FFF708FE0EA801F07B
:10131C0068FD0F9A49493B4801F095F94249434809
:10132C0002F090FF0EA8FEF7B5FF73680A2B59DD8B
:10133C003B4D6B6803F13C0403F007FB844251D234
:10134C0003F0DEFC374904460EA802F029FF0A22FE
:10135C0002210AA802F099FF0AA90EA803F00BF8C3
:10136C000168204603F0A1F80AA802F0CFFE0EA8EF
:10137C0002F0CCFE0021062003F0C9FF00232A490D
:10138C002F486B6003F017F860BB0EA8FFF7F4FC56
:10139C000EA8FFF7EFFA2A490AA802F040FF2449E9
:1013AC000AAA0EA8FFF70BFD0AA802F0AFFE022254
:1013BC0020490EA8FFF71AFD03F0C7FA1E49024692
:1013CC000EA8FFF7ABFD0EA801F00BFD0F9A1B4901
:1013DC000C4801F038F91449194802F033FF0EA8F3
:1013EC00FEF758FF642003F0CBFA074A137883F01A
:1013FC00010313700DF51B7DBDE8F08FFFF75CFC4E
:10140C00DAE600BFB8040020200500200000002010
:10141C00EC02002054020020C402002060050020D1
:10142C00CC02002064850A08C7820A083403002015
:10143C0019850A0820850A0828850A0832850A08B1
:10144C00440300200246014803F076BB194B0A08FE
:10145C001FB503F055FC4FF4E13103F045FC03F0EC
:10146C0001FD4FF4165103F0F9FC02F04BFA10B9E0
:10147C0002F038FAF9E702F045FA0121052003F0F1
:10148C0035FF0121062003F031FF0021102003F06D
:10149C002DFF0021112003F029FF0121022003F070
:1014AC0025FF0121042003F021FF0121072003F077
:1014BC001DFF0021052003F02AFF0021062003F068
:1014CC0026FF0021022003F022FF0121042003F05B
:1014DC001EFF0021072003F01AFF2149684602F085
:1014EC005FFE6846FEF736FF684602F00FFE1D4AA7
:1014FC001D491E4803F020FB1D491E48FFF7A2FFA3
:10150C001D491E48FFF79EFF1D4A1E49174803F050
:10151C0013FB1D491D48FFF795FF1D491D48FFF79B
:10152C0091FF1D4A1D49114803F006FB1C4A1D4939
:10153C000E4803F001FB1C491C48FEF7F9FE1C4940
:10154C001C48FEF7F5FE1C491C48FEF7F1FEFEF7A1
:10155C005BFF4FF07E5003F0D7F805B05DF804FB4D
:10156C008C890A0874850A08DD020A08194B0A08D6
:10157C0041010A087F850A08F1010A088C850A08CE
:10158C003B840A08BB000A08D9000A0899850A0896
:10159C0039010A08A6850A08B3850A081D010A083C
:1015AC00BE850A0861030A0810050020C7850A08D1
:1015BC0020030020D2850A0868050020DB850A0874
:1015CC00F7B5364E364F374C374D3146384602F06C
:1015DC00E7FD3846354F2246294603F01DFF3146BC
:1015EC00384602F0DDFD3846314F2246294603F0DD
:1015FC0013FF3146384602F0D3FD38462D4F2246B4
:10160C00294603F009FF3146384602F0C9FD22464F
:10161C002946384603F000FF012002F0ADF84FF4E4
:10162C000073254E0193254B40F25B7200933046BC
:10163C000F23234900F0A0FD3046224E22462249BA
:10164C0003F0EAFE3046214902F0AAFD2246294663
:10165C00304603F0E1FE1E4F1E4E0A220B211E489F
:10166C0000F062F90A220C211C4800F05DF93946A1
:10167C00304602F095FD3046194E2246294603F0BD
:10168C00CBFE3946304602F08BFD224629463046C9
:10169C0003B0BDE8F04003F0BFBE00BFC7820A082C
:1016AC00240500204002002019410A0834050020BE
:1016BC003403002044030020B804002059170A0802
:1016CC00E1850A086805002049290A08F8840A08F7
:1016DC008C890A08200300204405002052050020B4
:1016EC0010050020002330B50D4604468FB003A82A
:1016FC00019301F0D3F903A801F0CCF92A46214655
:10170C0003A801F0AAF903A801F05CFE03A801F0FC
:10171C00D3F90D4A014602AB03A801F00BFB20B133
:10172C00029901AA03A801F02BFA019C2046FFF7AD
:10173C0025F90A2003F024F92046FFF791F903A8B4
:10174C0001F050F90FB030BDF3850A082DE9F043D4
:10175C0087B0054602AF0E4665486649144602F04E
:10176C0071FD03F0F2F8814603F0CAFA624902F007
:10177C0089FE03F0C5FA4A468046604B38461B6822
:10178C005F490093D31703F081F83968404602F0A3
:10179C008CFE384602F0BAFC28465A4905F018FA75
:1017AC0038B921463046FFF7E5F91437BD46BDE898
:1017BC00F0832846544905F00BFA38B9534B1B7883
:1017CC0023B121463046FFF78DFFEEE728465049FE
:1017DC0005F0FEF98046D0B904F1080323F00703A5
:1017EC006D46ADEB030D02AB22463146184605F0B3
:1017FC00B5F9014600F80480384602F0D1FC3846B1
:10180C00FEF755FC384602F081FCAD46CDE7284684
:10181C00404905F0DDF928B93F49384602F0C0FCD3
:10182C0002F025F928463D4905F0D2F98046B0B9B9
:10183C0004F1080323F007036D46ADEB030D02AB77
:10184C0022463146184605F089F9014600F8048015
:10185C00384602F0A5FC3846FEF73AFDD2E728469A
:10186C002F4905F0B5F9E0B9284B93F80080B8F191
:10187C00000F16D104F1080323F007036D46ADEBFE
:10188C00030D02AB22463146184605F067F90146B6
:10189C0000F80480384602F083FC3846FEF74AFC18
:1018AC00B0E728461F4905F093F900287FF47DAF77
:1018BC00164B1D78002D7FF478AF04F1080323F04C
:1018CC000703E846ADEB030D02AB22461846314642
:1018DC0005F044F901460555384602F061FC3846DE
:1018EC00FEF780FC384602F011FCC5465DE700BFF0
:1018FC0068050020FC850A08FF850A0808000020FE
:10190C008C05002021840A080D840A08300300206D
:10191C0033840A0847840A088A850A085B840A0803
:10192C006F840A087D840A0838B5044615460846B3
:10193C002173012103F0DAFC207B012103F0E7FC89
:10194C0028460121657303F0D1FC607B002103F074
:10195C00DEFC204638BD000038B50C4D2978BFF3AD
:10196C005B8F11F001040FD12846FEF796FB58B19E
:10197C002146074802F039F82846FEF793FB054A42
:10198C000549034803F048FD014838BD44020020D6
:10199C004802002040020020CB020A0810B5044681
:1019AC00FFF7DAFF2146BDE8104002F03BB870B5F6
:1019BC000E46154604460021007B03F0A8FC06F0F9
:1019CC007E00FFF7EBFF2846FFF7E8FF207B0121A5
:1019DC00BDE8704003F09BBCF8B50F4606460021ED
:1019EC00007B15461C4603F092FC07F07E00FFF7C7
:1019FC00D5FF2544AC4204D014F8010BFFF7CEFF01
:101A0C00F8E7307B0121BDE8F84003F080BC38B525
:101A1C000C4605460021007B04F07E0403F077FCA5
:101A2C0044F08000FFF7BAFF0020FFF7B7FF044631
:101A3C000121287B03F06BFC204638BD70B50446B1
:101A4C000D461646FFF7E3FF40EA060229462046FC
:101A5C00BDE87040D2B2FFF7AABF70B504460D4680
:101A6C001646FFF7D4FF20EA060229462046BDE8B9
:101A7C007040D2B2FFF79BBFF8B5044615460F462F
:101A8C00002202211E46FFF792FF04220A21204663
:101A9C00FFF78DFF802214212046FFF7CFFF2A4647
:101AAC003B4612212046FFF797FF032202212046D6
:101ABC00FFF77DFF41F288350A212046FFF7A7FF8B
:101ACC00430705D4013DADB2002DF5D104200FE044
:101ADC00002202212046FFF76AFF44212046FFF72F
:101AEC0096FF422130702046FFF791FF7070012065
:101AFC00F8BD10B50F2202210446FFF758FF322023
:101B0C0002F03EFF02212046FFF781FFC306F9D405
:101B1C0010BD10B528210446FFF779FF00F0030330
:101B2C00032B08D040F0030228212046BDE81040CA
:101B3C00D2B2FFF73CBF10BD10B50446407B03F09A
:101B4C00FFFB48BB607B012103F0E1FB322002F07C
:101B5C0017FF204680225421FFF729FF2046A92297
:101B6C005621FFF724FF204603225821FFF71FFFC1
:101B7C002046E8225A21FFF71AFF204640222A214C
:101B8C00FFF715FF20463D222221FFF710FF2046CC
:101B9C00BDE81040FFF7BDBF2046FFF7AAFFD8E70E
:101BAC004C2108B5FFF733FF00F0700008BD38B5C5
:101BBC000D460446FFF7F4FFA8420CD020467022D5
:101BCC004C21FFF74AFF204605F070024C21BDE87E
:101BDC003840FFF733BF38BD2DE9F74F07461E4697
:101BEC0015469DF83080002A42D001F07E01007B22
:101BFC0041F08009002103F08AFB4846FFF7CEFE36
:101C0C004FF0000B4FF0010A013DEDB25FFA8BF47F
:101C1C00A54222D9DCB9B8F1000F18D04246D3B294
:101C2C00072B61B205D80AFA02F40C43E4B2013274
:101C3C00F5E748460191FFF7B1FE3378019904406E
:101C4C0023EA01031C4334700BF1010BDEE7484619
:101C5C00FFF7A4FE06F80B00F6E70020FFF79EFE48
:101C6C0001217055387B03B0BDE8F04F03F04FBB3A
:101C7C0003B0BDE8F08F2DE9F04F89B00392DDF889
:101C8C0054909DF85C200446DDE913568A460027E3
:101C9C009DF858B00492B9F1000F3ED099F800802D
:101CAC000022022120460593FFF781FE7F220821A6
:101CBC002046FFF77CFE08EB0B18802214212046EF
:101CCC00FFF7BCFE5FFA88F8059B122120469DF8B1
:101CDC004820FFF781FE42461A212046FFF767FE97
:101CEC00524602212046FFF762FEBAF10C0F04D1D6
:101CFC0080221A212046FFF7A1FE4FF4FA68082132
:101D0C002046FFF784FE039B184208D1C30702D478
:101D1C00B8F10108F3D104204DE0C846C0E70C210E
:101D2C002046FFF774FE10F0130F804646D1DDB14C
:101D3C00D6B114212046FFF76AFE3378024683425F
:101D4C003ED330702B4612212046CDF800B0FFF761
:101D5C0043FF18212046FFF75AFE00F00707B9F1A0
:101D6C00000F01D089F8007018F0080F2AD15DB36C
:101D7C0056B3049B43B33278012A03D1042F25D1E7
:101D8C00092018E022D90FBB023A2946204607AB9E
:101D9C00D2B2FFF771FE01280DD133781D4415F82E
:101DAC00022C9DF81C309A4210D115F8012C9DF88C
:101DBC001D309A420AD109B0BDE8F08F0220FAE733
:101DCC000520F8E70320F6E70120F4E70820F2E706
:101DDC0010B586B09DF82C40009205949DF82840D3
:101DEC0030220494099C0394089CCDE901340B46E1
:101DFC000C21FFF740FF06B010BD70B588B0064649
:101E0C001C4615468DF817101AB31B78012B20D9D8
:101E1C0080221C21FFF721FE07238DF81F300023A1
:101E2C00CDE902330DF11F03CDE9004301222B460E
:101E3C0030460DF11701FFF7CBFF012807D12378AE
:101E4C00022B08D19DF81F30002B18BF022008B0C0
:101E5C0070BD0520FBE70220F9E713460A46262150
:101E6C00FFF7CBBF022307B50DF1030201A98DF8D3
:101E7C000330FFF7F2FF00F0FD00431E58425841BB
:101E8C0003B05DF804FB2DE9F04F502A82460F4653
:101E9C0090468BB000F23B8180221C21FFF7DDFDC8
:101EAC0093238DF81C30B8F1000F00F0B9803C780A
:101EBC00042C94BF00230123012500260BE095235D
:101ECC008DF81C30B8F1000F00F0AC803C78072C7A
:101EDC0094BF00230123A8EBC60464B224EAE47483
:101EEC00002B00F0A180882203218DF81E2014F015
:101EFC00070218BF012202EBE40212F0FF02E0B26B
:101F0C001AD0002B14BF4FF0030C4FF0040C944567
:101F1C0094BF01EB0C028A1806F1010EBE44D2B23A
:101F2C008C4601311EF8019BC9B20DF1280BDC4423
:101F3C0091420CF80C9CF3D113B100F1080464B27B
:101F4C001F2C73DD4FF070039DF81F208DF81D3092
:101F5C009DF81E30504653409DF8202007A9534051
:101F6C009DF8212053408DF8223007220DF12303D8
:101F7C00FFF782FD0128814640F0C58000238DF8D3
:101F8C001A3003234FF009098DF81B3004940DF11E
:101F9C00220B9DF81A301A2103EB03125046D2B2D1
:101FAC000593FFF704FD0022059B039202930DF1AC
:101FBC001A0301930DF11B034A46009350465B46EE
:101FCC0007A9FFF705FF032881464BD11C2150467A
:101FDC00FFF71DFD810600F1968010F01F0008BF71
:101FEC002020A04240F38480431E03F0070213F02C
:101FFC00070318BF012344B2C008013018440AABD0
:10200C001844012303FA02F210F80C3C134300F8B5
:10201C000C3C95E7972306268DF81C3023465AE78F
:10202C00434649E7434656E7022160E714F00709A7
:10203C0018BF4FF00109E3100233DBB204F00702C2
:10204C008DF81A2002EB03128DF81D2007AA994473
:10205C0002EB030BC3F109035FFA89F98DF81B300E
:10206C00049496E701284ED1049B20241F2B7FF764
:10207C0069AF9DF81E30882B3DD103231A460136DB
:10208C001A443E44D2B219460AA80133014411F84D
:10209C000C1CDBB2934206F8011BF4D19DF81B60BB
:1020AC00032E37D19DF81A40A4BB01225946504645
:1020BC000DF11E03FFF7E0FC0128814623D19DF8AA
:1020CC001E209BF801309A4227D19DF81F209BF8C7
:1020DC0002309A4221D19BF800305A070ED50135B7
:1020EC00EDB2032D96D0042D02D0022D3FF4E7AEB5
:1020FC004FF0060907E002230422C0E705EB450573
:10210C000135FB723D7048460BB0BDE8F08F4FF0C7
:10211C000709F8E74FF00209F5E74FF00809F2E775
:10212C0008B501460022FFF7AEFE431E5842584147
:10213C0008BD38B51D46059B044603630023436365
:10214C0002B1826419B104F1380002F07BF8049BEF
:10215C00E0692365069BA4F84C50FF2BB8BFFF2306
:10216C00A4F8543008B1FDF796FFB4F85400FDF70D
:10217C008EFFE06138BD00002DE9FF4104460026CA
:10218C00174698460D4601F019FF0B49E66104F11C
:10219C00380002F005F80B9B204602930A9B32464E
:1021AC00CDE9008329463B46A664FFF7C2FF2046D3
:1021BC0004B0BDE8F08100BF8C890A0810B5044654
:1021CC00204601F011FE0028FAD0204601F04FFD08
:1021DC00C0B210BD2DE9F0470546C46989460127F8
:1021EC00FFF7ECFF4FF0000820703C46EB6993F8CA
:1021FC0000A00AF0F00A2846FFF7E0FF2646EB693C
:10220C000134985500F07F0303FB07880306A4B242
:10221C001FFA88F84FEAC717EDD4631EBAF1300FD6
:10222C0089F8003024D12846EF69FFF7C7FF3855ED
:10223C002846EF69FFF7C2FFF41C0236B6B2B85558
:10224C000226A4B2B6B2B1462746C14512D22846E0
:10225C00FFF7B4FFB5F8543009F10109BB4288BF50
:10226C00EB691FFA89F988BFD8550137BFB2ECE783
:10227C000026E7E7A8EB0600B0452CBF0646002673
:10228C00B5F854003444A4B2A0422CBF2046002020
:10229C00BDE8F087F7B58C461E461D460746002361
:1022AC00AE4605F07F01BEF17F0F02A888BF41F05A
:1022BC0080015C1CBEF17F0F03444FEAD515E4B2DC
:1022CC0003F8041C10D8C4F10403D11802F803C09D
:1022DC00C4F10503134401A80532934206D010F84B
:1022EC00015B03F8015BF8E72346D9E7721C224433
:1022FC00384601F03FFC054601F0DCF80134786209
:10230C003444A8B2231A5842584103B0F0BDE0221D
:10231C0010B5C36904461A700022C3695A70C169AA
:10232C00022201F027FC204601F098FD01F0C2F8D2
:10233C00C4E9090010BD0233F0B5044698B200237D
:10234C00CD5C4DB1B4F854605F1C864204D9461C78
:10235C0015543B46B0B2F3E799B2441A2244091221
:10236C0002F8021C02F8013CF0BD38B5044601F03D
:10237C00CCFD002814BF0125002502D1204601F018
:10238C006DFD284638BD00002DE9F04786B00446A7
:10239C00894617461E46DDF838809DF848A0FFF7A1
:1023AC00E4FF0546002840F0C380A16C002940F0F2
:1023BC0087800346B4F84C202046A16B01F016FE32
:1023CC00002879D0012323849DF84C30E269042B3A
:1023DC0040F08180574B186899889B79ADF80410B0
:1023EC008DF806300090C2F805009DF80630BDF857
:1023FC000410D3720C23A2F80910B8F1000F7ED090
:10240C009DF840009DF83C20400140EAC20040F09D
:10241C000600C0B2BAF1000F01D100F0FD001FB1EF
:10242C00002E6ED140F08000E269D054226DE1693B
:10243C00581C12120A54E169206D9A1C88540333FB
:10244C0049462046E269FFF776FF0346B8F1000FD4
:10245C000BD04146E2692046FFF76DFFE269034667
:10246C0011992046FFF767FF034667B139462046AE
:10247C00E269FFF760FF03462EB131462046E26960
:10248C00FFF759FF0346053B1021E2699BB220463A
:10249C00FFF700FF01F00EF84FF47A76C4E909005B
:1024AC00204601F0A1FC78BB01F004F8A36AC01A25
:1024BC00236D73439842F3D9204601F0CFFC33E0EF
:1024CC00684602F0B7FB2B4669462046B4F84C2010
:1024DC0001F01AFC74E7EC46174B186859681B7A24
:1024EC00ACE803008CF800306B4603CBC2F8050057
:1024FC00C2F809109CF8003053730E237DE70220BC
:10250C0088E740F0C0008FE769462046FFF762FE7F
:10251C000428D1D1E369DE78002ECDD100F0CAFFBA
:10252C000125A06284F82C60284606B0BDE8F0872F
:10253C000025F9E738860A083F860A087FB501238B
:10254C000422CDE9043200231A46CDE90233CDE949
:10255C000033FFF719FF07B05DF804FB2DE9F14FCD
:10256C00DDF8348004468B4616461F469DF828A09D
:10257C009DF82C509DF83090FFF7F7FE002850D0B6
:10258C000021B4F85420E06904F0F6FA052359460A
:10259C002046E269FFF7CFFE6B1E012B15D8238C6A
:1025AC00E26901339BB223841B121354411CE3696F
:1025BC00228C89B2023080B25A54B8F1000F04D088
:1025CC00238C5A1C2284A8F8003000210B188F424F
:1025DC00E2699BB20AD9B4F854C09C4506D916F8E6
:1025EC0001C0013102F803C089B2EFE7BAF1000F64
:1025FC000CBF30213121B9F1000F01D041F008019D
:10260C00022D09D141F004012046053B9BB201B0DB
:10261C00BDE8F04FFFF73EBE012D08BF41F00201AF
:10262C00F2E701B0BDE8F08F1FB5089C03940024BD
:10263C0002949DF81C4001949DF818400094FFF7FB
:10264C008DFF04B010BD7FB50546104614460E46EE
:10265C0005F032F800220346CDE901220092314602
:10266C0022462846FFF7E0FF04B070BD38B504469B
:10267C000D46FFF77AFE90B16222E36920461A708C
:10268C000222E3695A70E3692A129A70E369042200
:10269C00DD70E16901F06EFA003818BF012038BD19
:1026AC0038B504460D46FFF760FE90B17222E3691F
:1026BC0020461A700222E3695A70E3692A129A7052
:1026CC00E3690422DD70E16901F054FA003818BFA7
:1026DC00012038BD2DE9F04F87B000AF0446FFF75D
:1026EC0044FE8146B0B100F0E5FE4FF47A73226DE2
:1026FC0006465343A26A821A9A4203D8626A821A25
:10270C0093421BD294F82C304BB1204601F0A6FB1F
:10271C004FF0000948461C37BD46BDE8F08FC0217C
:10272C00E26920461170E2695370E169022201F0FE
:10273C0021FA0123C4E9096684F82C30204601F003
:10274C0053FB0028E6D0204607F11701FFF742FDA6
:10275C0083460028DED0E369A662197801F0F00206
:10276C00302A7DD1D4F830A0BAF1000FD2D097F82E
:10277C0017C0C7F800D003EB0C025578917801EB29
:10278C0005218DB2694605F10802D208A1EBC202FF
:10279C00954668460CF10302FA6003EB020E0DEB52
:1027AC000502C7F808D07A60D7E901218A4206D021
:1027BC000A461EF8018B02F8018BBA60F4E700227E
:1027CC00425593F80080F96808F00608ABEB0C0250
:1027DC00033AB8F1020FA2EB0502294424D113F8F5
:1027EC0001E0194491F801B00CF105012944023AB9
:1027FC0019440BEB0E2BD0474022E3691FFA8BFBDD
:10280C001A70E36983F80180E3694FEA2B229A700E
:10281C00E369042283F803B02046E16901F0AAF9C8
:10282C006662D7F800D075E7B8F1040F15D113F82C
:10283C0001E0194491F801B00CF105012944023A68
:10284C0019440BEB0E2BD0475022E3691FFA8BFB7C
:10285C001A700222E3695A70D6E71944D047E0E7B0
:10286C00502A08D19A78D978204601EB022189B2F6
:10287C00FFF7FCFE4EE7402A12D1626B002A3FF4B0
:10288C0049AFBBF1040F7FF445AF11F0060F7FF495
:10289C0041AF9978D87800EB012080B2904739E7A6
:1028AC00602A08D19A78D978204601EB022189B2A6
:1028BC00FFF7F6FE2EE7702ADFD0902A3FF42AAFFE
:1028CC00C02A0AD1D0221A700022E36920465A701D
:1028DC00E169022201F04EF91CE7D02A04BF002363
:1028EC0084F82C3016E770B504460E461546FFF7F3
:1028FC003CFDF0B1238C01339BB2C3B12384238CF8
:10290C00E2691B125371E369228C31469A71E269B8
:10291C0007232046FFF70FFDE36982211D5404387D
:10292C00E26983B22046BDE87040FFF7B3BC0123D7
:10293C00E4E770BD0022FFF7D6BF000038B50546AE
:10294C00FFF713FD10B12846FFF7E1FCE86908B169
:10295C00FDF7A1FB05F1380001F0D8FB0A4BAC697F
:10296C002B607CB16368013B63605BB923682046D4
:10297C009B689847A368013BA3601BB9236820465A
:10298C00DB689847284638BDD4860A0810B5054B35
:10299C0004460360037C1BB9406808B100F0D2FF09
:1029AC00204610BD64860A0810B50446FFF7EEFFFA
:1029BC002046142102F035FD204610BD10B504460A
:1029CC00024B0360FFF7E2FF204610BD84860A0825
:1029DC0010B50446FFF7F2FF2046302102F021FD2E
:1029EC00204610BD10B5074B04460360037C1BB991
:1029FC00406908B100F0A6FF2046FFF7C7FF20464C
:102A0C0010BD00BF74860A0810B50446FFF7EAFF34
:102A1C0020462C2102F005FD204610BD034A026021
:102A2C000022C0E90122C2600274704764860A0861
:102A3C0038B5037C04460D460BB1002038BD406808
:102A4C0038B100F087FF0028F7D0C4E90105012058
:102A5C00F4E7084600F06EFFF5E770B5C3680E4664
:102A6C00D11843680446154673B183688B420BD367
:102A7C006068E3682A463146184404F06FF8012078
:102A8C00E2682A44E26070BD2046FFF7D1FF0028BF
:102A9C00EED1F8E70023C3607047000008B5034689
:102AAC00FFF7BCFF034A18461A600022C3E905224F
:102ABC00DA6108BD74860A080346D3E90503984217
:102ACC0004D20378012B18BF0020704700207047F8
:102ADC0070B513689D68136803F11004146086695F
:102AEC00B4420AD29B698C68A34201DAAB42F2DD94
:102AFC00A342CCBF0020012000E0002070BD2DE9D6
:102B0C00F3410546174600269846089C01F1100330
:102B1C0001930198AB6983421BD982688B689A42F6
:102B2C0017DAA6420BD1386001AA2846FFF7D0FF6E
:102B3C0028B1019BC8F8003002B0BDE8F08101AAB1
:102B4C002846FFF7C5FF284601AA0136FFF7C0FF4C
:102B5C00DFE70020F0E7F0B50024013BD1E9017676
:102B6C00F61BA64208DDA34206DD45683D442D5DFB
:102B7C00013402F8015BF1E700231370F0BD000093
:102B8C001FB5144610236A46FFF7E5FF2246684638
:102B9C00034900F0EFFE431E5842584104B010BDEB
:102BAC00538A0A0810B5044600680B4628B101F098
:102BBC00C4FBE3680133E36010BD60680028F8D003
:102BCC00D4E90221013A8A4288BF4354F1E77F28B5
:102BDC0070B50C46C1B204D82046BDE87040FFF772
:102BEC00E1BF01F03F01B0F5006F40F3871641F0F3
:102BFC00800507D266F03F01C9B22046FFF7D2FF2D
:102C0C002946E9E7030B43F0E0012046FFF7CAFF32
:102C1C0006F03F0141F08001EFE700002DE9FF478E
:102C2C00002480460F461546A1464E68DFF8C4A026
:102C3C00B868B0425ADDD8F80430995D9A19002C66
:102C4C004BD0752905D86D2907D862291ED0662965
:102C5C001ED02846FFF7A6FF3DE0A1F16E04072C1D
:102C6C00F7D80FF2080C5CF824F000BFA12C0A086E
:102C7C005F2C0A085F2C0A085F2C0A08A52C0A088E
:102C8C005F2C0A08A92C0A08AD2C0A080821E0E7D9
:102C9C000C21DEE70A21DCE70D21DAE70921D8E770
:102CAC00311D884217DD02A908460433334412F85B
:102CBC00014F9A4201F8014BF9D1514601AA8DF806
:102CCC000C9000F057FE012805D12946BDF80400F0
:102CDC00FFF77DFF0536002404E05C2904D028466C
:102CEC00FFF760FF0136A3E70124FBE7012004B0E6
:102CFC00BDE8F08748860A087FB50C46154606469F
:102D0C000B49104601F09EFAD4E90131C91A284644
:102D1C00013101F019FA00236A4621463046CDE90B
:102D2C00013300950393FFF779FF04B070BD00BF2A
:102D3C008C890A082DE9F04389B00546884604A819
:102D4C00124916469946002701F02AFA4B4641468D
:102D5C002846009703AAFFF7D2FE044670B1284616
:102D6C00039904AAFFF7C8FF044608B90137EDE739
:102D7C00314604A801F01FFB0028F7D004A801F08D
:102D8C00C5F9204609B0BDE8F08300BF8C890A085C
:102D9C0000230122C3604361028380F82A3070470C
:102DAC000023C36001230374054B10B503604FF07F
:102DBC00FF33C0E90112C362FFF7EAFF10BD00BF89
:102DCC0084860A08D0E90223934228BF012310B558
:102DDC003FBF42685C1CC460D15428BF80F82A30C5
:102DEC0010BD10B54369044643B100EB4303597E53
:102DFC0009B1FFF7E7FF6369013B63610022D4E986
:102E0C000210636888422ABF5B181A5403F8012C1D
:102E1C0010BD70B50446D0E9025066682D1A1346F1
:102E2C0030440A46294600F0C5FD854237BFA368E9
:102E3C00E368E360012326BFC018E06084F82A3001
:102E4C0070BD0EB403B503AA52F8041B0192FFF730
:102E5C00E0FF02B05DF804EB03B070472DE9F843D6
:102E6C0004460E46174612B12221FFF7ABFF002590
:102E7C00DFF80881715D06EB0509002974D0D4E9EF
:102E8C0002329A4270D20B0634D501F0F003E02BDB
:102E9C0005F101091DD116F8092002F0C003802BA1
:102EAC0039D105F1020916F8093003F0C000802869
:102EBC0031D103F03F03920143EA013302F47C6207
:102ECC001A4392B241462046FFF7BBFF4D460135EF
:102EDC00D0E701F0E003C02B1DD116F8093003F048
:102EEC00C002802A17D1890101F4F86203F03F0374
:102EFC001A43E7E70D290AD807290CD9A1F10803D1
:102F0C00052B08D8DFE803F00B231707111D222926
:102F1C0023D05C2921D02046FFF754FFD7E75C2152
:102F2C002046FFF74FFF6221F5E75C212046FFF7B3
:102F3C0049FF6621EFE75C212046FFF743FF6E2136
:102F4C00E9E75C212046FFF73DFF7221E3E75C21B6
:102F5C002046FFF737FF7421DDE75C212046FFF7A1
:102F6C0031FF99F80010D6E72FB12046BDE8F843A1
:102F7C002221FFF727BFBDE8F88300BF4D860A0862
:102F8C00426900EB42031A7E12B100221A76704796
:102F9C002C21FFF717BFF8B543690E460133082BF8
:102FAC0017460ED8FFF7ECFF0125436931465A1C32
:102FBC0000EB430342619D76DF76FFF703FF284663
:102FCC00F8BD0020FCE7000037B50446C56A08468A
:102FDC0002F0A4FC002D02460B4608DBCDE90023D1
:102FEC0020462A460549FFF72CFF03B030BD20468A
:102FFC00034903B0BDE83040FFF723BF54860A08ED
:10300C0059860A082DE9F04F4FF0010C4FF0FF35AF
:10301C0004464068D4F800E0964580F0BE8111F873
:10302C000E80B8F1000F00F0B881B8F13A0F00F043
:10303C009B8033D8B8F1220F00F0AD8010D8A8F1E6
:10304C0009085FFA88F8B8F1170F0DD8C04F0CFAC1
:10305C0008F818EA070F07D0276801372760D9E767
:10306C00B8F12C0F00F03681D4F8008042450ED90F
:10307C0011F808705FB13A2F00F26E811F2F00F229
:10308C0052810A2F00F26181082F40F25781002BE8
:10309C0040F0678108F1FF372760ABE0B8F17B0F98
:1030AC003AD00AD8B8F15B0F36D0B8F15D0FDBD14E
:1030BC00002BD1D04FF0020B06E0B8F17D0FD3D12D
:1030CC00002BC9D04FF0010B676807F1FF3803EBF9
:1030DC000719B8F1000F4FDB59F80C7CA9F1100A55
:1030EC00013745D059F8087C7E1C41D19AF80090E4
:1030FC00D94545D1A7600EF10107CAF8087003EB5A
:10310C00081EDEF8047001373DD0DEF80870013778
:10311C0039D1C4F808809FE70130002B9CD0676838
:10312C00099EBE424ED9002607F1010EC4F804E0F8
:10313C0003EB071ECEE90155CEF80C604FEA071AD7
:10314C00A7687E1C1FBF03EB0719D9F80C70013759
:10315C00C9F80C70B8F17B0F0CBF0127022703F8DC
:10316C000A702768CEF804706768013FA76073E7A0
:10317C00D14608F1FF38ACE7B8F1FF3F7FF46CAFF4
:10318C006FF0010020E008F1FF38B8F1FF3FAEF11D
:10319C00100EB6D160E70EF10109C4F80090D4F816
:1031AC000080424540F2918011F80870002F00F029
:1031BC008C80222F2ED1EBB16768099EBE4205D8B8
:1031CC00C4F800E04FF0FF30BDE8F08F00264FF060
:1031DC00030A07F1010E4FEA071803EB0717C4F8AF
:1031EC0004E0C7E90155FE60D4F800E003F808A03C
:1031FC00C7E9019EA76801307E1C3FF42DAF002B60
:10320C003FF42AAF03EB071EDEF80C700137CEF843
:10321C000C7021E75C2F11D108F10107BA420DD9CE
:10322C002760CF5D752F2BD86D2F0BD8662F27D825
:10323C005B2F1DD8222F01D02F2F21D127680137CA
:10324C002760ACE76E3F072F1AD801A656F827F077
:10325C0049320A088D320A088D320A088D320A0862
:10326C0049320A088D320A0849320A0893320A0890
:10327C0040F241465C3FFFB20CFA07F73742DDD112
:10328C00C4F800E07CE74FF0040A08F1020727605D
:10329C00D4F80080424503D82768013F2760CDE76A
:1032AC0011F80870002FF7D0A7F1300BBBF1090F04
:1032BC0004D927F02007413F052FE1D808F1010779
:1032CC00BAF1010A2760E3D1E6E7C4F800E06FF039
:1032DC00020079E7002B3FF4BFAEA7687E1C3FF4D9
:1032EC00BBAE3F01DF5D013F012F7FF6B5AE6768D6
:1032FC0007F1FF3803EB071EB8F1000FFFF6ACAE79
:10330C001EF8107C013F012F08D85EF80C7C0137A9
:10331C0004D05EF8087C01373FF4FBAE08F1FF38AF
:10332C00AEF1100EE8E7A7F120090A4E5FFA89F911
:10333C000CFA09F919EA060F7FF4A9AE203F5E2FAB
:10334C009ED808F1010727608EE60D2FF6D19EE678
:10335C00130080000110000407F0DF09B9F15D0FC4
:10336C00F4E76768099EBE427FF62AAF00264FF04D
:10337C00040A07F101084FEA071903EB0717C4F811
:10338C000480C7E90155FE60D4F8008003F809A059
:10339C00C7E901E82768013F7EE6002B3FF414AF34
:1033AC006268511E03EB02130029FFF60DAF53F8B0
:1033BC000C2C013203D053F8082C013287D0013980
:1033CC00103BF1E7F7B5C268044612B9002003B010
:1033DC00F0BD436900F12006ABB10021C0E9081132
:1033EC004FF0FF318162C169009141683046FFF7AF
:1033FC0009FE431C2CD1257C002DE7D1606900F01F
:10340C00A1FA6561E56100254FF0FF372B46304688
:10341C00C4E90855E2686168A7620095FFF7F2FD00
:10342C000028D3DBE0611BD0000100F083FAE269D5
:10343C000346606100923046C4E90855E268616851
:10344C00A762FFF7DFFD636903EB0013A36105E0DF
:10345C000028BBDB636903EB0010A0610120B6E719
:10346C006369F3E708B5024B1B689B68019308BDC1
:10347C00B001060808B5024B1B68DB68019308BD58
:10348C00B001060808B5024B1B681B69019308BD07
:10349C00B001060808B5024B1B685B69019308BDB7
:1034AC00B001060808B5024B1B685B68019308BDA8
:1034BC009C01060808B5024B1B685B69019308BDAB
:1034CC009C01060808B5024B1B689B6D019308BD57
:1034DC009C01060808B5024B1B685B6E019308BD86
:1034EC009C01060808B5024B1B685B6C019308BD78
:1034FC00D001060808B5024B1B689B6C019308BDF4
:10350C00D001060808B5024B1B68DB6C019308BDA3
:10351C00D001060808B5024B1B685B6D019308BD12
:10352C00D001060808B5024B1B689B69019308BDC6
:10353C00C401060808B5024B1B685B6A019308BD01
:10354C00C401060808B5024B1B689B6A019308BDB1
:10355C00C401060808B5024B1B68DB6A019308BD61
:10356C00C401060808B5024B1B681B6B019308BD10
:10357C00C401060808B5024B1B685B6B019308BDC0
:10358C00C401060808B5024B1B689B6B019308BD70
:10359C00C401060808B5024B1B681B6C019308BDDF
:1035AC00C401060808B5024B1B68DB6C019308BD0F
:1035BC00C401060808B5024B1B681B6E019308BDBD
:1035CC00AC01060808B5024B1B685B6E019308BD85
:1035DC00AC01060808B5024B1B689B6E019308BD35
:1035EC00AC01060808B5024B1B68DB6E019308BDE5
:1035FC00AC01060808B5024B1B681B6F019308BD94
:10360C00AC01060808B5024B1B685B6F019308BD43
:10361C00AC01060808B5034B1B68D3F88030019346
:10362C0008BD0000AC01060808B5024B1B681B68FE
:10363C00019308BDBC01060808B5024B1B685B680A
:10364C00019308BDBC01060808B5024B1B689B68BA
:10365C00019308BDBC01060808B5024B1B68DB686A
:10366C00019308BDBC01060808B5024B1B681B6919
:10367C00019308BDBC01060808B5024B1B681B6A08
:10368C00019308BDBC01060808B5024B1B681B6BF7
:10369C00019308BDBC01060808B5024B1B685B6CA6
:1036AC00019308BDBC01060808B5024B1B681B68DA
:1036BC00019308BDB401060808B5024B1B685B6991
:1036CC00019308BDB401060808B5024B1B68DB6901
:1036DC00019308BDB401060808B5024B1B681B6AB0
:1036EC00019308BDB401060808B5024B1B681B68A2
:1036FC00019308BDD801060808B5024B1B685B682E
:10370C00019308BDD801060808B5024B1B681B695C
:10371C00019308BDD801060808B5024B1B685B690C
:10372C00019308BDD801060808B5024B1B689B69BC
:10373C00019308BDD801060808B5024B1B68DB696C
:10374C00019308BDD801060808B5024B1B681B6A1B
:10375C00019308BDD801060808B5024B1B685B6CC9
:10376C00019308BDC001060808B5024B1B689B6C91
:10377C00019308BDC001060808B5024B1B681B6D00
:10378C00019308BDC001060808B5024B1B685B6FAE
:10379C00019308BDC001060808B5024B1B681B6DE0
:1037AC00019308BDA801020808B5024B1B681B68F1
:1037BC00019308BDA401060808B5024B1B685B68A1
:1037CC00019308BDA401060808B5024B1B685B6990
:1037DC00019308BDA401060808B5024B1B689B6D3C
:1037EC00019308BDA401060808B5034B1B68D3F868
:1037FC009030019308BD0000A401060808B5034BE6
:10380C001B68D3F89C30019308BD0000A401060886
:10381C0008B5034B1B68D3F8B430019308BD000006
:10382C00A401060808B5024B1B685B68019308BD30
:10383C00C801060808B5024B1B689B68019308BDBC
:10384C00C801060808B5024B1B68DB68019308BD6C
:10385C00C801060808B5024B1B681B69019308BD1B
:10386C00C801060808B5024B1B685B69019308BDCB
:10387C00C801060808B5024B1B689B69019308BD7B
:10388C00C801060808B5024B1B68DB69019308BD2B
:10389C00C801060808B5024B1B681B6A019308BDDA
:1038AC00C801060808B5024B1B681B6B019308BDC9
:1038BC00C801060808B5024B1B685B6B019308BD79
:1038CC00C801060808B5024B1B681B68019308BDAC
:1038DC00CC01060808B5024B1B685B68019308BD58
:1038EC00CC01060808B5024B1B689B68019308BD08
:1038FC00CC01060808B5024B1B68DB68019308BDB8
:10390C00CC01060808B5024B1B685B69019308BD26
:10391C00CC01060808B5024B1B681B6B019308BD54
:10392C00CC01060808B5024B1B68DB6B019308BD84
:10393C00CC01060808B5024B1B681B68019308BD37
:10394C00A001060808B5024B1B685B68019308BD13
:10395C00A001060808B5024B1B689B68019308BDC3
:10396C00A001060808B5024B1B681B69019308BD32
:10397C00A001060808B5024B1B685B69019308BDE2
:10398C00A001060808B5024B1B689B69019308BD92
:10399C00A001060808B5024B1B68DB69019308BD42
:1039AC00A001060808B5024B1B681B6A019308BDF1
:1039BC00A001060808B5024B1B685B6A019308BDA1
:1039CC00A001060808B5024B1B681B6B019308BDD0
:1039DC00A001060808B5024B1B685B6C019308BD7F
:1039EC00A00106088068FFF795BD70B50026044657
:1039FC000D4640F8086FFFF775FD28462570FFF758
:103A0C0063FE2046666070BD38B504460D4680687E
:103A1C00FFF778FD20782946FFF746FE2046FFF792
:103A2C00E1FF38BD08B50078FFF746FEC0B208BD0F
:103A3C0010B50446006818B1FFF784FF002323601B
:103A4C0010BD10B50446FFF7F3FF204610BD07B5B7
:103A5C000B4600210246009101208C21FFF7D8FE75
:103A6C0003B05DF804FB01460020FFF7F0BF002017
:103A7C00FFF7F9BF0222002010B5084B084C1A6062
:103A8C00084B2060A080A071A360FFF795FE204634
:103A9C00BDE81040044A054901F0BEBC8405002075
:103AAC00780500200000FFFF400200204F3A0A0872
:103ABC0010B5044603F000FE431E20462344834207
:103ACC0006D90278197800F8011B03F80129F6E7EA
:103ADC0010BD70B50C46911E222922D8254668B11E
:103AEC00B0FBF2F602FB1600C1B2092894BF3031CC
:103AFC005731C9B2304605F8011BF0E72A46302190
:103B0C002344934202D902F8011BFAE75A1BAB4239
:103B1C0038BF002200232046AB54FFF7C9FF2046D4
:103B2C0070BD0020FCE738B5031E0C4615460DDAB7
:103B3C002D22B3F1004F0CBF1846584201230A70D6
:103B4C002A461944FFF7C5FF204638BD0123F9E783
:103B5C0008B50123FFF7BDFF08BD13B503688DF849
:103B6C000710DC6B012247F230530DF10701A0471F
:103B7C0002B010BD10B40368DC6B47F23053A4469E
:103B8C0010BC604713B5134602688DF80710D46B50
:103B9C000DF107010122A04702B010BD704770471C
:103BAC0010B50446064B0846994204F10C0404D0A7
:103BBC0001F03CFC002808BF0024204610BD00BFCB
:103BCC00C4860A0810B50446AC2101F02AFC204634
:103BDC0010BDFCF75EBA000038B50B4B8469054686
:103BEC0003607CB16368013B63605BB9236820466A
:103BFC009B689847A368013BA3601BB923682046C8
:103C0C00DB689847284638BDD4860A0810B50446A8
:103C1C00FFF7E2FF20461C2101F003FC204610BDFB
:103C2C0070B5044606464D69044B8C3544F8043B8C
:103C3C000FCD0FC42B683046237070BD58870A080F
:103C4C0010B543690446B3F88620B3F884309A4221
:103C5C0005D06369B3F884201344187910BD036848
:103C6C001B6998470028F4D14FF0FF30F6E710B5E8
:103C7C0043690446B3F88620B3F884309A4208D0DE
:103C8C006369B3F88420511CA3F884101344187989
:103C9C0010BD03681B6998470028F1D14FF0FF3025
:103CAC00F6E7F8B543691746B3F88620B3F88430C5
:103CBC0005469A420E4616D069693046B1F88430F2
:103CCC00B1F88640E41ABC4228BF3C460433224675
:103CDC00194402F043FF6A69B2F884302344A2F815
:103CEC0084302046F8BD03681B6998470028E3D14F
:103CFC004FF0FF34F5E700234269A2F884304269A3
:103D0C00A2F88630704700002DE9F0431F46036887
:103D1C008BB0DB6A05460C4616469847384601F0D0
:103D2C0089FA0368DB689847002854D0334606228A
:103D3C00012102200097D5F81480FFF785FC202381
:103D4C00C8F800004FF00008CDE902386B6901207B
:103D5C001B6823490193234B02AA00934346FFF7A8
:103D6C001BFD6B691868FFF767FC002833D02846E9
:103D7C00FFF7C1FF0223ADF80830E37976BA8DF86E
:103D8C000C30A3794FF4FA508DF80D306379ADF8FF
:103D9C000A608DF80E3014F8043F8DF80F30FFF7E1
:103DAC00DBFC6B6906461022186802A9FFF754FC6D
:103DBC0081463046FFF7D0FC0FCC6E698C360FC6AF
:103DCC00236833702F61B9F1000F07D02B68284698
:103DDC00DB6A984740460BB0BDE8F0830120FAE758
:103DEC008C860A0893860A0838B542690446B2F8EC
:103DFC0086302BB1B2F884209A4201D1FFF77BFFB9
:103E0C00206901F017FA0368DB689847F8B1636919
:103E1C001868FFF711FCD0B16069B0F886107F29E3
:103E2C0015D8051DC1F18002002300682944FFF755
:103E3C001BFC00280BDD6369B3F886200AB9A3F8D4
:103E4C0084206369B3F886201044A3F88600636964
:103E5C00B3F88600B3F88430C01A38BD38B543695E
:103E6C0004461868FFF7E8FB18B163691868FFF798
:103E7C0003FC6569FFF708FC2860606911220021CA
:103E8C008C3002F079FE2046BDE83840FFF733BF96
:103E9C0010B5436904461868FFF7CEFB08B900203B
:103EAC0010BD206901F0C6F90368DB68984700284B
:103EBC00F5D063691868FFF7B7FBB0FA80F04009DA
:103ECC00EEE708B5FFF7E4FF003818BF012008BD86
:103EDC002DE9F3410027476004460D4616469846E7
:103EEC00FFF7D6FF70B1CDE9008760693B463246DB
:103EFC0029460068FFF7D0FB002800DA606002B0AA
:103F0C00BDE8F0814FF0FF30F8E770B50546FFF7DC
:103F1C00BFFFE8B96B69B3F88610B3F884209142FF
:103F2C0016D11868FFF788FB08B9002070BD6B69C3
:103F3C001868FFF779FB01280446F6D12B68284650
:103F4C001B69984730B92B682846DB6A9847ECE721
:103F5C000120EBE72046E9E7002310B50446016099
:103F6C00C0F88430883000F019FE204610BD0000E7
:103F7C00F8B54FF47A720023C0E901320D4A03619F
:103F8C00026043610446AC200E46FCF77EF8051E29
:103F9C0005F10C0708D00123C5E90133064B314666
:103FAC0038462B60FFF7D8FF2046C4E90575FFF7AC
:103FBC00A2FEF8BDD4860A08B0860A0810B50446DD
:103FCC00FFF762FB01462046FFF7D2FF204610BDEB
:103FDC0010B504460068FFF72FFB10B12068FFF7FF
:103FEC004BFB204610BD0C30FFF7F2BF2DE9F04320
:103FFC001F4603688FB0DB6A06460D46904698470D
:10400C00134801F0CAF8F0B102A800F0C7FD284629
:10401C0003F052FB002481B23B462846009403AACD
:10402C00FFF7A2FB90B9336809ADD3F82090094B88
:10403C0003AC08930FCC0FC5236842462B70304657
:10404C003B4608A9C8470FB0BDE8F0832046FAE705
:10405C001806002058870A082DE9F04707460D4638
:10406C0016461C46002200233846294601F020FF44
:10407C0020B12D2305F1004504F8013B00234FF03E
:10408C00010A0A22D9B28E4203D902FB0AFA013381
:10409C00F8E7504601F030FC3A462B4601F096FC0E
:1040AC008046894602F0AAFA05460F4601F058FCF4
:1040BC0002460B464046494601F0D0FA0022124B0C
:1040CC0001F00AFF10B1013547F1000752462846AE
:1040DC003946D31702F046FA0123154621460A2227
:1040EC00FFF7F7FC6EB1204603F0E6FA2E232118F9
:1040FC0023540A2233462846BDE8F0470131FFF726
:10410C00E8BCBDE8F08700BF0000E03F10B50446F6
:10411C000068FFF717FC204610BD10B50446006878
:10412C0008B1FFF70FFC0023C4E90133236010BD75
:10413C0038B504460D4600680131FFF70BFC10B191
:10414C00C4E90005012038BD10B50368044623B14D
:10415C0043688B4201D3012010BD2046FFF7E8FFD6
:10416C000028F9D0A368002BF5D122681370F2E770
:10417C0070B50E46114604461546FFF7E5FF20B90B
:10418C002046FFF7CAFF204670BD2A4631462068FC
:10419C00A56002F0E3FC00212268A368D154F2E789
:1041AC0038B5002304460D46C0E900338360037321
:1041BC0039B1084603F080FA294602462046FFF73B
:1041CC00D7FF204638BD38B5054600680C4668B1A7
:1041DC006A688B689A4207D3096802F003FDA368EA
:1041EC00AB600023A36038BDFFF7ACFB23682B60EA
:1041FC0063686B60A368AB600023C4E90033F1E72C
:10420C00884210B50B46044604D0096821B19A685F
:10421C00FFF7AEFF204610BDFFF77FFFFAE7002344
:10422C0010B50446C0E9003383600373FFF7E8FF61
:10423C00204610BD884210B5044601D0FFF7C3FFDD
:10424C00204610BD38B505460C4649B1084603F06A
:10425C0033FA214602462846FFF78AFF284638BD26
:10426C00FFF75BFFFAE71FB5044600230846C4E9D5
:10427C000033A360237301A9FFF76AFC204601A950
:10428C00FFF7E0FF204604B010BD10B50023044634
:10429C008AB0C4E90033A3602373084601A9FFF771
:1042AC0042FC204601A9FFF7CDFF20460AB010BD05
:1042BC0010B5002304468AB0C4E90033A36023730D
:1042CC00084601A9FFF744FC204601A9FFF7BAFFF5
:1042DC0020460AB010BD002330B504468BB0C0E9AF
:1042EC00003383600373D5B2084601F017FB2A46EE
:1042FC0001ABFFF7B1FE204601A9FFF7A3FF204653
:10430C000BB030BD70B505460E4609B9002070BD26
:10431C006AB1846814442146FFF716FF0028F5D0D3
:10432C002868AB683146184402F05CFCAC60012094
:10433C00EDE78A680968FFF7E5BF002307B501229E
:10434C008DF8041001A98DF80530FFF7DBFF03B0E1
:10435C005DF804FB13B50A22044608466946FFF7CC
:10436C00E2FB684603F0A8F9694602462046FFF7CF
:10437C00C9FF02B010BD10B58A6809680446FFF782
:10438C00C1FF10B92046FFF7C8FE204610BD38B556
:10439C0004460D4621B92046FFF7BFFE204638BD26
:1043AC00084603F089F9294602462046FFF7AAFF82
:1043BC000028F0D0F2E708B582683AB921B1087844
:1043CC00B0FA80F0400900E0012008BD006809B98E
:1043DC000078F5E702F0FCFBF2E70000F8B51D46AB
:1043EC009A4288BF13460F46144688BF2C460B4989
:1043FC0088BF1D460646FFF7D3FEBA68A2420AD311
:10440C003968AA4294BFC4EB0202C4EB05023046E1
:10441C002144FFF7ADFE3046F8BD00BF8C890A0879
:10442C0010B504468B68FFF7D9FF204610BD006815
:10443C0008B102F08BBA7047F8B506460D46002459
:10444C008F18BD420CD0336830469B6815F8011BA1
:10445C009847031E01DB1C44F3E7002C08BF1C46E5
:10446C002046F8BD70B505460C46084649B103F028
:10447C0023F92B68024621462846BDE87040DB68CC
:10448C00184770BD08B5FFF7EDFF08BD03689B68C2
:10449C00184738B50D210546FFF7F8FF0A210446E9
:1044AC002846FFF7F3FF204438BD38B50546FFF723
:1044BC00D9FF04462846FFF7ECFF204438BD002303
:1044CC00012A98BF0A2230B58BB00C468DF82430E7
:1044DC0009A92546B4FBF2F404FB1253DBB2092BF9
:1044EC0094BF30333733DBB2AA4201F8013DF0D927
:1044FC00FFF7B8FF0BB030BD2DE9F74F0546194655
:10450C00104692461F469DF8306001F0F9FC40B110
:10451C0050492846FFF7A6FF0446204603B0BDE8E5
:10452C00F08F27F000444FF0FF32504621464A4BA3
:10453C0001F0E6FC48B94FF0FF3250462146464B9D
:10454C0001F0C0FC08B94549E3E74FF06042504622
:10455C003946434B01F0CAFC08B14249D9E74FF048
:10456C00604250463946404B01F0A2FC0028F4D181
:10457C00002200235046394601F09AFC044630B123
:10458C002D212846FFF782FF044607F100474FF024
:10459C00000B00204FF000083449DFF8D8905FFA88
:1045AC008BF39E4206D942464B4601F039FB0BF188
:1045BC00010BF4E73B46524601F052F8894680461F
:1045CC0001F0DCFC074601F087F902460B46404639
:1045DC00494601F043F80A22804689462846394666
:1045EC00FFF76DFF044426B128462149FFF73AFF37
:1045FC0004444FF0000ADFF87CB0013EF6B2FF2E07
:10460C008BD052465B464046494601F0DFF9804666
:10461C00894601F08BFC071E19DA2D212846FFF77D
:10462C0035FF034679420A2228460193FFF747FFDC
:10463C00019B034438461C4401F05EF902460B46CC
:10464C004046494601F00AF880468946D5E7394686
:10465C000023E8E718870A08FFFFEF7F1C870A088A
:10466C00FFFFEF4120870A08FFFFEFC10000E03F8A
:10467C00B3840A080000244037B5054614460846A2
:10468C0001F04CF9E4B202460B4628460094FFF7C1
:10469C0033FF03B030BD37B59DF8181005460091B7
:1046AC00FFF72AFF04462846FFF7F3FE204403B029
:1046BC0030BD37B504460846154601F02FF9009574
:1046CC0002460B462046FFF7E6FF03B030BD002341
:1046DC0040681A461946FFF7C5B80000014B024A5C
:1046EC001A6070478805002024870A0808B5002046
:1046FC00FFF710F928B1FFF705F980F00100C0B2FF
:10470C0008BD0120FCE7000010B50A49044601F081
:10471C0001FF68B92046084901F01AFF40B9074962
:10472C00204601F059FD01F035FF054BC3E90001AE
:10473C0010BD00BF000040C1000060410000614599
:10474C00A005002030B50446184893B0D0E90010FD
:10475C00521840EB030316480025D0E900105218FC
:10476C0040EB0303CDE90023242200210DEB0200D2
:10477C0002F002FA09A9684602F0FAF81622294654
:10478C0003A8029502F0F8F902A909A802F0B8F8FA
:10479C0002A802F091FF12AB184400F8415C02A988
:1047AC002046FFF7FDFC204613B030BDA0050020CD
:1047BC00980500202DE9F04FA5B00746884614A8AF
:1047CC0011463F221D4602F091FF002314A88DF8DC
:1047DC008F3002F071FF04465DBB2A4903A802F03A
:1047EC0001FA002514AE04F1FF3BAB4536D9B146B6
:1047FC0019F8013B05F1010A252B17D173787A2B97
:10480C0014D103A802F058FF044614AB281818441E
:10481C00ABEB0502B11C02F0A1F9224603A930460C
:10482C0002F09CF914A802F047FF04464E46554688
:10483C00D9E73C2195FBF1F3002BB8BF5B42B3FBEE
:10484C00F1F201FB123300934FF46163102195FBDD
:10485C00F3F30D4A03A8FFF79DF8C2E700212E22BF
:10486C0008A8079102F088F9434614AA322107A838
:10487C0002F018FF384607A9FFF792FC384625B01E
:10488C00BDE8F08FA98C0A0828870A08F0B58DB00E
:10489C00129D0446CDE9002315B9194B1D682DB1A5
:1048AC00184B2846196802F093F938B9DDE9002352
:1048BC002046FFF747FF20460DB0F0BD0099124E81
:1048CC00124FD6E900325B18019941EB0202D7E98D
:1048DC0000011B1841EB0202CDE900320021242219
:1048EC0003A802F049F903A9684602F041F83268BE
:1048FC003B682046134403A92A46FFF75BFFDAE71F
:10490C009005002008000020A0050020980500203C
:10491C0010B50020FEF7D6FD0446A0B9FEF744FF03
:10492C00012810D12046FEF757FF60B9FFF7DEFED5
:10493C0010B9FEF7D7FFF9E7FFF7D8FEBDE8104036
:10494C000020FEF7BFBD204610BD1FB5FFF7E0FFEE
:10495C0010220021684602F00FF900216846FEF78C
:10496C00B9FD009805B05DF804FB0000024B1A6815
:10497C00024B1A60704700BF080000209005002011
:10498C000021FEF721BF10B58368044613B1032242
:10499C0001469847204610BD10B50446FFF7F3FFBB
:1049AC00204610BD00230348034A0449836000F0ED
:1049BC0033BD00BFA805002040020020A5490A080D
:1049CC00014B1860704700BF0C00002008B5134B5A
:1049DC0043B100F095F903681B699847002801DD85
:1049EC00AFF300800E4B43B100F03CFA03681B6937
:1049FC009847002801DDAFF300800A4B0BB1AFF3F1
:104A0C000080094B43B100F0ABF903681B69984770
:104A1C00002801DDAFF3008008BD00BF00000000DE
:104A2C0000000000000000000000000008B5FFF7C7
:104A3C00CDFFFEF73FFD014B186008BD200600209E
:104A4C000248034A0349121A02F088B80040024097
:104A5C0004400240188E0A08002307B51A466FF06E
:104A6C0077010093FEF7CAFE03B05DF804FB00006B
:104A7C0007B543880A2B08D0502B0BD1094B1B6868
:104A8C004BB103B05DF804EB1847FFF7E5FF03B03B
:104A9C005DF804FB00231A466FF077010093FEF7D4
:104AAC00ADFEF4E7BC05002038B5124C00211248CD
:104ABC00FEF790FF114D2368AB420CBF0122002280
:104ACC000F4B1A7002D0FFF7BBFF2560FEF7EAFC14
:104ADC00044602F059F80B4B13B12046AFF300809B
:104AEC0000210848FEF71EFFBDE8384000210648AB
:104AFC00FEF77ABE00400240CD490A081E1C279AD8
:104B0C00B8050020000000007D4A0A0810B588B0E6
:104B1C0004466846FFF744FB694604A8FFF77FFB91
:104B2C0004A8A047044604A8FFF7F0FA6846FFF76C
:104B3C00EDFA204608B010BD1FB500231024CDE9B6
:104B4C000201019269461A461846ADF80230ADF8DA
:104B5C000040FEF7BFFE04B010BD704710B5044610
:104B6C00182100F05EFC204610BDF8B50E4600245E
:104B7C0000F10807051D17F8011D0A223046FFF742
:104B8C009EFCAF42044401D12046F8BD002CF2D06B
:104B9C002E213046FFF77AFC0444ECE710B50446AE
:104BAC00044B1122002140F8043B01F0E5FF2046A4
:104BBC0010BD00BF58870A080346074A10B543F8D2
:104BCC00042B01F1100251F8044B914243F8044BB1
:104BDC00F9D10A781A7010BD58870A08024AC0E940
:104BEC00002104220275704758870A0810B59DF8F9
:104BFC00084044EA0324042344EA024444EA0164DE
:104C0C004460037510BD000037B5044D05609DF878
:104C1C0018500095FFF7EAFF03B030BD58870A081B
:104C2C0013B5CB7800938B784A780978FFF7DEFFC1
:104C3C0002B010BD10B50446024B0360FFF7F0FF45
:104C4C00204610BD58870A0841747047704708B554
:104C5C000021007CFEF768FD40EAE07008BD08B555
:104C6C000121007CFEF760FD40EAE07008BD08B54C
:104C7C00007CFEF751FD20EAE07008BD08B5007C11
:104C8C00FEF742FD20EAE07008BD38B50446007C12
:104C9C000D46FEF741FD002801DC607C28B1294659
:104CAC00207CFEF749FD20EAE07038BD007CFEF761
:104CBC004BBD10B50446142100F0B3FB204610BDCB
:104CCC0010B54FF47A73044608460021C4E9011369
:104CDC00044B20742360012311466374FEF704FD1A
:104CEC00204610BD6C870A080022007CFEF704BD2C
:104CFC0010B504461422002101F03EFF204610BDE1
:104D0C0030B50F4D87B001A8FFF7F2FF2978BFF33C
:104D1C005B8F11F0010410D12846FBF7BEF960B18E
:104D2C00214601AA0748FFF7CBFF2846FBF7BAF943
:104D3C00054A0649034800F06FFB024807B030BD36
:104D4C00C0050020C805002040020020594C0A086C
:104D5C0010B504461422002101F00EFF204610BDB0
:104D6C0010B50F4C86B001A8FFF7F2FF2378BFF304
:104D7C005B8FDB0710D42046FBF78FF960B1012164
:104D8C0001AA0848FFF79CFF2046FBF78BF9064A5F
:104D9C000649044800F040FB024806B010BD00BFB5
:104DAC00C4050020DC05002040020020594C0A08F4
:104DBC0070474174704708B5007CFEF7EBFB20EAA6
:104DCC00E07008BD08B5007CFEF7BCFB20EAE07083
:104DDC0008BD08B5007CFEF7C5FB40EAE07008BDD5
:104DEC0008B5007CFEF7B6FB40EAE07008BD007C1D
:104DFC00FEF7C0BB70B5467C04460D462EB1294665
:104E0C00207CBDE87040FEF795BB007CFEF7C2FB32
:104E1C000028F4DC304670BD10B50446142100F0B7
:104E2C0000FB204610BD00004FF0000C10B50446EE
:104E3C00084611464FF47A72C4E901C2044A207440
:104E4C002260012262741A46FEF76CFB204610BDEC
:104E5C009C870A080023007CFEF7A4BB0022FFF706
:104E6C00F9BF0000F8B51A4C26684EB98420FBF740
:104E7C000CF9054618B18422314601F07DFE2560FF
:104E8C00144D2F684FB98420FBF7FFF8064618B174
:104E9C008422394601F070FE2E600F4F3978BFF333
:104EAC005B8F11F0010611D13846FBF7F6F868B1AB
:104EBC00314622682B680948FFF7B6FF3846FBF7E6
:104ECC00F1F8074A0749054800F0A6FA0348F8BD6F
:104EDC00F4050020F8050020F0050020FC0500205A
:104EEC0040020020BD4D0A087047F8B5064615462D
:104EFC000C468F18BC4206D0336830469B6814F8B9
:104F0C00011B9847F6E72846F8BD0022007CFEF707
:104F1C0051BB0021007CFEF755BB0021007CFEF745
:104F2C0059BB0021007CFEF75DBB0021007CFEF725
:104F3C0061BB10B50446142100F073FA204610BD75
:104F4C0010B54FF47A73044608460021C4E90113E6
:104F5C00034B114623602074FEF75CFB204610BD0A
:104F6C00CC870A0870470120704700224068114620
:104F7C00FEF770BC10B50446242100F052FA20460E
:104F8C0010BDF0B5154689B011220E46044600211D
:104F9C0003A801F0F1FD284602F08EFB002781B238
:104FAC0073682846009703AAFEF7DEFB30B139463A
:104FBC002046FFF713FE204609B0F0BD204603A99A
:104FCC00FFF7FAFDF7E7002240681146FEF762BCD6
:104FDC00002240681146FEF76DBC00224068FEF7C7
:104FEC0061BC0022406881F00101FEF74BBC00233C
:104FFC0040681A461946FEF73DBC0022406811462F
:10500C00FEF718BC002202214068FEF71BBC0023EF
:10501C0040681A46FEF706BC08B583895BB1406947
:10502C00002808DB01F084F8044901F089F90449EF
:10503C0001F0D2F808BD0348FCE700BF00FF7F4732
:10504C000000C842000080BF08B583894BB10069DD
:10505C00B0F1004F05D001F06BF8034901F070F985
:10506C0008BD0020FCE700BF0000C84208B58389DA
:10507C005BB1006A002808DB01F05AF8044901F022
:10508C005FF9044901F0A8F808BD0348FCE700BF2C
:10509C0000FF7F470000C842000080BF08B583892D
:1050AC004BB18069B0F1004F05D001F041F80349D4
:1050BC0001F046F908BD0020FCE700BF0000C84223
:1050CC0090F90400704770B50C46064600F10C05CB
:1050DC000FCC0FC594E8030085E803003369012069
:1050EC00B3F1004F16BF6422022393FBF2F37360FB
:1050FC00B369B3F1004F16BF6422002393FBF2F3A4
:10510C00B36070BD2DE9F04100254FF00208182660
:10511C000F46144B32462946C0E9018586B0036020
:10512C0004460C3001F028FD2A4629467868FEF723
:10513C0091FB80B132462946684601F01DFD2A4696
:10514C0069462846ADF80060FEF71EFB38B9694683
:10515C002046FFF7B8FF204606B0BDE8F081C4F842
:10516C000480F8E728880A080422024B5A60024A95
:10517C001A60704710060020F4870A080023406864
:10518C001A46FEF74FBB002202214068FEF75ABBBD
:10519C00002240681146FEF74DBB002240681146C4
:1051AC00FEF758BB002340681A461946FEF75ABB57
:1051BC00002340681A461946FEF75CBB0022406883
:1051CC0081F00101FEF75EBB00224068FEF76ABB6E
:1051DC00002240681146FEF76DBB00224068114664
:1051EC00FEF758BB70B515468EB0044608A8FFF7FD
:1051FC00D5FC1122002103A801F0BEFC0026284694
:10520C0002F05AFA0A4B009681B25B68284603AA50
:10521C00FEF7AAFA30B131462046FFF7DFFC2046F4
:10522C000EB070BD204603A9FFF7C6FCF7E700BF20
:10523C0010060020034A044B042814BF10461846DD
:10524C00704700BF1806002010060020024B034ACE
:10525C001A6000225A607047180600204C880A0811
:10526C00172870B5044601D9002070BDA0F10D03BC
:10527C00022B0BD9012826D800F0A6F80021007CBF
:10528C00FEF7C0F980F00100C0B2EEE7134E3178A2
:10529C00BFF35B8F11F001050FD13046FAF7FDFE1D
:1052AC0058B129460E48FEF7A0FB3046FAF7FAFE35
:1052BC000C4A0D490A4800F0AFF8094B1878FEF774
:1052CC000BFA0028D0D1123C012C05D8FFF7CAFDEF
:1052DC00007CFEF757F9D5E70120C6E74402002011
:1052EC004802002040020020CB020A08172838B5DB
:1052FC0004460D460AD8FF2908D0FFF7B1FF28B1A4
:10530C0029462046BDE83840FEF7ACB838BD38B564
:10531C0004460D46FEF7AEF8FF2810D0062804D838
:10532C004D2323FA00F0C30709D42046FFF798FF5A
:10533C0028B129462046BDE83840FEF7A3B838BD51
:10534C0010B50446FEF796F8031FDBB2012B08D903
:10535C002046FFF785FF20B12046BDE81040FEF740
:10536C0099B8002010BD0000002313B5074C1A4655
:10537C00194620460093FFF747FC2046044A05498E
:10538C0002B0BDE8104000F047B800BF2406002072
:10539C0040020020674B0A08002370B5202543808B
:1053AC001423084E04460380314685600561284667
:1053BC0000F039F831466060284600F034F8E060BF
:1053CC00204670BD78880A0830B50F4D87B0297813
:1053DC00BFF35B8F11F0010413D12846FAF75DFE81
:1053EC0078B101A8FFF7D8FF214601AA0748FFF7BB
:1053FC00A7FD2846FAF756FE054A0649034800F071
:10540C000BF8024807B030BD3C06002040060020D7
:10541C0040020020F54E0A080B460146184601F0E2
:10542C0099BAFAF736BEFAF732BE0000014900F01D
:10543C00FBB800BF94880A087FB500241023CDE97F
:10544C000234036815469E6912686B4600948DF809
:10545C000440B0479DF8043003F00603062B09BF47
:10546C0001202046009B2B6004B070BD0098904238
:10547C0014BF01200620704710B50446024B036090
:10548C0000F0CFF8204610BDD4880A0810B50446A9
:10549C00FFF7F2FF20460821FFF7C3FF204610BD9F
:1054AC002DE9F041DDF818801F46DDE908349845F8
:1054BC000646154607D1079900F0B6F818B1657184
:1054CC000020BDE8F0813946304600F0ADF80028E8
:1054DC00F6D00123C4F800802571A371F0E738B52C
:1054EC0015461C4600F0A0F820B10823E360062303
:1054FC002560237138BD2DE9F04105460C46164652
:10550C001F4600F091F848B9032F07D8236832469C
:10551C0029462046BDE8F0415B691847BDE8F0819B
:10552C0010B50446024B0360FFF7A6FF204610BDE2
:10553C0034890A0810B50446FFF7F2FF20460C2107
:10554C00FFF76FFF204610BD2DE9F041DDF8188004
:10555C00064690450F4615461C460BD0B0682A46A9
:10556C000368CDF818801E6A39462346B446BDE858
:10557C00F0416047194600F057F80028EED006209D
:10558C00BDE8F0812DE9F14F0D46DDE90A4BDDE96F
:10559C000CA6194681461746984600F045F890B17E
:1055AC00002D3460377109DB2C44A2450CBF062456
:1055BC000124B471002001B0BDE8F08F0235F9D19F
:1055CC000123B371F6E7544506D15946484600F01D
:1055DC002BF808B17771EDE7D9F808003A46036863
:1055EC00CDE90CA6CDE90A4BDC6929464346A44615
:1055FC0001B0BDE8F04F60472DE9F04107460C467D
:10560C0015461E46FFF76BFF48B9B8682A46036873
:10561C0021469F693346BC46BDE8F0416047BDE872
:10562C00F081704700207047814208B50ED0406869
:10563C0003782A2B0CD049680B782A2B08BF013130
:10564C0001F0C6FAB0FA80F0400908BD0120FCE771
:10565C000020FAE781F0004102E000BF83F0004334
:10566C0030B54FEA41044FEA430594EA050F08BFF1
:10567C0090EA020F1FBF54EA000C55EA020C7FEAB5
:10568C00645C7FEA655C00F0E2804FEA5454D4EB32
:10569C005555B8BF6D420CDD2C4480EA020281EAFC
:1056AC00030382EA000083EA010180EA020281EA34
:1056BC000303362D88BF30BD11F0004F4FEA013186
:1056CC004FF4801C4CEA113102D0404261EB410195
:1056DC0013F0004F4FEA03334CEA133302D052421B
:1056EC0063EB430394EA050F00F0A780A4F10104D7
:1056FC00D5F1200E0DDB02FA0EFC22FA05F2801811
:10570C0041F1000103FA0EF2801843FA05F35941F6
:10571C000EE0A5F120050EF1200E012A03FA0EFC75
:10572C0028BF4CF0020C43FA05F3C01851EBE3719F
:10573C0001F0004507D54FF0000EDCF1000C7EEBBC
:10574C0000006EEB0101B1F5801F1BD3B1F5001FFA
:10575C000CD349085FEA30004FEA3C0C04F1010419
:10576C004FEA445212F5800F80F09A80BCF1004F42
:10577C0008BF5FEA500C50F1000041EB045141EAC4
:10578C00050130BD5FEA4C0C404141EB0101013C8D
:10579C0028BFB1F5801FE9D291F0000F04BF01467C
:1057AC000020B1FA81F308BF2033A3F10B03B3F14E
:1057BC0020020CDA0C3208DD02F1140CC2F10C02DE
:1057CC0001FA0CF021FA02F10CE002F11402D8BF3C
:1057DC00C2F1200C01FA02F120FA0CFCDCBF41EA08
:1057EC000C019040E41AA2BF01EB0451294330BDD7
:1057FC006FEA04041F3C1CDA0C340EDC04F11404B4
:10580C00C4F1200220FA04F001FA02F340EA03008A
:10581C0021FA04F345EA030130BDC4F10C04C4F1D0
:10582C00200220FA02F001FA04F340EA03002946B0
:10583C0030BD21FA04F0294630BD94F0000F83F4FA
:10584C00801306BF81F480110134013D4EE77FEADD
:10585C00645C18BF7FEA655C29D094EA050F08BF29
:10586C0090EA020F05D054EA000C04BF194610460A
:10587C0030BD91EA030F1EBF0021002030BD5FEA4E
:10588C00545C05D14000494128BF41F0004130BD76
:10589C0014F580043CBF01F5801130BD01F00045CA
:1058AC0045F0FE4141F470014FF0000030BD7FEA3D
:1058BC00645C1ABF194610467FEA655C1CBF0B4638
:1058CC00024650EA013406BF52EA033591EA030F4F
:1058DC0041F4002130BD00BF90F0000F04BF002147
:1058EC00704730B54FF4806404F132044FF000057A
:1058FC004FF0000150E700BF90F0000F04BF0021F3
:10590C00704730B54FF4806404F1320410F0004558
:10591C0048BF40424FF000013EE700BF42004FEA53
:10592C00E2014FEA31014FEA02701FBF12F07F43D0
:10593C0093F07F4F81F06051704732F07F4208BF87
:10594C00704793F07F4F04BF41F40021704730B58E
:10595C004FF4607401F0004521F000411CE700BFDA
:10596C0050EA010208BF704730B54FF000050AE05D
:10597C0050EA010208BF704730B511F0004502D55E
:10598C00404261EB41014FF4806404F132045FEA60
:10599C00915C3FF4D8AE4FF003025FEADC0C18BF09
:1059AC0003325FEADC0C18BF033202EBDC02C2F1FB
:1059BC00200300FA03FC20FA02F001FA03FE40EA8D
:1059CC000E0021FA02F11444BDE600BF70B54FF091
:1059DC00FF0C4CF4E06C1CEA11541DBF1CEA13556F
:1059EC0094EA0C0F95EA0C0F00F0DEF82C4481EAD7
:1059FC00030621EA4C5123EA4C5350EA013518BFF7
:105A0C0052EA033541F4801143F4801338D0A0FBE3
:105A1C0002CE4FF00005E1FB02E506F00042E0FB90
:105A2C0003E54FF00006E1FB03569CF0000F18BF96
:105A3C004EF0010EA4F1FF04B6F5007F64F540743E
:105A4C0004D25FEA4E0E6D4146EB060642EAC621D1
:105A5C0041EA55514FEAC52040EA5E504FEACE2E3E
:105A6C00B4F1FD0C88BFBCF5E06F1ED8BEF1004F41
:105A7C0008BF5FEA500E50F1000041EB045170BDBD
:105A8C0006F0004646EA010140EA020081EA030101
:105A9C00B4EB5C04C2BFD4EB0C0541EA045170BDFD
:105AAC0041F480114FF0000E013C00F3AB8014F177
:105ABC00360FDEBF002001F0004170BDC4F10004C0
:105ACC00203C35DA0C341BDC04F11404C4F1200541
